{
  "address": "0xe7f1725E7734CE288F8367e1Bb143E90bb3F0512",
  "abi": [
    {
      "inputs": [],
      "stateMutability": "nonpayable",
      "type": "constructor"
    },
    {
      "anonymous": false,
      "inputs": [
        {
          "indexed": true,
          "internalType": "address",
          "name": "owner",
          "type": "address"
        },
        {
          "indexed": true,
          "internalType": "address",
          "name": "approved",
          "type": "address"
        },
        {
          "indexed": true,
          "internalType": "uint256",
          "name": "tokenId",
          "type": "uint256"
        }
      ],
      "name": "Approval",
      "type": "event"
    },
    {
      "anonymous": false,
      "inputs": [
        {
          "indexed": true,
          "internalType": "address",
          "name": "owner",
          "type": "address"
        },
        {
          "indexed": true,
          "internalType": "address",
          "name": "operator",
          "type": "address"
        },
        {
          "indexed": false,
          "internalType": "bool",
          "name": "approved",
          "type": "bool"
        }
      ],
      "name": "ApprovalForAll",
      "type": "event"
    },
    {
      "anonymous": false,
      "inputs": [
        {
          "indexed": true,
          "internalType": "address",
          "name": "previousOwner",
          "type": "address"
        },
        {
          "indexed": true,
          "internalType": "address",
          "name": "newOwner",
          "type": "address"
        }
      ],
      "name": "OwnershipTransferred",
      "type": "event"
    },
    {
      "anonymous": false,
      "inputs": [
        {
          "indexed": true,
          "internalType": "address",
          "name": "from",
          "type": "address"
        },
        {
          "indexed": true,
          "internalType": "address",
          "name": "to",
          "type": "address"
        },
        {
          "indexed": true,
          "internalType": "uint256",
          "name": "tokenId",
          "type": "uint256"
        }
      ],
      "name": "Transfer",
      "type": "event"
    },
    {
      "inputs": [
        {
          "internalType": "uint256",
          "name": "",
          "type": "uint256"
        }
      ],
      "name": "_madlibs",
      "outputs": [
        {
          "internalType": "uint256",
          "name": "id",
          "type": "uint256"
        },
        {
          "internalType": "string",
          "name": "text",
          "type": "string"
        },
        {
          "internalType": "uint8",
          "name": "nBlanks",
          "type": "uint8"
        },
        {
          "internalType": "bool",
          "name": "closed",
          "type": "bool"
        }
      ],
      "stateMutability": "view",
      "type": "function"
    },
    {
      "inputs": [],
      "name": "_maxVotes",
      "outputs": [
        {
          "internalType": "uint8",
          "name": "",
          "type": "uint8"
        }
      ],
      "stateMutability": "view",
      "type": "function"
    },
    {
      "inputs": [
        {
          "internalType": "string[]",
          "name": "_words",
          "type": "string[]"
        }
      ],
      "name": "addProposal",
      "outputs": [],
      "stateMutability": "nonpayable",
      "type": "function"
    },
    {
      "inputs": [
        {
          "internalType": "address",
          "name": "to",
          "type": "address"
        },
        {
          "internalType": "uint256",
          "name": "tokenId",
          "type": "uint256"
        }
      ],
      "name": "approve",
      "outputs": [],
      "stateMutability": "nonpayable",
      "type": "function"
    },
    {
      "inputs": [
        {
          "internalType": "address",
          "name": "owner",
          "type": "address"
        }
      ],
      "name": "balanceOf",
      "outputs": [
        {
          "internalType": "uint256",
          "name": "",
          "type": "uint256"
        }
      ],
      "stateMutability": "view",
      "type": "function"
    },
    {
      "inputs": [
        {
          "internalType": "uint256",
          "name": "_id",
          "type": "uint256"
        }
      ],
      "name": "closeMadLib",
      "outputs": [],
      "stateMutability": "nonpayable",
      "type": "function"
    },
    {
      "inputs": [
        {
          "internalType": "uint256",
          "name": "tokenId",
          "type": "uint256"
        }
      ],
      "name": "getApproved",
      "outputs": [
        {
          "internalType": "address",
          "name": "",
          "type": "address"
        }
      ],
      "stateMutability": "view",
      "type": "function"
    },
    {
      "inputs": [
        {
          "internalType": "uint256",
          "name": "_id",
          "type": "uint256"
        }
      ],
      "name": "getBestProposal",
      "outputs": [
        {
          "internalType": "string[]",
          "name": "",
          "type": "string[]"
        }
      ],
      "stateMutability": "view",
      "type": "function"
    },
    {
      "inputs": [
        {
          "internalType": "uint256",
          "name": "_id",
          "type": "uint256"
        },
        {
          "internalType": "uint256",
          "name": "_idProposal",
          "type": "uint256"
        }
      ],
      "name": "getProposal",
      "outputs": [
        {
          "components": [
            {
              "internalType": "string[]",
              "name": "words",
              "type": "string[]"
            },
            {
              "internalType": "uint256",
              "name": "countVotes",
              "type": "uint256"
            },
            {
              "internalType": "address",
              "name": "proposer",
              "type": "address"
            }
          ],
          "internalType": "struct MadLibs.Proposal",
          "name": "",
          "type": "tuple"
        }
      ],
      "stateMutability": "view",
      "type": "function"
    },
    {
      "inputs": [
        {
          "internalType": "uint256",
          "name": "_id",
          "type": "uint256"
        }
      ],
      "name": "getProposals",
      "outputs": [
        {
          "components": [
            {
              "internalType": "string[]",
              "name": "words",
              "type": "string[]"
            },
            {
              "internalType": "uint256",
              "name": "countVotes",
              "type": "uint256"
            },
            {
              "internalType": "address",
              "name": "proposer",
              "type": "address"
            }
          ],
          "internalType": "struct MadLibs.Proposal[]",
          "name": "",
          "type": "tuple[]"
        }
      ],
      "stateMutability": "view",
      "type": "function"
    },
    {
      "inputs": [
        {
          "internalType": "address",
          "name": "owner",
          "type": "address"
        },
        {
          "internalType": "address",
          "name": "operator",
          "type": "address"
        }
      ],
      "name": "isApprovedForAll",
      "outputs": [
        {
          "internalType": "bool",
          "name": "",
          "type": "bool"
        }
      ],
      "stateMutability": "view",
      "type": "function"
    },
    {
      "inputs": [
        {
          "internalType": "string",
          "name": "_text",
          "type": "string"
        },
        {
          "internalType": "uint8",
          "name": "_nBlanks",
          "type": "uint8"
        }
      ],
      "name": "mintItem",
      "outputs": [
        {
          "internalType": "uint256",
          "name": "",
          "type": "uint256"
        }
      ],
      "stateMutability": "payable",
      "type": "function"
    },
    {
      "inputs": [],
      "name": "name",
      "outputs": [
        {
          "internalType": "string",
          "name": "",
          "type": "string"
        }
      ],
      "stateMutability": "view",
      "type": "function"
    },
    {
      "inputs": [],
      "name": "owner",
      "outputs": [
        {
          "internalType": "address",
          "name": "",
          "type": "address"
        }
      ],
      "stateMutability": "view",
      "type": "function"
    },
    {
      "inputs": [
        {
          "internalType": "uint256",
          "name": "tokenId",
          "type": "uint256"
        }
      ],
      "name": "ownerOf",
      "outputs": [
        {
          "internalType": "address",
          "name": "",
          "type": "address"
        }
      ],
      "stateMutability": "view",
      "type": "function"
    },
    {
      "inputs": [],
      "name": "price",
      "outputs": [
        {
          "internalType": "uint256",
          "name": "",
          "type": "uint256"
        }
      ],
      "stateMutability": "view",
      "type": "function"
    },
    {
      "inputs": [],
      "name": "recipient",
      "outputs": [
        {
          "internalType": "address payable",
          "name": "",
          "type": "address"
        }
      ],
      "stateMutability": "view",
      "type": "function"
    },
    {
      "inputs": [],
      "name": "renounceOwnership",
      "outputs": [],
      "stateMutability": "nonpayable",
      "type": "function"
    },
    {
      "inputs": [
        {
          "internalType": "address",
          "name": "from",
          "type": "address"
        },
        {
          "internalType": "address",
          "name": "to",
          "type": "address"
        },
        {
          "internalType": "uint256",
          "name": "tokenId",
          "type": "uint256"
        }
      ],
      "name": "safeTransferFrom",
      "outputs": [],
      "stateMutability": "nonpayable",
      "type": "function"
    },
    {
      "inputs": [
        {
          "internalType": "address",
          "name": "from",
          "type": "address"
        },
        {
          "internalType": "address",
          "name": "to",
          "type": "address"
        },
        {
          "internalType": "uint256",
          "name": "tokenId",
          "type": "uint256"
        },
        {
          "internalType": "bytes",
          "name": "_data",
          "type": "bytes"
        }
      ],
      "name": "safeTransferFrom",
      "outputs": [],
      "stateMutability": "nonpayable",
      "type": "function"
    },
    {
      "inputs": [
        {
          "internalType": "address",
          "name": "operator",
          "type": "address"
        },
        {
          "internalType": "bool",
          "name": "approved",
          "type": "bool"
        }
      ],
      "name": "setApprovalForAll",
      "outputs": [],
      "stateMutability": "nonpayable",
      "type": "function"
    },
    {
      "inputs": [
        {
          "internalType": "bytes4",
          "name": "interfaceId",
          "type": "bytes4"
        }
      ],
      "name": "supportsInterface",
      "outputs": [
        {
          "internalType": "bool",
          "name": "",
          "type": "bool"
        }
      ],
      "stateMutability": "view",
      "type": "function"
    },
    {
      "inputs": [],
      "name": "symbol",
      "outputs": [
        {
          "internalType": "string",
          "name": "",
          "type": "string"
        }
      ],
      "stateMutability": "view",
      "type": "function"
    },
    {
      "inputs": [
        {
          "internalType": "uint256",
          "name": "index",
          "type": "uint256"
        }
      ],
      "name": "tokenByIndex",
      "outputs": [
        {
          "internalType": "uint256",
          "name": "",
          "type": "uint256"
        }
      ],
      "stateMutability": "view",
      "type": "function"
    },
    {
      "inputs": [
        {
          "internalType": "address",
          "name": "owner",
          "type": "address"
        },
        {
          "internalType": "uint256",
          "name": "index",
          "type": "uint256"
        }
      ],
      "name": "tokenOfOwnerByIndex",
      "outputs": [
        {
          "internalType": "uint256",
          "name": "",
          "type": "uint256"
        }
      ],
      "stateMutability": "view",
      "type": "function"
    },
    {
      "inputs": [
        {
          "internalType": "uint256",
          "name": "_id",
          "type": "uint256"
        }
      ],
      "name": "tokenURI",
      "outputs": [
        {
          "internalType": "string",
          "name": "",
          "type": "string"
        }
      ],
      "stateMutability": "view",
      "type": "function"
    },
    {
      "inputs": [],
      "name": "totalSupply",
      "outputs": [
        {
          "internalType": "uint256",
          "name": "",
          "type": "uint256"
        }
      ],
      "stateMutability": "view",
      "type": "function"
    },
    {
      "inputs": [
        {
          "internalType": "address",
          "name": "from",
          "type": "address"
        },
        {
          "internalType": "address",
          "name": "to",
          "type": "address"
        },
        {
          "internalType": "uint256",
          "name": "tokenId",
          "type": "uint256"
        }
      ],
      "name": "transferFrom",
      "outputs": [],
      "stateMutability": "nonpayable",
      "type": "function"
    },
    {
      "inputs": [
        {
          "internalType": "address",
          "name": "newOwner",
          "type": "address"
        }
      ],
      "name": "transferOwnership",
      "outputs": [],
      "stateMutability": "nonpayable",
      "type": "function"
    },
    {
      "inputs": [
        {
          "internalType": "uint256",
          "name": "_idProposal",
          "type": "uint256"
        }
      ],
      "name": "voteProposal",
      "outputs": [],
      "stateMutability": "nonpayable",
      "type": "function"
    }
  ],
  "transactionHash": "0x4db446e4468ec02d03c3954e991b6fda069423ee91f7abda95483a99373fd71e",
  "args": [],
  "solcInputHash": "950a0db6a1a3326f587dc71747da1dc8",
  "bytecode": "0x60806040526063600c60006101000a81548160ff021916908360ff16021790555066038d7ea4c68000600e553480156200003857600080fd5b506040518060400160405280600f81526020017f4d61644c696273206f6e436861696e00000000000000000000000000000000008152506040518060400160405280600381526020017f4d4c4300000000000000000000000000000000000000000000000000000000008152508160009080519060200190620000bd929190620001cd565b508060019080519060200190620000d6929190620001cd565b505050620000f9620000ed620000ff60201b60201c565b6200010760201b60201c565b620002e2565b600033905090565b6000600a60009054906101000a900473ffffffffffffffffffffffffffffffffffffffff16905081600a60006101000a81548173ffffffffffffffffffffffffffffffffffffffff021916908373ffffffffffffffffffffffffffffffffffffffff1602179055508173ffffffffffffffffffffffffffffffffffffffff168173ffffffffffffffffffffffffffffffffffffffff167f8be0079c531659141344cd1fd0a4f28419497f9722a3daafe3b4186f6b6457e060405160405180910390a35050565b828054620001db906200027d565b90600052602060002090601f016020900481019282620001ff57600085556200024b565b82601f106200021a57805160ff19168380011785556200024b565b828001600101855582156200024b579182015b828111156200024a5782518255916020019190600101906200022d565b5b5090506200025a91906200025e565b5090565b5b80821115620002795760008160009055506001016200025f565b5090565b600060028204905060018216806200029657607f821691505b60208210811415620002ad57620002ac620002b3565b5b50919050565b7f4e487b7100000000000000000000000000000000000000000000000000000000600052602260045260246000fd5b6159de80620002f26000396000f3fe6080604052600436106101cd5760003560e01c8063715018a6116100f7578063aba2100911610095578063c87b56dd11610064578063c87b56dd146106ca578063d06ff53114610707578063e985e9c514610730578063f2fde38b1461076d576101cd565b8063aba2100914610610578063aed50f8f1461064d578063b489ce7114610678578063b88d4fde146106a1576101cd565b806392b4d6cd116100d157806392b4d6cd1461055157806395d89b4114610591578063a035b1fe146105bc578063a22cb465146105e7576101cd565b8063715018a6146104e6578063807896d5146104fd5780638da5cb5b14610526576101cd565b8063253eb1e01161016f5780634f6ccce71161013e5780634f6ccce7146104045780636352211e1461044157806366d003ac1461047e57806370a08231146104a9576101cd565b8063253eb1e0146103315780632c72fdfc146103615780632f745c591461039e57806342842e0e146103db576101cd565b8063095ea7b3116101ab578063095ea7b3146102775780630a7c405f146102a057806318160ddd146102dd57806323b872dd14610308576101cd565b806301ffc9a7146101d257806306fdde031461020f578063081812fc1461023a575b600080fd5b3480156101de57600080fd5b506101f960048036038101906101f49190613d38565b610796565b6040516102069190614846565b60405180910390f35b34801561021b57600080fd5b50610224610810565b6040516102319190614883565b60405180910390f35b34801561024657600080fd5b50610261600480360381019061025c9190613e1f565b6108a2565b60405161026e9190614750565b60405180910390f35b34801561028357600080fd5b5061029e60048036038101906102999190613c92565b610927565b005b3480156102ac57600080fd5b506102c760048036038101906102c29190613e1f565b610a3f565b6040516102d491906147d2565b60405180910390f35b3480156102e957600080fd5b506102f2610d54565b6040516102ff9190614c6c565b60405180910390f35b34801561031457600080fd5b5061032f600480360381019061032a9190613b8c565b610d61565b005b61034b60048036038101906103469190613dcb565b610dc1565b6040516103589190614c6c565b60405180910390f35b34801561036d57600080fd5b5061038860048036038101906103839190613e1f565b610fe8565b6040516103959190614824565b60405180910390f35b3480156103aa57600080fd5b506103c560048036038101906103c09190613c92565b6111cb565b6040516103d29190614c6c565b60405180910390f35b3480156103e757600080fd5b5061040260048036038101906103fd9190613b8c565b611270565b005b34801561041057600080fd5b5061042b60048036038101906104269190613e1f565b611290565b6040516104389190614c6c565b60405180910390f35b34801561044d57600080fd5b5061046860048036038101906104639190613e1f565b611327565b6040516104759190614750565b60405180910390f35b34801561048a57600080fd5b506104936113d9565b6040516104a0919061476b565b60405180910390f35b3480156104b557600080fd5b506104d060048036038101906104cb9190613b27565b6113f1565b6040516104dd9190614c6c565b60405180910390f35b3480156104f257600080fd5b506104fb6114a9565b005b34801561050957600080fd5b50610524600480360381019061051f9190613e1f565b611531565b005b34801561053257600080fd5b5061053b611836565b6040516105489190614750565b60405180910390f35b34801561055d57600080fd5b5061057860048036038101906105739190613e1f565b611860565b6040516105889493929190614cc5565b60405180910390f35b34801561059d57600080fd5b506105a6611942565b6040516105b39190614883565b60405180910390f35b3480156105c857600080fd5b506105d16119d4565b6040516105de9190614c6c565b60405180910390f35b3480156105f357600080fd5b5061060e60048036038101906106099190613c56565b6119da565b005b34801561061c57600080fd5b5061063760048036038101906106329190613e71565b611b5b565b6040516106449190614c4a565b60405180910390f35b34801561065957600080fd5b50610662611d40565b60405161066f9190614d11565b60405180910390f35b34801561068457600080fd5b5061069f600480360381019061069a9190613cce565b611d53565b005b3480156106ad57600080fd5b506106c860048036038101906106c39190613bdb565b612113565b005b3480156106d657600080fd5b506106f160048036038101906106ec9190613e1f565b612175565b6040516106fe9190614883565b60405180910390f35b34801561071357600080fd5b5061072e60048036038101906107299190613e1f565b6122a8565b005b34801561073c57600080fd5b5061075760048036038101906107529190613b50565b61266b565b6040516107649190614846565b60405180910390f35b34801561077957600080fd5b50610794600480360381019061078f9190613b27565b6126ff565b005b60007f780e9d63000000000000000000000000000000000000000000000000000000007bffffffffffffffffffffffffffffffffffffffffffffffffffffffff1916827bffffffffffffffffffffffffffffffffffffffffffffffffffffffff191614806108095750610808826127f7565b5b9050919050565b60606000805461081f90615076565b80601f016020809104026020016040519081016040528092919081815260200182805461084b90615076565b80156108985780601f1061086d57610100808354040283529160200191610898565b820191906000526020600020905b81548152906001019060200180831161087b57829003601f168201915b5050505050905090565b60006108ad826128d9565b6108ec576040517f08c379a00000000000000000000000000000000000000000000000000000000081526004016108e390614b2a565b60405180910390fd5b6004600083815260200190815260200160002060009054906101000a900473ffffffffffffffffffffffffffffffffffffffff169050919050565b600061093282611327565b90508073ffffffffffffffffffffffffffffffffffffffff168373ffffffffffffffffffffffffffffffffffffffff1614156109a3576040517f08c379a000000000000000000000000000000000000000000000000000000000815260040161099a90614baa565b60405180910390fd5b8073ffffffffffffffffffffffffffffffffffffffff166109c2612945565b73ffffffffffffffffffffffffffffffffffffffff1614806109f157506109f0816109eb612945565b61266b565b5b610a30576040517f08c379a0000000000000000000000000000000000000000000000000000000008152600401610a2790614a6a565b60405180910390fd5b610a3a838361294d565b505050565b606060008060005b600d8581548110610a81577f4e487b7100000000000000000000000000000000000000000000000000000000600052603260045260246000fd5b906000526020600020906007020160030180549050811015610be65782600d8681548110610ad8577f4e487b7100000000000000000000000000000000000000000000000000000000600052603260045260246000fd5b90600052602060002090600702016003018281548110610b21577f4e487b7100000000000000000000000000000000000000000000000000000000600052603260045260246000fd5b90600052602060002090600302016001015410610bd357600d8581548110610b72577f4e487b7100000000000000000000000000000000000000000000000000000000600052603260045260246000fd5b90600052602060002090600702016003018181548110610bbb577f4e487b7100000000000000000000000000000000000000000000000000000000600052603260045260246000fd5b90600052602060002090600302016001015492508091505b8080610bde906150d9565b915050610a47565b50600d8481548110610c21577f4e487b7100000000000000000000000000000000000000000000000000000000600052603260045260246000fd5b90600052602060002090600702016003018181548110610c6a577f4e487b7100000000000000000000000000000000000000000000000000000000600052603260045260246000fd5b9060005260206000209060030201600001805480602002602001604051908101604052809291908181526020016000905b82821015610d47578382906000526020600020018054610cba90615076565b80601f0160208091040260200160405190810160405280929190818152602001828054610ce690615076565b8015610d335780601f10610d0857610100808354040283529160200191610d33565b820191906000526020600020905b815481529060010190602001808311610d1657829003601f168201915b505050505081526020019060010190610c9b565b5050505092505050919050565b6000600880549050905090565b610d72610d6c612945565b82612a06565b610db1576040517f08c379a0000000000000000000000000000000000000000000000000000000008152600401610da890614bea565b60405180910390fd5b610dbc838383612ae4565b505050565b6000600d80549050600014610e7a57600d6001600d80549050610de49190614f49565b81548110610e1b577f4e487b7100000000000000000000000000000000000000000000000000000000600052603260045260246000fd5b906000526020600020906007020160060160009054906101000a900460ff16610e79576040517f08c379a0000000000000000000000000000000000000000000000000000000008152600401610e709061498a565b60405180910390fd5b5b6101c2735FbDB2315678afecb367f032d93F642f64180aa363367bbd78856040518263ffffffff1660e01b8152600401610eb49190614861565b60206040518083038186803b158015610ecc57600080fd5b505af4158015610ee0573d6000803e3d6000fd5b505050506040513d601f19601f82011682018060405250810190610f049190613e48565b1115610f45576040517f08c379a0000000000000000000000000000000000000000000000000000000008152600401610f3c90614c2a565b60405180910390fd5b6000610f51600b612d40565b9050610f5d3382612d4e565b6000600d600181600181540180825580915050039060005260206000209060070201905081816000018190555084816001019080519060200190610fa29291906136f9565b50838160020160006101000a81548160ff021916908360ff16021790555060008160060160006101000a81548160ff021916908315150217905550819250505092915050565b6060600d8281548110611024577f4e487b7100000000000000000000000000000000000000000000000000000000600052603260045260246000fd5b9060005260206000209060070201600301805480602002602001604051908101604052809291908181526020016000905b828210156111c0578382906000526020600020906003020160405180606001604052908160008201805480602002602001604051908101604052809291908181526020016000905b828210156111495783829060005260206000200180546110bc90615076565b80601f01602080910402602001604051908101604052809291908181526020018280546110e890615076565b80156111355780601f1061110a57610100808354040283529160200191611135565b820191906000526020600020905b81548152906001019060200180831161111857829003601f168201915b50505050508152602001906001019061109d565b505050508152602001600182015481526020016002820160009054906101000a900473ffffffffffffffffffffffffffffffffffffffff1673ffffffffffffffffffffffffffffffffffffffff1673ffffffffffffffffffffffffffffffffffffffff168152505081526020019060010190611055565b505050509050919050565b60006111d6836113f1565b8210611217576040517f08c379a000000000000000000000000000000000000000000000000000000000815260040161120e9061490a565b60405180910390fd5b600660008473ffffffffffffffffffffffffffffffffffffffff1673ffffffffffffffffffffffffffffffffffffffff168152602001908152602001600020600083815260200190815260200160002054905092915050565b61128b83838360405180602001604052806000815250612113565b505050565b600061129a610d54565b82106112db576040517f08c379a00000000000000000000000000000000000000000000000000000000081526004016112d290614c0a565b60405180910390fd5b60088281548110611315577f4e487b7100000000000000000000000000000000000000000000000000000000600052603260045260246000fd5b90600052602060002001549050919050565b6000806002600084815260200190815260200160002060009054906101000a900473ffffffffffffffffffffffffffffffffffffffff169050600073ffffffffffffffffffffffffffffffffffffffff168173ffffffffffffffffffffffffffffffffffffffff1614156113d0576040517f08c379a00000000000000000000000000000000000000000000000000000000081526004016113c790614aaa565b60405180910390fd5b80915050919050565b73a81a6a910fed20374361b35c451a4a44f86ced4681565b60008073ffffffffffffffffffffffffffffffffffffffff168273ffffffffffffffffffffffffffffffffffffffff161415611462576040517f08c379a000000000000000000000000000000000000000000000000000000000815260040161145990614a8a565b60405180910390fd5b600360008373ffffffffffffffffffffffffffffffffffffffff1673ffffffffffffffffffffffffffffffffffffffff168152602001908152602001600020549050919050565b6114b1612945565b73ffffffffffffffffffffffffffffffffffffffff166114cf611836565b73ffffffffffffffffffffffffffffffffffffffff1614611525576040517f08c379a000000000000000000000000000000000000000000000000000000000815260040161151c90614b4a565b60405180910390fd5b61152f6000612f1c565b565b600061153d600b612d40565b905060001515600d828154811061157d577f4e487b7100000000000000000000000000000000000000000000000000000000600052603260045260246000fd5b906000526020600020906007020160060160009054906101000a900460ff161515146115de576040517f08c379a00000000000000000000000000000000000000000000000000000000081526004016115d590614bca565b60405180910390fd5b600c60009054906101000a900460ff1660ff16600d828154811061162b577f4e487b7100000000000000000000000000000000000000000000000000000000600052603260045260246000fd5b906000526020600020906007020160050160003373ffffffffffffffffffffffffffffffffffffffff1673ffffffffffffffffffffffffffffffffffffffff16815260200190815260200160002060009054906101000a900460ff1660ff16106116ca576040517f08c379a00000000000000000000000000000000000000000000000000000000081526004016116c1906148ea565b60405180910390fd5b600d8181548110611704577f4e487b7100000000000000000000000000000000000000000000000000000000600052603260045260246000fd5b906000526020600020906007020160050160003373ffffffffffffffffffffffffffffffffffffffff1673ffffffffffffffffffffffffffffffffffffffff168152602001908152602001600020600081819054906101000a900460ff168092919061176f90615122565b91906101000a81548160ff021916908360ff16021790555050600d81815481106117c2577f4e487b7100000000000000000000000000000000000000000000000000000000600052603260045260246000fd5b9060005260206000209060070201600301828154811061180b577f4e487b7100000000000000000000000000000000000000000000000000000000600052603260045260246000fd5b9060005260206000209060030201600101600081548092919061182d906150d9565b91905055505050565b6000600a60009054906101000a900473ffffffffffffffffffffffffffffffffffffffff16905090565b600d818154811061187057600080fd5b906000526020600020906007020160009150905080600001549080600101805461189990615076565b80601f01602080910402602001604051908101604052809291908181526020018280546118c590615076565b80156119125780601f106118e757610100808354040283529160200191611912565b820191906000526020600020905b8154815290600101906020018083116118f557829003601f168201915b5050505050908060020160009054906101000a900460ff16908060060160009054906101000a900460ff16905084565b60606001805461195190615076565b80601f016020809104026020016040519081016040528092919081815260200182805461197d90615076565b80156119ca5780601f1061199f576101008083540402835291602001916119ca565b820191906000526020600020905b8154815290600101906020018083116119ad57829003601f168201915b5050505050905090565b600e5481565b6119e2612945565b73ffffffffffffffffffffffffffffffffffffffff168273ffffffffffffffffffffffffffffffffffffffff161415611a50576040517f08c379a0000000000000000000000000000000000000000000000000000000008152600401611a47906149ca565b60405180910390fd5b8060056000611a5d612945565b73ffffffffffffffffffffffffffffffffffffffff1673ffffffffffffffffffffffffffffffffffffffff16815260200190815260200160002060008473ffffffffffffffffffffffffffffffffffffffff1673ffffffffffffffffffffffffffffffffffffffff16815260200190815260200160002060006101000a81548160ff0219169083151502179055508173ffffffffffffffffffffffffffffffffffffffff16611b0a612945565b73ffffffffffffffffffffffffffffffffffffffff167f17307eab39ab6107e8899845ad3d59bd9653f200f220920489ca2b5937696c3183604051611b4f9190614846565b60405180910390a35050565b611b6361377f565b600d8381548110611b9d577f4e487b7100000000000000000000000000000000000000000000000000000000600052603260045260246000fd5b90600052602060002090600702016003018281548110611be6577f4e487b7100000000000000000000000000000000000000000000000000000000600052603260045260246000fd5b906000526020600020906003020160405180606001604052908160008201805480602002602001604051908101604052809291908181526020016000905b82821015611cd0578382906000526020600020018054611c4390615076565b80601f0160208091040260200160405190810160405280929190818152602001828054611c6f90615076565b8015611cbc5780601f10611c9157610100808354040283529160200191611cbc565b820191906000526020600020905b815481529060010190602001808311611c9f57829003601f168201915b505050505081526020019060010190611c24565b505050508152602001600182015481526020016002820160009054906101000a900473ffffffffffffffffffffffffffffffffffffffff1673ffffffffffffffffffffffffffffffffffffffff1673ffffffffffffffffffffffffffffffffffffffff1681525050905092915050565b600c60009054906101000a900460ff1681565b6000611d5f600b612d40565b905060001515600d8281548110611d9f577f4e487b7100000000000000000000000000000000000000000000000000000000600052603260045260246000fd5b906000526020600020906007020160040160003373ffffffffffffffffffffffffffffffffffffffff1673ffffffffffffffffffffffffffffffffffffffff16815260200190815260200160002060009054906101000a900460ff16151514611e3d576040517f08c379a0000000000000000000000000000000000000000000000000000000008152600401611e3490614aca565b60405180910390fd5b600d8181548110611e77577f4e487b7100000000000000000000000000000000000000000000000000000000600052603260045260246000fd5b906000526020600020906007020160020160009054906101000a900460ff1660ff16825114611edb576040517f08c379a0000000000000000000000000000000000000000000000000000000008152600401611ed290614a2a565b60405180910390fd5b735FbDB2315678afecb367f032d93F642f64180aa3633f0cb6088360236040518363ffffffff1660e01b8152600401611f159291906147f4565b60206040518083038186803b158015611f2d57600080fd5b505af4158015611f41573d6000803e3d6000fd5b505050506040513d601f19601f82011682018060405250810190611f659190613d0f565b611fa4576040517f08c379a0000000000000000000000000000000000000000000000000000000008152600401611f9b90614aea565b60405180910390fd5b6001600d8281548110611fe0577f4e487b7100000000000000000000000000000000000000000000000000000000600052603260045260246000fd5b906000526020600020906007020160040160003373ffffffffffffffffffffffffffffffffffffffff1673ffffffffffffffffffffffffffffffffffffffff16815260200190815260200160002060006101000a81548160ff0219169083151502179055506000600d8281548110612081577f4e487b7100000000000000000000000000000000000000000000000000000000600052603260045260246000fd5b90600052602060002090600702016003016001816001815401808255809150500390600052602060002090600302019050338160020160006101000a81548173ffffffffffffffffffffffffffffffffffffffff021916908373ffffffffffffffffffffffffffffffffffffffff1602179055508281600001908051906020019061210d9291906137b6565b50505050565b61212461211e612945565b83612a06565b612163576040517f08c379a000000000000000000000000000000000000000000000000000000000815260040161215a90614bea565b60405180910390fd5b61216f84848484612fe2565b50505050565b6060612180826128d9565b6121bf576040517f08c379a00000000000000000000000000000000000000000000000000000000081526004016121b6906149ea565b60405180910390fd5b735FbDB2315678afecb367f032d93F642f64180aa363ad19f05b836121e385611327565b600d868154811061221d577f4e487b7100000000000000000000000000000000000000000000000000000000600052603260045260246000fd5b90600052602060002090600702016001016040518463ffffffff1660e01b815260040161224c93929190614c87565b60006040518083038186803b15801561226457600080fd5b505af4158015612278573d6000803e3d6000fd5b505050506040513d6000823e3d601f19601f820116820180604052508101906122a19190613d8a565b9050919050565b6122b181611327565b73ffffffffffffffffffffffffffffffffffffffff163373ffffffffffffffffffffffffffffffffffffffff16148061231c57506122ed611836565b73ffffffffffffffffffffffffffffffffffffffff163373ffffffffffffffffffffffffffffffffffffffff16145b61235b576040517f08c379a000000000000000000000000000000000000000000000000000000000815260040161235290614a4a565b60405180910390fd5b60001515600d61236b600b612d40565b815481106123a2577f4e487b7100000000000000000000000000000000000000000000000000000000600052603260045260246000fd5b906000526020600020906007020160060160009054906101000a900460ff16151514612403576040517f08c379a00000000000000000000000000000000000000000000000000000000081526004016123fa90614b8a565b60405180910390fd5b6001600d828154811061243f577f4e487b7100000000000000000000000000000000000000000000000000000000600052603260045260246000fd5b906000526020600020906007020160060160006101000a81548160ff0219169083151502179055506000600d82815481106124a3577f4e487b7100000000000000000000000000000000000000000000000000000000600052603260045260246000fd5b906000526020600020906007020160030180549050111561265e5760006124c982610a3f565b9050735FbDB2315678afecb367f032d93F642f64180aa363402bb28a600d848154811061251f577f4e487b7100000000000000000000000000000000000000000000000000000000600052603260045260246000fd5b9060005260206000209060070201600101600d858154811061256a577f4e487b7100000000000000000000000000000000000000000000000000000000600052603260045260246000fd5b906000526020600020906007020160020160009054906101000a900460ff16846040518463ffffffff1660e01b81526004016125a8939291906148a5565b60006040518083038186803b1580156125c057600080fd5b505af41580156125d4573d6000803e3d6000fd5b505050506040513d6000823e3d601f19601f820116820180604052508101906125fd9190613d8a565b600d8381548110612637577f4e487b7100000000000000000000000000000000000000000000000000000000600052603260045260246000fd5b9060005260206000209060070201600101908051906020019061265b9291906136f9565b50505b612668600b61303e565b50565b6000600560008473ffffffffffffffffffffffffffffffffffffffff1673ffffffffffffffffffffffffffffffffffffffff16815260200190815260200160002060008373ffffffffffffffffffffffffffffffffffffffff1673ffffffffffffffffffffffffffffffffffffffff16815260200190815260200160002060009054906101000a900460ff16905092915050565b612707612945565b73ffffffffffffffffffffffffffffffffffffffff16612725611836565b73ffffffffffffffffffffffffffffffffffffffff161461277b576040517f08c379a000000000000000000000000000000000000000000000000000000000815260040161277290614b4a565b60405180910390fd5b600073ffffffffffffffffffffffffffffffffffffffff168173ffffffffffffffffffffffffffffffffffffffff1614156127eb576040517f08c379a00000000000000000000000000000000000000000000000000000000081526004016127e29061494a565b60405180910390fd5b6127f481612f1c565b50565b60007f80ac58cd000000000000000000000000000000000000000000000000000000007bffffffffffffffffffffffffffffffffffffffffffffffffffffffff1916827bffffffffffffffffffffffffffffffffffffffffffffffffffffffff191614806128c257507f5b5e139f000000000000000000000000000000000000000000000000000000007bffffffffffffffffffffffffffffffffffffffffffffffffffffffff1916827bffffffffffffffffffffffffffffffffffffffffffffffffffffffff1916145b806128d257506128d182613054565b5b9050919050565b60008073ffffffffffffffffffffffffffffffffffffffff166002600084815260200190815260200160002060009054906101000a900473ffffffffffffffffffffffffffffffffffffffff1673ffffffffffffffffffffffffffffffffffffffff1614159050919050565b600033905090565b816004600083815260200190815260200160002060006101000a81548173ffffffffffffffffffffffffffffffffffffffff021916908373ffffffffffffffffffffffffffffffffffffffff160217905550808273ffffffffffffffffffffffffffffffffffffffff166129c083611327565b73ffffffffffffffffffffffffffffffffffffffff167f8c5be1e5ebec7d5bd14f71427d1e84f3dd0314c0f7b2291e5b200ac8c7c3b92560405160405180910390a45050565b6000612a11826128d9565b612a50576040517f08c379a0000000000000000000000000000000000000000000000000000000008152600401612a4790614a0a565b60405180910390fd5b6000612a5b83611327565b90508073ffffffffffffffffffffffffffffffffffffffff168473ffffffffffffffffffffffffffffffffffffffff161480612aca57508373ffffffffffffffffffffffffffffffffffffffff16612ab2846108a2565b73ffffffffffffffffffffffffffffffffffffffff16145b80612adb5750612ada818561266b565b5b91505092915050565b8273ffffffffffffffffffffffffffffffffffffffff16612b0482611327565b73ffffffffffffffffffffffffffffffffffffffff1614612b5a576040517f08c379a0000000000000000000000000000000000000000000000000000000008152600401612b5190614b6a565b60405180910390fd5b600073ffffffffffffffffffffffffffffffffffffffff168273ffffffffffffffffffffffffffffffffffffffff161415612bca576040517f08c379a0000000000000000000000000000000000000000000000000000000008152600401612bc1906149aa565b60405180910390fd5b612bd58383836130be565b612be060008261294d565b6001600360008573ffffffffffffffffffffffffffffffffffffffff1673ffffffffffffffffffffffffffffffffffffffff1681526020019081526020016000206000828254612c309190614f49565b925050819055506001600360008473ffffffffffffffffffffffffffffffffffffffff1673ffffffffffffffffffffffffffffffffffffffff1681526020019081526020016000206000828254612c879190614ef3565b92505081905550816002600083815260200190815260200160002060006101000a81548173ffffffffffffffffffffffffffffffffffffffff021916908373ffffffffffffffffffffffffffffffffffffffff160217905550808273ffffffffffffffffffffffffffffffffffffffff168473ffffffffffffffffffffffffffffffffffffffff167fddf252ad1be2c89b69c2b068fc378daa952ba7f163c4a11628f55a4df523b3ef60405160405180910390a4505050565b600081600001549050919050565b600073ffffffffffffffffffffffffffffffffffffffff168273ffffffffffffffffffffffffffffffffffffffff161415612dbe576040517f08c379a0000000000000000000000000000000000000000000000000000000008152600401612db590614b0a565b60405180910390fd5b612dc7816128d9565b15612e07576040517f08c379a0000000000000000000000000000000000000000000000000000000008152600401612dfe9061496a565b60405180910390fd5b612e13600083836130be565b6001600360008473ffffffffffffffffffffffffffffffffffffffff1673ffffffffffffffffffffffffffffffffffffffff1681526020019081526020016000206000828254612e639190614ef3565b92505081905550816002600083815260200190815260200160002060006101000a81548173ffffffffffffffffffffffffffffffffffffffff021916908373ffffffffffffffffffffffffffffffffffffffff160217905550808273ffffffffffffffffffffffffffffffffffffffff16600073ffffffffffffffffffffffffffffffffffffffff167fddf252ad1be2c89b69c2b068fc378daa952ba7f163c4a11628f55a4df523b3ef60405160405180910390a45050565b6000600a60009054906101000a900473ffffffffffffffffffffffffffffffffffffffff16905081600a60006101000a81548173ffffffffffffffffffffffffffffffffffffffff021916908373ffffffffffffffffffffffffffffffffffffffff1602179055508173ffffffffffffffffffffffffffffffffffffffff168173ffffffffffffffffffffffffffffffffffffffff167f8be0079c531659141344cd1fd0a4f28419497f9722a3daafe3b4186f6b6457e060405160405180910390a35050565b612fed848484612ae4565b612ff9848484846131d2565b613038576040517f08c379a000000000000000000000000000000000000000000000000000000000815260040161302f9061492a565b60405180910390fd5b50505050565b6001816000016000828254019250508190555050565b60007f01ffc9a7000000000000000000000000000000000000000000000000000000007bffffffffffffffffffffffffffffffffffffffffffffffffffffffff1916827bffffffffffffffffffffffffffffffffffffffffffffffffffffffff1916149050919050565b6130c9838383613369565b600073ffffffffffffffffffffffffffffffffffffffff168373ffffffffffffffffffffffffffffffffffffffff16141561310c576131078161336e565b61314b565b8173ffffffffffffffffffffffffffffffffffffffff168373ffffffffffffffffffffffffffffffffffffffff161461314a5761314983826133b7565b5b5b600073ffffffffffffffffffffffffffffffffffffffff168273ffffffffffffffffffffffffffffffffffffffff16141561318e5761318981613524565b6131cd565b8273ffffffffffffffffffffffffffffffffffffffff168273ffffffffffffffffffffffffffffffffffffffff16146131cc576131cb8282613667565b5b5b505050565b60006131f38473ffffffffffffffffffffffffffffffffffffffff166136e6565b1561335c578373ffffffffffffffffffffffffffffffffffffffff1663150b7a0261321c612945565b8786866040518563ffffffff1660e01b815260040161323e9493929190614786565b602060405180830381600087803b15801561325857600080fd5b505af192505050801561328957506040513d601f19601f820116820180604052508101906132869190613d61565b60015b61330c573d80600081146132b9576040519150601f19603f3d011682016040523d82523d6000602084013e6132be565b606091505b50600081511415613304576040517f08c379a00000000000000000000000000000000000000000000000000000000081526004016132fb9061492a565b60405180910390fd5b805181602001fd5b63150b7a0260e01b7bffffffffffffffffffffffffffffffffffffffffffffffffffffffff1916817bffffffffffffffffffffffffffffffffffffffffffffffffffffffff191614915050613361565b600190505b949350505050565b505050565b6008805490506009600083815260200190815260200160002081905550600881908060018154018082558091505060019003906000526020600020016000909190919091505550565b600060016133c4846113f1565b6133ce9190614f49565b90506000600760008481526020019081526020016000205490508181146134b3576000600660008673ffffffffffffffffffffffffffffffffffffffff1673ffffffffffffffffffffffffffffffffffffffff168152602001908152602001600020600084815260200190815260200160002054905080600660008773ffffffffffffffffffffffffffffffffffffffff1673ffffffffffffffffffffffffffffffffffffffff168152602001908152602001600020600084815260200190815260200160002081905550816007600083815260200190815260200160002081905550505b6007600084815260200190815260200160002060009055600660008573ffffffffffffffffffffffffffffffffffffffff1673ffffffffffffffffffffffffffffffffffffffff16815260200190815260200160002060008381526020019081526020016000206000905550505050565b600060016008805490506135389190614f49565b905060006009600084815260200190815260200160002054905060006008838154811061358e577f4e487b7100000000000000000000000000000000000000000000000000000000600052603260045260246000fd5b9060005260206000200154905080600883815481106135d6577f4e487b7100000000000000000000000000000000000000000000000000000000600052603260045260246000fd5b90600052602060002001819055508160096000838152602001908152602001600020819055506009600085815260200190815260200160002060009055600880548061364b577f4e487b7100000000000000000000000000000000000000000000000000000000600052603160045260246000fd5b6001900381819060005260206000200160009055905550505050565b6000613672836113f1565b905081600660008573ffffffffffffffffffffffffffffffffffffffff1673ffffffffffffffffffffffffffffffffffffffff168152602001908152602001600020600083815260200190815260200160002081905550806007600084815260200190815260200160002081905550505050565b600080823b905060008111915050919050565b82805461370590615076565b90600052602060002090601f016020900481019282613727576000855561376e565b82601f1061374057805160ff191683800117855561376e565b8280016001018555821561376e579182015b8281111561376d578251825591602001919060010190613752565b5b50905061377b9190613816565b5090565b60405180606001604052806060815260200160008152602001600073ffffffffffffffffffffffffffffffffffffffff1681525090565b828054828255906000526020600020908101928215613805579160200282015b828111156138045782518290805190602001906137f49291906136f9565b50916020019190600101906137d6565b5b5090506138129190613833565b5090565b5b8082111561382f576000816000905550600101613817565b5090565b5b80821115613853576000818161384a9190613857565b50600101613834565b5090565b50805461386390615076565b6000825580601f106138755750613894565b601f0160209004906000526020600020908101906138939190613816565b5b50565b60006138aa6138a584614d51565b614d2c565b905080838252602082019050828560208602820111156138c957600080fd5b60005b8581101561391357813567ffffffffffffffff8111156138eb57600080fd5b8086016138f88982613a94565b855260208501945060208401935050506001810190506138cc565b5050509392505050565b600061393061392b84614d7d565b614d2c565b90508281526020810184848401111561394857600080fd5b613953848285615034565b509392505050565b600061396e61396984614dae565b614d2c565b90508281526020810184848401111561398657600080fd5b613991848285615034565b509392505050565b60006139ac6139a784614dae565b614d2c565b9050828152602081018484840111156139c457600080fd5b6139cf848285615043565b509392505050565b6000813590506139e681615935565b92915050565b600082601f8301126139fd57600080fd5b8135613a0d848260208601613897565b91505092915050565b600081359050613a258161594c565b92915050565b600081519050613a3a8161594c565b92915050565b600081359050613a4f81615963565b92915050565b600081519050613a6481615963565b92915050565b600082601f830112613a7b57600080fd5b8135613a8b84826020860161391d565b91505092915050565b600082601f830112613aa557600080fd5b8135613ab584826020860161395b565b91505092915050565b600082601f830112613acf57600080fd5b8151613adf848260208601613999565b91505092915050565b600081359050613af78161597a565b92915050565b600081519050613b0c8161597a565b92915050565b600081359050613b2181615991565b92915050565b600060208284031215613b3957600080fd5b6000613b47848285016139d7565b91505092915050565b60008060408385031215613b6357600080fd5b6000613b71858286016139d7565b9250506020613b82858286016139d7565b9150509250929050565b600080600060608486031215613ba157600080fd5b6000613baf868287016139d7565b9350506020613bc0868287016139d7565b9250506040613bd186828701613ae8565b9150509250925092565b60008060008060808587031215613bf157600080fd5b6000613bff878288016139d7565b9450506020613c10878288016139d7565b9350506040613c2187828801613ae8565b925050606085013567ffffffffffffffff811115613c3e57600080fd5b613c4a87828801613a6a565b91505092959194509250565b60008060408385031215613c6957600080fd5b6000613c77858286016139d7565b9250506020613c8885828601613a16565b9150509250929050565b60008060408385031215613ca557600080fd5b6000613cb3858286016139d7565b9250506020613cc485828601613ae8565b9150509250929050565b600060208284031215613ce057600080fd5b600082013567ffffffffffffffff811115613cfa57600080fd5b613d06848285016139ec565b91505092915050565b600060208284031215613d2157600080fd5b6000613d2f84828501613a2b565b91505092915050565b600060208284031215613d4a57600080fd5b6000613d5884828501613a40565b91505092915050565b600060208284031215613d7357600080fd5b6000613d8184828501613a55565b91505092915050565b600060208284031215613d9c57600080fd5b600082015167ffffffffffffffff811115613db657600080fd5b613dc284828501613abe565b91505092915050565b60008060408385031215613dde57600080fd5b600083013567ffffffffffffffff811115613df857600080fd5b613e0485828601613a94565b9250506020613e1585828601613b12565b9150509250929050565b600060208284031215613e3157600080fd5b6000613e3f84828501613ae8565b91505092915050565b600060208284031215613e5a57600080fd5b6000613e6884828501613afd565b91505092915050565b60008060408385031215613e8457600080fd5b6000613e9285828601613ae8565b9250506020613ea385828601613ae8565b9150509250929050565b6000613eb98383614150565b905092915050565b6000613ecd83836141fb565b905092915050565b6000613ee18383614665565b905092915050565b613ef281614f8f565b82525050565b613f0181614f7d565b82525050565b613f1081614f7d565b82525050565b613f1f81614f7d565b82525050565b6000613f3082614e14565b613f3a8185614e5a565b935083602082028501613f4c85614ddf565b8060005b85811015613f885784840389528151613f698582613ead565b9450613f7483614e40565b925060208a01995050600181019050613f50565b50829750879550505050505092915050565b6000613fa582614e14565b613faf8185614e6b565b935083602082028501613fc185614ddf565b8060005b85811015613ffd5784840389528151613fde8582613ead565b9450613fe983614e40565b925060208a01995050600181019050613fc5565b50829750879550505050505092915050565b600061401a82614e14565b6140248185614e7c565b93508360208202850161403685614ddf565b8060005b8581101561407257848403895281516140538582613ec1565b945061405e83614e40565b925060208a0199505060018101905061403a565b50829750879550505050505092915050565b600061408f82614e1f565b6140998185614e8d565b9350836020820285016140ab85614def565b8060005b858110156140e757848403895281516140c88582613ed5565b94506140d383614e4d565b925060208a019950506001810190506140af565b50829750879550505050505092915050565b61410281614fa1565b82525050565b600061411382614e2a565b61411d8185614e9e565b935061412d818560208601615043565b614136816151d9565b840191505092915050565b61414a81615010565b82525050565b600061415b82614e35565b6141658185614eaf565b9350614175818560208601615043565b61417e816151d9565b840191505092915050565b600061419482614e35565b61419e8185614ec0565b93506141ae818560208601615043565b6141b7816151d9565b840191505092915050565b60006141cd82614e35565b6141d78185614ed1565b93506141e7818560208601615043565b6141f0816151d9565b840191505092915050565b600061420682614e35565b6142108185614ee2565b9350614220818560208601615043565b614229816151d9565b840191505092915050565b6000815461424181615076565b61424b8186614ed1565b945060018216600081146142665760018114614278576142ab565b60ff19831686526020860193506142ab565b61428185614dff565b60005b838110156142a357815481890152600182019150602081019050614284565b808801955050505b50505092915050565b60006142c1603e83614ec0565b91506142cc826151ea565b604082019050919050565b60006142e4602b83614ec0565b91506142ef82615239565b604082019050919050565b6000614307603283614ec0565b915061431282615288565b604082019050919050565b600061432a602683614ec0565b9150614335826152d7565b604082019050919050565b600061434d601c83614ec0565b915061435882615326565b602082019050919050565b6000614370603a83614ec0565b915061437b8261534f565b604082019050919050565b6000614393602483614ec0565b915061439e8261539e565b604082019050919050565b60006143b6601983614ec0565b91506143c1826153ed565b602082019050919050565b60006143d9600a83614ec0565b91506143e482615416565b602082019050919050565b60006143fc602c83614ec0565b91506144078261543f565b604082019050919050565b600061441f602a83614ec0565b915061442a8261548e565b604082019050919050565b6000614442602e83614ec0565b915061444d826154dd565b604082019050919050565b6000614465603883614ec0565b91506144708261552c565b604082019050919050565b6000614488602a83614ec0565b91506144938261557b565b604082019050919050565b60006144ab602983614ec0565b91506144b6826155ca565b604082019050919050565b60006144ce602e83614ec0565b91506144d982615619565b604082019050919050565b60006144f1602983614ec0565b91506144fc82615668565b604082019050919050565b6000614514602083614ec0565b915061451f826156b7565b602082019050919050565b6000614537602c83614ec0565b9150614542826156e0565b604082019050919050565b600061455a602083614ec0565b91506145658261572f565b602082019050919050565b600061457d602983614ec0565b915061458882615758565b604082019050919050565b60006145a0601f83614ec0565b91506145ab826157a7565b602082019050919050565b60006145c3602183614ec0565b91506145ce826157d0565b604082019050919050565b60006145e6602983614ec0565b91506145f18261581f565b604082019050919050565b6000614609603183614ec0565b91506146148261586e565b604082019050919050565b600061462c602c83614ec0565b9150614637826158bd565b604082019050919050565b600061464f601883614ec0565b915061465a8261590c565b602082019050919050565b600060608301600083015184820360008601526146828282613f25565b91505060208301516146976020860182614705565b5060408301516146aa6040860182613ef8565b508091505092915050565b600060608301600083015184820360008601526146d28282613f25565b91505060208301516146e76020860182614705565b5060408301516146fa6040860182613ef8565b508091505092915050565b61470e81614ff9565b82525050565b61471d81614ff9565b82525050565b61472c81614ff9565b82525050565b61473b81615022565b82525050565b61474a81615003565b82525050565b60006020820190506147656000830184613f07565b92915050565b60006020820190506147806000830184613ee9565b92915050565b600060808201905061479b6000830187613f07565b6147a86020830186613f07565b6147b56040830185614714565b81810360608301526147c78184614108565b905095945050505050565b600060208201905081810360008301526147ec8184613f9a565b905092915050565b6000604082019050818103600083015261480e818561400f565b905061481d6020830184614141565b9392505050565b6000602082019050818103600083015261483e8184614084565b905092915050565b600060208201905061485b60008301846140f9565b92915050565b6000602082019050818103600083015261487b81846141c2565b905092915050565b6000602082019050818103600083015261489d8184614189565b905092915050565b600060608201905081810360008301526148bf8186614234565b90506148ce6020830185614732565b81810360408301526148e0818461400f565b9050949350505050565b60006020820190508181036000830152614903816142b4565b9050919050565b60006020820190508181036000830152614923816142d7565b9050919050565b60006020820190508181036000830152614943816142fa565b9050919050565b600060208201905081810360008301526149638161431d565b9050919050565b6000602082019050818103600083015261498381614340565b9050919050565b600060208201905081810360008301526149a381614363565b9050919050565b600060208201905081810360008301526149c381614386565b9050919050565b600060208201905081810360008301526149e3816143a9565b9050919050565b60006020820190508181036000830152614a03816143cc565b9050919050565b60006020820190508181036000830152614a23816143ef565b9050919050565b60006020820190508181036000830152614a4381614412565b9050919050565b60006020820190508181036000830152614a6381614435565b9050919050565b60006020820190508181036000830152614a8381614458565b9050919050565b60006020820190508181036000830152614aa38161447b565b9050919050565b60006020820190508181036000830152614ac38161449e565b9050919050565b60006020820190508181036000830152614ae3816144c1565b9050919050565b60006020820190508181036000830152614b03816144e4565b9050919050565b60006020820190508181036000830152614b2381614507565b9050919050565b60006020820190508181036000830152614b438161452a565b9050919050565b60006020820190508181036000830152614b638161454d565b9050919050565b60006020820190508181036000830152614b8381614570565b9050919050565b60006020820190508181036000830152614ba381614593565b9050919050565b60006020820190508181036000830152614bc3816145b6565b9050919050565b60006020820190508181036000830152614be3816145d9565b9050919050565b60006020820190508181036000830152614c03816145fc565b9050919050565b60006020820190508181036000830152614c238161461f565b9050919050565b60006020820190508181036000830152614c4381614642565b9050919050565b60006020820190508181036000830152614c6481846146b5565b905092915050565b6000602082019050614c816000830184614714565b92915050565b6000606082019050614c9c6000830186614723565b614ca96020830185613f16565b8181036040830152614cbb8184614234565b9050949350505050565b6000608082019050614cda6000830187614714565b8181036020830152614cec8186614189565b9050614cfb6040830185614741565b614d0860608301846140f9565b95945050505050565b6000602082019050614d266000830184614741565b92915050565b6000614d36614d47565b9050614d4282826150a8565b919050565b6000604051905090565b600067ffffffffffffffff821115614d6c57614d6b6151aa565b5b602082029050602081019050919050565b600067ffffffffffffffff821115614d9857614d976151aa565b5b614da1826151d9565b9050602081019050919050565b600067ffffffffffffffff821115614dc957614dc86151aa565b5b614dd2826151d9565b9050602081019050919050565b6000819050602082019050919050565b6000819050602082019050919050565b60008190508160005260206000209050919050565b600081519050919050565b600081519050919050565b600081519050919050565b600081519050919050565b6000602082019050919050565b6000602082019050919050565b600082825260208201905092915050565b600082825260208201905092915050565b600082825260208201905092915050565b600082825260208201905092915050565b600082825260208201905092915050565b600082825260208201905092915050565b600082825260208201905092915050565b600082825260208201905092915050565b600082825260208201905092915050565b6000614efe82614ff9565b9150614f0983614ff9565b9250827fffffffffffffffffffffffffffffffffffffffffffffffffffffffffffffffff03821115614f3e57614f3d61514c565b5b828201905092915050565b6000614f5482614ff9565b9150614f5f83614ff9565b925082821015614f7257614f7161514c565b5b828203905092915050565b6000614f8882614fd9565b9050919050565b6000614f9a82614fd9565b9050919050565b60008115159050919050565b60007fffffffff0000000000000000000000000000000000000000000000000000000082169050919050565b600073ffffffffffffffffffffffffffffffffffffffff82169050919050565b6000819050919050565b600060ff82169050919050565b600061501b82614ff9565b9050919050565b600061502d82615003565b9050919050565b82818337600083830152505050565b60005b83811015615061578082015181840152602081019050615046565b83811115615070576000848401525b50505050565b6000600282049050600182168061508e57607f821691505b602082108114156150a2576150a161517b565b5b50919050565b6150b1826151d9565b810181811067ffffffffffffffff821117156150d0576150cf6151aa565b5b80604052505050565b60006150e482614ff9565b91507fffffffffffffffffffffffffffffffffffffffffffffffffffffffffffffffff8214156151175761511661514c565b5b600182019050919050565b600061512d82615003565b915060ff8214156151415761514061514c565b5b600182019050919050565b7f4e487b7100000000000000000000000000000000000000000000000000000000600052601160045260246000fd5b7f4e487b7100000000000000000000000000000000000000000000000000000000600052602260045260246000fd5b7f4e487b7100000000000000000000000000000000000000000000000000000000600052604160045260246000fd5b6000601f19601f8301169050919050565b7f596f75206861766520616c7265616479207573656420616c6c20796f7572732060008201527f61766961626c6520766f74657320666f722074686973204d61644c6962210000602082015250565b7f455243373231456e756d657261626c653a206f776e657220696e646578206f7560008201527f74206f6620626f756e6473000000000000000000000000000000000000000000602082015250565b7f4552433732313a207472616e7366657220746f206e6f6e20455243373231526560008201527f63656976657220696d706c656d656e7465720000000000000000000000000000602082015250565b7f4f776e61626c653a206e6577206f776e657220697320746865207a65726f206160008201527f6464726573730000000000000000000000000000000000000000000000000000602082015250565b7f4552433732313a20746f6b656e20616c7265616479206d696e74656400000000600082015250565b7f596f752063616e206f70656e2061206e6577204d61644c696273206f6e6c792060008201527f69662070726576696f7573206f6e6520697320636c6f73656421000000000000602082015250565b7f4552433732313a207472616e7366657220746f20746865207a65726f2061646460008201527f7265737300000000000000000000000000000000000000000000000000000000602082015250565b7f4552433732313a20617070726f766520746f2063616c6c657200000000000000600082015250565b7f4e6f742065786973742100000000000000000000000000000000000000000000600082015250565b7f4552433732313a206f70657261746f7220717565727920666f72206e6f6e657860008201527f697374656e7420746f6b656e0000000000000000000000000000000000000000602082015250565b7f506c6561736520696e736572742074686520636f7272656374206e756d62657260008201527f206f6620776f7264732100000000000000000000000000000000000000000000602082015250565b7f596f7520617265206e6f7420746865206f776e6572206f66206e6674206f722060008201527f4d61644c696273204f776e657221000000000000000000000000000000000000602082015250565b7f4552433732313a20617070726f76652063616c6c6572206973206e6f74206f7760008201527f6e6572206e6f7220617070726f76656420666f7220616c6c0000000000000000602082015250565b7f4552433732313a2062616c616e636520717565727920666f7220746865207a6560008201527f726f206164647265737300000000000000000000000000000000000000000000602082015250565b7f4552433732313a206f776e657220717565727920666f72206e6f6e657869737460008201527f656e7420746f6b656e0000000000000000000000000000000000000000000000602082015250565b7f506c6179657220616c72656164792068617320612070726f706f73616c20666f60008201527f722074686973204d61644c696221000000000000000000000000000000000000602082015250565b7f4561636820776f7264206d757374206265206c657373207468616e203336206360008201527f6861726163746572730000000000000000000000000000000000000000000000602082015250565b7f4552433732313a206d696e7420746f20746865207a65726f2061646472657373600082015250565b7f4552433732313a20617070726f76656420717565727920666f72206e6f6e657860008201527f697374656e7420746f6b656e0000000000000000000000000000000000000000602082015250565b7f4f776e61626c653a2063616c6c6572206973206e6f7420746865206f776e6572600082015250565b7f4552433732313a207472616e73666572206f6620746f6b656e2074686174206960008201527f73206e6f74206f776e0000000000000000000000000000000000000000000000602082015250565b7f53656c6563746564204d61644c696220616c726561647920636c6f7365642100600082015250565b7f4552433732313a20617070726f76616c20746f2063757272656e74206f776e6560008201527f7200000000000000000000000000000000000000000000000000000000000000602082015250565b7f50726f706f73616c206d75737420626520666f72206f70656e2f63757272656e60008201527f74204d61644c6962210000000000000000000000000000000000000000000000602082015250565b7f4552433732313a207472616e736665722063616c6c6572206973206e6f74206f60008201527f776e6572206e6f7220617070726f766564000000000000000000000000000000602082015250565b7f455243373231456e756d657261626c653a20676c6f62616c20696e646578206f60008201527f7574206f6620626f756e64730000000000000000000000000000000000000000602082015250565b7f73686f7274656e20796f7572207465787420706c656173650000000000000000600082015250565b61593e81614f7d565b811461594957600080fd5b50565b61595581614fa1565b811461596057600080fd5b50565b61596c81614fad565b811461597757600080fd5b50565b61598381614ff9565b811461598e57600080fd5b50565b61599a81615003565b81146159a557600080fd5b5056fea26469706673582212201d4b2e77bafd701ed0c02896955b1c8bf75a39731414d8385ff3bac01ecf959864736f6c63430008040033",
  "deployedBytecode": "0x6080604052600436106101cd5760003560e01c8063715018a6116100f7578063aba2100911610095578063c87b56dd11610064578063c87b56dd146106ca578063d06ff53114610707578063e985e9c514610730578063f2fde38b1461076d576101cd565b8063aba2100914610610578063aed50f8f1461064d578063b489ce7114610678578063b88d4fde146106a1576101cd565b806392b4d6cd116100d157806392b4d6cd1461055157806395d89b4114610591578063a035b1fe146105bc578063a22cb465146105e7576101cd565b8063715018a6146104e6578063807896d5146104fd5780638da5cb5b14610526576101cd565b8063253eb1e01161016f5780634f6ccce71161013e5780634f6ccce7146104045780636352211e1461044157806366d003ac1461047e57806370a08231146104a9576101cd565b8063253eb1e0146103315780632c72fdfc146103615780632f745c591461039e57806342842e0e146103db576101cd565b8063095ea7b3116101ab578063095ea7b3146102775780630a7c405f146102a057806318160ddd146102dd57806323b872dd14610308576101cd565b806301ffc9a7146101d257806306fdde031461020f578063081812fc1461023a575b600080fd5b3480156101de57600080fd5b506101f960048036038101906101f49190613d38565b610796565b6040516102069190614846565b60405180910390f35b34801561021b57600080fd5b50610224610810565b6040516102319190614883565b60405180910390f35b34801561024657600080fd5b50610261600480360381019061025c9190613e1f565b6108a2565b60405161026e9190614750565b60405180910390f35b34801561028357600080fd5b5061029e60048036038101906102999190613c92565b610927565b005b3480156102ac57600080fd5b506102c760048036038101906102c29190613e1f565b610a3f565b6040516102d491906147d2565b60405180910390f35b3480156102e957600080fd5b506102f2610d54565b6040516102ff9190614c6c565b60405180910390f35b34801561031457600080fd5b5061032f600480360381019061032a9190613b8c565b610d61565b005b61034b60048036038101906103469190613dcb565b610dc1565b6040516103589190614c6c565b60405180910390f35b34801561036d57600080fd5b5061038860048036038101906103839190613e1f565b610fe8565b6040516103959190614824565b60405180910390f35b3480156103aa57600080fd5b506103c560048036038101906103c09190613c92565b6111cb565b6040516103d29190614c6c565b60405180910390f35b3480156103e757600080fd5b5061040260048036038101906103fd9190613b8c565b611270565b005b34801561041057600080fd5b5061042b60048036038101906104269190613e1f565b611290565b6040516104389190614c6c565b60405180910390f35b34801561044d57600080fd5b5061046860048036038101906104639190613e1f565b611327565b6040516104759190614750565b60405180910390f35b34801561048a57600080fd5b506104936113d9565b6040516104a0919061476b565b60405180910390f35b3480156104b557600080fd5b506104d060048036038101906104cb9190613b27565b6113f1565b6040516104dd9190614c6c565b60405180910390f35b3480156104f257600080fd5b506104fb6114a9565b005b34801561050957600080fd5b50610524600480360381019061051f9190613e1f565b611531565b005b34801561053257600080fd5b5061053b611836565b6040516105489190614750565b60405180910390f35b34801561055d57600080fd5b5061057860048036038101906105739190613e1f565b611860565b6040516105889493929190614cc5565b60405180910390f35b34801561059d57600080fd5b506105a6611942565b6040516105b39190614883565b60405180910390f35b3480156105c857600080fd5b506105d16119d4565b6040516105de9190614c6c565b60405180910390f35b3480156105f357600080fd5b5061060e60048036038101906106099190613c56565b6119da565b005b34801561061c57600080fd5b5061063760048036038101906106329190613e71565b611b5b565b6040516106449190614c4a565b60405180910390f35b34801561065957600080fd5b50610662611d40565b60405161066f9190614d11565b60405180910390f35b34801561068457600080fd5b5061069f600480360381019061069a9190613cce565b611d53565b005b3480156106ad57600080fd5b506106c860048036038101906106c39190613bdb565b612113565b005b3480156106d657600080fd5b506106f160048036038101906106ec9190613e1f565b612175565b6040516106fe9190614883565b60405180910390f35b34801561071357600080fd5b5061072e60048036038101906107299190613e1f565b6122a8565b005b34801561073c57600080fd5b5061075760048036038101906107529190613b50565b61266b565b6040516107649190614846565b60405180910390f35b34801561077957600080fd5b50610794600480360381019061078f9190613b27565b6126ff565b005b60007f780e9d63000000000000000000000000000000000000000000000000000000007bffffffffffffffffffffffffffffffffffffffffffffffffffffffff1916827bffffffffffffffffffffffffffffffffffffffffffffffffffffffff191614806108095750610808826127f7565b5b9050919050565b60606000805461081f90615076565b80601f016020809104026020016040519081016040528092919081815260200182805461084b90615076565b80156108985780601f1061086d57610100808354040283529160200191610898565b820191906000526020600020905b81548152906001019060200180831161087b57829003601f168201915b5050505050905090565b60006108ad826128d9565b6108ec576040517f08c379a00000000000000000000000000000000000000000000000000000000081526004016108e390614b2a565b60405180910390fd5b6004600083815260200190815260200160002060009054906101000a900473ffffffffffffffffffffffffffffffffffffffff169050919050565b600061093282611327565b90508073ffffffffffffffffffffffffffffffffffffffff168373ffffffffffffffffffffffffffffffffffffffff1614156109a3576040517f08c379a000000000000000000000000000000000000000000000000000000000815260040161099a90614baa565b60405180910390fd5b8073ffffffffffffffffffffffffffffffffffffffff166109c2612945565b73ffffffffffffffffffffffffffffffffffffffff1614806109f157506109f0816109eb612945565b61266b565b5b610a30576040517f08c379a0000000000000000000000000000000000000000000000000000000008152600401610a2790614a6a565b60405180910390fd5b610a3a838361294d565b505050565b606060008060005b600d8581548110610a81577f4e487b7100000000000000000000000000000000000000000000000000000000600052603260045260246000fd5b906000526020600020906007020160030180549050811015610be65782600d8681548110610ad8577f4e487b7100000000000000000000000000000000000000000000000000000000600052603260045260246000fd5b90600052602060002090600702016003018281548110610b21577f4e487b7100000000000000000000000000000000000000000000000000000000600052603260045260246000fd5b90600052602060002090600302016001015410610bd357600d8581548110610b72577f4e487b7100000000000000000000000000000000000000000000000000000000600052603260045260246000fd5b90600052602060002090600702016003018181548110610bbb577f4e487b7100000000000000000000000000000000000000000000000000000000600052603260045260246000fd5b90600052602060002090600302016001015492508091505b8080610bde906150d9565b915050610a47565b50600d8481548110610c21577f4e487b7100000000000000000000000000000000000000000000000000000000600052603260045260246000fd5b90600052602060002090600702016003018181548110610c6a577f4e487b7100000000000000000000000000000000000000000000000000000000600052603260045260246000fd5b9060005260206000209060030201600001805480602002602001604051908101604052809291908181526020016000905b82821015610d47578382906000526020600020018054610cba90615076565b80601f0160208091040260200160405190810160405280929190818152602001828054610ce690615076565b8015610d335780601f10610d0857610100808354040283529160200191610d33565b820191906000526020600020905b815481529060010190602001808311610d1657829003601f168201915b505050505081526020019060010190610c9b565b5050505092505050919050565b6000600880549050905090565b610d72610d6c612945565b82612a06565b610db1576040517f08c379a0000000000000000000000000000000000000000000000000000000008152600401610da890614bea565b60405180910390fd5b610dbc838383612ae4565b505050565b6000600d80549050600014610e7a57600d6001600d80549050610de49190614f49565b81548110610e1b577f4e487b7100000000000000000000000000000000000000000000000000000000600052603260045260246000fd5b906000526020600020906007020160060160009054906101000a900460ff16610e79576040517f08c379a0000000000000000000000000000000000000000000000000000000008152600401610e709061498a565b60405180910390fd5b5b6101c273__$572b7a2e6bd963df3bed057106c545e840$__63367bbd78856040518263ffffffff1660e01b8152600401610eb49190614861565b60206040518083038186803b158015610ecc57600080fd5b505af4158015610ee0573d6000803e3d6000fd5b505050506040513d601f19601f82011682018060405250810190610f049190613e48565b1115610f45576040517f08c379a0000000000000000000000000000000000000000000000000000000008152600401610f3c90614c2a565b60405180910390fd5b6000610f51600b612d40565b9050610f5d3382612d4e565b6000600d600181600181540180825580915050039060005260206000209060070201905081816000018190555084816001019080519060200190610fa29291906136f9565b50838160020160006101000a81548160ff021916908360ff16021790555060008160060160006101000a81548160ff021916908315150217905550819250505092915050565b6060600d8281548110611024577f4e487b7100000000000000000000000000000000000000000000000000000000600052603260045260246000fd5b9060005260206000209060070201600301805480602002602001604051908101604052809291908181526020016000905b828210156111c0578382906000526020600020906003020160405180606001604052908160008201805480602002602001604051908101604052809291908181526020016000905b828210156111495783829060005260206000200180546110bc90615076565b80601f01602080910402602001604051908101604052809291908181526020018280546110e890615076565b80156111355780601f1061110a57610100808354040283529160200191611135565b820191906000526020600020905b81548152906001019060200180831161111857829003601f168201915b50505050508152602001906001019061109d565b505050508152602001600182015481526020016002820160009054906101000a900473ffffffffffffffffffffffffffffffffffffffff1673ffffffffffffffffffffffffffffffffffffffff1673ffffffffffffffffffffffffffffffffffffffff168152505081526020019060010190611055565b505050509050919050565b60006111d6836113f1565b8210611217576040517f08c379a000000000000000000000000000000000000000000000000000000000815260040161120e9061490a565b60405180910390fd5b600660008473ffffffffffffffffffffffffffffffffffffffff1673ffffffffffffffffffffffffffffffffffffffff168152602001908152602001600020600083815260200190815260200160002054905092915050565b61128b83838360405180602001604052806000815250612113565b505050565b600061129a610d54565b82106112db576040517f08c379a00000000000000000000000000000000000000000000000000000000081526004016112d290614c0a565b60405180910390fd5b60088281548110611315577f4e487b7100000000000000000000000000000000000000000000000000000000600052603260045260246000fd5b90600052602060002001549050919050565b6000806002600084815260200190815260200160002060009054906101000a900473ffffffffffffffffffffffffffffffffffffffff169050600073ffffffffffffffffffffffffffffffffffffffff168173ffffffffffffffffffffffffffffffffffffffff1614156113d0576040517f08c379a00000000000000000000000000000000000000000000000000000000081526004016113c790614aaa565b60405180910390fd5b80915050919050565b73a81a6a910fed20374361b35c451a4a44f86ced4681565b60008073ffffffffffffffffffffffffffffffffffffffff168273ffffffffffffffffffffffffffffffffffffffff161415611462576040517f08c379a000000000000000000000000000000000000000000000000000000000815260040161145990614a8a565b60405180910390fd5b600360008373ffffffffffffffffffffffffffffffffffffffff1673ffffffffffffffffffffffffffffffffffffffff168152602001908152602001600020549050919050565b6114b1612945565b73ffffffffffffffffffffffffffffffffffffffff166114cf611836565b73ffffffffffffffffffffffffffffffffffffffff1614611525576040517f08c379a000000000000000000000000000000000000000000000000000000000815260040161151c90614b4a565b60405180910390fd5b61152f6000612f1c565b565b600061153d600b612d40565b905060001515600d828154811061157d577f4e487b7100000000000000000000000000000000000000000000000000000000600052603260045260246000fd5b906000526020600020906007020160060160009054906101000a900460ff161515146115de576040517f08c379a00000000000000000000000000000000000000000000000000000000081526004016115d590614bca565b60405180910390fd5b600c60009054906101000a900460ff1660ff16600d828154811061162b577f4e487b7100000000000000000000000000000000000000000000000000000000600052603260045260246000fd5b906000526020600020906007020160050160003373ffffffffffffffffffffffffffffffffffffffff1673ffffffffffffffffffffffffffffffffffffffff16815260200190815260200160002060009054906101000a900460ff1660ff16106116ca576040517f08c379a00000000000000000000000000000000000000000000000000000000081526004016116c1906148ea565b60405180910390fd5b600d8181548110611704577f4e487b7100000000000000000000000000000000000000000000000000000000600052603260045260246000fd5b906000526020600020906007020160050160003373ffffffffffffffffffffffffffffffffffffffff1673ffffffffffffffffffffffffffffffffffffffff168152602001908152602001600020600081819054906101000a900460ff168092919061176f90615122565b91906101000a81548160ff021916908360ff16021790555050600d81815481106117c2577f4e487b7100000000000000000000000000000000000000000000000000000000600052603260045260246000fd5b9060005260206000209060070201600301828154811061180b577f4e487b7100000000000000000000000000000000000000000000000000000000600052603260045260246000fd5b9060005260206000209060030201600101600081548092919061182d906150d9565b91905055505050565b6000600a60009054906101000a900473ffffffffffffffffffffffffffffffffffffffff16905090565b600d818154811061187057600080fd5b906000526020600020906007020160009150905080600001549080600101805461189990615076565b80601f01602080910402602001604051908101604052809291908181526020018280546118c590615076565b80156119125780601f106118e757610100808354040283529160200191611912565b820191906000526020600020905b8154815290600101906020018083116118f557829003601f168201915b5050505050908060020160009054906101000a900460ff16908060060160009054906101000a900460ff16905084565b60606001805461195190615076565b80601f016020809104026020016040519081016040528092919081815260200182805461197d90615076565b80156119ca5780601f1061199f576101008083540402835291602001916119ca565b820191906000526020600020905b8154815290600101906020018083116119ad57829003601f168201915b5050505050905090565b600e5481565b6119e2612945565b73ffffffffffffffffffffffffffffffffffffffff168273ffffffffffffffffffffffffffffffffffffffff161415611a50576040517f08c379a0000000000000000000000000000000000000000000000000000000008152600401611a47906149ca565b60405180910390fd5b8060056000611a5d612945565b73ffffffffffffffffffffffffffffffffffffffff1673ffffffffffffffffffffffffffffffffffffffff16815260200190815260200160002060008473ffffffffffffffffffffffffffffffffffffffff1673ffffffffffffffffffffffffffffffffffffffff16815260200190815260200160002060006101000a81548160ff0219169083151502179055508173ffffffffffffffffffffffffffffffffffffffff16611b0a612945565b73ffffffffffffffffffffffffffffffffffffffff167f17307eab39ab6107e8899845ad3d59bd9653f200f220920489ca2b5937696c3183604051611b4f9190614846565b60405180910390a35050565b611b6361377f565b600d8381548110611b9d577f4e487b7100000000000000000000000000000000000000000000000000000000600052603260045260246000fd5b90600052602060002090600702016003018281548110611be6577f4e487b7100000000000000000000000000000000000000000000000000000000600052603260045260246000fd5b906000526020600020906003020160405180606001604052908160008201805480602002602001604051908101604052809291908181526020016000905b82821015611cd0578382906000526020600020018054611c4390615076565b80601f0160208091040260200160405190810160405280929190818152602001828054611c6f90615076565b8015611cbc5780601f10611c9157610100808354040283529160200191611cbc565b820191906000526020600020905b815481529060010190602001808311611c9f57829003601f168201915b505050505081526020019060010190611c24565b505050508152602001600182015481526020016002820160009054906101000a900473ffffffffffffffffffffffffffffffffffffffff1673ffffffffffffffffffffffffffffffffffffffff1673ffffffffffffffffffffffffffffffffffffffff1681525050905092915050565b600c60009054906101000a900460ff1681565b6000611d5f600b612d40565b905060001515600d8281548110611d9f577f4e487b7100000000000000000000000000000000000000000000000000000000600052603260045260246000fd5b906000526020600020906007020160040160003373ffffffffffffffffffffffffffffffffffffffff1673ffffffffffffffffffffffffffffffffffffffff16815260200190815260200160002060009054906101000a900460ff16151514611e3d576040517f08c379a0000000000000000000000000000000000000000000000000000000008152600401611e3490614aca565b60405180910390fd5b600d8181548110611e77577f4e487b7100000000000000000000000000000000000000000000000000000000600052603260045260246000fd5b906000526020600020906007020160020160009054906101000a900460ff1660ff16825114611edb576040517f08c379a0000000000000000000000000000000000000000000000000000000008152600401611ed290614a2a565b60405180910390fd5b73__$572b7a2e6bd963df3bed057106c545e840$__633f0cb6088360236040518363ffffffff1660e01b8152600401611f159291906147f4565b60206040518083038186803b158015611f2d57600080fd5b505af4158015611f41573d6000803e3d6000fd5b505050506040513d601f19601f82011682018060405250810190611f659190613d0f565b611fa4576040517f08c379a0000000000000000000000000000000000000000000000000000000008152600401611f9b90614aea565b60405180910390fd5b6001600d8281548110611fe0577f4e487b7100000000000000000000000000000000000000000000000000000000600052603260045260246000fd5b906000526020600020906007020160040160003373ffffffffffffffffffffffffffffffffffffffff1673ffffffffffffffffffffffffffffffffffffffff16815260200190815260200160002060006101000a81548160ff0219169083151502179055506000600d8281548110612081577f4e487b7100000000000000000000000000000000000000000000000000000000600052603260045260246000fd5b90600052602060002090600702016003016001816001815401808255809150500390600052602060002090600302019050338160020160006101000a81548173ffffffffffffffffffffffffffffffffffffffff021916908373ffffffffffffffffffffffffffffffffffffffff1602179055508281600001908051906020019061210d9291906137b6565b50505050565b61212461211e612945565b83612a06565b612163576040517f08c379a000000000000000000000000000000000000000000000000000000000815260040161215a90614bea565b60405180910390fd5b61216f84848484612fe2565b50505050565b6060612180826128d9565b6121bf576040517f08c379a00000000000000000000000000000000000000000000000000000000081526004016121b6906149ea565b60405180910390fd5b73__$572b7a2e6bd963df3bed057106c545e840$__63ad19f05b836121e385611327565b600d868154811061221d577f4e487b7100000000000000000000000000000000000000000000000000000000600052603260045260246000fd5b90600052602060002090600702016001016040518463ffffffff1660e01b815260040161224c93929190614c87565b60006040518083038186803b15801561226457600080fd5b505af4158015612278573d6000803e3d6000fd5b505050506040513d6000823e3d601f19601f820116820180604052508101906122a19190613d8a565b9050919050565b6122b181611327565b73ffffffffffffffffffffffffffffffffffffffff163373ffffffffffffffffffffffffffffffffffffffff16148061231c57506122ed611836565b73ffffffffffffffffffffffffffffffffffffffff163373ffffffffffffffffffffffffffffffffffffffff16145b61235b576040517f08c379a000000000000000000000000000000000000000000000000000000000815260040161235290614a4a565b60405180910390fd5b60001515600d61236b600b612d40565b815481106123a2577f4e487b7100000000000000000000000000000000000000000000000000000000600052603260045260246000fd5b906000526020600020906007020160060160009054906101000a900460ff16151514612403576040517f08c379a00000000000000000000000000000000000000000000000000000000081526004016123fa90614b8a565b60405180910390fd5b6001600d828154811061243f577f4e487b7100000000000000000000000000000000000000000000000000000000600052603260045260246000fd5b906000526020600020906007020160060160006101000a81548160ff0219169083151502179055506000600d82815481106124a3577f4e487b7100000000000000000000000000000000000000000000000000000000600052603260045260246000fd5b906000526020600020906007020160030180549050111561265e5760006124c982610a3f565b905073__$572b7a2e6bd963df3bed057106c545e840$__63402bb28a600d848154811061251f577f4e487b7100000000000000000000000000000000000000000000000000000000600052603260045260246000fd5b9060005260206000209060070201600101600d858154811061256a577f4e487b7100000000000000000000000000000000000000000000000000000000600052603260045260246000fd5b906000526020600020906007020160020160009054906101000a900460ff16846040518463ffffffff1660e01b81526004016125a8939291906148a5565b60006040518083038186803b1580156125c057600080fd5b505af41580156125d4573d6000803e3d6000fd5b505050506040513d6000823e3d601f19601f820116820180604052508101906125fd9190613d8a565b600d8381548110612637577f4e487b7100000000000000000000000000000000000000000000000000000000600052603260045260246000fd5b9060005260206000209060070201600101908051906020019061265b9291906136f9565b50505b612668600b61303e565b50565b6000600560008473ffffffffffffffffffffffffffffffffffffffff1673ffffffffffffffffffffffffffffffffffffffff16815260200190815260200160002060008373ffffffffffffffffffffffffffffffffffffffff1673ffffffffffffffffffffffffffffffffffffffff16815260200190815260200160002060009054906101000a900460ff16905092915050565b612707612945565b73ffffffffffffffffffffffffffffffffffffffff16612725611836565b73ffffffffffffffffffffffffffffffffffffffff161461277b576040517f08c379a000000000000000000000000000000000000000000000000000000000815260040161277290614b4a565b60405180910390fd5b600073ffffffffffffffffffffffffffffffffffffffff168173ffffffffffffffffffffffffffffffffffffffff1614156127eb576040517f08c379a00000000000000000000000000000000000000000000000000000000081526004016127e29061494a565b60405180910390fd5b6127f481612f1c565b50565b60007f80ac58cd000000000000000000000000000000000000000000000000000000007bffffffffffffffffffffffffffffffffffffffffffffffffffffffff1916827bffffffffffffffffffffffffffffffffffffffffffffffffffffffff191614806128c257507f5b5e139f000000000000000000000000000000000000000000000000000000007bffffffffffffffffffffffffffffffffffffffffffffffffffffffff1916827bffffffffffffffffffffffffffffffffffffffffffffffffffffffff1916145b806128d257506128d182613054565b5b9050919050565b60008073ffffffffffffffffffffffffffffffffffffffff166002600084815260200190815260200160002060009054906101000a900473ffffffffffffffffffffffffffffffffffffffff1673ffffffffffffffffffffffffffffffffffffffff1614159050919050565b600033905090565b816004600083815260200190815260200160002060006101000a81548173ffffffffffffffffffffffffffffffffffffffff021916908373ffffffffffffffffffffffffffffffffffffffff160217905550808273ffffffffffffffffffffffffffffffffffffffff166129c083611327565b73ffffffffffffffffffffffffffffffffffffffff167f8c5be1e5ebec7d5bd14f71427d1e84f3dd0314c0f7b2291e5b200ac8c7c3b92560405160405180910390a45050565b6000612a11826128d9565b612a50576040517f08c379a0000000000000000000000000000000000000000000000000000000008152600401612a4790614a0a565b60405180910390fd5b6000612a5b83611327565b90508073ffffffffffffffffffffffffffffffffffffffff168473ffffffffffffffffffffffffffffffffffffffff161480612aca57508373ffffffffffffffffffffffffffffffffffffffff16612ab2846108a2565b73ffffffffffffffffffffffffffffffffffffffff16145b80612adb5750612ada818561266b565b5b91505092915050565b8273ffffffffffffffffffffffffffffffffffffffff16612b0482611327565b73ffffffffffffffffffffffffffffffffffffffff1614612b5a576040517f08c379a0000000000000000000000000000000000000000000000000000000008152600401612b5190614b6a565b60405180910390fd5b600073ffffffffffffffffffffffffffffffffffffffff168273ffffffffffffffffffffffffffffffffffffffff161415612bca576040517f08c379a0000000000000000000000000000000000000000000000000000000008152600401612bc1906149aa565b60405180910390fd5b612bd58383836130be565b612be060008261294d565b6001600360008573ffffffffffffffffffffffffffffffffffffffff1673ffffffffffffffffffffffffffffffffffffffff1681526020019081526020016000206000828254612c309190614f49565b925050819055506001600360008473ffffffffffffffffffffffffffffffffffffffff1673ffffffffffffffffffffffffffffffffffffffff1681526020019081526020016000206000828254612c879190614ef3565b92505081905550816002600083815260200190815260200160002060006101000a81548173ffffffffffffffffffffffffffffffffffffffff021916908373ffffffffffffffffffffffffffffffffffffffff160217905550808273ffffffffffffffffffffffffffffffffffffffff168473ffffffffffffffffffffffffffffffffffffffff167fddf252ad1be2c89b69c2b068fc378daa952ba7f163c4a11628f55a4df523b3ef60405160405180910390a4505050565b600081600001549050919050565b600073ffffffffffffffffffffffffffffffffffffffff168273ffffffffffffffffffffffffffffffffffffffff161415612dbe576040517f08c379a0000000000000000000000000000000000000000000000000000000008152600401612db590614b0a565b60405180910390fd5b612dc7816128d9565b15612e07576040517f08c379a0000000000000000000000000000000000000000000000000000000008152600401612dfe9061496a565b60405180910390fd5b612e13600083836130be565b6001600360008473ffffffffffffffffffffffffffffffffffffffff1673ffffffffffffffffffffffffffffffffffffffff1681526020019081526020016000206000828254612e639190614ef3565b92505081905550816002600083815260200190815260200160002060006101000a81548173ffffffffffffffffffffffffffffffffffffffff021916908373ffffffffffffffffffffffffffffffffffffffff160217905550808273ffffffffffffffffffffffffffffffffffffffff16600073ffffffffffffffffffffffffffffffffffffffff167fddf252ad1be2c89b69c2b068fc378daa952ba7f163c4a11628f55a4df523b3ef60405160405180910390a45050565b6000600a60009054906101000a900473ffffffffffffffffffffffffffffffffffffffff16905081600a60006101000a81548173ffffffffffffffffffffffffffffffffffffffff021916908373ffffffffffffffffffffffffffffffffffffffff1602179055508173ffffffffffffffffffffffffffffffffffffffff168173ffffffffffffffffffffffffffffffffffffffff167f8be0079c531659141344cd1fd0a4f28419497f9722a3daafe3b4186f6b6457e060405160405180910390a35050565b612fed848484612ae4565b612ff9848484846131d2565b613038576040517f08c379a000000000000000000000000000000000000000000000000000000000815260040161302f9061492a565b60405180910390fd5b50505050565b6001816000016000828254019250508190555050565b60007f01ffc9a7000000000000000000000000000000000000000000000000000000007bffffffffffffffffffffffffffffffffffffffffffffffffffffffff1916827bffffffffffffffffffffffffffffffffffffffffffffffffffffffff1916149050919050565b6130c9838383613369565b600073ffffffffffffffffffffffffffffffffffffffff168373ffffffffffffffffffffffffffffffffffffffff16141561310c576131078161336e565b61314b565b8173ffffffffffffffffffffffffffffffffffffffff168373ffffffffffffffffffffffffffffffffffffffff161461314a5761314983826133b7565b5b5b600073ffffffffffffffffffffffffffffffffffffffff168273ffffffffffffffffffffffffffffffffffffffff16141561318e5761318981613524565b6131cd565b8273ffffffffffffffffffffffffffffffffffffffff168273ffffffffffffffffffffffffffffffffffffffff16146131cc576131cb8282613667565b5b5b505050565b60006131f38473ffffffffffffffffffffffffffffffffffffffff166136e6565b1561335c578373ffffffffffffffffffffffffffffffffffffffff1663150b7a0261321c612945565b8786866040518563ffffffff1660e01b815260040161323e9493929190614786565b602060405180830381600087803b15801561325857600080fd5b505af192505050801561328957506040513d601f19601f820116820180604052508101906132869190613d61565b60015b61330c573d80600081146132b9576040519150601f19603f3d011682016040523d82523d6000602084013e6132be565b606091505b50600081511415613304576040517f08c379a00000000000000000000000000000000000000000000000000000000081526004016132fb9061492a565b60405180910390fd5b805181602001fd5b63150b7a0260e01b7bffffffffffffffffffffffffffffffffffffffffffffffffffffffff1916817bffffffffffffffffffffffffffffffffffffffffffffffffffffffff191614915050613361565b600190505b949350505050565b505050565b6008805490506009600083815260200190815260200160002081905550600881908060018154018082558091505060019003906000526020600020016000909190919091505550565b600060016133c4846113f1565b6133ce9190614f49565b90506000600760008481526020019081526020016000205490508181146134b3576000600660008673ffffffffffffffffffffffffffffffffffffffff1673ffffffffffffffffffffffffffffffffffffffff168152602001908152602001600020600084815260200190815260200160002054905080600660008773ffffffffffffffffffffffffffffffffffffffff1673ffffffffffffffffffffffffffffffffffffffff168152602001908152602001600020600084815260200190815260200160002081905550816007600083815260200190815260200160002081905550505b6007600084815260200190815260200160002060009055600660008573ffffffffffffffffffffffffffffffffffffffff1673ffffffffffffffffffffffffffffffffffffffff16815260200190815260200160002060008381526020019081526020016000206000905550505050565b600060016008805490506135389190614f49565b905060006009600084815260200190815260200160002054905060006008838154811061358e577f4e487b7100000000000000000000000000000000000000000000000000000000600052603260045260246000fd5b9060005260206000200154905080600883815481106135d6577f4e487b7100000000000000000000000000000000000000000000000000000000600052603260045260246000fd5b90600052602060002001819055508160096000838152602001908152602001600020819055506009600085815260200190815260200160002060009055600880548061364b577f4e487b7100000000000000000000000000000000000000000000000000000000600052603160045260246000fd5b6001900381819060005260206000200160009055905550505050565b6000613672836113f1565b905081600660008573ffffffffffffffffffffffffffffffffffffffff1673ffffffffffffffffffffffffffffffffffffffff168152602001908152602001600020600083815260200190815260200160002081905550806007600084815260200190815260200160002081905550505050565b600080823b905060008111915050919050565b82805461370590615076565b90600052602060002090601f016020900481019282613727576000855561376e565b82601f1061374057805160ff191683800117855561376e565b8280016001018555821561376e579182015b8281111561376d578251825591602001919060010190613752565b5b50905061377b9190613816565b5090565b60405180606001604052806060815260200160008152602001600073ffffffffffffffffffffffffffffffffffffffff1681525090565b828054828255906000526020600020908101928215613805579160200282015b828111156138045782518290805190602001906137f49291906136f9565b50916020019190600101906137d6565b5b5090506138129190613833565b5090565b5b8082111561382f576000816000905550600101613817565b5090565b5b80821115613853576000818161384a9190613857565b50600101613834565b5090565b50805461386390615076565b6000825580601f106138755750613894565b601f0160209004906000526020600020908101906138939190613816565b5b50565b60006138aa6138a584614d51565b614d2c565b905080838252602082019050828560208602820111156138c957600080fd5b60005b8581101561391357813567ffffffffffffffff8111156138eb57600080fd5b8086016138f88982613a94565b855260208501945060208401935050506001810190506138cc565b5050509392505050565b600061393061392b84614d7d565b614d2c565b90508281526020810184848401111561394857600080fd5b613953848285615034565b509392505050565b600061396e61396984614dae565b614d2c565b90508281526020810184848401111561398657600080fd5b613991848285615034565b509392505050565b60006139ac6139a784614dae565b614d2c565b9050828152602081018484840111156139c457600080fd5b6139cf848285615043565b509392505050565b6000813590506139e681615935565b92915050565b600082601f8301126139fd57600080fd5b8135613a0d848260208601613897565b91505092915050565b600081359050613a258161594c565b92915050565b600081519050613a3a8161594c565b92915050565b600081359050613a4f81615963565b92915050565b600081519050613a6481615963565b92915050565b600082601f830112613a7b57600080fd5b8135613a8b84826020860161391d565b91505092915050565b600082601f830112613aa557600080fd5b8135613ab584826020860161395b565b91505092915050565b600082601f830112613acf57600080fd5b8151613adf848260208601613999565b91505092915050565b600081359050613af78161597a565b92915050565b600081519050613b0c8161597a565b92915050565b600081359050613b2181615991565b92915050565b600060208284031215613b3957600080fd5b6000613b47848285016139d7565b91505092915050565b60008060408385031215613b6357600080fd5b6000613b71858286016139d7565b9250506020613b82858286016139d7565b9150509250929050565b600080600060608486031215613ba157600080fd5b6000613baf868287016139d7565b9350506020613bc0868287016139d7565b9250506040613bd186828701613ae8565b9150509250925092565b60008060008060808587031215613bf157600080fd5b6000613bff878288016139d7565b9450506020613c10878288016139d7565b9350506040613c2187828801613ae8565b925050606085013567ffffffffffffffff811115613c3e57600080fd5b613c4a87828801613a6a565b91505092959194509250565b60008060408385031215613c6957600080fd5b6000613c77858286016139d7565b9250506020613c8885828601613a16565b9150509250929050565b60008060408385031215613ca557600080fd5b6000613cb3858286016139d7565b9250506020613cc485828601613ae8565b9150509250929050565b600060208284031215613ce057600080fd5b600082013567ffffffffffffffff811115613cfa57600080fd5b613d06848285016139ec565b91505092915050565b600060208284031215613d2157600080fd5b6000613d2f84828501613a2b565b91505092915050565b600060208284031215613d4a57600080fd5b6000613d5884828501613a40565b91505092915050565b600060208284031215613d7357600080fd5b6000613d8184828501613a55565b91505092915050565b600060208284031215613d9c57600080fd5b600082015167ffffffffffffffff811115613db657600080fd5b613dc284828501613abe565b91505092915050565b60008060408385031215613dde57600080fd5b600083013567ffffffffffffffff811115613df857600080fd5b613e0485828601613a94565b9250506020613e1585828601613b12565b9150509250929050565b600060208284031215613e3157600080fd5b6000613e3f84828501613ae8565b91505092915050565b600060208284031215613e5a57600080fd5b6000613e6884828501613afd565b91505092915050565b60008060408385031215613e8457600080fd5b6000613e9285828601613ae8565b9250506020613ea385828601613ae8565b9150509250929050565b6000613eb98383614150565b905092915050565b6000613ecd83836141fb565b905092915050565b6000613ee18383614665565b905092915050565b613ef281614f8f565b82525050565b613f0181614f7d565b82525050565b613f1081614f7d565b82525050565b613f1f81614f7d565b82525050565b6000613f3082614e14565b613f3a8185614e5a565b935083602082028501613f4c85614ddf565b8060005b85811015613f885784840389528151613f698582613ead565b9450613f7483614e40565b925060208a01995050600181019050613f50565b50829750879550505050505092915050565b6000613fa582614e14565b613faf8185614e6b565b935083602082028501613fc185614ddf565b8060005b85811015613ffd5784840389528151613fde8582613ead565b9450613fe983614e40565b925060208a01995050600181019050613fc5565b50829750879550505050505092915050565b600061401a82614e14565b6140248185614e7c565b93508360208202850161403685614ddf565b8060005b8581101561407257848403895281516140538582613ec1565b945061405e83614e40565b925060208a0199505060018101905061403a565b50829750879550505050505092915050565b600061408f82614e1f565b6140998185614e8d565b9350836020820285016140ab85614def565b8060005b858110156140e757848403895281516140c88582613ed5565b94506140d383614e4d565b925060208a019950506001810190506140af565b50829750879550505050505092915050565b61410281614fa1565b82525050565b600061411382614e2a565b61411d8185614e9e565b935061412d818560208601615043565b614136816151d9565b840191505092915050565b61414a81615010565b82525050565b600061415b82614e35565b6141658185614eaf565b9350614175818560208601615043565b61417e816151d9565b840191505092915050565b600061419482614e35565b61419e8185614ec0565b93506141ae818560208601615043565b6141b7816151d9565b840191505092915050565b60006141cd82614e35565b6141d78185614ed1565b93506141e7818560208601615043565b6141f0816151d9565b840191505092915050565b600061420682614e35565b6142108185614ee2565b9350614220818560208601615043565b614229816151d9565b840191505092915050565b6000815461424181615076565b61424b8186614ed1565b945060018216600081146142665760018114614278576142ab565b60ff19831686526020860193506142ab565b61428185614dff565b60005b838110156142a357815481890152600182019150602081019050614284565b808801955050505b50505092915050565b60006142c1603e83614ec0565b91506142cc826151ea565b604082019050919050565b60006142e4602b83614ec0565b91506142ef82615239565b604082019050919050565b6000614307603283614ec0565b915061431282615288565b604082019050919050565b600061432a602683614ec0565b9150614335826152d7565b604082019050919050565b600061434d601c83614ec0565b915061435882615326565b602082019050919050565b6000614370603a83614ec0565b915061437b8261534f565b604082019050919050565b6000614393602483614ec0565b915061439e8261539e565b604082019050919050565b60006143b6601983614ec0565b91506143c1826153ed565b602082019050919050565b60006143d9600a83614ec0565b91506143e482615416565b602082019050919050565b60006143fc602c83614ec0565b91506144078261543f565b604082019050919050565b600061441f602a83614ec0565b915061442a8261548e565b604082019050919050565b6000614442602e83614ec0565b915061444d826154dd565b604082019050919050565b6000614465603883614ec0565b91506144708261552c565b604082019050919050565b6000614488602a83614ec0565b91506144938261557b565b604082019050919050565b60006144ab602983614ec0565b91506144b6826155ca565b604082019050919050565b60006144ce602e83614ec0565b91506144d982615619565b604082019050919050565b60006144f1602983614ec0565b91506144fc82615668565b604082019050919050565b6000614514602083614ec0565b915061451f826156b7565b602082019050919050565b6000614537602c83614ec0565b9150614542826156e0565b604082019050919050565b600061455a602083614ec0565b91506145658261572f565b602082019050919050565b600061457d602983614ec0565b915061458882615758565b604082019050919050565b60006145a0601f83614ec0565b91506145ab826157a7565b602082019050919050565b60006145c3602183614ec0565b91506145ce826157d0565b604082019050919050565b60006145e6602983614ec0565b91506145f18261581f565b604082019050919050565b6000614609603183614ec0565b91506146148261586e565b604082019050919050565b600061462c602c83614ec0565b9150614637826158bd565b604082019050919050565b600061464f601883614ec0565b915061465a8261590c565b602082019050919050565b600060608301600083015184820360008601526146828282613f25565b91505060208301516146976020860182614705565b5060408301516146aa6040860182613ef8565b508091505092915050565b600060608301600083015184820360008601526146d28282613f25565b91505060208301516146e76020860182614705565b5060408301516146fa6040860182613ef8565b508091505092915050565b61470e81614ff9565b82525050565b61471d81614ff9565b82525050565b61472c81614ff9565b82525050565b61473b81615022565b82525050565b61474a81615003565b82525050565b60006020820190506147656000830184613f07565b92915050565b60006020820190506147806000830184613ee9565b92915050565b600060808201905061479b6000830187613f07565b6147a86020830186613f07565b6147b56040830185614714565b81810360608301526147c78184614108565b905095945050505050565b600060208201905081810360008301526147ec8184613f9a565b905092915050565b6000604082019050818103600083015261480e818561400f565b905061481d6020830184614141565b9392505050565b6000602082019050818103600083015261483e8184614084565b905092915050565b600060208201905061485b60008301846140f9565b92915050565b6000602082019050818103600083015261487b81846141c2565b905092915050565b6000602082019050818103600083015261489d8184614189565b905092915050565b600060608201905081810360008301526148bf8186614234565b90506148ce6020830185614732565b81810360408301526148e0818461400f565b9050949350505050565b60006020820190508181036000830152614903816142b4565b9050919050565b60006020820190508181036000830152614923816142d7565b9050919050565b60006020820190508181036000830152614943816142fa565b9050919050565b600060208201905081810360008301526149638161431d565b9050919050565b6000602082019050818103600083015261498381614340565b9050919050565b600060208201905081810360008301526149a381614363565b9050919050565b600060208201905081810360008301526149c381614386565b9050919050565b600060208201905081810360008301526149e3816143a9565b9050919050565b60006020820190508181036000830152614a03816143cc565b9050919050565b60006020820190508181036000830152614a23816143ef565b9050919050565b60006020820190508181036000830152614a4381614412565b9050919050565b60006020820190508181036000830152614a6381614435565b9050919050565b60006020820190508181036000830152614a8381614458565b9050919050565b60006020820190508181036000830152614aa38161447b565b9050919050565b60006020820190508181036000830152614ac38161449e565b9050919050565b60006020820190508181036000830152614ae3816144c1565b9050919050565b60006020820190508181036000830152614b03816144e4565b9050919050565b60006020820190508181036000830152614b2381614507565b9050919050565b60006020820190508181036000830152614b438161452a565b9050919050565b60006020820190508181036000830152614b638161454d565b9050919050565b60006020820190508181036000830152614b8381614570565b9050919050565b60006020820190508181036000830152614ba381614593565b9050919050565b60006020820190508181036000830152614bc3816145b6565b9050919050565b60006020820190508181036000830152614be3816145d9565b9050919050565b60006020820190508181036000830152614c03816145fc565b9050919050565b60006020820190508181036000830152614c238161461f565b9050919050565b60006020820190508181036000830152614c4381614642565b9050919050565b60006020820190508181036000830152614c6481846146b5565b905092915050565b6000602082019050614c816000830184614714565b92915050565b6000606082019050614c9c6000830186614723565b614ca96020830185613f16565b8181036040830152614cbb8184614234565b9050949350505050565b6000608082019050614cda6000830187614714565b8181036020830152614cec8186614189565b9050614cfb6040830185614741565b614d0860608301846140f9565b95945050505050565b6000602082019050614d266000830184614741565b92915050565b6000614d36614d47565b9050614d4282826150a8565b919050565b6000604051905090565b600067ffffffffffffffff821115614d6c57614d6b6151aa565b5b602082029050602081019050919050565b600067ffffffffffffffff821115614d9857614d976151aa565b5b614da1826151d9565b9050602081019050919050565b600067ffffffffffffffff821115614dc957614dc86151aa565b5b614dd2826151d9565b9050602081019050919050565b6000819050602082019050919050565b6000819050602082019050919050565b60008190508160005260206000209050919050565b600081519050919050565b600081519050919050565b600081519050919050565b600081519050919050565b6000602082019050919050565b6000602082019050919050565b600082825260208201905092915050565b600082825260208201905092915050565b600082825260208201905092915050565b600082825260208201905092915050565b600082825260208201905092915050565b600082825260208201905092915050565b600082825260208201905092915050565b600082825260208201905092915050565b600082825260208201905092915050565b6000614efe82614ff9565b9150614f0983614ff9565b9250827fffffffffffffffffffffffffffffffffffffffffffffffffffffffffffffffff03821115614f3e57614f3d61514c565b5b828201905092915050565b6000614f5482614ff9565b9150614f5f83614ff9565b925082821015614f7257614f7161514c565b5b828203905092915050565b6000614f8882614fd9565b9050919050565b6000614f9a82614fd9565b9050919050565b60008115159050919050565b60007fffffffff0000000000000000000000000000000000000000000000000000000082169050919050565b600073ffffffffffffffffffffffffffffffffffffffff82169050919050565b6000819050919050565b600060ff82169050919050565b600061501b82614ff9565b9050919050565b600061502d82615003565b9050919050565b82818337600083830152505050565b60005b83811015615061578082015181840152602081019050615046565b83811115615070576000848401525b50505050565b6000600282049050600182168061508e57607f821691505b602082108114156150a2576150a161517b565b5b50919050565b6150b1826151d9565b810181811067ffffffffffffffff821117156150d0576150cf6151aa565b5b80604052505050565b60006150e482614ff9565b91507fffffffffffffffffffffffffffffffffffffffffffffffffffffffffffffffff8214156151175761511661514c565b5b600182019050919050565b600061512d82615003565b915060ff8214156151415761514061514c565b5b600182019050919050565b7f4e487b7100000000000000000000000000000000000000000000000000000000600052601160045260246000fd5b7f4e487b7100000000000000000000000000000000000000000000000000000000600052602260045260246000fd5b7f4e487b7100000000000000000000000000000000000000000000000000000000600052604160045260246000fd5b6000601f19601f8301169050919050565b7f596f75206861766520616c7265616479207573656420616c6c20796f7572732060008201527f61766961626c6520766f74657320666f722074686973204d61644c6962210000602082015250565b7f455243373231456e756d657261626c653a206f776e657220696e646578206f7560008201527f74206f6620626f756e6473000000000000000000000000000000000000000000602082015250565b7f4552433732313a207472616e7366657220746f206e6f6e20455243373231526560008201527f63656976657220696d706c656d656e7465720000000000000000000000000000602082015250565b7f4f776e61626c653a206e6577206f776e657220697320746865207a65726f206160008201527f6464726573730000000000000000000000000000000000000000000000000000602082015250565b7f4552433732313a20746f6b656e20616c7265616479206d696e74656400000000600082015250565b7f596f752063616e206f70656e2061206e6577204d61644c696273206f6e6c792060008201527f69662070726576696f7573206f6e6520697320636c6f73656421000000000000602082015250565b7f4552433732313a207472616e7366657220746f20746865207a65726f2061646460008201527f7265737300000000000000000000000000000000000000000000000000000000602082015250565b7f4552433732313a20617070726f766520746f2063616c6c657200000000000000600082015250565b7f4e6f742065786973742100000000000000000000000000000000000000000000600082015250565b7f4552433732313a206f70657261746f7220717565727920666f72206e6f6e657860008201527f697374656e7420746f6b656e0000000000000000000000000000000000000000602082015250565b7f506c6561736520696e736572742074686520636f7272656374206e756d62657260008201527f206f6620776f7264732100000000000000000000000000000000000000000000602082015250565b7f596f7520617265206e6f7420746865206f776e6572206f66206e6674206f722060008201527f4d61644c696273204f776e657221000000000000000000000000000000000000602082015250565b7f4552433732313a20617070726f76652063616c6c6572206973206e6f74206f7760008201527f6e6572206e6f7220617070726f76656420666f7220616c6c0000000000000000602082015250565b7f4552433732313a2062616c616e636520717565727920666f7220746865207a6560008201527f726f206164647265737300000000000000000000000000000000000000000000602082015250565b7f4552433732313a206f776e657220717565727920666f72206e6f6e657869737460008201527f656e7420746f6b656e0000000000000000000000000000000000000000000000602082015250565b7f506c6179657220616c72656164792068617320612070726f706f73616c20666f60008201527f722074686973204d61644c696221000000000000000000000000000000000000602082015250565b7f4561636820776f7264206d757374206265206c657373207468616e203336206360008201527f6861726163746572730000000000000000000000000000000000000000000000602082015250565b7f4552433732313a206d696e7420746f20746865207a65726f2061646472657373600082015250565b7f4552433732313a20617070726f76656420717565727920666f72206e6f6e657860008201527f697374656e7420746f6b656e0000000000000000000000000000000000000000602082015250565b7f4f776e61626c653a2063616c6c6572206973206e6f7420746865206f776e6572600082015250565b7f4552433732313a207472616e73666572206f6620746f6b656e2074686174206960008201527f73206e6f74206f776e0000000000000000000000000000000000000000000000602082015250565b7f53656c6563746564204d61644c696220616c726561647920636c6f7365642100600082015250565b7f4552433732313a20617070726f76616c20746f2063757272656e74206f776e6560008201527f7200000000000000000000000000000000000000000000000000000000000000602082015250565b7f50726f706f73616c206d75737420626520666f72206f70656e2f63757272656e60008201527f74204d61644c6962210000000000000000000000000000000000000000000000602082015250565b7f4552433732313a207472616e736665722063616c6c6572206973206e6f74206f60008201527f776e6572206e6f7220617070726f766564000000000000000000000000000000602082015250565b7f455243373231456e756d657261626c653a20676c6f62616c20696e646578206f60008201527f7574206f6620626f756e64730000000000000000000000000000000000000000602082015250565b7f73686f7274656e20796f7572207465787420706c656173650000000000000000600082015250565b61593e81614f7d565b811461594957600080fd5b50565b61595581614fa1565b811461596057600080fd5b50565b61596c81614fad565b811461597757600080fd5b50565b61598381614ff9565b811461598e57600080fd5b50565b61599a81615003565b81146159a557600080fd5b5056fea26469706673582212201d4b2e77bafd701ed0c02896955b1c8bf75a39731414d8385ff3bac01ecf959864736f6c63430008040033",
  "libraries": {
    "MadLibsUtility": "0x5FbDB2315678afecb367f032d93F642f64180aa3"
  },
  "devdoc": {
    "kind": "dev",
    "methods": {
      "approve(address,uint256)": {
        "details": "See {IERC721-approve}."
      },
      "balanceOf(address)": {
        "details": "See {IERC721-balanceOf}."
      },
      "getApproved(uint256)": {
        "details": "See {IERC721-getApproved}."
      },
      "isApprovedForAll(address,address)": {
        "details": "See {IERC721-isApprovedForAll}."
      },
      "name()": {
        "details": "See {IERC721Metadata-name}."
      },
      "owner()": {
        "details": "Returns the address of the current owner."
      },
      "ownerOf(uint256)": {
        "details": "See {IERC721-ownerOf}."
      },
      "renounceOwnership()": {
        "details": "Leaves the contract without owner. It will not be possible to call `onlyOwner` functions anymore. Can only be called by the current owner. NOTE: Renouncing ownership will leave the contract without an owner, thereby removing any functionality that is only available to the owner."
      },
      "safeTransferFrom(address,address,uint256)": {
        "details": "See {IERC721-safeTransferFrom}."
      },
      "safeTransferFrom(address,address,uint256,bytes)": {
        "details": "See {IERC721-safeTransferFrom}."
      },
      "setApprovalForAll(address,bool)": {
        "details": "See {IERC721-setApprovalForAll}."
      },
      "supportsInterface(bytes4)": {
        "details": "See {IERC165-supportsInterface}."
      },
      "symbol()": {
        "details": "See {IERC721Metadata-symbol}."
      },
      "tokenByIndex(uint256)": {
        "details": "See {IERC721Enumerable-tokenByIndex}."
      },
      "tokenOfOwnerByIndex(address,uint256)": {
        "details": "See {IERC721Enumerable-tokenOfOwnerByIndex}."
      },
      "totalSupply()": {
        "details": "See {IERC721Enumerable-totalSupply}."
      },
      "transferFrom(address,address,uint256)": {
        "details": "See {IERC721-transferFrom}."
      },
      "transferOwnership(address)": {
        "details": "Transfers ownership of the contract to a new account (`newOwner`). Can only be called by the current owner."
      }
    },
    "version": 1
  },
  "userdoc": {
    "kind": "user",
    "methods": {},
    "version": 1
  },
  "storageLayout": {
    "storage": [
      {
        "astId": 129,
        "contract": "contracts/MadLibs.sol:MadLibs",
        "label": "_name",
        "offset": 0,
        "slot": "0",
        "type": "t_string_storage"
      },
      {
        "astId": 131,
        "contract": "contracts/MadLibs.sol:MadLibs",
        "label": "_symbol",
        "offset": 0,
        "slot": "1",
        "type": "t_string_storage"
      },
      {
        "astId": 135,
        "contract": "contracts/MadLibs.sol:MadLibs",
        "label": "_owners",
        "offset": 0,
        "slot": "2",
        "type": "t_mapping(t_uint256,t_address)"
      },
      {
        "astId": 139,
        "contract": "contracts/MadLibs.sol:MadLibs",
        "label": "_balances",
        "offset": 0,
        "slot": "3",
        "type": "t_mapping(t_address,t_uint256)"
      },
      {
        "astId": 143,
        "contract": "contracts/MadLibs.sol:MadLibs",
        "label": "_tokenApprovals",
        "offset": 0,
        "slot": "4",
        "type": "t_mapping(t_uint256,t_address)"
      },
      {
        "astId": 149,
        "contract": "contracts/MadLibs.sol:MadLibs",
        "label": "_operatorApprovals",
        "offset": 0,
        "slot": "5",
        "type": "t_mapping(t_address,t_mapping(t_address,t_bool))"
      },
      {
        "astId": 1068,
        "contract": "contracts/MadLibs.sol:MadLibs",
        "label": "_ownedTokens",
        "offset": 0,
        "slot": "6",
        "type": "t_mapping(t_address,t_mapping(t_uint256,t_uint256))"
      },
      {
        "astId": 1072,
        "contract": "contracts/MadLibs.sol:MadLibs",
        "label": "_ownedTokensIndex",
        "offset": 0,
        "slot": "7",
        "type": "t_mapping(t_uint256,t_uint256)"
      },
      {
        "astId": 1075,
        "contract": "contracts/MadLibs.sol:MadLibs",
        "label": "_allTokens",
        "offset": 0,
        "slot": "8",
        "type": "t_array(t_uint256)dyn_storage"
      },
      {
        "astId": 1079,
        "contract": "contracts/MadLibs.sol:MadLibs",
        "label": "_allTokensIndex",
        "offset": 0,
        "slot": "9",
        "type": "t_mapping(t_uint256,t_uint256)"
      },
      {
        "astId": 7,
        "contract": "contracts/MadLibs.sol:MadLibs",
        "label": "_owner",
        "offset": 0,
        "slot": "10",
        "type": "t_address"
      },
      {
        "astId": 2289,
        "contract": "contracts/MadLibs.sol:MadLibs",
        "label": "_tokenIds",
        "offset": 0,
        "slot": "11",
        "type": "t_struct(Counter)1774_storage"
      },
      {
        "astId": 2292,
        "contract": "contracts/MadLibs.sol:MadLibs",
        "label": "_maxVotes",
        "offset": 0,
        "slot": "12",
        "type": "t_uint8"
      },
      {
        "astId": 2296,
        "contract": "contracts/MadLibs.sol:MadLibs",
        "label": "_madlibs",
        "offset": 0,
        "slot": "13",
        "type": "t_array(t_struct(MadLib)2334_storage)dyn_storage"
      },
      {
        "astId": 2305,
        "contract": "contracts/MadLibs.sol:MadLibs",
        "label": "price",
        "offset": 0,
        "slot": "14",
        "type": "t_uint256"
      }
    ],
    "types": {
      "t_address": {
        "encoding": "inplace",
        "label": "address",
        "numberOfBytes": "20"
      },
      "t_array(t_string_storage)dyn_storage": {
        "base": "t_string_storage",
        "encoding": "dynamic_array",
        "label": "string[]",
        "numberOfBytes": "32"
      },
      "t_array(t_struct(MadLib)2334_storage)dyn_storage": {
        "base": "t_struct(MadLib)2334_storage",
        "encoding": "dynamic_array",
        "label": "struct MadLibs.MadLib[]",
        "numberOfBytes": "32"
      },
      "t_array(t_struct(Proposal)2313_storage)dyn_storage": {
        "base": "t_struct(Proposal)2313_storage",
        "encoding": "dynamic_array",
        "label": "struct MadLibs.Proposal[]",
        "numberOfBytes": "32"
      },
      "t_array(t_uint256)dyn_storage": {
        "base": "t_uint256",
        "encoding": "dynamic_array",
        "label": "uint256[]",
        "numberOfBytes": "32"
      },
      "t_bool": {
        "encoding": "inplace",
        "label": "bool",
        "numberOfBytes": "1"
      },
      "t_mapping(t_address,t_bool)": {
        "encoding": "mapping",
        "key": "t_address",
        "label": "mapping(address => bool)",
        "numberOfBytes": "32",
        "value": "t_bool"
      },
      "t_mapping(t_address,t_mapping(t_address,t_bool))": {
        "encoding": "mapping",
        "key": "t_address",
        "label": "mapping(address => mapping(address => bool))",
        "numberOfBytes": "32",
        "value": "t_mapping(t_address,t_bool)"
      },
      "t_mapping(t_address,t_mapping(t_uint256,t_uint256))": {
        "encoding": "mapping",
        "key": "t_address",
        "label": "mapping(address => mapping(uint256 => uint256))",
        "numberOfBytes": "32",
        "value": "t_mapping(t_uint256,t_uint256)"
      },
      "t_mapping(t_address,t_uint256)": {
        "encoding": "mapping",
        "key": "t_address",
        "label": "mapping(address => uint256)",
        "numberOfBytes": "32",
        "value": "t_uint256"
      },
      "t_mapping(t_address,t_uint8)": {
        "encoding": "mapping",
        "key": "t_address",
        "label": "mapping(address => uint8)",
        "numberOfBytes": "32",
        "value": "t_uint8"
      },
      "t_mapping(t_uint256,t_address)": {
        "encoding": "mapping",
        "key": "t_uint256",
        "label": "mapping(uint256 => address)",
        "numberOfBytes": "32",
        "value": "t_address"
      },
      "t_mapping(t_uint256,t_uint256)": {
        "encoding": "mapping",
        "key": "t_uint256",
        "label": "mapping(uint256 => uint256)",
        "numberOfBytes": "32",
        "value": "t_uint256"
      },
      "t_string_storage": {
        "encoding": "bytes",
        "label": "string",
        "numberOfBytes": "32"
      },
      "t_struct(Counter)1774_storage": {
        "encoding": "inplace",
        "label": "struct Counters.Counter",
        "members": [
          {
            "astId": 1773,
            "contract": "contracts/MadLibs.sol:MadLibs",
            "label": "_value",
            "offset": 0,
            "slot": "0",
            "type": "t_uint256"
          }
        ],
        "numberOfBytes": "32"
      },
      "t_struct(MadLib)2334_storage": {
        "encoding": "inplace",
        "label": "struct MadLibs.MadLib",
        "members": [
          {
            "astId": 2315,
            "contract": "contracts/MadLibs.sol:MadLibs",
            "label": "id",
            "offset": 0,
            "slot": "0",
            "type": "t_uint256"
          },
          {
            "astId": 2317,
            "contract": "contracts/MadLibs.sol:MadLibs",
            "label": "text",
            "offset": 0,
            "slot": "1",
            "type": "t_string_storage"
          },
          {
            "astId": 2319,
            "contract": "contracts/MadLibs.sol:MadLibs",
            "label": "nBlanks",
            "offset": 0,
            "slot": "2",
            "type": "t_uint8"
          },
          {
            "astId": 2323,
            "contract": "contracts/MadLibs.sol:MadLibs",
            "label": "proposals",
            "offset": 0,
            "slot": "3",
            "type": "t_array(t_struct(Proposal)2313_storage)dyn_storage"
          },
          {
            "astId": 2327,
            "contract": "contracts/MadLibs.sol:MadLibs",
            "label": "addrProposed",
            "offset": 0,
            "slot": "4",
            "type": "t_mapping(t_address,t_bool)"
          },
          {
            "astId": 2331,
            "contract": "contracts/MadLibs.sol:MadLibs",
            "label": "addrVotes",
            "offset": 0,
            "slot": "5",
            "type": "t_mapping(t_address,t_uint8)"
          },
          {
            "astId": 2333,
            "contract": "contracts/MadLibs.sol:MadLibs",
            "label": "closed",
            "offset": 0,
            "slot": "6",
            "type": "t_bool"
          }
        ],
        "numberOfBytes": "224"
      },
      "t_struct(Proposal)2313_storage": {
        "encoding": "inplace",
        "label": "struct MadLibs.Proposal",
        "members": [
          {
            "astId": 2308,
            "contract": "contracts/MadLibs.sol:MadLibs",
            "label": "words",
            "offset": 0,
            "slot": "0",
            "type": "t_array(t_string_storage)dyn_storage"
          },
          {
            "astId": 2310,
            "contract": "contracts/MadLibs.sol:MadLibs",
            "label": "countVotes",
            "offset": 0,
            "slot": "1",
            "type": "t_uint256"
          },
          {
            "astId": 2312,
            "contract": "contracts/MadLibs.sol:MadLibs",
            "label": "proposer",
            "offset": 0,
            "slot": "2",
            "type": "t_address"
          }
        ],
        "numberOfBytes": "96"
      },
      "t_uint256": {
        "encoding": "inplace",
        "label": "uint256",
        "numberOfBytes": "32"
      },
      "t_uint8": {
        "encoding": "inplace",
        "label": "uint8",
        "numberOfBytes": "1"
      }
    }
  }
}