{
  "address": "0xDc64a140Aa3E981100a9becA4E685f962f0cF6C9",
  "abi": [
    {
      "inputs": [],
      "stateMutability": "nonpayable",
      "type": "constructor"
    },
    {
      "anonymous": false,
      "inputs": [
        {
          "indexed": true,
          "internalType": "address",
          "name": "owner",
          "type": "address"
        },
        {
          "indexed": true,
          "internalType": "address",
          "name": "approved",
          "type": "address"
        },
        {
          "indexed": true,
          "internalType": "uint256",
          "name": "tokenId",
          "type": "uint256"
        }
      ],
      "name": "Approval",
      "type": "event"
    },
    {
      "anonymous": false,
      "inputs": [
        {
          "indexed": true,
          "internalType": "address",
          "name": "owner",
          "type": "address"
        },
        {
          "indexed": true,
          "internalType": "address",
          "name": "operator",
          "type": "address"
        },
        {
          "indexed": false,
          "internalType": "bool",
          "name": "approved",
          "type": "bool"
        }
      ],
      "name": "ApprovalForAll",
      "type": "event"
    },
    {
      "anonymous": false,
      "inputs": [
        {
          "indexed": true,
          "internalType": "address",
          "name": "previousOwner",
          "type": "address"
        },
        {
          "indexed": true,
          "internalType": "address",
          "name": "newOwner",
          "type": "address"
        }
      ],
      "name": "OwnershipTransferred",
      "type": "event"
    },
    {
      "anonymous": false,
      "inputs": [
        {
          "indexed": true,
          "internalType": "address",
          "name": "from",
          "type": "address"
        },
        {
          "indexed": true,
          "internalType": "address",
          "name": "to",
          "type": "address"
        },
        {
          "indexed": true,
          "internalType": "uint256",
          "name": "tokenId",
          "type": "uint256"
        }
      ],
      "name": "Transfer",
      "type": "event"
    },
    {
      "inputs": [
        {
          "internalType": "uint256",
          "name": "",
          "type": "uint256"
        }
      ],
      "name": "_madlibs",
      "outputs": [
        {
          "internalType": "uint256",
          "name": "id",
          "type": "uint256"
        },
        {
          "internalType": "string",
          "name": "text",
          "type": "string"
        },
        {
          "internalType": "uint8",
          "name": "nBlanks",
          "type": "uint8"
        },
        {
          "internalType": "bool",
          "name": "closed",
          "type": "bool"
        }
      ],
      "stateMutability": "view",
      "type": "function"
    },
    {
      "inputs": [],
      "name": "_maxVotes",
      "outputs": [
        {
          "internalType": "uint8",
          "name": "",
          "type": "uint8"
        }
      ],
      "stateMutability": "view",
      "type": "function"
    },
    {
      "inputs": [
        {
          "internalType": "string[]",
          "name": "_words",
          "type": "string[]"
        }
      ],
      "name": "addProposal",
      "outputs": [],
      "stateMutability": "nonpayable",
      "type": "function"
    },
    {
      "inputs": [
        {
          "internalType": "address",
          "name": "to",
          "type": "address"
        },
        {
          "internalType": "uint256",
          "name": "tokenId",
          "type": "uint256"
        }
      ],
      "name": "approve",
      "outputs": [],
      "stateMutability": "nonpayable",
      "type": "function"
    },
    {
      "inputs": [
        {
          "internalType": "address",
          "name": "owner",
          "type": "address"
        }
      ],
      "name": "balanceOf",
      "outputs": [
        {
          "internalType": "uint256",
          "name": "",
          "type": "uint256"
        }
      ],
      "stateMutability": "view",
      "type": "function"
    },
    {
      "inputs": [
        {
          "internalType": "uint256",
          "name": "_id",
          "type": "uint256"
        }
      ],
      "name": "closeMadLib",
      "outputs": [],
      "stateMutability": "nonpayable",
      "type": "function"
    },
    {
      "inputs": [
        {
          "internalType": "uint256",
          "name": "tokenId",
          "type": "uint256"
        }
      ],
      "name": "getApproved",
      "outputs": [
        {
          "internalType": "address",
          "name": "",
          "type": "address"
        }
      ],
      "stateMutability": "view",
      "type": "function"
    },
    {
      "inputs": [
        {
          "internalType": "uint256",
          "name": "_id",
          "type": "uint256"
        },
        {
          "internalType": "uint256",
          "name": "_idProposal",
          "type": "uint256"
        }
      ],
      "name": "getProposal",
      "outputs": [
        {
          "components": [
            {
              "internalType": "string[]",
              "name": "words",
              "type": "string[]"
            },
            {
              "internalType": "uint256",
              "name": "countVotes",
              "type": "uint256"
            },
            {
              "internalType": "address",
              "name": "proposer",
              "type": "address"
            }
          ],
          "internalType": "struct YourCollectible.Proposal",
          "name": "",
          "type": "tuple"
        }
      ],
      "stateMutability": "view",
      "type": "function"
    },
    {
      "inputs": [
        {
          "internalType": "uint256",
          "name": "_id",
          "type": "uint256"
        }
      ],
      "name": "getProposals",
      "outputs": [
        {
          "components": [
            {
              "internalType": "string[]",
              "name": "words",
              "type": "string[]"
            },
            {
              "internalType": "uint256",
              "name": "countVotes",
              "type": "uint256"
            },
            {
              "internalType": "address",
              "name": "proposer",
              "type": "address"
            }
          ],
          "internalType": "struct YourCollectible.Proposal[]",
          "name": "",
          "type": "tuple[]"
        }
      ],
      "stateMutability": "view",
      "type": "function"
    },
    {
      "inputs": [
        {
          "internalType": "address",
          "name": "owner",
          "type": "address"
        },
        {
          "internalType": "address",
          "name": "operator",
          "type": "address"
        }
      ],
      "name": "isApprovedForAll",
      "outputs": [
        {
          "internalType": "bool",
          "name": "",
          "type": "bool"
        }
      ],
      "stateMutability": "view",
      "type": "function"
    },
    {
      "inputs": [],
      "name": "mintItem",
      "outputs": [
        {
          "internalType": "uint256",
          "name": "",
          "type": "uint256"
        }
      ],
      "stateMutability": "payable",
      "type": "function"
    },
    {
      "inputs": [],
      "name": "name",
      "outputs": [
        {
          "internalType": "string",
          "name": "",
          "type": "string"
        }
      ],
      "stateMutability": "view",
      "type": "function"
    },
    {
      "inputs": [],
      "name": "owner",
      "outputs": [
        {
          "internalType": "address",
          "name": "",
          "type": "address"
        }
      ],
      "stateMutability": "view",
      "type": "function"
    },
    {
      "inputs": [
        {
          "internalType": "uint256",
          "name": "tokenId",
          "type": "uint256"
        }
      ],
      "name": "ownerOf",
      "outputs": [
        {
          "internalType": "address",
          "name": "",
          "type": "address"
        }
      ],
      "stateMutability": "view",
      "type": "function"
    },
    {
      "inputs": [],
      "name": "price",
      "outputs": [
        {
          "internalType": "uint256",
          "name": "",
          "type": "uint256"
        }
      ],
      "stateMutability": "view",
      "type": "function"
    },
    {
      "inputs": [],
      "name": "recipient",
      "outputs": [
        {
          "internalType": "address payable",
          "name": "",
          "type": "address"
        }
      ],
      "stateMutability": "view",
      "type": "function"
    },
    {
      "inputs": [
        {
          "internalType": "uint256",
          "name": "_id",
          "type": "uint256"
        }
      ],
      "name": "renderTokenById",
      "outputs": [
        {
          "internalType": "string",
          "name": "",
          "type": "string"
        }
      ],
      "stateMutability": "view",
      "type": "function"
    },
    {
      "inputs": [],
      "name": "renounceOwnership",
      "outputs": [],
      "stateMutability": "nonpayable",
      "type": "function"
    },
    {
      "inputs": [
        {
          "internalType": "address",
          "name": "from",
          "type": "address"
        },
        {
          "internalType": "address",
          "name": "to",
          "type": "address"
        },
        {
          "internalType": "uint256",
          "name": "tokenId",
          "type": "uint256"
        }
      ],
      "name": "safeTransferFrom",
      "outputs": [],
      "stateMutability": "nonpayable",
      "type": "function"
    },
    {
      "inputs": [
        {
          "internalType": "address",
          "name": "from",
          "type": "address"
        },
        {
          "internalType": "address",
          "name": "to",
          "type": "address"
        },
        {
          "internalType": "uint256",
          "name": "tokenId",
          "type": "uint256"
        },
        {
          "internalType": "bytes",
          "name": "_data",
          "type": "bytes"
        }
      ],
      "name": "safeTransferFrom",
      "outputs": [],
      "stateMutability": "nonpayable",
      "type": "function"
    },
    {
      "inputs": [
        {
          "internalType": "address",
          "name": "operator",
          "type": "address"
        },
        {
          "internalType": "bool",
          "name": "approved",
          "type": "bool"
        }
      ],
      "name": "setApprovalForAll",
      "outputs": [],
      "stateMutability": "nonpayable",
      "type": "function"
    },
    {
      "inputs": [
        {
          "internalType": "bytes4",
          "name": "interfaceId",
          "type": "bytes4"
        }
      ],
      "name": "supportsInterface",
      "outputs": [
        {
          "internalType": "bool",
          "name": "",
          "type": "bool"
        }
      ],
      "stateMutability": "view",
      "type": "function"
    },
    {
      "inputs": [],
      "name": "symbol",
      "outputs": [
        {
          "internalType": "string",
          "name": "",
          "type": "string"
        }
      ],
      "stateMutability": "view",
      "type": "function"
    },
    {
      "inputs": [
        {
          "internalType": "uint256",
          "name": "index",
          "type": "uint256"
        }
      ],
      "name": "tokenByIndex",
      "outputs": [
        {
          "internalType": "uint256",
          "name": "",
          "type": "uint256"
        }
      ],
      "stateMutability": "view",
      "type": "function"
    },
    {
      "inputs": [
        {
          "internalType": "address",
          "name": "owner",
          "type": "address"
        },
        {
          "internalType": "uint256",
          "name": "index",
          "type": "uint256"
        }
      ],
      "name": "tokenOfOwnerByIndex",
      "outputs": [
        {
          "internalType": "uint256",
          "name": "",
          "type": "uint256"
        }
      ],
      "stateMutability": "view",
      "type": "function"
    },
    {
      "inputs": [
        {
          "internalType": "uint256",
          "name": "_id",
          "type": "uint256"
        }
      ],
      "name": "tokenURI",
      "outputs": [
        {
          "internalType": "string",
          "name": "",
          "type": "string"
        }
      ],
      "stateMutability": "view",
      "type": "function"
    },
    {
      "inputs": [],
      "name": "totalSupply",
      "outputs": [
        {
          "internalType": "uint256",
          "name": "",
          "type": "uint256"
        }
      ],
      "stateMutability": "view",
      "type": "function"
    },
    {
      "inputs": [
        {
          "internalType": "address",
          "name": "from",
          "type": "address"
        },
        {
          "internalType": "address",
          "name": "to",
          "type": "address"
        },
        {
          "internalType": "uint256",
          "name": "tokenId",
          "type": "uint256"
        }
      ],
      "name": "transferFrom",
      "outputs": [],
      "stateMutability": "nonpayable",
      "type": "function"
    },
    {
      "inputs": [
        {
          "internalType": "address",
          "name": "newOwner",
          "type": "address"
        }
      ],
      "name": "transferOwnership",
      "outputs": [],
      "stateMutability": "nonpayable",
      "type": "function"
    },
    {
      "inputs": [
        {
          "internalType": "uint256",
          "name": "_idProposal",
          "type": "uint256"
        }
      ],
      "name": "voteProposal",
      "outputs": [],
      "stateMutability": "nonpayable",
      "type": "function"
    }
  ],
  "transactionHash": "0x04fcf343a2daa33f8e670bdbc78a35f93ba635417dda5d94a253a736113071a7",
  "args": [],
  "solcInputHash": "bda756288fc3dc8ec1fdeb5ee859d5e6",
  "bytecode": "0x60806040526003600d60006101000a81548160ff021916908360ff16021790555066038d7ea4c68000600f553480156200003857600080fd5b506040518060400160405280600f81526020017f4d61644c696273206f6e436861696e00000000000000000000000000000000008152506040518060400160405280600381526020017f4d4c4300000000000000000000000000000000000000000000000000000000008152508160009080519060200190620000bd929190620001cd565b508060019080519060200190620000d6929190620001cd565b505050620000f9620000ed620000ff60201b60201c565b6200010760201b60201c565b620002e2565b600033905090565b6000600a60009054906101000a900473ffffffffffffffffffffffffffffffffffffffff16905081600a60006101000a81548173ffffffffffffffffffffffffffffffffffffffff021916908373ffffffffffffffffffffffffffffffffffffffff1602179055508173ffffffffffffffffffffffffffffffffffffffff168173ffffffffffffffffffffffffffffffffffffffff167f8be0079c531659141344cd1fd0a4f28419497f9722a3daafe3b4186f6b6457e060405160405180910390a35050565b828054620001db906200027d565b90600052602060002090601f016020900481019282620001ff57600085556200024b565b82601f106200021a57805160ff19168380011785556200024b565b828001600101855582156200024b579182015b828111156200024a5782518255916020019190600101906200022d565b5b5090506200025a91906200025e565b5090565b5b80821115620002795760008160009055506001016200025f565b5090565b600060028204905060018216806200029657607f821691505b60208210811415620002ad57620002ac620002b3565b5b50919050565b7f4e487b7100000000000000000000000000000000000000000000000000000000600052602260045260246000fd5b615bb780620002f26000396000f3fe6080604052600436106101cd5760003560e01c80638da5cb5b116100f7578063aed50f8f11610095578063d06ff53111610064578063d06ff531146106d7578063e985e9c514610700578063eb93406b1461073d578063f2fde38b1461075b576101cd565b8063aed50f8f1461061d578063b489ce7114610648578063b88d4fde14610671578063c87b56dd1461069a576101cd565b8063a035b1fe116100d1578063a035b1fe1461054f578063a22cb4651461057a578063a2d6c6da146105a3578063aba21009146105e0576101cd565b80638da5cb5b146104b957806392b4d6cd146104e457806395d89b4114610524576101cd565b80632f745c591161016f57806366d003ac1161013e57806366d003ac1461041157806370a082311461043c578063715018a614610479578063807896d514610490576101cd565b80632f745c591461033157806342842e0e1461036e5780634f6ccce7146103975780636352211e146103d4576101cd565b8063095ea7b3116101ab578063095ea7b31461027757806318160ddd146102a057806323b872dd146102cb5780632c72fdfc146102f4576101cd565b806301ffc9a7146101d257806306fdde031461020f578063081812fc1461023a575b600080fd5b3480156101de57600080fd5b506101f960048036038101906101f49190613c73565b610784565b6040516102069190614828565b60405180910390f35b34801561021b57600080fd5b506102246107fe565b6040516102319190614843565b60405180910390f35b34801561024657600080fd5b50610261600480360381019061025c9190613cc5565b610890565b60405161026e9190614784565b60405180910390f35b34801561028357600080fd5b5061029e60048036038101906102999190613bf6565b610915565b005b3480156102ac57600080fd5b506102b5610a2d565b6040516102c29190614b67565b60405180910390f35b3480156102d757600080fd5b506102f260048036038101906102ed9190613af0565b610a3a565b005b34801561030057600080fd5b5061031b60048036038101906103169190613cc5565b610a9a565b6040516103289190614806565b60405180910390f35b34801561033d57600080fd5b5061035860048036038101906103539190613bf6565b610c7d565b6040516103659190614b67565b60405180910390f35b34801561037a57600080fd5b5061039560048036038101906103909190613af0565b610d22565b005b3480156103a357600080fd5b506103be60048036038101906103b99190613cc5565b610d42565b6040516103cb9190614b67565b60405180910390f35b3480156103e057600080fd5b506103fb60048036038101906103f69190613cc5565b610dd9565b6040516104089190614784565b60405180910390f35b34801561041d57600080fd5b50610426610e8b565b604051610433919061479f565b60405180910390f35b34801561044857600080fd5b50610463600480360381019061045e9190613a8b565b610ea3565b6040516104709190614b67565b60405180910390f35b34801561048557600080fd5b5061048e610f5b565b005b34801561049c57600080fd5b506104b760048036038101906104b29190613cc5565b610fe3565b005b3480156104c557600080fd5b506104ce6112e8565b6040516104db9190614784565b60405180910390f35b3480156104f057600080fd5b5061050b60048036038101906105069190613cc5565b611312565b60405161051b9493929190614b82565b60405180910390f35b34801561053057600080fd5b506105396113f4565b6040516105469190614843565b60405180910390f35b34801561055b57600080fd5b50610564611486565b6040516105719190614b67565b60405180910390f35b34801561058657600080fd5b506105a1600480360381019061059c9190613bba565b61148c565b005b3480156105af57600080fd5b506105ca60048036038101906105c59190613cc5565b61160d565b6040516105d79190614843565b60405180910390f35b3480156105ec57600080fd5b5061060760048036038101906106029190613cee565b611680565b6040516106149190614b45565b60405180910390f35b34801561062957600080fd5b50610632611865565b60405161063f9190614bce565b60405180910390f35b34801561065457600080fd5b5061066f600480360381019061066a9190613c32565b611878565b005b34801561067d57600080fd5b5061069860048036038101906106939190613b3f565b611b6f565b005b3480156106a657600080fd5b506106c160048036038101906106bc9190613cc5565b611bd1565b6040516106ce9190614843565b60405180910390f35b3480156106e357600080fd5b506106fe60048036038101906106f99190613cc5565b611d10565b005b34801561070c57600080fd5b5061072760048036038101906107229190613ab4565b611ea5565b6040516107349190614828565b60405180910390f35b610745611f39565b6040516107529190614b67565b60405180910390f35b34801561076757600080fd5b50610782600480360381019061077d9190613a8b565b6120d0565b005b60007f780e9d63000000000000000000000000000000000000000000000000000000007bffffffffffffffffffffffffffffffffffffffffffffffffffffffff1916827bffffffffffffffffffffffffffffffffffffffffffffffffffffffff191614806107f757506107f6826121c8565b5b9050919050565b60606000805461080d90614f8b565b80601f016020809104026020016040519081016040528092919081815260200182805461083990614f8b565b80156108865780601f1061085b57610100808354040283529160200191610886565b820191906000526020600020905b81548152906001019060200180831161086957829003601f168201915b5050505050905090565b600061089b826122aa565b6108da576040517f08c379a00000000000000000000000000000000000000000000000000000000081526004016108d190614a25565b60405180910390fd5b6004600083815260200190815260200160002060009054906101000a900473ffffffffffffffffffffffffffffffffffffffff169050919050565b600061092082610dd9565b90508073ffffffffffffffffffffffffffffffffffffffff168373ffffffffffffffffffffffffffffffffffffffff161415610991576040517f08c379a000000000000000000000000000000000000000000000000000000000815260040161098890614aa5565b60405180910390fd5b8073ffffffffffffffffffffffffffffffffffffffff166109b0612316565b73ffffffffffffffffffffffffffffffffffffffff1614806109df57506109de816109d9612316565b611ea5565b5b610a1e576040517f08c379a0000000000000000000000000000000000000000000000000000000008152600401610a1590614985565b60405180910390fd5b610a28838361231e565b505050565b6000600880549050905090565b610a4b610a45612316565b826123d7565b610a8a576040517f08c379a0000000000000000000000000000000000000000000000000000000008152600401610a8190614ae5565b60405180910390fd5b610a958383836124b5565b505050565b6060600e8281548110610ad6577f4e487b7100000000000000000000000000000000000000000000000000000000600052603260045260246000fd5b9060005260206000209060070201600301805480602002602001604051908101604052809291908181526020016000905b82821015610c72578382906000526020600020906003020160405180606001604052908160008201805480602002602001604051908101604052809291908181526020016000905b82821015610bfb578382906000526020600020018054610b6e90614f8b565b80601f0160208091040260200160405190810160405280929190818152602001828054610b9a90614f8b565b8015610be75780601f10610bbc57610100808354040283529160200191610be7565b820191906000526020600020905b815481529060010190602001808311610bca57829003601f168201915b505050505081526020019060010190610b4f565b505050508152602001600182015481526020016002820160009054906101000a900473ffffffffffffffffffffffffffffffffffffffff1673ffffffffffffffffffffffffffffffffffffffff1673ffffffffffffffffffffffffffffffffffffffff168152505081526020019060010190610b07565b505050509050919050565b6000610c8883610ea3565b8210610cc9576040517f08c379a0000000000000000000000000000000000000000000000000000000008152600401610cc090614885565b60405180910390fd5b600660008473ffffffffffffffffffffffffffffffffffffffff1673ffffffffffffffffffffffffffffffffffffffff168152602001908152602001600020600083815260200190815260200160002054905092915050565b610d3d83838360405180602001604052806000815250611b6f565b505050565b6000610d4c610a2d565b8210610d8d576040517f08c379a0000000000000000000000000000000000000000000000000000000008152600401610d8490614b05565b60405180910390fd5b60088281548110610dc7577f4e487b7100000000000000000000000000000000000000000000000000000000600052603260045260246000fd5b90600052602060002001549050919050565b6000806002600084815260200190815260200160002060009054906101000a900473ffffffffffffffffffffffffffffffffffffffff169050600073ffffffffffffffffffffffffffffffffffffffff168173ffffffffffffffffffffffffffffffffffffffff161415610e82576040517f08c379a0000000000000000000000000000000000000000000000000000000008152600401610e79906149c5565b60405180910390fd5b80915050919050565b73a81a6a910fed20374361b35c451a4a44f86ced4681565b60008073ffffffffffffffffffffffffffffffffffffffff168273ffffffffffffffffffffffffffffffffffffffff161415610f14576040517f08c379a0000000000000000000000000000000000000000000000000000000008152600401610f0b906149a5565b60405180910390fd5b600360008373ffffffffffffffffffffffffffffffffffffffff1673ffffffffffffffffffffffffffffffffffffffff168152602001908152602001600020549050919050565b610f63612316565b73ffffffffffffffffffffffffffffffffffffffff16610f816112e8565b73ffffffffffffffffffffffffffffffffffffffff1614610fd7576040517f08c379a0000000000000000000000000000000000000000000000000000000008152600401610fce90614a45565b60405180910390fd5b610fe16000612711565b565b6000610fef600b6127d7565b905060001515600e828154811061102f577f4e487b7100000000000000000000000000000000000000000000000000000000600052603260045260246000fd5b906000526020600020906007020160060160009054906101000a900460ff16151514611090576040517f08c379a000000000000000000000000000000000000000000000000000000000815260040161108790614ac5565b60405180910390fd5b600d60009054906101000a900460ff1660ff16600e82815481106110dd577f4e487b7100000000000000000000000000000000000000000000000000000000600052603260045260246000fd5b906000526020600020906007020160050160003373ffffffffffffffffffffffffffffffffffffffff1673ffffffffffffffffffffffffffffffffffffffff16815260200190815260200160002060009054906101000a900460ff1660ff161061117c576040517f08c379a000000000000000000000000000000000000000000000000000000000815260040161117390614ac5565b60405180910390fd5b600e81815481106111b6577f4e487b7100000000000000000000000000000000000000000000000000000000600052603260045260246000fd5b906000526020600020906007020160050160003373ffffffffffffffffffffffffffffffffffffffff1673ffffffffffffffffffffffffffffffffffffffff168152602001908152602001600020600081819054906101000a900460ff168092919061122190615037565b91906101000a81548160ff021916908360ff16021790555050600e8181548110611274577f4e487b7100000000000000000000000000000000000000000000000000000000600052603260045260246000fd5b906000526020600020906007020160030182815481106112bd577f4e487b7100000000000000000000000000000000000000000000000000000000600052603260045260246000fd5b906000526020600020906003020160010160008154809291906112df90614fee565b91905055505050565b6000600a60009054906101000a900473ffffffffffffffffffffffffffffffffffffffff16905090565b600e818154811061132257600080fd5b906000526020600020906007020160009150905080600001549080600101805461134b90614f8b565b80601f016020809104026020016040519081016040528092919081815260200182805461137790614f8b565b80156113c45780601f10611399576101008083540402835291602001916113c4565b820191906000526020600020905b8154815290600101906020018083116113a757829003601f168201915b5050505050908060020160009054906101000a900460ff16908060060160009054906101000a900460ff16905084565b60606001805461140390614f8b565b80601f016020809104026020016040519081016040528092919081815260200182805461142f90614f8b565b801561147c5780601f106114515761010080835404028352916020019161147c565b820191906000526020600020905b81548152906001019060200180831161145f57829003601f168201915b5050505050905090565b600f5481565b611494612316565b73ffffffffffffffffffffffffffffffffffffffff168273ffffffffffffffffffffffffffffffffffffffff161415611502576040517f08c379a00000000000000000000000000000000000000000000000000000000081526004016114f990614925565b60405180910390fd5b806005600061150f612316565b73ffffffffffffffffffffffffffffffffffffffff1673ffffffffffffffffffffffffffffffffffffffff16815260200190815260200160002060008473ffffffffffffffffffffffffffffffffffffffff1673ffffffffffffffffffffffffffffffffffffffff16815260200190815260200160002060006101000a81548160ff0219169083151502179055508173ffffffffffffffffffffffffffffffffffffffff166115bc612316565b73ffffffffffffffffffffffffffffffffffffffff167f17307eab39ab6107e8899845ad3d59bd9653f200f220920489ca2b5937696c31836040516116019190614828565b60405180910390a35050565b6060600e8281548110611649577f4e487b7100000000000000000000000000000000000000000000000000000000600052603260045260246000fd5b906000526020600020906007020160010160405160200161166a9190614721565b6040516020818303038152906040529050919050565b611688613704565b600e83815481106116c2577f4e487b7100000000000000000000000000000000000000000000000000000000600052603260045260246000fd5b9060005260206000209060070201600301828154811061170b577f4e487b7100000000000000000000000000000000000000000000000000000000600052603260045260246000fd5b906000526020600020906003020160405180606001604052908160008201805480602002602001604051908101604052809291908181526020016000905b828210156117f557838290600052602060002001805461176890614f8b565b80601f016020809104026020016040519081016040528092919081815260200182805461179490614f8b565b80156117e15780601f106117b6576101008083540402835291602001916117e1565b820191906000526020600020905b8154815290600101906020018083116117c457829003601f168201915b505050505081526020019060010190611749565b505050508152602001600182015481526020016002820160009054906101000a900473ffffffffffffffffffffffffffffffffffffffff1673ffffffffffffffffffffffffffffffffffffffff1673ffffffffffffffffffffffffffffffffffffffff1681525050905092915050565b600d60009054906101000a900460ff1681565b6000611884600b6127d7565b905060001515600e82815481106118c4577f4e487b7100000000000000000000000000000000000000000000000000000000600052603260045260246000fd5b906000526020600020906007020160040160003373ffffffffffffffffffffffffffffffffffffffff1673ffffffffffffffffffffffffffffffffffffffff16815260200190815260200160002060009054906101000a900460ff16151514611962576040517f08c379a0000000000000000000000000000000000000000000000000000000008152600401611959906149e5565b60405180910390fd5b600e818154811061199c577f4e487b7100000000000000000000000000000000000000000000000000000000600052603260045260246000fd5b906000526020600020906007020160020160009054906101000a900460ff1660ff16825114611a00576040517f08c379a00000000000000000000000000000000000000000000000000000000081526004016119f790614865565b60405180910390fd5b6001600e8281548110611a3c577f4e487b7100000000000000000000000000000000000000000000000000000000600052603260045260246000fd5b906000526020600020906007020160040160003373ffffffffffffffffffffffffffffffffffffffff1673ffffffffffffffffffffffffffffffffffffffff16815260200190815260200160002060006101000a81548160ff0219169083151502179055506000600e8281548110611add577f4e487b7100000000000000000000000000000000000000000000000000000000600052603260045260246000fd5b90600052602060002090600702016003016001816001815401808255809150500390600052602060002090600302019050338160020160006101000a81548173ffffffffffffffffffffffffffffffffffffffff021916908373ffffffffffffffffffffffffffffffffffffffff16021790555082816000019080519060200190611b6992919061373b565b50505050565b611b80611b7a612316565b836123d7565b611bbf576040517f08c379a0000000000000000000000000000000000000000000000000000000008152600401611bb690614ae5565b60405180910390fd5b611bcb848484846127e5565b50505050565b6060611bdc826122aa565b611c1b576040517f08c379a0000000000000000000000000000000000000000000000000000000008152600401611c1290614945565b60405180910390fd5b6000611c2683612841565b604051602001611c3691906146dd565b60405160208183030381529060405290506000604051602001611c589061476f565b60405160208183030381529060405290506000611c7c611c77866129ee565b612a25565b9050611ce78383611c8c88612841565b611cbe6014611c9a8b610dd9565b73ffffffffffffffffffffffffffffffffffffffff16612bc490919063ffffffff16565b85604051602001611cd3959493929190614618565b604051602081830303815290604052612a25565b604051602001611cf791906146ff565b6040516020818303038152906040529350505050919050565b611d18612316565b73ffffffffffffffffffffffffffffffffffffffff16611d366112e8565b73ffffffffffffffffffffffffffffffffffffffff1614611d8c576040517f08c379a0000000000000000000000000000000000000000000000000000000008152600401611d8390614a45565b60405180910390fd5b60001515600e611d9c600b6127d7565b81548110611dd3577f4e487b7100000000000000000000000000000000000000000000000000000000600052603260045260246000fd5b906000526020600020906007020160060160009054906101000a900460ff16151514611e34576040517f08c379a0000000000000000000000000000000000000000000000000000000008152600401611e2b90614a85565b60405180910390fd5b6001600e8281548110611e70577f4e487b7100000000000000000000000000000000000000000000000000000000600052603260045260246000fd5b906000526020600020906007020160060160006101000a81548160ff021916908315150217905550611ea2600b612e7b565b50565b6000600560008473ffffffffffffffffffffffffffffffffffffffff1673ffffffffffffffffffffffffffffffffffffffff16815260200190815260200160002060008373ffffffffffffffffffffffffffffffffffffffff1673ffffffffffffffffffffffffffffffffffffffff16815260200190815260200160002060009054906101000a900460ff16905092915050565b600080611f46600b6127d7565b1115611ffa57600e6001611f5a600b6127d7565b611f649190614e58565b81548110611f9b577f4e487b7100000000000000000000000000000000000000000000000000000000600052603260045260246000fd5b906000526020600020906007020160060160009054906101000a900460ff16611ff9576040517f08c379a0000000000000000000000000000000000000000000000000000000008152600401611ff090614b25565b60405180910390fd5b5b6000612006600b6127d7565b90506120123382612e91565b6000600e60018160018154018082558091505003906000526020600020906007020190508181600001819055506040518060400160405280601981526020017f6c6520726f736520736f6e6f202320706970706f20697320230000000000000081525081600101908051906020019061208c92919061379b565b5060028160020160006101000a81548160ff021916908360ff16021790555060008160060160006101000a81548160ff021916908315150217905550819250505090565b6120d8612316565b73ffffffffffffffffffffffffffffffffffffffff166120f66112e8565b73ffffffffffffffffffffffffffffffffffffffff161461214c576040517f08c379a000000000000000000000000000000000000000000000000000000000815260040161214390614a45565b60405180910390fd5b600073ffffffffffffffffffffffffffffffffffffffff168173ffffffffffffffffffffffffffffffffffffffff1614156121bc576040517f08c379a00000000000000000000000000000000000000000000000000000000081526004016121b3906148c5565b60405180910390fd5b6121c581612711565b50565b60007f80ac58cd000000000000000000000000000000000000000000000000000000007bffffffffffffffffffffffffffffffffffffffffffffffffffffffff1916827bffffffffffffffffffffffffffffffffffffffffffffffffffffffff1916148061229357507f5b5e139f000000000000000000000000000000000000000000000000000000007bffffffffffffffffffffffffffffffffffffffffffffffffffffffff1916827bffffffffffffffffffffffffffffffffffffffffffffffffffffffff1916145b806122a357506122a28261305f565b5b9050919050565b60008073ffffffffffffffffffffffffffffffffffffffff166002600084815260200190815260200160002060009054906101000a900473ffffffffffffffffffffffffffffffffffffffff1673ffffffffffffffffffffffffffffffffffffffff1614159050919050565b600033905090565b816004600083815260200190815260200160002060006101000a81548173ffffffffffffffffffffffffffffffffffffffff021916908373ffffffffffffffffffffffffffffffffffffffff160217905550808273ffffffffffffffffffffffffffffffffffffffff1661239183610dd9565b73ffffffffffffffffffffffffffffffffffffffff167f8c5be1e5ebec7d5bd14f71427d1e84f3dd0314c0f7b2291e5b200ac8c7c3b92560405160405180910390a45050565b60006123e2826122aa565b612421576040517f08c379a000000000000000000000000000000000000000000000000000000000815260040161241890614965565b60405180910390fd5b600061242c83610dd9565b90508073ffffffffffffffffffffffffffffffffffffffff168473ffffffffffffffffffffffffffffffffffffffff16148061249b57508373ffffffffffffffffffffffffffffffffffffffff1661248384610890565b73ffffffffffffffffffffffffffffffffffffffff16145b806124ac57506124ab8185611ea5565b5b91505092915050565b8273ffffffffffffffffffffffffffffffffffffffff166124d582610dd9565b73ffffffffffffffffffffffffffffffffffffffff161461252b576040517f08c379a000000000000000000000000000000000000000000000000000000000815260040161252290614a65565b60405180910390fd5b600073ffffffffffffffffffffffffffffffffffffffff168273ffffffffffffffffffffffffffffffffffffffff16141561259b576040517f08c379a000000000000000000000000000000000000000000000000000000000815260040161259290614905565b60405180910390fd5b6125a68383836130c9565b6125b160008261231e565b6001600360008573ffffffffffffffffffffffffffffffffffffffff1673ffffffffffffffffffffffffffffffffffffffff16815260200190815260200160002060008282546126019190614e58565b925050819055506001600360008473ffffffffffffffffffffffffffffffffffffffff1673ffffffffffffffffffffffffffffffffffffffff16815260200190815260200160002060008282546126589190614d77565b92505081905550816002600083815260200190815260200160002060006101000a81548173ffffffffffffffffffffffffffffffffffffffff021916908373ffffffffffffffffffffffffffffffffffffffff160217905550808273ffffffffffffffffffffffffffffffffffffffff168473ffffffffffffffffffffffffffffffffffffffff167fddf252ad1be2c89b69c2b068fc378daa952ba7f163c4a11628f55a4df523b3ef60405160405180910390a4505050565b6000600a60009054906101000a900473ffffffffffffffffffffffffffffffffffffffff16905081600a60006101000a81548173ffffffffffffffffffffffffffffffffffffffff021916908373ffffffffffffffffffffffffffffffffffffffff1602179055508173ffffffffffffffffffffffffffffffffffffffff168173ffffffffffffffffffffffffffffffffffffffff167f8be0079c531659141344cd1fd0a4f28419497f9722a3daafe3b4186f6b6457e060405160405180910390a35050565b600081600001549050919050565b6127f08484846124b5565b6127fc848484846131dd565b61283b576040517f08c379a0000000000000000000000000000000000000000000000000000000008152600401612832906148a5565b60405180910390fd5b50505050565b60606000821415612889576040518060400160405280600181526020017f300000000000000000000000000000000000000000000000000000000000000081525090506129e9565b600082905060005b600082146128bb5780806128a490614fee565b915050600a826128b49190614dcd565b9150612891565b60008167ffffffffffffffff8111156128fd577f4e487b7100000000000000000000000000000000000000000000000000000000600052604160045260246000fd5b6040519080825280601f01601f19166020018201604052801561292f5781602001600182028036833780820191505090505b5090505b600085146129e2576001826129489190614e58565b9150600a856129579190615061565b60306129639190614d77565b60f81b81838151811061299f577f4e487b7100000000000000000000000000000000000000000000000000000000600052603260045260246000fd5b60200101907effffffffffffffffffffffffffffffffffffffffffffffffffffffffffffff1916908160001a905350600a856129db9190614dcd565b9450612933565b8093505050505b919050565b606060006129fb8361160d565b604051602001612a0b91906146b0565b604051602081830303815290604052905080915050919050565b6060600082511415612a4857604051806020016040528060008152509050612bbf565b6000604051806060016040528060408152602001615b426040913990506000600360028551612a779190614d77565b612a819190614dcd565b6004612a8d9190614dfe565b90506000602082612a9e9190614d77565b67ffffffffffffffff811115612add577f4e487b7100000000000000000000000000000000000000000000000000000000600052604160045260246000fd5b6040519080825280601f01601f191660200182016040528015612b0f5781602001600182028036833780820191505090505b509050818152600183018586518101602084015b81831015612b7e576003830192508251603f8160121c168501518253600182019150603f81600c1c168501518253600182019150603f8160061c168501518253600182019150603f8116850151825360018201915050612b23565b600389510660018114612b985760028114612ba857612bb3565b613d3d60f01b6002830352612bb3565b603d60f81b60018303525b50505050508093505050505b919050565b606060006002836002612bd79190614dfe565b612be19190614d77565b67ffffffffffffffff811115612c20577f4e487b7100000000000000000000000000000000000000000000000000000000600052604160045260246000fd5b6040519080825280601f01601f191660200182016040528015612c525781602001600182028036833780820191505090505b5090507f300000000000000000000000000000000000000000000000000000000000000081600081518110612cb0577f4e487b7100000000000000000000000000000000000000000000000000000000600052603260045260246000fd5b60200101907effffffffffffffffffffffffffffffffffffffffffffffffffffffffffffff1916908160001a9053507f780000000000000000000000000000000000000000000000000000000000000081600181518110612d3a577f4e487b7100000000000000000000000000000000000000000000000000000000600052603260045260246000fd5b60200101907effffffffffffffffffffffffffffffffffffffffffffffffffffffffffffff1916908160001a90535060006001846002612d7a9190614dfe565b612d849190614d77565b90505b6001811115612e70577f3031323334353637383961626364656600000000000000000000000000000000600f861660108110612dec577f4e487b7100000000000000000000000000000000000000000000000000000000600052603260045260246000fd5b1a60f81b828281518110612e29577f4e487b7100000000000000000000000000000000000000000000000000000000600052603260045260246000fd5b60200101907effffffffffffffffffffffffffffffffffffffffffffffffffffffffffffff1916908160001a905350600485901c945080612e6990614f61565b9050612d87565b508091505092915050565b6001816000016000828254019250508190555050565b600073ffffffffffffffffffffffffffffffffffffffff168273ffffffffffffffffffffffffffffffffffffffff161415612f01576040517f08c379a0000000000000000000000000000000000000000000000000000000008152600401612ef890614a05565b60405180910390fd5b612f0a816122aa565b15612f4a576040517f08c379a0000000000000000000000000000000000000000000000000000000008152600401612f41906148e5565b60405180910390fd5b612f56600083836130c9565b6001600360008473ffffffffffffffffffffffffffffffffffffffff1673ffffffffffffffffffffffffffffffffffffffff1681526020019081526020016000206000828254612fa69190614d77565b92505081905550816002600083815260200190815260200160002060006101000a81548173ffffffffffffffffffffffffffffffffffffffff021916908373ffffffffffffffffffffffffffffffffffffffff160217905550808273ffffffffffffffffffffffffffffffffffffffff16600073ffffffffffffffffffffffffffffffffffffffff167fddf252ad1be2c89b69c2b068fc378daa952ba7f163c4a11628f55a4df523b3ef60405160405180910390a45050565b60007f01ffc9a7000000000000000000000000000000000000000000000000000000007bffffffffffffffffffffffffffffffffffffffffffffffffffffffff1916827bffffffffffffffffffffffffffffffffffffffffffffffffffffffff1916149050919050565b6130d4838383613374565b600073ffffffffffffffffffffffffffffffffffffffff168373ffffffffffffffffffffffffffffffffffffffff1614156131175761311281613379565b613156565b8173ffffffffffffffffffffffffffffffffffffffff168373ffffffffffffffffffffffffffffffffffffffff16146131555761315483826133c2565b5b5b600073ffffffffffffffffffffffffffffffffffffffff168273ffffffffffffffffffffffffffffffffffffffff161415613199576131948161352f565b6131d8565b8273ffffffffffffffffffffffffffffffffffffffff168273ffffffffffffffffffffffffffffffffffffffff16146131d7576131d68282613672565b5b5b505050565b60006131fe8473ffffffffffffffffffffffffffffffffffffffff166136f1565b15613367578373ffffffffffffffffffffffffffffffffffffffff1663150b7a02613227612316565b8786866040518563ffffffff1660e01b815260040161324994939291906147ba565b602060405180830381600087803b15801561326357600080fd5b505af192505050801561329457506040513d601f19601f820116820180604052508101906132919190613c9c565b60015b613317573d80600081146132c4576040519150601f19603f3d011682016040523d82523d6000602084013e6132c9565b606091505b5060008151141561330f576040517f08c379a0000000000000000000000000000000000000000000000000000000008152600401613306906148a5565b60405180910390fd5b805181602001fd5b63150b7a0260e01b7bffffffffffffffffffffffffffffffffffffffffffffffffffffffff1916817bffffffffffffffffffffffffffffffffffffffffffffffffffffffff19161491505061336c565b600190505b949350505050565b505050565b6008805490506009600083815260200190815260200160002081905550600881908060018154018082558091505060019003906000526020600020016000909190919091505550565b600060016133cf84610ea3565b6133d99190614e58565b90506000600760008481526020019081526020016000205490508181146134be576000600660008673ffffffffffffffffffffffffffffffffffffffff1673ffffffffffffffffffffffffffffffffffffffff168152602001908152602001600020600084815260200190815260200160002054905080600660008773ffffffffffffffffffffffffffffffffffffffff1673ffffffffffffffffffffffffffffffffffffffff168152602001908152602001600020600084815260200190815260200160002081905550816007600083815260200190815260200160002081905550505b6007600084815260200190815260200160002060009055600660008573ffffffffffffffffffffffffffffffffffffffff1673ffffffffffffffffffffffffffffffffffffffff16815260200190815260200160002060008381526020019081526020016000206000905550505050565b600060016008805490506135439190614e58565b9050600060096000848152602001908152602001600020549050600060088381548110613599577f4e487b7100000000000000000000000000000000000000000000000000000000600052603260045260246000fd5b9060005260206000200154905080600883815481106135e1577f4e487b7100000000000000000000000000000000000000000000000000000000600052603260045260246000fd5b906000526020600020018190555081600960008381526020019081526020016000208190555060096000858152602001908152602001600020600090556008805480613656577f4e487b7100000000000000000000000000000000000000000000000000000000600052603160045260246000fd5b6001900381819060005260206000200160009055905550505050565b600061367d83610ea3565b905081600660008573ffffffffffffffffffffffffffffffffffffffff1673ffffffffffffffffffffffffffffffffffffffff168152602001908152602001600020600083815260200190815260200160002081905550806007600084815260200190815260200160002081905550505050565b600080823b905060008111915050919050565b60405180606001604052806060815260200160008152602001600073ffffffffffffffffffffffffffffffffffffffff1681525090565b82805482825590600052602060002090810192821561378a579160200282015b8281111561378957825182908051906020019061377992919061379b565b509160200191906001019061375b565b5b5090506137979190613821565b5090565b8280546137a790614f8b565b90600052602060002090601f0160209004810192826137c95760008555613810565b82601f106137e257805160ff1916838001178555613810565b82800160010185558215613810579182015b8281111561380f5782518255916020019190600101906137f4565b5b50905061381d9190613845565b5090565b5b8082111561384157600081816138389190613862565b50600101613822565b5090565b5b8082111561385e576000816000905550600101613846565b5090565b50805461386e90614f8b565b6000825580601f10613880575061389f565b601f01602090049060005260206000209081019061389e9190613845565b5b50565b60006138b56138b084614c0e565b614be9565b905080838252602082019050828560208602820111156138d457600080fd5b60005b8581101561391e57813567ffffffffffffffff8111156138f657600080fd5b8086016139038982613a4c565b855260208501945060208401935050506001810190506138d7565b5050509392505050565b600061393b61393684614c3a565b614be9565b90508281526020810184848401111561395357600080fd5b61395e848285614f1f565b509392505050565b600061397961397484614c6b565b614be9565b90508281526020810184848401111561399157600080fd5b61399c848285614f1f565b509392505050565b6000813590506139b381615ae5565b92915050565b600082601f8301126139ca57600080fd5b81356139da8482602086016138a2565b91505092915050565b6000813590506139f281615afc565b92915050565b600081359050613a0781615b13565b92915050565b600081519050613a1c81615b13565b92915050565b600082601f830112613a3357600080fd5b8135613a43848260208601613928565b91505092915050565b600082601f830112613a5d57600080fd5b8135613a6d848260208601613966565b91505092915050565b600081359050613a8581615b2a565b92915050565b600060208284031215613a9d57600080fd5b6000613aab848285016139a4565b91505092915050565b60008060408385031215613ac757600080fd5b6000613ad5858286016139a4565b9250506020613ae6858286016139a4565b9150509250929050565b600080600060608486031215613b0557600080fd5b6000613b13868287016139a4565b9350506020613b24868287016139a4565b9250506040613b3586828701613a76565b9150509250925092565b60008060008060808587031215613b5557600080fd5b6000613b63878288016139a4565b9450506020613b74878288016139a4565b9350506040613b8587828801613a76565b925050606085013567ffffffffffffffff811115613ba257600080fd5b613bae87828801613a22565b91505092959194509250565b60008060408385031215613bcd57600080fd5b6000613bdb858286016139a4565b9250506020613bec858286016139e3565b9150509250929050565b60008060408385031215613c0957600080fd5b6000613c17858286016139a4565b9250506020613c2885828601613a76565b9150509250929050565b600060208284031215613c4457600080fd5b600082013567ffffffffffffffff811115613c5e57600080fd5b613c6a848285016139b9565b91505092915050565b600060208284031215613c8557600080fd5b6000613c93848285016139f8565b91505092915050565b600060208284031215613cae57600080fd5b6000613cbc84828501613a0d565b91505092915050565b600060208284031215613cd757600080fd5b6000613ce584828501613a76565b91505092915050565b60008060408385031215613d0157600080fd5b6000613d0f85828601613a76565b9250506020613d2085828601613a76565b9150509250929050565b6000613d368383613eb1565b905092915050565b6000613d4a838361454b565b905092915050565b613d5b81614e9e565b82525050565b613d6a81614e8c565b82525050565b613d7981614e8c565b82525050565b6000613d8a82614cd1565b613d948185614d17565b935083602082028501613da685614c9c565b8060005b85811015613de25784840389528151613dc38582613d2a565b9450613dce83614cfd565b925060208a01995050600181019050613daa565b50829750879550505050505092915050565b6000613dff82614cdc565b613e098185614d28565b935083602082028501613e1b85614cac565b8060005b85811015613e575784840389528151613e388582613d3e565b9450613e4383614d0a565b925060208a01995050600181019050613e1f565b50829750879550505050505092915050565b613e7281614eb0565b82525050565b6000613e8382614ce7565b613e8d8185614d39565b9350613e9d818560208601614f2e565b613ea68161514e565b840191505092915050565b6000613ebc82614cf2565b613ec68185614d4a565b9350613ed6818560208601614f2e565b613edf8161514e565b840191505092915050565b6000613ef582614cf2565b613eff8185614d5b565b9350613f0f818560208601614f2e565b613f188161514e565b840191505092915050565b6000613f2e82614cf2565b613f388185614d6c565b9350613f48818560208601614f2e565b80840191505092915050565b60008154613f6181614f8b565b613f6b8186614d6c565b94506001821660008114613f865760018114613f9757613fca565b60ff19831686528186019350613fca565b613fa085614cbc565b60005b83811015613fc257815481890152600182019150602081019050613fa3565b838801955050505b50505092915050565b6000613fe0600983614d6c565b9150613feb8261515f565b600982019050919050565b6000614003601a83614d5b565b915061400e82615188565b602082019050919050565b6000614026602b83614d5b565b9150614031826151b1565b604082019050919050565b6000614049603283614d5b565b915061405482615200565b604082019050919050565b600061406c604183614d6c565b91506140778261524f565b604182019050919050565b600061408f602683614d5b565b915061409a826152c4565b604082019050919050565b60006140b2601c83614d5b565b91506140bd82615313565b602082019050919050565b60006140d5600c83614d6c565b91506140e08261533c565b600c82019050919050565b60006140f8602483614d5b565b915061410382615365565b604082019050919050565b600061411b600883614d6c565b9150614126826153b4565b600882019050919050565b600061413e601983614d5b565b9150614149826153dd565b602082019050919050565b6000614161600a83614d5b565b915061416c82615406565b602082019050919050565b6000614184602c83614d5b565b915061418f8261542f565b604082019050919050565b60006141a7600183614d6c565b91506141b28261547e565b600182019050919050565b60006141ca603883614d5b565b91506141d5826154a7565b604082019050919050565b60006141ed602a83614d5b565b91506141f8826154f6565b604082019050919050565b6000614210602983614d5b565b915061421b82615545565b604082019050919050565b6000614233602e83614d5b565b915061423e82615594565b604082019050919050565b6000614256600283614d6c565b9150614261826155e3565b600282019050919050565b6000614279600783614d6c565b91506142848261560c565b600782019050919050565b600061429c602083614d5b565b91506142a782615635565b602082019050919050565b60006142bf600d83614d6c565b91506142ca8261565e565b600d82019050919050565b60006142e2602c83614d5b565b91506142ed82615687565b604082019050919050565b6000614305601283614d6c565b9150614310826156d6565b601282019050919050565b6000614328602083614d5b565b9150614333826156ff565b602082019050919050565b600061434b602983614d5b565b915061435682615728565b604082019050919050565b600061436e601f83614d5b565b915061437982615777565b602082019050919050565b6000614391602883614d6c565b915061439c826157a0565b602882019050919050565b60006143b4602183614d5b565b91506143bf826157ef565b604082019050919050565b60006143d7602f83614d6c565b91506143e28261583e565b602f82019050919050565b60006143fa601d83614d6c565b91506144058261588d565b601d82019050919050565b600061441d602983614d5b565b9150614428826158b6565b604082019050919050565b6000614440603183614d5b565b915061444b82615905565b604082019050919050565b6000614463602e83614d6c565b915061446e82615954565b602e82019050919050565b6000614486602c83614d5b565b9150614491826159a3565b604082019050919050565b60006144a9601f83614d5b565b91506144b4826159f2565b602082019050919050565b60006144cc601c83614d6c565b91506144d782615a1b565b601c82019050919050565b60006144ef600683614d6c565b91506144fa82615a44565b600682019050919050565b6000614512601a83614d6c565b915061451d82615a6d565b601a82019050919050565b6000614535602983614d6c565b915061454082615a96565b602982019050919050565b600060608301600083015184820360008601526145688282613d7f565b915050602083015161457d60208601826145eb565b5060408301516145906040860182613d61565b508091505092915050565b600060608301600083015184820360008601526145b88282613d7f565b91505060208301516145cd60208601826145eb565b5060408301516145e06040860182613d61565b508091505092915050565b6145f481614f08565b82525050565b61460381614f08565b82525050565b61461281614f12565b82525050565b600061462382613fd3565b915061462f8288613f23565b915061463a826142f8565b91506146468287613f23565b9150614651826143ca565b915061465d8286613f23565b9150614668826140c8565b91506146748285613f23565b915061467f826142b2565b915061468a82614505565b91506146968284613f23565b91506146a182614249565b91508190509695505050505050565b60006146bb8261405f565b91506146c78284613f23565b91506146d2826144e2565b915081905092915050565b60006146e88261410e565b91506146f48284613f23565b915081905092915050565b600061470a826143ed565b91506147168284613f23565b915081905092915050565b600061472c82614456565b915061473782614528565b91506147438284613f54565b915061474e8261419a565b915061475982614384565b91506147648261426c565b915081905092915050565b600061477a826144bf565b9150819050919050565b60006020820190506147996000830184613d70565b92915050565b60006020820190506147b46000830184613d52565b92915050565b60006080820190506147cf6000830187613d70565b6147dc6020830186613d70565b6147e960408301856145fa565b81810360608301526147fb8184613e78565b905095945050505050565b600060208201905081810360008301526148208184613df4565b905092915050565b600060208201905061483d6000830184613e69565b92915050565b6000602082019050818103600083015261485d8184613eea565b905092915050565b6000602082019050818103600083015261487e81613ff6565b9050919050565b6000602082019050818103600083015261489e81614019565b9050919050565b600060208201905081810360008301526148be8161403c565b9050919050565b600060208201905081810360008301526148de81614082565b9050919050565b600060208201905081810360008301526148fe816140a5565b9050919050565b6000602082019050818103600083015261491e816140eb565b9050919050565b6000602082019050818103600083015261493e81614131565b9050919050565b6000602082019050818103600083015261495e81614154565b9050919050565b6000602082019050818103600083015261497e81614177565b9050919050565b6000602082019050818103600083015261499e816141bd565b9050919050565b600060208201905081810360008301526149be816141e0565b9050919050565b600060208201905081810360008301526149de81614203565b9050919050565b600060208201905081810360008301526149fe81614226565b9050919050565b60006020820190508181036000830152614a1e8161428f565b9050919050565b60006020820190508181036000830152614a3e816142d5565b9050919050565b60006020820190508181036000830152614a5e8161431b565b9050919050565b60006020820190508181036000830152614a7e8161433e565b9050919050565b60006020820190508181036000830152614a9e81614361565b9050919050565b60006020820190508181036000830152614abe816143a7565b9050919050565b60006020820190508181036000830152614ade81614410565b9050919050565b60006020820190508181036000830152614afe81614433565b9050919050565b60006020820190508181036000830152614b1e81614479565b9050919050565b60006020820190508181036000830152614b3e8161449c565b9050919050565b60006020820190508181036000830152614b5f818461459b565b905092915050565b6000602082019050614b7c60008301846145fa565b92915050565b6000608082019050614b9760008301876145fa565b8181036020830152614ba98186613eea565b9050614bb86040830185614609565b614bc56060830184613e69565b95945050505050565b6000602082019050614be36000830184614609565b92915050565b6000614bf3614c04565b9050614bff8282614fbd565b919050565b6000604051905090565b600067ffffffffffffffff821115614c2957614c2861511f565b5b602082029050602081019050919050565b600067ffffffffffffffff821115614c5557614c5461511f565b5b614c5e8261514e565b9050602081019050919050565b600067ffffffffffffffff821115614c8657614c8561511f565b5b614c8f8261514e565b9050602081019050919050565b6000819050602082019050919050565b6000819050602082019050919050565b60008190508160005260206000209050919050565b600081519050919050565b600081519050919050565b600081519050919050565b600081519050919050565b6000602082019050919050565b6000602082019050919050565b600082825260208201905092915050565b600082825260208201905092915050565b600082825260208201905092915050565b600082825260208201905092915050565b600082825260208201905092915050565b600081905092915050565b6000614d8282614f08565b9150614d8d83614f08565b9250827fffffffffffffffffffffffffffffffffffffffffffffffffffffffffffffffff03821115614dc257614dc1615092565b5b828201905092915050565b6000614dd882614f08565b9150614de383614f08565b925082614df357614df26150c1565b5b828204905092915050565b6000614e0982614f08565b9150614e1483614f08565b9250817fffffffffffffffffffffffffffffffffffffffffffffffffffffffffffffffff0483118215151615614e4d57614e4c615092565b5b828202905092915050565b6000614e6382614f08565b9150614e6e83614f08565b925082821015614e8157614e80615092565b5b828203905092915050565b6000614e9782614ee8565b9050919050565b6000614ea982614ee8565b9050919050565b60008115159050919050565b60007fffffffff0000000000000000000000000000000000000000000000000000000082169050919050565b600073ffffffffffffffffffffffffffffffffffffffff82169050919050565b6000819050919050565b600060ff82169050919050565b82818337600083830152505050565b60005b83811015614f4c578082015181840152602081019050614f31565b83811115614f5b576000848401525b50505050565b6000614f6c82614f08565b91506000821415614f8057614f7f615092565b5b600182039050919050565b60006002820490506001821680614fa357607f821691505b60208210811415614fb757614fb66150f0565b5b50919050565b614fc68261514e565b810181811067ffffffffffffffff82111715614fe557614fe461511f565b5b80604052505050565b6000614ff982614f08565b91507fffffffffffffffffffffffffffffffffffffffffffffffffffffffffffffffff82141561502c5761502b615092565b5b600182019050919050565b600061504282614f12565b915060ff82141561505657615055615092565b5b600182019050919050565b600061506c82614f08565b915061507783614f08565b925082615087576150866150c1565b5b828206905092915050565b7f4e487b7100000000000000000000000000000000000000000000000000000000600052601160045260246000fd5b7f4e487b7100000000000000000000000000000000000000000000000000000000600052601260045260246000fd5b7f4e487b7100000000000000000000000000000000000000000000000000000000600052602260045260246000fd5b7f4e487b7100000000000000000000000000000000000000000000000000000000600052604160045260246000fd5b6000601f19601f8301169050919050565b7f7b226e616d65223a220000000000000000000000000000000000000000000000600082015250565b7f6e6f74207269676874206e756d626572206f6620776f72647321000000000000600082015250565b7f455243373231456e756d657261626c653a206f776e657220696e646578206f7560008201527f74206f6620626f756e6473000000000000000000000000000000000000000000602082015250565b7f4552433732313a207472616e7366657220746f206e6f6e20455243373231526560008201527f63656976657220696d706c656d656e7465720000000000000000000000000000602082015250565b7f3c7376672077696474683d2233303022206865696768743d223330302220786d60008201527f6c6e733d22687474703a2f2f7777772e77332e6f72672f323030302f7376672260208201527f3e00000000000000000000000000000000000000000000000000000000000000604082015250565b7f4f776e61626c653a206e6577206f776e657220697320746865207a65726f206160008201527f6464726573730000000000000000000000000000000000000000000000000000602082015250565b7f4552433732313a20746f6b656e20616c7265616479206d696e74656400000000600082015250565b7f222c20226f776e6572223a220000000000000000000000000000000000000000600082015250565b7f4552433732313a207472616e7366657220746f20746865207a65726f2061646460008201527f7265737300000000000000000000000000000000000000000000000000000000602082015250565b7f4d61644c69622023000000000000000000000000000000000000000000000000600082015250565b7f4552433732313a20617070726f766520746f2063616c6c657200000000000000600082015250565b7f4e6f742065786973742100000000000000000000000000000000000000000000600082015250565b7f4552433732313a206f70657261746f7220717565727920666f72206e6f6e657860008201527f697374656e7420746f6b656e0000000000000000000000000000000000000000602082015250565b7f2000000000000000000000000000000000000000000000000000000000000000600082015250565b7f4552433732313a20617070726f76652063616c6c6572206973206e6f74206f7760008201527f6e6572206e6f7220617070726f76656420666f7220616c6c0000000000000000602082015250565b7f4552433732313a2062616c616e636520717565727920666f7220746865207a6560008201527f726f206164647265737300000000000000000000000000000000000000000000602082015250565b7f4552433732313a206f776e657220717565727920666f72206e6f6e657869737460008201527f656e7420746f6b656e0000000000000000000000000000000000000000000000602082015250565b7f506c6179657220616c72656164792068617320612070726f706f73616c20666f60008201527f722074686973204d61644c696221000000000000000000000000000000000000602082015250565b7f227d000000000000000000000000000000000000000000000000000000000000600082015250565b7f3c2f746578743e00000000000000000000000000000000000000000000000000600082015250565b7f4552433732313a206d696e7420746f20746865207a65726f2061646472657373600082015250565b7f222c2022696d616765223a202200000000000000000000000000000000000000600082015250565b7f4552433732313a20617070726f76656420717565727920666f72206e6f6e657860008201527f697374656e7420746f6b656e0000000000000000000000000000000000000000602082015250565b7f222c20226465736372697074696f6e223a220000000000000000000000000000600082015250565b7f4f776e61626c653a2063616c6c6572206973206e6f7420746865206f776e6572600082015250565b7f4552433732313a207472616e73666572206f6620746f6b656e2074686174206960008201527f73206e6f74206f776e0000000000000000000000000000000000000000000000602082015250565b7f53656c6563746564204d61644c696220616c726561647920636c6f7365642100600082015250565b7f3c747370616e20783d2231352220793d223835223e5858585858203c2f74737060008201527f616e3e2058585858000000000000000000000000000000000000000000000000602082015250565b7f4552433732313a20617070726f76616c20746f2063757272656e74206f776e6560008201527f7200000000000000000000000000000000000000000000000000000000000000602082015250565b7f222c202265787465726e616c5f75726c223a2268747470733a2f2f6275726e7960008201527f626f79732e636f6d2f746f6b656e2f0000000000000000000000000000000000602082015250565b7f646174613a6170706c69636174696f6e2f6a736f6e3b6261736536342c000000600082015250565b7f50726f706f73616c206d75737420626520666f72206f70656e2f63757272656e60008201527f74204d61644c6962210000000000000000000000000000000000000000000000602082015250565b7f4552433732313a207472616e736665722063616c6c6572206973206e6f74206f60008201527f776e6572206e6f7220617070726f766564000000000000000000000000000000602082015250565b7f3c726563742077696474683d2239392522206865696768743d2239392522206660008201527f696c6c3d22776869746522202f3e000000000000000000000000000000000000602082015250565b7f455243373231456e756d657261626c653a20676c6f62616c20696e646578206f60008201527f7574206f6620626f756e64730000000000000000000000000000000000000000602082015250565b7f50726576696f7573204d61644c6962206e6f7420636c6f736564207965742100600082015250565b7f54686973206973204d61624c6962732047616d65206f6e436861696e00000000600082015250565b7f3c2f7376673e0000000000000000000000000000000000000000000000000000600082015250565b7f646174613a696d6167652f7376672b786d6c3b6261736536342c000000000000600082015250565b7f3c7465787420783d2231352220793d22333022207374796c653d2266696c6c3a60008201527f626c61636b3b223e200000000000000000000000000000000000000000000000602082015250565b615aee81614e8c565b8114615af957600080fd5b50565b615b0581614eb0565b8114615b1057600080fd5b50565b615b1c81614ebc565b8114615b2757600080fd5b50565b615b3381614f08565b8114615b3e57600080fd5b5056fe4142434445464748494a4b4c4d4e4f505152535455565758595a6162636465666768696a6b6c6d6e6f707172737475767778797a303132333435363738392b2fa26469706673582212202ef2cad09ae55021fde6e0056aef9ee4021e71e50164c4603acd82315c65848e64736f6c63430008040033",
  "devdoc": {
    "kind": "dev",
    "methods": {
      "approve(address,uint256)": {
        "details": "See {IERC721-approve}."
      },
      "balanceOf(address)": {
        "details": "See {IERC721-balanceOf}."
      },
      "getApproved(uint256)": {
        "details": "See {IERC721-getApproved}."
      },
      "isApprovedForAll(address,address)": {
        "details": "See {IERC721-isApprovedForAll}."
      },
      "name()": {
        "details": "See {IERC721Metadata-name}."
      },
      "owner()": {
        "details": "Returns the address of the current owner."
      },
      "ownerOf(uint256)": {
        "details": "See {IERC721-ownerOf}."
      },
      "renounceOwnership()": {
        "details": "Leaves the contract without owner. It will not be possible to call `onlyOwner` functions anymore. Can only be called by the current owner. NOTE: Renouncing ownership will leave the contract without an owner, thereby removing any functionality that is only available to the owner."
      },
      "safeTransferFrom(address,address,uint256)": {
        "details": "See {IERC721-safeTransferFrom}."
      },
      "safeTransferFrom(address,address,uint256,bytes)": {
        "details": "See {IERC721-safeTransferFrom}."
      },
      "setApprovalForAll(address,bool)": {
        "details": "See {IERC721-setApprovalForAll}."
      },
      "supportsInterface(bytes4)": {
        "details": "See {IERC165-supportsInterface}."
      },
      "symbol()": {
        "details": "See {IERC721Metadata-symbol}."
      },
      "tokenByIndex(uint256)": {
        "details": "See {IERC721Enumerable-tokenByIndex}."
      },
      "tokenOfOwnerByIndex(address,uint256)": {
        "details": "See {IERC721Enumerable-tokenOfOwnerByIndex}."
      },
      "totalSupply()": {
        "details": "See {IERC721Enumerable-totalSupply}."
      },
      "transferFrom(address,address,uint256)": {
        "details": "See {IERC721-transferFrom}."
      },
      "transferOwnership(address)": {
        "details": "Transfers ownership of the contract to a new account (`newOwner`). Can only be called by the current owner."
      }
    },
    "version": 1
  },
  "userdoc": {
    "kind": "user",
    "methods": {},
    "version": 1
  },
  "storageLayout": {
    "storage": [
      {
        "astId": 129,
        "contract": "contracts/YourCollectible.sol:YourCollectible",
        "label": "_name",
        "offset": 0,
        "slot": "0",
        "type": "t_string_storage"
      },
      {
        "astId": 131,
        "contract": "contracts/YourCollectible.sol:YourCollectible",
        "label": "_symbol",
        "offset": 0,
        "slot": "1",
        "type": "t_string_storage"
      },
      {
        "astId": 135,
        "contract": "contracts/YourCollectible.sol:YourCollectible",
        "label": "_owners",
        "offset": 0,
        "slot": "2",
        "type": "t_mapping(t_uint256,t_address)"
      },
      {
        "astId": 139,
        "contract": "contracts/YourCollectible.sol:YourCollectible",
        "label": "_balances",
        "offset": 0,
        "slot": "3",
        "type": "t_mapping(t_address,t_uint256)"
      },
      {
        "astId": 143,
        "contract": "contracts/YourCollectible.sol:YourCollectible",
        "label": "_tokenApprovals",
        "offset": 0,
        "slot": "4",
        "type": "t_mapping(t_uint256,t_address)"
      },
      {
        "astId": 149,
        "contract": "contracts/YourCollectible.sol:YourCollectible",
        "label": "_operatorApprovals",
        "offset": 0,
        "slot": "5",
        "type": "t_mapping(t_address,t_mapping(t_address,t_bool))"
      },
      {
        "astId": 1068,
        "contract": "contracts/YourCollectible.sol:YourCollectible",
        "label": "_ownedTokens",
        "offset": 0,
        "slot": "6",
        "type": "t_mapping(t_address,t_mapping(t_uint256,t_uint256))"
      },
      {
        "astId": 1072,
        "contract": "contracts/YourCollectible.sol:YourCollectible",
        "label": "_ownedTokensIndex",
        "offset": 0,
        "slot": "7",
        "type": "t_mapping(t_uint256,t_uint256)"
      },
      {
        "astId": 1075,
        "contract": "contracts/YourCollectible.sol:YourCollectible",
        "label": "_allTokens",
        "offset": 0,
        "slot": "8",
        "type": "t_array(t_uint256)dyn_storage"
      },
      {
        "astId": 1079,
        "contract": "contracts/YourCollectible.sol:YourCollectible",
        "label": "_allTokensIndex",
        "offset": 0,
        "slot": "9",
        "type": "t_mapping(t_uint256,t_uint256)"
      },
      {
        "astId": 7,
        "contract": "contracts/YourCollectible.sol:YourCollectible",
        "label": "_owner",
        "offset": 0,
        "slot": "10",
        "type": "t_address"
      },
      {
        "astId": 2289,
        "contract": "contracts/YourCollectible.sol:YourCollectible",
        "label": "_tokenIds",
        "offset": 0,
        "slot": "11",
        "type": "t_struct(Counter)1774_storage"
      },
      {
        "astId": 2292,
        "contract": "contracts/YourCollectible.sol:YourCollectible",
        "label": "_proposalIds",
        "offset": 0,
        "slot": "12",
        "type": "t_struct(Counter)1774_storage"
      },
      {
        "astId": 2295,
        "contract": "contracts/YourCollectible.sol:YourCollectible",
        "label": "_maxVotes",
        "offset": 0,
        "slot": "13",
        "type": "t_uint8"
      },
      {
        "astId": 2299,
        "contract": "contracts/YourCollectible.sol:YourCollectible",
        "label": "_madlibs",
        "offset": 0,
        "slot": "14",
        "type": "t_array(t_struct(MadLib)2343_storage)dyn_storage"
      },
      {
        "astId": 2314,
        "contract": "contracts/YourCollectible.sol:YourCollectible",
        "label": "price",
        "offset": 0,
        "slot": "15",
        "type": "t_uint256"
      }
    ],
    "types": {
      "t_address": {
        "encoding": "inplace",
        "label": "address",
        "numberOfBytes": "20"
      },
      "t_array(t_string_storage)dyn_storage": {
        "base": "t_string_storage",
        "encoding": "dynamic_array",
        "label": "string[]",
        "numberOfBytes": "32"
      },
      "t_array(t_struct(MadLib)2343_storage)dyn_storage": {
        "base": "t_struct(MadLib)2343_storage",
        "encoding": "dynamic_array",
        "label": "struct YourCollectible.MadLib[]",
        "numberOfBytes": "32"
      },
      "t_array(t_struct(Proposal)2322_storage)dyn_storage": {
        "base": "t_struct(Proposal)2322_storage",
        "encoding": "dynamic_array",
        "label": "struct YourCollectible.Proposal[]",
        "numberOfBytes": "32"
      },
      "t_array(t_uint256)dyn_storage": {
        "base": "t_uint256",
        "encoding": "dynamic_array",
        "label": "uint256[]",
        "numberOfBytes": "32"
      },
      "t_bool": {
        "encoding": "inplace",
        "label": "bool",
        "numberOfBytes": "1"
      },
      "t_mapping(t_address,t_bool)": {
        "encoding": "mapping",
        "key": "t_address",
        "label": "mapping(address => bool)",
        "numberOfBytes": "32",
        "value": "t_bool"
      },
      "t_mapping(t_address,t_mapping(t_address,t_bool))": {
        "encoding": "mapping",
        "key": "t_address",
        "label": "mapping(address => mapping(address => bool))",
        "numberOfBytes": "32",
        "value": "t_mapping(t_address,t_bool)"
      },
      "t_mapping(t_address,t_mapping(t_uint256,t_uint256))": {
        "encoding": "mapping",
        "key": "t_address",
        "label": "mapping(address => mapping(uint256 => uint256))",
        "numberOfBytes": "32",
        "value": "t_mapping(t_uint256,t_uint256)"
      },
      "t_mapping(t_address,t_uint256)": {
        "encoding": "mapping",
        "key": "t_address",
        "label": "mapping(address => uint256)",
        "numberOfBytes": "32",
        "value": "t_uint256"
      },
      "t_mapping(t_address,t_uint8)": {
        "encoding": "mapping",
        "key": "t_address",
        "label": "mapping(address => uint8)",
        "numberOfBytes": "32",
        "value": "t_uint8"
      },
      "t_mapping(t_uint256,t_address)": {
        "encoding": "mapping",
        "key": "t_uint256",
        "label": "mapping(uint256 => address)",
        "numberOfBytes": "32",
        "value": "t_address"
      },
      "t_mapping(t_uint256,t_uint256)": {
        "encoding": "mapping",
        "key": "t_uint256",
        "label": "mapping(uint256 => uint256)",
        "numberOfBytes": "32",
        "value": "t_uint256"
      },
      "t_string_storage": {
        "encoding": "bytes",
        "label": "string",
        "numberOfBytes": "32"
      },
      "t_struct(Counter)1774_storage": {
        "encoding": "inplace",
        "label": "struct Counters.Counter",
        "members": [
          {
            "astId": 1773,
            "contract": "contracts/YourCollectible.sol:YourCollectible",
            "label": "_value",
            "offset": 0,
            "slot": "0",
            "type": "t_uint256"
          }
        ],
        "numberOfBytes": "32"
      },
      "t_struct(MadLib)2343_storage": {
        "encoding": "inplace",
        "label": "struct YourCollectible.MadLib",
        "members": [
          {
            "astId": 2324,
            "contract": "contracts/YourCollectible.sol:YourCollectible",
            "label": "id",
            "offset": 0,
            "slot": "0",
            "type": "t_uint256"
          },
          {
            "astId": 2326,
            "contract": "contracts/YourCollectible.sol:YourCollectible",
            "label": "text",
            "offset": 0,
            "slot": "1",
            "type": "t_string_storage"
          },
          {
            "astId": 2328,
            "contract": "contracts/YourCollectible.sol:YourCollectible",
            "label": "nBlanks",
            "offset": 0,
            "slot": "2",
            "type": "t_uint8"
          },
          {
            "astId": 2332,
            "contract": "contracts/YourCollectible.sol:YourCollectible",
            "label": "proposals",
            "offset": 0,
            "slot": "3",
            "type": "t_array(t_struct(Proposal)2322_storage)dyn_storage"
          },
          {
            "astId": 2336,
            "contract": "contracts/YourCollectible.sol:YourCollectible",
            "label": "addrProposed",
            "offset": 0,
            "slot": "4",
            "type": "t_mapping(t_address,t_bool)"
          },
          {
            "astId": 2340,
            "contract": "contracts/YourCollectible.sol:YourCollectible",
            "label": "addrVotes",
            "offset": 0,
            "slot": "5",
            "type": "t_mapping(t_address,t_uint8)"
          },
          {
            "astId": 2342,
            "contract": "contracts/YourCollectible.sol:YourCollectible",
            "label": "closed",
            "offset": 0,
            "slot": "6",
            "type": "t_bool"
          }
        ],
        "numberOfBytes": "224"
      },
      "t_struct(Proposal)2322_storage": {
        "encoding": "inplace",
        "label": "struct YourCollectible.Proposal",
        "members": [
          {
            "astId": 2317,
            "contract": "contracts/YourCollectible.sol:YourCollectible",
            "label": "words",
            "offset": 0,
            "slot": "0",
            "type": "t_array(t_string_storage)dyn_storage"
          },
          {
            "astId": 2319,
            "contract": "contracts/YourCollectible.sol:YourCollectible",
            "label": "countVotes",
            "offset": 0,
            "slot": "1",
            "type": "t_uint256"
          },
          {
            "astId": 2321,
            "contract": "contracts/YourCollectible.sol:YourCollectible",
            "label": "proposer",
            "offset": 0,
            "slot": "2",
            "type": "t_address"
          }
        ],
        "numberOfBytes": "96"
      },
      "t_uint256": {
        "encoding": "inplace",
        "label": "uint256",
        "numberOfBytes": "32"
      },
      "t_uint8": {
        "encoding": "inplace",
        "label": "uint8",
        "numberOfBytes": "1"
      }
    }
  }
}