{
  "address": "0x9fE46736679d2D9a65F0992F2272dE9f3c7fa6e0",
  "abi": [
    {
      "inputs": [],
      "stateMutability": "nonpayable",
      "type": "constructor"
    },
    {
      "anonymous": false,
      "inputs": [
        {
          "indexed": true,
          "internalType": "address",
          "name": "owner",
          "type": "address"
        },
        {
          "indexed": true,
          "internalType": "address",
          "name": "approved",
          "type": "address"
        },
        {
          "indexed": true,
          "internalType": "uint256",
          "name": "tokenId",
          "type": "uint256"
        }
      ],
      "name": "Approval",
      "type": "event"
    },
    {
      "anonymous": false,
      "inputs": [
        {
          "indexed": true,
          "internalType": "address",
          "name": "owner",
          "type": "address"
        },
        {
          "indexed": true,
          "internalType": "address",
          "name": "operator",
          "type": "address"
        },
        {
          "indexed": false,
          "internalType": "bool",
          "name": "approved",
          "type": "bool"
        }
      ],
      "name": "ApprovalForAll",
      "type": "event"
    },
    {
      "anonymous": false,
      "inputs": [
        {
          "indexed": true,
          "internalType": "address",
          "name": "previousOwner",
          "type": "address"
        },
        {
          "indexed": true,
          "internalType": "address",
          "name": "newOwner",
          "type": "address"
        }
      ],
      "name": "OwnershipTransferred",
      "type": "event"
    },
    {
      "anonymous": false,
      "inputs": [
        {
          "indexed": true,
          "internalType": "address",
          "name": "from",
          "type": "address"
        },
        {
          "indexed": true,
          "internalType": "address",
          "name": "to",
          "type": "address"
        },
        {
          "indexed": true,
          "internalType": "uint256",
          "name": "tokenId",
          "type": "uint256"
        }
      ],
      "name": "Transfer",
      "type": "event"
    },
    {
      "inputs": [
        {
          "internalType": "uint256",
          "name": "",
          "type": "uint256"
        }
      ],
      "name": "_madlibs",
      "outputs": [
        {
          "internalType": "uint256",
          "name": "id",
          "type": "uint256"
        },
        {
          "internalType": "string",
          "name": "text",
          "type": "string"
        },
        {
          "internalType": "uint8",
          "name": "nBlanks",
          "type": "uint8"
        },
        {
          "internalType": "bool",
          "name": "closed",
          "type": "bool"
        }
      ],
      "stateMutability": "view",
      "type": "function"
    },
    {
      "inputs": [],
      "name": "_maxVotes",
      "outputs": [
        {
          "internalType": "uint8",
          "name": "",
          "type": "uint8"
        }
      ],
      "stateMutability": "view",
      "type": "function"
    },
    {
      "inputs": [
        {
          "internalType": "string[]",
          "name": "_words",
          "type": "string[]"
        }
      ],
      "name": "addProposal",
      "outputs": [],
      "stateMutability": "nonpayable",
      "type": "function"
    },
    {
      "inputs": [
        {
          "internalType": "address",
          "name": "to",
          "type": "address"
        },
        {
          "internalType": "uint256",
          "name": "tokenId",
          "type": "uint256"
        }
      ],
      "name": "approve",
      "outputs": [],
      "stateMutability": "nonpayable",
      "type": "function"
    },
    {
      "inputs": [
        {
          "internalType": "address",
          "name": "owner",
          "type": "address"
        }
      ],
      "name": "balanceOf",
      "outputs": [
        {
          "internalType": "uint256",
          "name": "",
          "type": "uint256"
        }
      ],
      "stateMutability": "view",
      "type": "function"
    },
    {
      "inputs": [
        {
          "internalType": "uint256",
          "name": "_id",
          "type": "uint256"
        }
      ],
      "name": "closeMadLib",
      "outputs": [],
      "stateMutability": "nonpayable",
      "type": "function"
    },
    {
      "inputs": [
        {
          "internalType": "uint256",
          "name": "tokenId",
          "type": "uint256"
        }
      ],
      "name": "getApproved",
      "outputs": [
        {
          "internalType": "address",
          "name": "",
          "type": "address"
        }
      ],
      "stateMutability": "view",
      "type": "function"
    },
    {
      "inputs": [
        {
          "internalType": "uint256",
          "name": "_id",
          "type": "uint256"
        }
      ],
      "name": "getBestProposal",
      "outputs": [
        {
          "internalType": "string[]",
          "name": "",
          "type": "string[]"
        }
      ],
      "stateMutability": "view",
      "type": "function"
    },
    {
      "inputs": [
        {
          "internalType": "uint256",
          "name": "_id",
          "type": "uint256"
        },
        {
          "internalType": "uint256",
          "name": "_idProposal",
          "type": "uint256"
        }
      ],
      "name": "getProposal",
      "outputs": [
        {
          "components": [
            {
              "internalType": "string[]",
              "name": "words",
              "type": "string[]"
            },
            {
              "internalType": "uint256",
              "name": "countVotes",
              "type": "uint256"
            },
            {
              "internalType": "address",
              "name": "proposer",
              "type": "address"
            }
          ],
          "internalType": "struct YourCollectible.Proposal",
          "name": "",
          "type": "tuple"
        }
      ],
      "stateMutability": "view",
      "type": "function"
    },
    {
      "inputs": [
        {
          "internalType": "uint256",
          "name": "_id",
          "type": "uint256"
        }
      ],
      "name": "getProposals",
      "outputs": [
        {
          "components": [
            {
              "internalType": "string[]",
              "name": "words",
              "type": "string[]"
            },
            {
              "internalType": "uint256",
              "name": "countVotes",
              "type": "uint256"
            },
            {
              "internalType": "address",
              "name": "proposer",
              "type": "address"
            }
          ],
          "internalType": "struct YourCollectible.Proposal[]",
          "name": "",
          "type": "tuple[]"
        }
      ],
      "stateMutability": "view",
      "type": "function"
    },
    {
      "inputs": [
        {
          "internalType": "address",
          "name": "owner",
          "type": "address"
        },
        {
          "internalType": "address",
          "name": "operator",
          "type": "address"
        }
      ],
      "name": "isApprovedForAll",
      "outputs": [
        {
          "internalType": "bool",
          "name": "",
          "type": "bool"
        }
      ],
      "stateMutability": "view",
      "type": "function"
    },
    {
      "inputs": [
        {
          "internalType": "string",
          "name": "_text",
          "type": "string"
        },
        {
          "internalType": "uint8",
          "name": "_nBlanks",
          "type": "uint8"
        }
      ],
      "name": "mintItem",
      "outputs": [
        {
          "internalType": "uint256",
          "name": "",
          "type": "uint256"
        }
      ],
      "stateMutability": "payable",
      "type": "function"
    },
    {
      "inputs": [],
      "name": "name",
      "outputs": [
        {
          "internalType": "string",
          "name": "",
          "type": "string"
        }
      ],
      "stateMutability": "view",
      "type": "function"
    },
    {
      "inputs": [],
      "name": "owner",
      "outputs": [
        {
          "internalType": "address",
          "name": "",
          "type": "address"
        }
      ],
      "stateMutability": "view",
      "type": "function"
    },
    {
      "inputs": [
        {
          "internalType": "uint256",
          "name": "tokenId",
          "type": "uint256"
        }
      ],
      "name": "ownerOf",
      "outputs": [
        {
          "internalType": "address",
          "name": "",
          "type": "address"
        }
      ],
      "stateMutability": "view",
      "type": "function"
    },
    {
      "inputs": [],
      "name": "price",
      "outputs": [
        {
          "internalType": "uint256",
          "name": "",
          "type": "uint256"
        }
      ],
      "stateMutability": "view",
      "type": "function"
    },
    {
      "inputs": [],
      "name": "recipient",
      "outputs": [
        {
          "internalType": "address payable",
          "name": "",
          "type": "address"
        }
      ],
      "stateMutability": "view",
      "type": "function"
    },
    {
      "inputs": [],
      "name": "renounceOwnership",
      "outputs": [],
      "stateMutability": "nonpayable",
      "type": "function"
    },
    {
      "inputs": [
        {
          "internalType": "address",
          "name": "from",
          "type": "address"
        },
        {
          "internalType": "address",
          "name": "to",
          "type": "address"
        },
        {
          "internalType": "uint256",
          "name": "tokenId",
          "type": "uint256"
        }
      ],
      "name": "safeTransferFrom",
      "outputs": [],
      "stateMutability": "nonpayable",
      "type": "function"
    },
    {
      "inputs": [
        {
          "internalType": "address",
          "name": "from",
          "type": "address"
        },
        {
          "internalType": "address",
          "name": "to",
          "type": "address"
        },
        {
          "internalType": "uint256",
          "name": "tokenId",
          "type": "uint256"
        },
        {
          "internalType": "bytes",
          "name": "_data",
          "type": "bytes"
        }
      ],
      "name": "safeTransferFrom",
      "outputs": [],
      "stateMutability": "nonpayable",
      "type": "function"
    },
    {
      "inputs": [
        {
          "internalType": "address",
          "name": "operator",
          "type": "address"
        },
        {
          "internalType": "bool",
          "name": "approved",
          "type": "bool"
        }
      ],
      "name": "setApprovalForAll",
      "outputs": [],
      "stateMutability": "nonpayable",
      "type": "function"
    },
    {
      "inputs": [
        {
          "internalType": "bytes4",
          "name": "interfaceId",
          "type": "bytes4"
        }
      ],
      "name": "supportsInterface",
      "outputs": [
        {
          "internalType": "bool",
          "name": "",
          "type": "bool"
        }
      ],
      "stateMutability": "view",
      "type": "function"
    },
    {
      "inputs": [],
      "name": "symbol",
      "outputs": [
        {
          "internalType": "string",
          "name": "",
          "type": "string"
        }
      ],
      "stateMutability": "view",
      "type": "function"
    },
    {
      "inputs": [
        {
          "internalType": "uint256",
          "name": "index",
          "type": "uint256"
        }
      ],
      "name": "tokenByIndex",
      "outputs": [
        {
          "internalType": "uint256",
          "name": "",
          "type": "uint256"
        }
      ],
      "stateMutability": "view",
      "type": "function"
    },
    {
      "inputs": [
        {
          "internalType": "address",
          "name": "owner",
          "type": "address"
        },
        {
          "internalType": "uint256",
          "name": "index",
          "type": "uint256"
        }
      ],
      "name": "tokenOfOwnerByIndex",
      "outputs": [
        {
          "internalType": "uint256",
          "name": "",
          "type": "uint256"
        }
      ],
      "stateMutability": "view",
      "type": "function"
    },
    {
      "inputs": [
        {
          "internalType": "uint256",
          "name": "_id",
          "type": "uint256"
        }
      ],
      "name": "tokenURI",
      "outputs": [
        {
          "internalType": "string",
          "name": "",
          "type": "string"
        }
      ],
      "stateMutability": "view",
      "type": "function"
    },
    {
      "inputs": [],
      "name": "totalSupply",
      "outputs": [
        {
          "internalType": "uint256",
          "name": "",
          "type": "uint256"
        }
      ],
      "stateMutability": "view",
      "type": "function"
    },
    {
      "inputs": [
        {
          "internalType": "address",
          "name": "from",
          "type": "address"
        },
        {
          "internalType": "address",
          "name": "to",
          "type": "address"
        },
        {
          "internalType": "uint256",
          "name": "tokenId",
          "type": "uint256"
        }
      ],
      "name": "transferFrom",
      "outputs": [],
      "stateMutability": "nonpayable",
      "type": "function"
    },
    {
      "inputs": [
        {
          "internalType": "address",
          "name": "newOwner",
          "type": "address"
        }
      ],
      "name": "transferOwnership",
      "outputs": [],
      "stateMutability": "nonpayable",
      "type": "function"
    },
    {
      "inputs": [
        {
          "internalType": "uint256",
          "name": "_idProposal",
          "type": "uint256"
        }
      ],
      "name": "voteProposal",
      "outputs": [],
      "stateMutability": "nonpayable",
      "type": "function"
    }
  ],
  "transactionHash": "0x8eb78619c8cb980936331305509e2106daaeba4162df76e8ec069be00df53d46",
  "args": [],
  "solcInputHash": "9958c63261db9ecb3bbed6e1529f4664",
  "bytecode": "0x60806040526063600c60006101000a81548160ff021916908360ff16021790555066038d7ea4c68000600e553480156200003857600080fd5b506040518060400160405280600f81526020017f4d61644c696273206f6e436861696e00000000000000000000000000000000008152506040518060400160405280600381526020017f4d4c4300000000000000000000000000000000000000000000000000000000008152508160009080519060200190620000bd929190620001cd565b508060019080519060200190620000d6929190620001cd565b505050620000f9620000ed620000ff60201b60201c565b6200010760201b60201c565b620002e2565b600033905090565b6000600a60009054906101000a900473ffffffffffffffffffffffffffffffffffffffff16905081600a60006101000a81548173ffffffffffffffffffffffffffffffffffffffff021916908373ffffffffffffffffffffffffffffffffffffffff1602179055508173ffffffffffffffffffffffffffffffffffffffff168173ffffffffffffffffffffffffffffffffffffffff167f8be0079c531659141344cd1fd0a4f28419497f9722a3daafe3b4186f6b6457e060405160405180910390a35050565b828054620001db906200027d565b90600052602060002090601f016020900481019282620001ff57600085556200024b565b82601f106200021a57805160ff19168380011785556200024b565b828001600101855582156200024b579182015b828111156200024a5782518255916020019190600101906200022d565b5b5090506200025a91906200025e565b5090565b5b80821115620002795760008160009055506001016200025f565b5090565b600060028204905060018216806200029657607f821691505b60208210811415620002ad57620002ac620002b3565b5b50919050565b7f4e487b7100000000000000000000000000000000000000000000000000000000600052602260045260246000fd5b6156df80620002f26000396000f3fe6080604052600436106101cd5760003560e01c8063715018a6116100f7578063aba2100911610095578063c87b56dd11610064578063c87b56dd146106ca578063d06ff53114610707578063e985e9c514610730578063f2fde38b1461076d576101cd565b8063aba2100914610610578063aed50f8f1461064d578063b489ce7114610678578063b88d4fde146106a1576101cd565b806392b4d6cd116100d157806392b4d6cd1461055157806395d89b4114610591578063a035b1fe146105bc578063a22cb465146105e7576101cd565b8063715018a6146104e6578063807896d5146104fd5780638da5cb5b14610526576101cd565b8063253eb1e01161016f5780634f6ccce71161013e5780634f6ccce7146104045780636352211e1461044157806366d003ac1461047e57806370a08231146104a9576101cd565b8063253eb1e0146103315780632c72fdfc146103615780632f745c591461039e57806342842e0e146103db576101cd565b8063095ea7b3116101ab578063095ea7b3146102775780630a7c405f146102a057806318160ddd146102dd57806323b872dd14610308576101cd565b806301ffc9a7146101d257806306fdde031461020f578063081812fc1461023a575b600080fd5b3480156101de57600080fd5b506101f960048036038101906101f49190613ca4565b610796565b60405161020691906146cb565b60405180910390f35b34801561021b57600080fd5b50610224610810565b60405161023191906146e6565b60405180910390f35b34801561024657600080fd5b50610261600480360381019061025c9190613d8b565b6108a2565b60405161026e9190614605565b60405180910390f35b34801561028357600080fd5b5061029e60048036038101906102999190613c27565b610927565b005b3480156102ac57600080fd5b506102c760048036038101906102c29190613d8b565b610a3f565b6040516102d49190614687565b60405180910390f35b3480156102e957600080fd5b506102f2610d54565b6040516102ff9190614a8f565b60405180910390f35b34801561031457600080fd5b5061032f600480360381019061032a9190613b21565b610d61565b005b61034b60048036038101906103469190613d37565b610dc1565b6040516103589190614a8f565b60405180910390f35b34801561036d57600080fd5b5061038860048036038101906103839190613d8b565b610f1d565b60405161039591906146a9565b60405180910390f35b3480156103aa57600080fd5b506103c560048036038101906103c09190613c27565b611100565b6040516103d29190614a8f565b60405180910390f35b3480156103e757600080fd5b5061040260048036038101906103fd9190613b21565b6111a5565b005b34801561041057600080fd5b5061042b60048036038101906104269190613d8b565b6111c5565b6040516104389190614a8f565b60405180910390f35b34801561044d57600080fd5b5061046860048036038101906104639190613d8b565b61125c565b6040516104759190614605565b60405180910390f35b34801561048a57600080fd5b5061049361130e565b6040516104a09190614620565b60405180910390f35b3480156104b557600080fd5b506104d060048036038101906104cb9190613abc565b611326565b6040516104dd9190614a8f565b60405180910390f35b3480156104f257600080fd5b506104fb6113de565b005b34801561050957600080fd5b50610524600480360381019061051f9190613d8b565b611466565b005b34801561053257600080fd5b5061053b61176b565b6040516105489190614605565b60405180910390f35b34801561055d57600080fd5b5061057860048036038101906105739190613d8b565b611795565b6040516105889493929190614ae8565b60405180910390f35b34801561059d57600080fd5b506105a6611877565b6040516105b391906146e6565b60405180910390f35b3480156105c857600080fd5b506105d1611909565b6040516105de9190614a8f565b60405180910390f35b3480156105f357600080fd5b5061060e60048036038101906106099190613beb565b61190f565b005b34801561061c57600080fd5b5061063760048036038101906106329190613db4565b611a90565b6040516106449190614a6d565b60405180910390f35b34801561065957600080fd5b50610662611c75565b60405161066f9190614b34565b60405180910390f35b34801561068457600080fd5b5061069f600480360381019061069a9190613c63565b611c88565b005b3480156106ad57600080fd5b506106c860048036038101906106c39190613b70565b611f7f565b005b3480156106d657600080fd5b506106f160048036038101906106ec9190613d8b565b611fe1565b6040516106fe91906146e6565b60405180910390f35b34801561071357600080fd5b5061072e60048036038101906107299190613d8b565b612114565b005b34801561073c57600080fd5b5061075760048036038101906107529190613ae5565b612568565b60405161076491906146cb565b60405180910390f35b34801561077957600080fd5b50610794600480360381019061078f9190613abc565b6125fc565b005b60007f780e9d63000000000000000000000000000000000000000000000000000000007bffffffffffffffffffffffffffffffffffffffffffffffffffffffff1916827bffffffffffffffffffffffffffffffffffffffffffffffffffffffff191614806108095750610808826126f4565b5b9050919050565b60606000805461081f90614e87565b80601f016020809104026020016040519081016040528092919081815260200182805461084b90614e87565b80156108985780601f1061086d57610100808354040283529160200191610898565b820191906000526020600020905b81548152906001019060200180831161087b57829003601f168201915b5050505050905090565b60006108ad826127d6565b6108ec576040517f08c379a00000000000000000000000000000000000000000000000000000000081526004016108e39061492d565b60405180910390fd5b6004600083815260200190815260200160002060009054906101000a900473ffffffffffffffffffffffffffffffffffffffff169050919050565b60006109328261125c565b90508073ffffffffffffffffffffffffffffffffffffffff168373ffffffffffffffffffffffffffffffffffffffff1614156109a3576040517f08c379a000000000000000000000000000000000000000000000000000000000815260040161099a906149ad565b60405180910390fd5b8073ffffffffffffffffffffffffffffffffffffffff166109c2612842565b73ffffffffffffffffffffffffffffffffffffffff1614806109f157506109f0816109eb612842565b612568565b5b610a30576040517f08c379a0000000000000000000000000000000000000000000000000000000008152600401610a279061486d565b60405180910390fd5b610a3a838361284a565b505050565b606060008060005b600d8581548110610a81577f4e487b7100000000000000000000000000000000000000000000000000000000600052603260045260246000fd5b906000526020600020906007020160030180549050811015610be65782600d8681548110610ad8577f4e487b7100000000000000000000000000000000000000000000000000000000600052603260045260246000fd5b90600052602060002090600702016003018281548110610b21577f4e487b7100000000000000000000000000000000000000000000000000000000600052603260045260246000fd5b90600052602060002090600302016001015410610bd357600d8581548110610b72577f4e487b7100000000000000000000000000000000000000000000000000000000600052603260045260246000fd5b90600052602060002090600702016003018181548110610bbb577f4e487b7100000000000000000000000000000000000000000000000000000000600052603260045260246000fd5b90600052602060002090600302016001015492508091505b8080610bde90614eea565b915050610a47565b50600d8481548110610c21577f4e487b7100000000000000000000000000000000000000000000000000000000600052603260045260246000fd5b90600052602060002090600702016003018181548110610c6a577f4e487b7100000000000000000000000000000000000000000000000000000000600052603260045260246000fd5b9060005260206000209060030201600001805480602002602001604051908101604052809291908181526020016000905b82821015610d47578382906000526020600020018054610cba90614e87565b80601f0160208091040260200160405190810160405280929190818152602001828054610ce690614e87565b8015610d335780601f10610d0857610100808354040283529160200191610d33565b820191906000526020600020905b815481529060010190602001808311610d1657829003601f168201915b505050505081526020019060010190610c9b565b5050505092505050919050565b6000600880549050905090565b610d72610d6c612842565b82612903565b610db1576040517f08c379a0000000000000000000000000000000000000000000000000000000008152600401610da8906149ed565b60405180910390fd5b610dbc8383836129e1565b505050565b6000600d80549050600014610e7a57600d6001600d80549050610de49190614d6c565b81548110610e1b577f4e487b7100000000000000000000000000000000000000000000000000000000600052603260045260246000fd5b906000526020600020906007020160060160009054906101000a900460ff16610e79576040517f08c379a0000000000000000000000000000000000000000000000000000000008152600401610e7090614a2d565b60405180910390fd5b5b6000610e86600b612c3d565b9050610e923382612c4b565b6000600d600181600181540180825580915050039060005260206000209060070201905081816000018190555084816001019080519060200190610ed79291906136b8565b50838160020160006101000a81548160ff021916908360ff16021790555060008160060160006101000a81548160ff021916908315150217905550819250505092915050565b6060600d8281548110610f59577f4e487b7100000000000000000000000000000000000000000000000000000000600052603260045260246000fd5b9060005260206000209060070201600301805480602002602001604051908101604052809291908181526020016000905b828210156110f5578382906000526020600020906003020160405180606001604052908160008201805480602002602001604051908101604052809291908181526020016000905b8282101561107e578382906000526020600020018054610ff190614e87565b80601f016020809104026020016040519081016040528092919081815260200182805461101d90614e87565b801561106a5780601f1061103f5761010080835404028352916020019161106a565b820191906000526020600020905b81548152906001019060200180831161104d57829003601f168201915b505050505081526020019060010190610fd2565b505050508152602001600182015481526020016002820160009054906101000a900473ffffffffffffffffffffffffffffffffffffffff1673ffffffffffffffffffffffffffffffffffffffff1673ffffffffffffffffffffffffffffffffffffffff168152505081526020019060010190610f8a565b505050509050919050565b600061110b83611326565b821061114c576040517f08c379a00000000000000000000000000000000000000000000000000000000081526004016111439061476d565b60405180910390fd5b600660008473ffffffffffffffffffffffffffffffffffffffff1673ffffffffffffffffffffffffffffffffffffffff168152602001908152602001600020600083815260200190815260200160002054905092915050565b6111c083838360405180602001604052806000815250611f7f565b505050565b60006111cf610d54565b8210611210576040517f08c379a000000000000000000000000000000000000000000000000000000000815260040161120790614a0d565b60405180910390fd5b6008828154811061124a577f4e487b7100000000000000000000000000000000000000000000000000000000600052603260045260246000fd5b90600052602060002001549050919050565b6000806002600084815260200190815260200160002060009054906101000a900473ffffffffffffffffffffffffffffffffffffffff169050600073ffffffffffffffffffffffffffffffffffffffff168173ffffffffffffffffffffffffffffffffffffffff161415611305576040517f08c379a00000000000000000000000000000000000000000000000000000000081526004016112fc906148ad565b60405180910390fd5b80915050919050565b73a81a6a910fed20374361b35c451a4a44f86ced4681565b60008073ffffffffffffffffffffffffffffffffffffffff168273ffffffffffffffffffffffffffffffffffffffff161415611397576040517f08c379a000000000000000000000000000000000000000000000000000000000815260040161138e9061488d565b60405180910390fd5b600360008373ffffffffffffffffffffffffffffffffffffffff1673ffffffffffffffffffffffffffffffffffffffff168152602001908152602001600020549050919050565b6113e6612842565b73ffffffffffffffffffffffffffffffffffffffff1661140461176b565b73ffffffffffffffffffffffffffffffffffffffff161461145a576040517f08c379a00000000000000000000000000000000000000000000000000000000081526004016114519061494d565b60405180910390fd5b6114646000612e19565b565b6000611472600b612c3d565b905060001515600d82815481106114b2577f4e487b7100000000000000000000000000000000000000000000000000000000600052603260045260246000fd5b906000526020600020906007020160060160009054906101000a900460ff16151514611513576040517f08c379a000000000000000000000000000000000000000000000000000000000815260040161150a906149cd565b60405180910390fd5b600c60009054906101000a900460ff1660ff16600d8281548110611560577f4e487b7100000000000000000000000000000000000000000000000000000000600052603260045260246000fd5b906000526020600020906007020160050160003373ffffffffffffffffffffffffffffffffffffffff1673ffffffffffffffffffffffffffffffffffffffff16815260200190815260200160002060009054906101000a900460ff1660ff16106115ff576040517f08c379a00000000000000000000000000000000000000000000000000000000081526004016115f690614a4d565b60405180910390fd5b600d8181548110611639577f4e487b7100000000000000000000000000000000000000000000000000000000600052603260045260246000fd5b906000526020600020906007020160050160003373ffffffffffffffffffffffffffffffffffffffff1673ffffffffffffffffffffffffffffffffffffffff168152602001908152602001600020600081819054906101000a900460ff16809291906116a490614f33565b91906101000a81548160ff021916908360ff16021790555050600d81815481106116f7577f4e487b7100000000000000000000000000000000000000000000000000000000600052603260045260246000fd5b90600052602060002090600702016003018281548110611740577f4e487b7100000000000000000000000000000000000000000000000000000000600052603260045260246000fd5b9060005260206000209060030201600101600081548092919061176290614eea565b91905055505050565b6000600a60009054906101000a900473ffffffffffffffffffffffffffffffffffffffff16905090565b600d81815481106117a557600080fd5b90600052602060002090600702016000915090508060000154908060010180546117ce90614e87565b80601f01602080910402602001604051908101604052809291908181526020018280546117fa90614e87565b80156118475780601f1061181c57610100808354040283529160200191611847565b820191906000526020600020905b81548152906001019060200180831161182a57829003601f168201915b5050505050908060020160009054906101000a900460ff16908060060160009054906101000a900460ff16905084565b60606001805461188690614e87565b80601f01602080910402602001604051908101604052809291908181526020018280546118b290614e87565b80156118ff5780601f106118d4576101008083540402835291602001916118ff565b820191906000526020600020905b8154815290600101906020018083116118e257829003601f168201915b5050505050905090565b600e5481565b611917612842565b73ffffffffffffffffffffffffffffffffffffffff168273ffffffffffffffffffffffffffffffffffffffff161415611985576040517f08c379a000000000000000000000000000000000000000000000000000000000815260040161197c9061480d565b60405180910390fd5b8060056000611992612842565b73ffffffffffffffffffffffffffffffffffffffff1673ffffffffffffffffffffffffffffffffffffffff16815260200190815260200160002060008473ffffffffffffffffffffffffffffffffffffffff1673ffffffffffffffffffffffffffffffffffffffff16815260200190815260200160002060006101000a81548160ff0219169083151502179055508173ffffffffffffffffffffffffffffffffffffffff16611a3f612842565b73ffffffffffffffffffffffffffffffffffffffff167f17307eab39ab6107e8899845ad3d59bd9653f200f220920489ca2b5937696c3183604051611a8491906146cb565b60405180910390a35050565b611a9861373e565b600d8381548110611ad2577f4e487b7100000000000000000000000000000000000000000000000000000000600052603260045260246000fd5b90600052602060002090600702016003018281548110611b1b577f4e487b7100000000000000000000000000000000000000000000000000000000600052603260045260246000fd5b906000526020600020906003020160405180606001604052908160008201805480602002602001604051908101604052809291908181526020016000905b82821015611c05578382906000526020600020018054611b7890614e87565b80601f0160208091040260200160405190810160405280929190818152602001828054611ba490614e87565b8015611bf15780601f10611bc657610100808354040283529160200191611bf1565b820191906000526020600020905b815481529060010190602001808311611bd457829003601f168201915b505050505081526020019060010190611b59565b505050508152602001600182015481526020016002820160009054906101000a900473ffffffffffffffffffffffffffffffffffffffff1673ffffffffffffffffffffffffffffffffffffffff1673ffffffffffffffffffffffffffffffffffffffff1681525050905092915050565b600c60009054906101000a900460ff1681565b6000611c94600b612c3d565b905060001515600d8281548110611cd4577f4e487b7100000000000000000000000000000000000000000000000000000000600052603260045260246000fd5b906000526020600020906007020160040160003373ffffffffffffffffffffffffffffffffffffffff1673ffffffffffffffffffffffffffffffffffffffff16815260200190815260200160002060009054906101000a900460ff16151514611d72576040517f08c379a0000000000000000000000000000000000000000000000000000000008152600401611d69906148cd565b60405180910390fd5b600d8181548110611dac577f4e487b7100000000000000000000000000000000000000000000000000000000600052603260045260246000fd5b906000526020600020906007020160020160009054906101000a900460ff1660ff16825114611e10576040517f08c379a0000000000000000000000000000000000000000000000000000000008152600401611e079061474d565b60405180910390fd5b6001600d8281548110611e4c577f4e487b7100000000000000000000000000000000000000000000000000000000600052603260045260246000fd5b906000526020600020906007020160040160003373ffffffffffffffffffffffffffffffffffffffff1673ffffffffffffffffffffffffffffffffffffffff16815260200190815260200160002060006101000a81548160ff0219169083151502179055506000600d8281548110611eed577f4e487b7100000000000000000000000000000000000000000000000000000000600052603260045260246000fd5b90600052602060002090600702016003016001816001815401808255809150500390600052602060002090600302019050338160020160006101000a81548173ffffffffffffffffffffffffffffffffffffffff021916908373ffffffffffffffffffffffffffffffffffffffff16021790555082816000019080519060200190611f79929190613775565b50505050565b611f90611f8a612842565b83612903565b611fcf576040517f08c379a0000000000000000000000000000000000000000000000000000000008152600401611fc6906149ed565b60405180910390fd5b611fdb84848484612edf565b50505050565b6060611fec826127d6565b61202b576040517f08c379a00000000000000000000000000000000000000000000000000000000081526004016120229061482d565b60405180910390fd5b73e7f1725E7734CE288F8367e1Bb143E90bb3F051263ad19f05b8361204f8561125c565b600d8681548110612089577f4e487b7100000000000000000000000000000000000000000000000000000000600052603260045260246000fd5b90600052602060002090600702016001016040518463ffffffff1660e01b81526004016120b893929190614aaa565b60006040518083038186803b1580156120d057600080fd5b505af41580156120e4573d6000803e3d6000fd5b505050506040513d6000823e3d601f19601f8201168201806040525081019061210d9190613cf6565b9050919050565b61211d8161125c565b73ffffffffffffffffffffffffffffffffffffffff163373ffffffffffffffffffffffffffffffffffffffff161461218a576040517f08c379a0000000000000000000000000000000000000000000000000000000008152600401612181906148ed565b60405180910390fd5b60001515600d61219a600b612c3d565b815481106121d1577f4e487b7100000000000000000000000000000000000000000000000000000000600052603260045260246000fd5b906000526020600020906007020160060160009054906101000a900460ff16151514612232576040517f08c379a00000000000000000000000000000000000000000000000000000000081526004016122299061498d565b60405180910390fd5b6001600d828154811061226e577f4e487b7100000000000000000000000000000000000000000000000000000000600052603260045260246000fd5b906000526020600020906007020160060160006101000a81548160ff02191690831515021790555060006122a182610a3f565b90506122ed816000815181106122e0577f4e487b7100000000000000000000000000000000000000000000000000000000600052603260045260246000fd5b6020026020010151612f3b565b73e7f1725E7734CE288F8367e1Bb143E90bb3F051263402bb28a600d8481548110612341577f4e487b7100000000000000000000000000000000000000000000000000000000600052603260045260246000fd5b9060005260206000209060070201600101600d858154811061238c577f4e487b7100000000000000000000000000000000000000000000000000000000600052603260045260246000fd5b906000526020600020906007020160020160009054906101000a900460ff16846040518463ffffffff1660e01b81526004016123ca93929190614708565b60006040518083038186803b1580156123e257600080fd5b505af41580156123f6573d6000803e3d6000fd5b505050506040513d6000823e3d601f19601f8201168201806040525081019061241f9190613cf6565b600d8381548110612459577f4e487b7100000000000000000000000000000000000000000000000000000000600052603260045260246000fd5b9060005260206000209060070201600101908051906020019061247d9291906136b8565b5061255a600d83815481106124bb577f4e487b7100000000000000000000000000000000000000000000000000000000600052603260045260246000fd5b906000526020600020906007020160010180546124d790614e87565b80601f016020809104026020016040519081016040528092919081815260200182805461250390614e87565b80156125505780601f1061252557610100808354040283529160200191612550565b820191906000526020600020905b81548152906001019060200180831161253357829003601f168201915b5050505050612f3b565b612564600b612fd4565b5050565b6000600560008473ffffffffffffffffffffffffffffffffffffffff1673ffffffffffffffffffffffffffffffffffffffff16815260200190815260200160002060008373ffffffffffffffffffffffffffffffffffffffff1673ffffffffffffffffffffffffffffffffffffffff16815260200190815260200160002060009054906101000a900460ff16905092915050565b612604612842565b73ffffffffffffffffffffffffffffffffffffffff1661262261176b565b73ffffffffffffffffffffffffffffffffffffffff1614612678576040517f08c379a000000000000000000000000000000000000000000000000000000000815260040161266f9061494d565b60405180910390fd5b600073ffffffffffffffffffffffffffffffffffffffff168173ffffffffffffffffffffffffffffffffffffffff1614156126e8576040517f08c379a00000000000000000000000000000000000000000000000000000000081526004016126df906147ad565b60405180910390fd5b6126f181612e19565b50565b60007f80ac58cd000000000000000000000000000000000000000000000000000000007bffffffffffffffffffffffffffffffffffffffffffffffffffffffff1916827bffffffffffffffffffffffffffffffffffffffffffffffffffffffff191614806127bf57507f5b5e139f000000000000000000000000000000000000000000000000000000007bffffffffffffffffffffffffffffffffffffffffffffffffffffffff1916827bffffffffffffffffffffffffffffffffffffffffffffffffffffffff1916145b806127cf57506127ce82612fea565b5b9050919050565b60008073ffffffffffffffffffffffffffffffffffffffff166002600084815260200190815260200160002060009054906101000a900473ffffffffffffffffffffffffffffffffffffffff1673ffffffffffffffffffffffffffffffffffffffff1614159050919050565b600033905090565b816004600083815260200190815260200160002060006101000a81548173ffffffffffffffffffffffffffffffffffffffff021916908373ffffffffffffffffffffffffffffffffffffffff160217905550808273ffffffffffffffffffffffffffffffffffffffff166128bd8361125c565b73ffffffffffffffffffffffffffffffffffffffff167f8c5be1e5ebec7d5bd14f71427d1e84f3dd0314c0f7b2291e5b200ac8c7c3b92560405160405180910390a45050565b600061290e826127d6565b61294d576040517f08c379a00000000000000000000000000000000000000000000000000000000081526004016129449061484d565b60405180910390fd5b60006129588361125c565b90508073ffffffffffffffffffffffffffffffffffffffff168473ffffffffffffffffffffffffffffffffffffffff1614806129c757508373ffffffffffffffffffffffffffffffffffffffff166129af846108a2565b73ffffffffffffffffffffffffffffffffffffffff16145b806129d857506129d78185612568565b5b91505092915050565b8273ffffffffffffffffffffffffffffffffffffffff16612a018261125c565b73ffffffffffffffffffffffffffffffffffffffff1614612a57576040517f08c379a0000000000000000000000000000000000000000000000000000000008152600401612a4e9061496d565b60405180910390fd5b600073ffffffffffffffffffffffffffffffffffffffff168273ffffffffffffffffffffffffffffffffffffffff161415612ac7576040517f08c379a0000000000000000000000000000000000000000000000000000000008152600401612abe906147ed565b60405180910390fd5b612ad2838383613054565b612add60008261284a565b6001600360008573ffffffffffffffffffffffffffffffffffffffff1673ffffffffffffffffffffffffffffffffffffffff1681526020019081526020016000206000828254612b2d9190614d6c565b925050819055506001600360008473ffffffffffffffffffffffffffffffffffffffff1673ffffffffffffffffffffffffffffffffffffffff1681526020019081526020016000206000828254612b849190614d16565b92505081905550816002600083815260200190815260200160002060006101000a81548173ffffffffffffffffffffffffffffffffffffffff021916908373ffffffffffffffffffffffffffffffffffffffff160217905550808273ffffffffffffffffffffffffffffffffffffffff168473ffffffffffffffffffffffffffffffffffffffff167fddf252ad1be2c89b69c2b068fc378daa952ba7f163c4a11628f55a4df523b3ef60405160405180910390a4505050565b600081600001549050919050565b600073ffffffffffffffffffffffffffffffffffffffff168273ffffffffffffffffffffffffffffffffffffffff161415612cbb576040517f08c379a0000000000000000000000000000000000000000000000000000000008152600401612cb29061490d565b60405180910390fd5b612cc4816127d6565b15612d04576040517f08c379a0000000000000000000000000000000000000000000000000000000008152600401612cfb906147cd565b60405180910390fd5b612d1060008383613054565b6001600360008473ffffffffffffffffffffffffffffffffffffffff1673ffffffffffffffffffffffffffffffffffffffff1681526020019081526020016000206000828254612d609190614d16565b92505081905550816002600083815260200190815260200160002060006101000a81548173ffffffffffffffffffffffffffffffffffffffff021916908373ffffffffffffffffffffffffffffffffffffffff160217905550808273ffffffffffffffffffffffffffffffffffffffff16600073ffffffffffffffffffffffffffffffffffffffff167fddf252ad1be2c89b69c2b068fc378daa952ba7f163c4a11628f55a4df523b3ef60405160405180910390a45050565b6000600a60009054906101000a900473ffffffffffffffffffffffffffffffffffffffff16905081600a60006101000a81548173ffffffffffffffffffffffffffffffffffffffff021916908373ffffffffffffffffffffffffffffffffffffffff1602179055508173ffffffffffffffffffffffffffffffffffffffff168173ffffffffffffffffffffffffffffffffffffffff167f8be0079c531659141344cd1fd0a4f28419497f9722a3daafe3b4186f6b6457e060405160405180910390a35050565b612eea8484846129e1565b612ef684848484613168565b612f35576040517f08c379a0000000000000000000000000000000000000000000000000000000008152600401612f2c9061478d565b60405180910390fd5b50505050565b612fd181604051602401612f4f91906146e6565b6040516020818303038152906040527f41304fac000000000000000000000000000000000000000000000000000000007bffffffffffffffffffffffffffffffffffffffffffffffffffffffff19166020820180517bffffffffffffffffffffffffffffffffffffffffffffffffffffffff83818316178352505050506132ff565b50565b6001816000016000828254019250508190555050565b60007f01ffc9a7000000000000000000000000000000000000000000000000000000007bffffffffffffffffffffffffffffffffffffffffffffffffffffffff1916827bffffffffffffffffffffffffffffffffffffffffffffffffffffffff1916149050919050565b61305f838383613328565b600073ffffffffffffffffffffffffffffffffffffffff168373ffffffffffffffffffffffffffffffffffffffff1614156130a25761309d8161332d565b6130e1565b8173ffffffffffffffffffffffffffffffffffffffff168373ffffffffffffffffffffffffffffffffffffffff16146130e0576130df8382613376565b5b5b600073ffffffffffffffffffffffffffffffffffffffff168273ffffffffffffffffffffffffffffffffffffffff1614156131245761311f816134e3565b613163565b8273ffffffffffffffffffffffffffffffffffffffff168273ffffffffffffffffffffffffffffffffffffffff1614613162576131618282613626565b5b5b505050565b60006131898473ffffffffffffffffffffffffffffffffffffffff166136a5565b156132f2578373ffffffffffffffffffffffffffffffffffffffff1663150b7a026131b2612842565b8786866040518563ffffffff1660e01b81526004016131d4949392919061463b565b602060405180830381600087803b1580156131ee57600080fd5b505af192505050801561321f57506040513d601f19601f8201168201806040525081019061321c9190613ccd565b60015b6132a2573d806000811461324f576040519150601f19603f3d011682016040523d82523d6000602084013e613254565b606091505b5060008151141561329a576040517f08c379a00000000000000000000000000000000000000000000000000000000081526004016132919061478d565b60405180910390fd5b805181602001fd5b63150b7a0260e01b7bffffffffffffffffffffffffffffffffffffffffffffffffffffffff1916817bffffffffffffffffffffffffffffffffffffffffffffffffffffffff1916149150506132f7565b600190505b949350505050565b60008151905060006a636f6e736f6c652e6c6f679050602083016000808483855afa5050505050565b505050565b6008805490506009600083815260200190815260200160002081905550600881908060018154018082558091505060019003906000526020600020016000909190919091505550565b6000600161338384611326565b61338d9190614d6c565b9050600060076000848152602001908152602001600020549050818114613472576000600660008673ffffffffffffffffffffffffffffffffffffffff1673ffffffffffffffffffffffffffffffffffffffff168152602001908152602001600020600084815260200190815260200160002054905080600660008773ffffffffffffffffffffffffffffffffffffffff1673ffffffffffffffffffffffffffffffffffffffff168152602001908152602001600020600084815260200190815260200160002081905550816007600083815260200190815260200160002081905550505b6007600084815260200190815260200160002060009055600660008573ffffffffffffffffffffffffffffffffffffffff1673ffffffffffffffffffffffffffffffffffffffff16815260200190815260200160002060008381526020019081526020016000206000905550505050565b600060016008805490506134f79190614d6c565b905060006009600084815260200190815260200160002054905060006008838154811061354d577f4e487b7100000000000000000000000000000000000000000000000000000000600052603260045260246000fd5b906000526020600020015490508060088381548110613595577f4e487b7100000000000000000000000000000000000000000000000000000000600052603260045260246000fd5b90600052602060002001819055508160096000838152602001908152602001600020819055506009600085815260200190815260200160002060009055600880548061360a577f4e487b7100000000000000000000000000000000000000000000000000000000600052603160045260246000fd5b6001900381819060005260206000200160009055905550505050565b600061363183611326565b905081600660008573ffffffffffffffffffffffffffffffffffffffff1673ffffffffffffffffffffffffffffffffffffffff168152602001908152602001600020600083815260200190815260200160002081905550806007600084815260200190815260200160002081905550505050565b600080823b905060008111915050919050565b8280546136c490614e87565b90600052602060002090601f0160209004810192826136e6576000855561372d565b82601f106136ff57805160ff191683800117855561372d565b8280016001018555821561372d579182015b8281111561372c578251825591602001919060010190613711565b5b50905061373a91906137d5565b5090565b60405180606001604052806060815260200160008152602001600073ffffffffffffffffffffffffffffffffffffffff1681525090565b8280548282559060005260206000209081019282156137c4579160200282015b828111156137c35782518290805190602001906137b39291906136b8565b5091602001919060010190613795565b5b5090506137d191906137f2565b5090565b5b808211156137ee5760008160009055506001016137d6565b5090565b5b8082111561381257600081816138099190613816565b506001016137f3565b5090565b50805461382290614e87565b6000825580601f106138345750613853565b601f01602090049060005260206000209081019061385291906137d5565b5b50565b600061386961386484614b74565b614b4f565b9050808382526020820190508285602086028201111561388857600080fd5b60005b858110156138d257813567ffffffffffffffff8111156138aa57600080fd5b8086016138b78982613a3e565b8552602085019450602084019350505060018101905061388b565b5050509392505050565b60006138ef6138ea84614ba0565b614b4f565b90508281526020810184848401111561390757600080fd5b613912848285614e45565b509392505050565b600061392d61392884614bd1565b614b4f565b90508281526020810184848401111561394557600080fd5b613950848285614e45565b509392505050565b600061396b61396684614bd1565b614b4f565b90508281526020810184848401111561398357600080fd5b61398e848285614e54565b509392505050565b6000813590506139a581615636565b92915050565b600082601f8301126139bc57600080fd5b81356139cc848260208601613856565b91505092915050565b6000813590506139e48161564d565b92915050565b6000813590506139f981615664565b92915050565b600081519050613a0e81615664565b92915050565b600082601f830112613a2557600080fd5b8135613a358482602086016138dc565b91505092915050565b600082601f830112613a4f57600080fd5b8135613a5f84826020860161391a565b91505092915050565b600082601f830112613a7957600080fd5b8151613a89848260208601613958565b91505092915050565b600081359050613aa18161567b565b92915050565b600081359050613ab681615692565b92915050565b600060208284031215613ace57600080fd5b6000613adc84828501613996565b91505092915050565b60008060408385031215613af857600080fd5b6000613b0685828601613996565b9250506020613b1785828601613996565b9150509250929050565b600080600060608486031215613b3657600080fd5b6000613b4486828701613996565b9350506020613b5586828701613996565b9250506040613b6686828701613a92565b9150509250925092565b60008060008060808587031215613b8657600080fd5b6000613b9487828801613996565b9450506020613ba587828801613996565b9350506040613bb687828801613a92565b925050606085013567ffffffffffffffff811115613bd357600080fd5b613bdf87828801613a14565b91505092959194509250565b60008060408385031215613bfe57600080fd5b6000613c0c85828601613996565b9250506020613c1d858286016139d5565b9150509250929050565b60008060408385031215613c3a57600080fd5b6000613c4885828601613996565b9250506020613c5985828601613a92565b9150509250929050565b600060208284031215613c7557600080fd5b600082013567ffffffffffffffff811115613c8f57600080fd5b613c9b848285016139ab565b91505092915050565b600060208284031215613cb657600080fd5b6000613cc4848285016139ea565b91505092915050565b600060208284031215613cdf57600080fd5b6000613ced848285016139ff565b91505092915050565b600060208284031215613d0857600080fd5b600082015167ffffffffffffffff811115613d2257600080fd5b613d2e84828501613a68565b91505092915050565b60008060408385031215613d4a57600080fd5b600083013567ffffffffffffffff811115613d6457600080fd5b613d7085828601613a3e565b9250506020613d8185828601613aa7565b9150509250929050565b600060208284031215613d9d57600080fd5b6000613dab84828501613a92565b91505092915050565b60008060408385031215613dc757600080fd5b6000613dd585828601613a92565b9250506020613de685828601613a92565b9150509250929050565b6000613dfc8383614084565b905092915050565b6000613e1083836140f6565b905092915050565b6000613e24838361451a565b905092915050565b613e3581614db2565b82525050565b613e4481614da0565b82525050565b613e5381614da0565b82525050565b613e6281614da0565b82525050565b6000613e7382614c37565b613e7d8185614c7d565b935083602082028501613e8f85614c02565b8060005b85811015613ecb5784840389528151613eac8582613df0565b9450613eb783614c63565b925060208a01995050600181019050613e93565b50829750879550505050505092915050565b6000613ee882614c37565b613ef28185614c8e565b935083602082028501613f0485614c02565b8060005b85811015613f405784840389528151613f218582613df0565b9450613f2c83614c63565b925060208a01995050600181019050613f08565b50829750879550505050505092915050565b6000613f5d82614c37565b613f678185614c9f565b935083602082028501613f7985614c02565b8060005b85811015613fb55784840389528151613f968582613e04565b9450613fa183614c63565b925060208a01995050600181019050613f7d565b50829750879550505050505092915050565b6000613fd282614c42565b613fdc8185614cb0565b935083602082028501613fee85614c12565b8060005b8581101561402a578484038952815161400b8582613e18565b945061401683614c70565b925060208a01995050600181019050613ff2565b50829750879550505050505092915050565b61404581614dc4565b82525050565b600061405682614c4d565b6140608185614cc1565b9350614070818560208601614e54565b61407981614fea565b840191505092915050565b600061408f82614c58565b6140998185614cd2565b93506140a9818560208601614e54565b6140b281614fea565b840191505092915050565b60006140c882614c58565b6140d28185614ce3565b93506140e2818560208601614e54565b6140eb81614fea565b840191505092915050565b600061410182614c58565b61410b8185614d05565b935061411b818560208601614e54565b61412481614fea565b840191505092915050565b6000815461413c81614e87565b6141468186614cf4565b945060018216600081146141615760018114614173576141a6565b60ff19831686526020860193506141a6565b61417c85614c22565b60005b8381101561419e5781548189015260018201915060208101905061417f565b808801955050505b50505092915050565b60006141bc601a83614ce3565b91506141c782614ffb565b602082019050919050565b60006141df602b83614ce3565b91506141ea82615024565b604082019050919050565b6000614202603283614ce3565b915061420d82615073565b604082019050919050565b6000614225602683614ce3565b9150614230826150c2565b604082019050919050565b6000614248601c83614ce3565b915061425382615111565b602082019050919050565b600061426b602483614ce3565b91506142768261513a565b604082019050919050565b600061428e601983614ce3565b915061429982615189565b602082019050919050565b60006142b1600a83614ce3565b91506142bc826151b2565b602082019050919050565b60006142d4602c83614ce3565b91506142df826151db565b604082019050919050565b60006142f7603883614ce3565b91506143028261522a565b604082019050919050565b600061431a602a83614ce3565b915061432582615279565b604082019050919050565b600061433d602983614ce3565b9150614348826152c8565b604082019050919050565b6000614360602e83614ce3565b915061436b82615317565b604082019050919050565b6000614383601583614ce3565b915061438e82615366565b602082019050919050565b60006143a6602083614ce3565b91506143b18261538f565b602082019050919050565b60006143c9602c83614ce3565b91506143d4826153b8565b604082019050919050565b60006143ec602083614ce3565b91506143f782615407565b602082019050919050565b600061440f602983614ce3565b915061441a82615430565b604082019050919050565b6000614432601f83614ce3565b915061443d8261547f565b602082019050919050565b6000614455602183614ce3565b9150614460826154a8565b604082019050919050565b6000614478602983614ce3565b9150614483826154f7565b604082019050919050565b600061449b603183614ce3565b91506144a682615546565b604082019050919050565b60006144be602c83614ce3565b91506144c982615595565b604082019050919050565b60006144e1601f83614ce3565b91506144ec826155e4565b602082019050919050565b6000614504600e83614ce3565b915061450f8261560d565b602082019050919050565b600060608301600083015184820360008601526145378282613e68565b915050602083015161454c60208601826145ba565b50604083015161455f6040860182613e3b565b508091505092915050565b600060608301600083015184820360008601526145878282613e68565b915050602083015161459c60208601826145ba565b5060408301516145af6040860182613e3b565b508091505092915050565b6145c381614e1c565b82525050565b6145d281614e1c565b82525050565b6145e181614e1c565b82525050565b6145f081614e33565b82525050565b6145ff81614e26565b82525050565b600060208201905061461a6000830184613e4a565b92915050565b60006020820190506146356000830184613e2c565b92915050565b60006080820190506146506000830187613e4a565b61465d6020830186613e4a565b61466a60408301856145c9565b818103606083015261467c818461404b565b905095945050505050565b600060208201905081810360008301526146a18184613edd565b905092915050565b600060208201905081810360008301526146c38184613fc7565b905092915050565b60006020820190506146e0600083018461403c565b92915050565b6000602082019050818103600083015261470081846140bd565b905092915050565b60006060820190508181036000830152614722818661412f565b905061473160208301856145e7565b81810360408301526147438184613f52565b9050949350505050565b60006020820190508181036000830152614766816141af565b9050919050565b60006020820190508181036000830152614786816141d2565b9050919050565b600060208201905081810360008301526147a6816141f5565b9050919050565b600060208201905081810360008301526147c681614218565b9050919050565b600060208201905081810360008301526147e68161423b565b9050919050565b600060208201905081810360008301526148068161425e565b9050919050565b6000602082019050818103600083015261482681614281565b9050919050565b60006020820190508181036000830152614846816142a4565b9050919050565b60006020820190508181036000830152614866816142c7565b9050919050565b60006020820190508181036000830152614886816142ea565b9050919050565b600060208201905081810360008301526148a68161430d565b9050919050565b600060208201905081810360008301526148c681614330565b9050919050565b600060208201905081810360008301526148e681614353565b9050919050565b6000602082019050818103600083015261490681614376565b9050919050565b6000602082019050818103600083015261492681614399565b9050919050565b60006020820190508181036000830152614946816143bc565b9050919050565b60006020820190508181036000830152614966816143df565b9050919050565b6000602082019050818103600083015261498681614402565b9050919050565b600060208201905081810360008301526149a681614425565b9050919050565b600060208201905081810360008301526149c681614448565b9050919050565b600060208201905081810360008301526149e68161446b565b9050919050565b60006020820190508181036000830152614a068161448e565b9050919050565b60006020820190508181036000830152614a26816144b1565b9050919050565b60006020820190508181036000830152614a46816144d4565b9050919050565b60006020820190508181036000830152614a66816144f7565b9050919050565b60006020820190508181036000830152614a87818461456a565b905092915050565b6000602082019050614aa460008301846145c9565b92915050565b6000606082019050614abf60008301866145d8565b614acc6020830185613e59565b8181036040830152614ade818461412f565b9050949350505050565b6000608082019050614afd60008301876145c9565b8181036020830152614b0f81866140bd565b9050614b1e60408301856145f6565b614b2b606083018461403c565b95945050505050565b6000602082019050614b4960008301846145f6565b92915050565b6000614b59614b6a565b9050614b658282614eb9565b919050565b6000604051905090565b600067ffffffffffffffff821115614b8f57614b8e614fbb565b5b602082029050602081019050919050565b600067ffffffffffffffff821115614bbb57614bba614fbb565b5b614bc482614fea565b9050602081019050919050565b600067ffffffffffffffff821115614bec57614beb614fbb565b5b614bf582614fea565b9050602081019050919050565b6000819050602082019050919050565b6000819050602082019050919050565b60008190508160005260206000209050919050565b600081519050919050565b600081519050919050565b600081519050919050565b600081519050919050565b6000602082019050919050565b6000602082019050919050565b600082825260208201905092915050565b600082825260208201905092915050565b600082825260208201905092915050565b600082825260208201905092915050565b600082825260208201905092915050565b600082825260208201905092915050565b600082825260208201905092915050565b600082825260208201905092915050565b600082825260208201905092915050565b6000614d2182614e1c565b9150614d2c83614e1c565b9250827fffffffffffffffffffffffffffffffffffffffffffffffffffffffffffffffff03821115614d6157614d60614f5d565b5b828201905092915050565b6000614d7782614e1c565b9150614d8283614e1c565b925082821015614d9557614d94614f5d565b5b828203905092915050565b6000614dab82614dfc565b9050919050565b6000614dbd82614dfc565b9050919050565b60008115159050919050565b60007fffffffff0000000000000000000000000000000000000000000000000000000082169050919050565b600073ffffffffffffffffffffffffffffffffffffffff82169050919050565b6000819050919050565b600060ff82169050919050565b6000614e3e82614e26565b9050919050565b82818337600083830152505050565b60005b83811015614e72578082015181840152602081019050614e57565b83811115614e81576000848401525b50505050565b60006002820490506001821680614e9f57607f821691505b60208210811415614eb357614eb2614f8c565b5b50919050565b614ec282614fea565b810181811067ffffffffffffffff82111715614ee157614ee0614fbb565b5b80604052505050565b6000614ef582614e1c565b91507fffffffffffffffffffffffffffffffffffffffffffffffffffffffffffffffff821415614f2857614f27614f5d565b5b600182019050919050565b6000614f3e82614e26565b915060ff821415614f5257614f51614f5d565b5b600182019050919050565b7f4e487b7100000000000000000000000000000000000000000000000000000000600052601160045260246000fd5b7f4e487b7100000000000000000000000000000000000000000000000000000000600052602260045260246000fd5b7f4e487b7100000000000000000000000000000000000000000000000000000000600052604160045260246000fd5b6000601f19601f8301169050919050565b7f6e6f74207269676874206e756d626572206f6620776f72647321000000000000600082015250565b7f455243373231456e756d657261626c653a206f776e657220696e646578206f7560008201527f74206f6620626f756e6473000000000000000000000000000000000000000000602082015250565b7f4552433732313a207472616e7366657220746f206e6f6e20455243373231526560008201527f63656976657220696d706c656d656e7465720000000000000000000000000000602082015250565b7f4f776e61626c653a206e6577206f776e657220697320746865207a65726f206160008201527f6464726573730000000000000000000000000000000000000000000000000000602082015250565b7f4552433732313a20746f6b656e20616c7265616479206d696e74656400000000600082015250565b7f4552433732313a207472616e7366657220746f20746865207a65726f2061646460008201527f7265737300000000000000000000000000000000000000000000000000000000602082015250565b7f4552433732313a20617070726f766520746f2063616c6c657200000000000000600082015250565b7f4e6f742065786973742100000000000000000000000000000000000000000000600082015250565b7f4552433732313a206f70657261746f7220717565727920666f72206e6f6e657860008201527f697374656e7420746f6b656e0000000000000000000000000000000000000000602082015250565b7f4552433732313a20617070726f76652063616c6c6572206973206e6f74206f7760008201527f6e6572206e6f7220617070726f76656420666f7220616c6c0000000000000000602082015250565b7f4552433732313a2062616c616e636520717565727920666f7220746865207a6560008201527f726f206164647265737300000000000000000000000000000000000000000000602082015250565b7f4552433732313a206f776e657220717565727920666f72206e6f6e657869737460008201527f656e7420746f6b656e0000000000000000000000000000000000000000000000602082015250565b7f506c6179657220616c72656164792068617320612070726f706f73616c20666f60008201527f722074686973204d61644c696221000000000000000000000000000000000000602082015250565b7f796f7520617265206e6f7420746865206f776e65720000000000000000000000600082015250565b7f4552433732313a206d696e7420746f20746865207a65726f2061646472657373600082015250565b7f4552433732313a20617070726f76656420717565727920666f72206e6f6e657860008201527f697374656e7420746f6b656e0000000000000000000000000000000000000000602082015250565b7f4f776e61626c653a2063616c6c6572206973206e6f7420746865206f776e6572600082015250565b7f4552433732313a207472616e73666572206f6620746f6b656e2074686174206960008201527f73206e6f74206f776e0000000000000000000000000000000000000000000000602082015250565b7f53656c6563746564204d61644c696220616c726561647920636c6f7365642100600082015250565b7f4552433732313a20617070726f76616c20746f2063757272656e74206f776e6560008201527f7200000000000000000000000000000000000000000000000000000000000000602082015250565b7f50726f706f73616c206d75737420626520666f72206f70656e2f63757272656e60008201527f74204d61644c6962210000000000000000000000000000000000000000000000602082015250565b7f4552433732313a207472616e736665722063616c6c6572206973206e6f74206f60008201527f776e6572206e6f7220617070726f766564000000000000000000000000000000602082015250565b7f455243373231456e756d657261626c653a20676c6f62616c20696e646578206f60008201527f7574206f6620626f756e64730000000000000000000000000000000000000000602082015250565b7f50726576696f7573204d61644c6962206e6f7420636c6f736564207965742100600082015250565b7f546f6f206d75636820766f746573000000000000000000000000000000000000600082015250565b61563f81614da0565b811461564a57600080fd5b50565b61565681614dc4565b811461566157600080fd5b50565b61566d81614dd0565b811461567857600080fd5b50565b61568481614e1c565b811461568f57600080fd5b50565b61569b81614e26565b81146156a657600080fd5b5056fea26469706673582212201ba1d7ad9d5978a70a592dd1cb7daf290800e6f8b26a0f0a6f2b9a0a78e01b1464736f6c63430008040033",
  "deployedBytecode": "0x6080604052600436106101cd5760003560e01c8063715018a6116100f7578063aba2100911610095578063c87b56dd11610064578063c87b56dd146106ca578063d06ff53114610707578063e985e9c514610730578063f2fde38b1461076d576101cd565b8063aba2100914610610578063aed50f8f1461064d578063b489ce7114610678578063b88d4fde146106a1576101cd565b806392b4d6cd116100d157806392b4d6cd1461055157806395d89b4114610591578063a035b1fe146105bc578063a22cb465146105e7576101cd565b8063715018a6146104e6578063807896d5146104fd5780638da5cb5b14610526576101cd565b8063253eb1e01161016f5780634f6ccce71161013e5780634f6ccce7146104045780636352211e1461044157806366d003ac1461047e57806370a08231146104a9576101cd565b8063253eb1e0146103315780632c72fdfc146103615780632f745c591461039e57806342842e0e146103db576101cd565b8063095ea7b3116101ab578063095ea7b3146102775780630a7c405f146102a057806318160ddd146102dd57806323b872dd14610308576101cd565b806301ffc9a7146101d257806306fdde031461020f578063081812fc1461023a575b600080fd5b3480156101de57600080fd5b506101f960048036038101906101f49190613ca4565b610796565b60405161020691906146cb565b60405180910390f35b34801561021b57600080fd5b50610224610810565b60405161023191906146e6565b60405180910390f35b34801561024657600080fd5b50610261600480360381019061025c9190613d8b565b6108a2565b60405161026e9190614605565b60405180910390f35b34801561028357600080fd5b5061029e60048036038101906102999190613c27565b610927565b005b3480156102ac57600080fd5b506102c760048036038101906102c29190613d8b565b610a3f565b6040516102d49190614687565b60405180910390f35b3480156102e957600080fd5b506102f2610d54565b6040516102ff9190614a8f565b60405180910390f35b34801561031457600080fd5b5061032f600480360381019061032a9190613b21565b610d61565b005b61034b60048036038101906103469190613d37565b610dc1565b6040516103589190614a8f565b60405180910390f35b34801561036d57600080fd5b5061038860048036038101906103839190613d8b565b610f1d565b60405161039591906146a9565b60405180910390f35b3480156103aa57600080fd5b506103c560048036038101906103c09190613c27565b611100565b6040516103d29190614a8f565b60405180910390f35b3480156103e757600080fd5b5061040260048036038101906103fd9190613b21565b6111a5565b005b34801561041057600080fd5b5061042b60048036038101906104269190613d8b565b6111c5565b6040516104389190614a8f565b60405180910390f35b34801561044d57600080fd5b5061046860048036038101906104639190613d8b565b61125c565b6040516104759190614605565b60405180910390f35b34801561048a57600080fd5b5061049361130e565b6040516104a09190614620565b60405180910390f35b3480156104b557600080fd5b506104d060048036038101906104cb9190613abc565b611326565b6040516104dd9190614a8f565b60405180910390f35b3480156104f257600080fd5b506104fb6113de565b005b34801561050957600080fd5b50610524600480360381019061051f9190613d8b565b611466565b005b34801561053257600080fd5b5061053b61176b565b6040516105489190614605565b60405180910390f35b34801561055d57600080fd5b5061057860048036038101906105739190613d8b565b611795565b6040516105889493929190614ae8565b60405180910390f35b34801561059d57600080fd5b506105a6611877565b6040516105b391906146e6565b60405180910390f35b3480156105c857600080fd5b506105d1611909565b6040516105de9190614a8f565b60405180910390f35b3480156105f357600080fd5b5061060e60048036038101906106099190613beb565b61190f565b005b34801561061c57600080fd5b5061063760048036038101906106329190613db4565b611a90565b6040516106449190614a6d565b60405180910390f35b34801561065957600080fd5b50610662611c75565b60405161066f9190614b34565b60405180910390f35b34801561068457600080fd5b5061069f600480360381019061069a9190613c63565b611c88565b005b3480156106ad57600080fd5b506106c860048036038101906106c39190613b70565b611f7f565b005b3480156106d657600080fd5b506106f160048036038101906106ec9190613d8b565b611fe1565b6040516106fe91906146e6565b60405180910390f35b34801561071357600080fd5b5061072e60048036038101906107299190613d8b565b612114565b005b34801561073c57600080fd5b5061075760048036038101906107529190613ae5565b612568565b60405161076491906146cb565b60405180910390f35b34801561077957600080fd5b50610794600480360381019061078f9190613abc565b6125fc565b005b60007f780e9d63000000000000000000000000000000000000000000000000000000007bffffffffffffffffffffffffffffffffffffffffffffffffffffffff1916827bffffffffffffffffffffffffffffffffffffffffffffffffffffffff191614806108095750610808826126f4565b5b9050919050565b60606000805461081f90614e87565b80601f016020809104026020016040519081016040528092919081815260200182805461084b90614e87565b80156108985780601f1061086d57610100808354040283529160200191610898565b820191906000526020600020905b81548152906001019060200180831161087b57829003601f168201915b5050505050905090565b60006108ad826127d6565b6108ec576040517f08c379a00000000000000000000000000000000000000000000000000000000081526004016108e39061492d565b60405180910390fd5b6004600083815260200190815260200160002060009054906101000a900473ffffffffffffffffffffffffffffffffffffffff169050919050565b60006109328261125c565b90508073ffffffffffffffffffffffffffffffffffffffff168373ffffffffffffffffffffffffffffffffffffffff1614156109a3576040517f08c379a000000000000000000000000000000000000000000000000000000000815260040161099a906149ad565b60405180910390fd5b8073ffffffffffffffffffffffffffffffffffffffff166109c2612842565b73ffffffffffffffffffffffffffffffffffffffff1614806109f157506109f0816109eb612842565b612568565b5b610a30576040517f08c379a0000000000000000000000000000000000000000000000000000000008152600401610a279061486d565b60405180910390fd5b610a3a838361284a565b505050565b606060008060005b600d8581548110610a81577f4e487b7100000000000000000000000000000000000000000000000000000000600052603260045260246000fd5b906000526020600020906007020160030180549050811015610be65782600d8681548110610ad8577f4e487b7100000000000000000000000000000000000000000000000000000000600052603260045260246000fd5b90600052602060002090600702016003018281548110610b21577f4e487b7100000000000000000000000000000000000000000000000000000000600052603260045260246000fd5b90600052602060002090600302016001015410610bd357600d8581548110610b72577f4e487b7100000000000000000000000000000000000000000000000000000000600052603260045260246000fd5b90600052602060002090600702016003018181548110610bbb577f4e487b7100000000000000000000000000000000000000000000000000000000600052603260045260246000fd5b90600052602060002090600302016001015492508091505b8080610bde90614eea565b915050610a47565b50600d8481548110610c21577f4e487b7100000000000000000000000000000000000000000000000000000000600052603260045260246000fd5b90600052602060002090600702016003018181548110610c6a577f4e487b7100000000000000000000000000000000000000000000000000000000600052603260045260246000fd5b9060005260206000209060030201600001805480602002602001604051908101604052809291908181526020016000905b82821015610d47578382906000526020600020018054610cba90614e87565b80601f0160208091040260200160405190810160405280929190818152602001828054610ce690614e87565b8015610d335780601f10610d0857610100808354040283529160200191610d33565b820191906000526020600020905b815481529060010190602001808311610d1657829003601f168201915b505050505081526020019060010190610c9b565b5050505092505050919050565b6000600880549050905090565b610d72610d6c612842565b82612903565b610db1576040517f08c379a0000000000000000000000000000000000000000000000000000000008152600401610da8906149ed565b60405180910390fd5b610dbc8383836129e1565b505050565b6000600d80549050600014610e7a57600d6001600d80549050610de49190614d6c565b81548110610e1b577f4e487b7100000000000000000000000000000000000000000000000000000000600052603260045260246000fd5b906000526020600020906007020160060160009054906101000a900460ff16610e79576040517f08c379a0000000000000000000000000000000000000000000000000000000008152600401610e7090614a2d565b60405180910390fd5b5b6000610e86600b612c3d565b9050610e923382612c4b565b6000600d600181600181540180825580915050039060005260206000209060070201905081816000018190555084816001019080519060200190610ed79291906136b8565b50838160020160006101000a81548160ff021916908360ff16021790555060008160060160006101000a81548160ff021916908315150217905550819250505092915050565b6060600d8281548110610f59577f4e487b7100000000000000000000000000000000000000000000000000000000600052603260045260246000fd5b9060005260206000209060070201600301805480602002602001604051908101604052809291908181526020016000905b828210156110f5578382906000526020600020906003020160405180606001604052908160008201805480602002602001604051908101604052809291908181526020016000905b8282101561107e578382906000526020600020018054610ff190614e87565b80601f016020809104026020016040519081016040528092919081815260200182805461101d90614e87565b801561106a5780601f1061103f5761010080835404028352916020019161106a565b820191906000526020600020905b81548152906001019060200180831161104d57829003601f168201915b505050505081526020019060010190610fd2565b505050508152602001600182015481526020016002820160009054906101000a900473ffffffffffffffffffffffffffffffffffffffff1673ffffffffffffffffffffffffffffffffffffffff1673ffffffffffffffffffffffffffffffffffffffff168152505081526020019060010190610f8a565b505050509050919050565b600061110b83611326565b821061114c576040517f08c379a00000000000000000000000000000000000000000000000000000000081526004016111439061476d565b60405180910390fd5b600660008473ffffffffffffffffffffffffffffffffffffffff1673ffffffffffffffffffffffffffffffffffffffff168152602001908152602001600020600083815260200190815260200160002054905092915050565b6111c083838360405180602001604052806000815250611f7f565b505050565b60006111cf610d54565b8210611210576040517f08c379a000000000000000000000000000000000000000000000000000000000815260040161120790614a0d565b60405180910390fd5b6008828154811061124a577f4e487b7100000000000000000000000000000000000000000000000000000000600052603260045260246000fd5b90600052602060002001549050919050565b6000806002600084815260200190815260200160002060009054906101000a900473ffffffffffffffffffffffffffffffffffffffff169050600073ffffffffffffffffffffffffffffffffffffffff168173ffffffffffffffffffffffffffffffffffffffff161415611305576040517f08c379a00000000000000000000000000000000000000000000000000000000081526004016112fc906148ad565b60405180910390fd5b80915050919050565b73a81a6a910fed20374361b35c451a4a44f86ced4681565b60008073ffffffffffffffffffffffffffffffffffffffff168273ffffffffffffffffffffffffffffffffffffffff161415611397576040517f08c379a000000000000000000000000000000000000000000000000000000000815260040161138e9061488d565b60405180910390fd5b600360008373ffffffffffffffffffffffffffffffffffffffff1673ffffffffffffffffffffffffffffffffffffffff168152602001908152602001600020549050919050565b6113e6612842565b73ffffffffffffffffffffffffffffffffffffffff1661140461176b565b73ffffffffffffffffffffffffffffffffffffffff161461145a576040517f08c379a00000000000000000000000000000000000000000000000000000000081526004016114519061494d565b60405180910390fd5b6114646000612e19565b565b6000611472600b612c3d565b905060001515600d82815481106114b2577f4e487b7100000000000000000000000000000000000000000000000000000000600052603260045260246000fd5b906000526020600020906007020160060160009054906101000a900460ff16151514611513576040517f08c379a000000000000000000000000000000000000000000000000000000000815260040161150a906149cd565b60405180910390fd5b600c60009054906101000a900460ff1660ff16600d8281548110611560577f4e487b7100000000000000000000000000000000000000000000000000000000600052603260045260246000fd5b906000526020600020906007020160050160003373ffffffffffffffffffffffffffffffffffffffff1673ffffffffffffffffffffffffffffffffffffffff16815260200190815260200160002060009054906101000a900460ff1660ff16106115ff576040517f08c379a00000000000000000000000000000000000000000000000000000000081526004016115f690614a4d565b60405180910390fd5b600d8181548110611639577f4e487b7100000000000000000000000000000000000000000000000000000000600052603260045260246000fd5b906000526020600020906007020160050160003373ffffffffffffffffffffffffffffffffffffffff1673ffffffffffffffffffffffffffffffffffffffff168152602001908152602001600020600081819054906101000a900460ff16809291906116a490614f33565b91906101000a81548160ff021916908360ff16021790555050600d81815481106116f7577f4e487b7100000000000000000000000000000000000000000000000000000000600052603260045260246000fd5b90600052602060002090600702016003018281548110611740577f4e487b7100000000000000000000000000000000000000000000000000000000600052603260045260246000fd5b9060005260206000209060030201600101600081548092919061176290614eea565b91905055505050565b6000600a60009054906101000a900473ffffffffffffffffffffffffffffffffffffffff16905090565b600d81815481106117a557600080fd5b90600052602060002090600702016000915090508060000154908060010180546117ce90614e87565b80601f01602080910402602001604051908101604052809291908181526020018280546117fa90614e87565b80156118475780601f1061181c57610100808354040283529160200191611847565b820191906000526020600020905b81548152906001019060200180831161182a57829003601f168201915b5050505050908060020160009054906101000a900460ff16908060060160009054906101000a900460ff16905084565b60606001805461188690614e87565b80601f01602080910402602001604051908101604052809291908181526020018280546118b290614e87565b80156118ff5780601f106118d4576101008083540402835291602001916118ff565b820191906000526020600020905b8154815290600101906020018083116118e257829003601f168201915b5050505050905090565b600e5481565b611917612842565b73ffffffffffffffffffffffffffffffffffffffff168273ffffffffffffffffffffffffffffffffffffffff161415611985576040517f08c379a000000000000000000000000000000000000000000000000000000000815260040161197c9061480d565b60405180910390fd5b8060056000611992612842565b73ffffffffffffffffffffffffffffffffffffffff1673ffffffffffffffffffffffffffffffffffffffff16815260200190815260200160002060008473ffffffffffffffffffffffffffffffffffffffff1673ffffffffffffffffffffffffffffffffffffffff16815260200190815260200160002060006101000a81548160ff0219169083151502179055508173ffffffffffffffffffffffffffffffffffffffff16611a3f612842565b73ffffffffffffffffffffffffffffffffffffffff167f17307eab39ab6107e8899845ad3d59bd9653f200f220920489ca2b5937696c3183604051611a8491906146cb565b60405180910390a35050565b611a9861373e565b600d8381548110611ad2577f4e487b7100000000000000000000000000000000000000000000000000000000600052603260045260246000fd5b90600052602060002090600702016003018281548110611b1b577f4e487b7100000000000000000000000000000000000000000000000000000000600052603260045260246000fd5b906000526020600020906003020160405180606001604052908160008201805480602002602001604051908101604052809291908181526020016000905b82821015611c05578382906000526020600020018054611b7890614e87565b80601f0160208091040260200160405190810160405280929190818152602001828054611ba490614e87565b8015611bf15780601f10611bc657610100808354040283529160200191611bf1565b820191906000526020600020905b815481529060010190602001808311611bd457829003601f168201915b505050505081526020019060010190611b59565b505050508152602001600182015481526020016002820160009054906101000a900473ffffffffffffffffffffffffffffffffffffffff1673ffffffffffffffffffffffffffffffffffffffff1673ffffffffffffffffffffffffffffffffffffffff1681525050905092915050565b600c60009054906101000a900460ff1681565b6000611c94600b612c3d565b905060001515600d8281548110611cd4577f4e487b7100000000000000000000000000000000000000000000000000000000600052603260045260246000fd5b906000526020600020906007020160040160003373ffffffffffffffffffffffffffffffffffffffff1673ffffffffffffffffffffffffffffffffffffffff16815260200190815260200160002060009054906101000a900460ff16151514611d72576040517f08c379a0000000000000000000000000000000000000000000000000000000008152600401611d69906148cd565b60405180910390fd5b600d8181548110611dac577f4e487b7100000000000000000000000000000000000000000000000000000000600052603260045260246000fd5b906000526020600020906007020160020160009054906101000a900460ff1660ff16825114611e10576040517f08c379a0000000000000000000000000000000000000000000000000000000008152600401611e079061474d565b60405180910390fd5b6001600d8281548110611e4c577f4e487b7100000000000000000000000000000000000000000000000000000000600052603260045260246000fd5b906000526020600020906007020160040160003373ffffffffffffffffffffffffffffffffffffffff1673ffffffffffffffffffffffffffffffffffffffff16815260200190815260200160002060006101000a81548160ff0219169083151502179055506000600d8281548110611eed577f4e487b7100000000000000000000000000000000000000000000000000000000600052603260045260246000fd5b90600052602060002090600702016003016001816001815401808255809150500390600052602060002090600302019050338160020160006101000a81548173ffffffffffffffffffffffffffffffffffffffff021916908373ffffffffffffffffffffffffffffffffffffffff16021790555082816000019080519060200190611f79929190613775565b50505050565b611f90611f8a612842565b83612903565b611fcf576040517f08c379a0000000000000000000000000000000000000000000000000000000008152600401611fc6906149ed565b60405180910390fd5b611fdb84848484612edf565b50505050565b6060611fec826127d6565b61202b576040517f08c379a00000000000000000000000000000000000000000000000000000000081526004016120229061482d565b60405180910390fd5b73__$572b7a2e6bd963df3bed057106c545e840$__63ad19f05b8361204f8561125c565b600d8681548110612089577f4e487b7100000000000000000000000000000000000000000000000000000000600052603260045260246000fd5b90600052602060002090600702016001016040518463ffffffff1660e01b81526004016120b893929190614aaa565b60006040518083038186803b1580156120d057600080fd5b505af41580156120e4573d6000803e3d6000fd5b505050506040513d6000823e3d601f19601f8201168201806040525081019061210d9190613cf6565b9050919050565b61211d8161125c565b73ffffffffffffffffffffffffffffffffffffffff163373ffffffffffffffffffffffffffffffffffffffff161461218a576040517f08c379a0000000000000000000000000000000000000000000000000000000008152600401612181906148ed565b60405180910390fd5b60001515600d61219a600b612c3d565b815481106121d1577f4e487b7100000000000000000000000000000000000000000000000000000000600052603260045260246000fd5b906000526020600020906007020160060160009054906101000a900460ff16151514612232576040517f08c379a00000000000000000000000000000000000000000000000000000000081526004016122299061498d565b60405180910390fd5b6001600d828154811061226e577f4e487b7100000000000000000000000000000000000000000000000000000000600052603260045260246000fd5b906000526020600020906007020160060160006101000a81548160ff02191690831515021790555060006122a182610a3f565b90506122ed816000815181106122e0577f4e487b7100000000000000000000000000000000000000000000000000000000600052603260045260246000fd5b6020026020010151612f3b565b73__$572b7a2e6bd963df3bed057106c545e840$__63402bb28a600d8481548110612341577f4e487b7100000000000000000000000000000000000000000000000000000000600052603260045260246000fd5b9060005260206000209060070201600101600d858154811061238c577f4e487b7100000000000000000000000000000000000000000000000000000000600052603260045260246000fd5b906000526020600020906007020160020160009054906101000a900460ff16846040518463ffffffff1660e01b81526004016123ca93929190614708565b60006040518083038186803b1580156123e257600080fd5b505af41580156123f6573d6000803e3d6000fd5b505050506040513d6000823e3d601f19601f8201168201806040525081019061241f9190613cf6565b600d8381548110612459577f4e487b7100000000000000000000000000000000000000000000000000000000600052603260045260246000fd5b9060005260206000209060070201600101908051906020019061247d9291906136b8565b5061255a600d83815481106124bb577f4e487b7100000000000000000000000000000000000000000000000000000000600052603260045260246000fd5b906000526020600020906007020160010180546124d790614e87565b80601f016020809104026020016040519081016040528092919081815260200182805461250390614e87565b80156125505780601f1061252557610100808354040283529160200191612550565b820191906000526020600020905b81548152906001019060200180831161253357829003601f168201915b5050505050612f3b565b612564600b612fd4565b5050565b6000600560008473ffffffffffffffffffffffffffffffffffffffff1673ffffffffffffffffffffffffffffffffffffffff16815260200190815260200160002060008373ffffffffffffffffffffffffffffffffffffffff1673ffffffffffffffffffffffffffffffffffffffff16815260200190815260200160002060009054906101000a900460ff16905092915050565b612604612842565b73ffffffffffffffffffffffffffffffffffffffff1661262261176b565b73ffffffffffffffffffffffffffffffffffffffff1614612678576040517f08c379a000000000000000000000000000000000000000000000000000000000815260040161266f9061494d565b60405180910390fd5b600073ffffffffffffffffffffffffffffffffffffffff168173ffffffffffffffffffffffffffffffffffffffff1614156126e8576040517f08c379a00000000000000000000000000000000000000000000000000000000081526004016126df906147ad565b60405180910390fd5b6126f181612e19565b50565b60007f80ac58cd000000000000000000000000000000000000000000000000000000007bffffffffffffffffffffffffffffffffffffffffffffffffffffffff1916827bffffffffffffffffffffffffffffffffffffffffffffffffffffffff191614806127bf57507f5b5e139f000000000000000000000000000000000000000000000000000000007bffffffffffffffffffffffffffffffffffffffffffffffffffffffff1916827bffffffffffffffffffffffffffffffffffffffffffffffffffffffff1916145b806127cf57506127ce82612fea565b5b9050919050565b60008073ffffffffffffffffffffffffffffffffffffffff166002600084815260200190815260200160002060009054906101000a900473ffffffffffffffffffffffffffffffffffffffff1673ffffffffffffffffffffffffffffffffffffffff1614159050919050565b600033905090565b816004600083815260200190815260200160002060006101000a81548173ffffffffffffffffffffffffffffffffffffffff021916908373ffffffffffffffffffffffffffffffffffffffff160217905550808273ffffffffffffffffffffffffffffffffffffffff166128bd8361125c565b73ffffffffffffffffffffffffffffffffffffffff167f8c5be1e5ebec7d5bd14f71427d1e84f3dd0314c0f7b2291e5b200ac8c7c3b92560405160405180910390a45050565b600061290e826127d6565b61294d576040517f08c379a00000000000000000000000000000000000000000000000000000000081526004016129449061484d565b60405180910390fd5b60006129588361125c565b90508073ffffffffffffffffffffffffffffffffffffffff168473ffffffffffffffffffffffffffffffffffffffff1614806129c757508373ffffffffffffffffffffffffffffffffffffffff166129af846108a2565b73ffffffffffffffffffffffffffffffffffffffff16145b806129d857506129d78185612568565b5b91505092915050565b8273ffffffffffffffffffffffffffffffffffffffff16612a018261125c565b73ffffffffffffffffffffffffffffffffffffffff1614612a57576040517f08c379a0000000000000000000000000000000000000000000000000000000008152600401612a4e9061496d565b60405180910390fd5b600073ffffffffffffffffffffffffffffffffffffffff168273ffffffffffffffffffffffffffffffffffffffff161415612ac7576040517f08c379a0000000000000000000000000000000000000000000000000000000008152600401612abe906147ed565b60405180910390fd5b612ad2838383613054565b612add60008261284a565b6001600360008573ffffffffffffffffffffffffffffffffffffffff1673ffffffffffffffffffffffffffffffffffffffff1681526020019081526020016000206000828254612b2d9190614d6c565b925050819055506001600360008473ffffffffffffffffffffffffffffffffffffffff1673ffffffffffffffffffffffffffffffffffffffff1681526020019081526020016000206000828254612b849190614d16565b92505081905550816002600083815260200190815260200160002060006101000a81548173ffffffffffffffffffffffffffffffffffffffff021916908373ffffffffffffffffffffffffffffffffffffffff160217905550808273ffffffffffffffffffffffffffffffffffffffff168473ffffffffffffffffffffffffffffffffffffffff167fddf252ad1be2c89b69c2b068fc378daa952ba7f163c4a11628f55a4df523b3ef60405160405180910390a4505050565b600081600001549050919050565b600073ffffffffffffffffffffffffffffffffffffffff168273ffffffffffffffffffffffffffffffffffffffff161415612cbb576040517f08c379a0000000000000000000000000000000000000000000000000000000008152600401612cb29061490d565b60405180910390fd5b612cc4816127d6565b15612d04576040517f08c379a0000000000000000000000000000000000000000000000000000000008152600401612cfb906147cd565b60405180910390fd5b612d1060008383613054565b6001600360008473ffffffffffffffffffffffffffffffffffffffff1673ffffffffffffffffffffffffffffffffffffffff1681526020019081526020016000206000828254612d609190614d16565b92505081905550816002600083815260200190815260200160002060006101000a81548173ffffffffffffffffffffffffffffffffffffffff021916908373ffffffffffffffffffffffffffffffffffffffff160217905550808273ffffffffffffffffffffffffffffffffffffffff16600073ffffffffffffffffffffffffffffffffffffffff167fddf252ad1be2c89b69c2b068fc378daa952ba7f163c4a11628f55a4df523b3ef60405160405180910390a45050565b6000600a60009054906101000a900473ffffffffffffffffffffffffffffffffffffffff16905081600a60006101000a81548173ffffffffffffffffffffffffffffffffffffffff021916908373ffffffffffffffffffffffffffffffffffffffff1602179055508173ffffffffffffffffffffffffffffffffffffffff168173ffffffffffffffffffffffffffffffffffffffff167f8be0079c531659141344cd1fd0a4f28419497f9722a3daafe3b4186f6b6457e060405160405180910390a35050565b612eea8484846129e1565b612ef684848484613168565b612f35576040517f08c379a0000000000000000000000000000000000000000000000000000000008152600401612f2c9061478d565b60405180910390fd5b50505050565b612fd181604051602401612f4f91906146e6565b6040516020818303038152906040527f41304fac000000000000000000000000000000000000000000000000000000007bffffffffffffffffffffffffffffffffffffffffffffffffffffffff19166020820180517bffffffffffffffffffffffffffffffffffffffffffffffffffffffff83818316178352505050506132ff565b50565b6001816000016000828254019250508190555050565b60007f01ffc9a7000000000000000000000000000000000000000000000000000000007bffffffffffffffffffffffffffffffffffffffffffffffffffffffff1916827bffffffffffffffffffffffffffffffffffffffffffffffffffffffff1916149050919050565b61305f838383613328565b600073ffffffffffffffffffffffffffffffffffffffff168373ffffffffffffffffffffffffffffffffffffffff1614156130a25761309d8161332d565b6130e1565b8173ffffffffffffffffffffffffffffffffffffffff168373ffffffffffffffffffffffffffffffffffffffff16146130e0576130df8382613376565b5b5b600073ffffffffffffffffffffffffffffffffffffffff168273ffffffffffffffffffffffffffffffffffffffff1614156131245761311f816134e3565b613163565b8273ffffffffffffffffffffffffffffffffffffffff168273ffffffffffffffffffffffffffffffffffffffff1614613162576131618282613626565b5b5b505050565b60006131898473ffffffffffffffffffffffffffffffffffffffff166136a5565b156132f2578373ffffffffffffffffffffffffffffffffffffffff1663150b7a026131b2612842565b8786866040518563ffffffff1660e01b81526004016131d4949392919061463b565b602060405180830381600087803b1580156131ee57600080fd5b505af192505050801561321f57506040513d601f19601f8201168201806040525081019061321c9190613ccd565b60015b6132a2573d806000811461324f576040519150601f19603f3d011682016040523d82523d6000602084013e613254565b606091505b5060008151141561329a576040517f08c379a00000000000000000000000000000000000000000000000000000000081526004016132919061478d565b60405180910390fd5b805181602001fd5b63150b7a0260e01b7bffffffffffffffffffffffffffffffffffffffffffffffffffffffff1916817bffffffffffffffffffffffffffffffffffffffffffffffffffffffff1916149150506132f7565b600190505b949350505050565b60008151905060006a636f6e736f6c652e6c6f679050602083016000808483855afa5050505050565b505050565b6008805490506009600083815260200190815260200160002081905550600881908060018154018082558091505060019003906000526020600020016000909190919091505550565b6000600161338384611326565b61338d9190614d6c565b9050600060076000848152602001908152602001600020549050818114613472576000600660008673ffffffffffffffffffffffffffffffffffffffff1673ffffffffffffffffffffffffffffffffffffffff168152602001908152602001600020600084815260200190815260200160002054905080600660008773ffffffffffffffffffffffffffffffffffffffff1673ffffffffffffffffffffffffffffffffffffffff168152602001908152602001600020600084815260200190815260200160002081905550816007600083815260200190815260200160002081905550505b6007600084815260200190815260200160002060009055600660008573ffffffffffffffffffffffffffffffffffffffff1673ffffffffffffffffffffffffffffffffffffffff16815260200190815260200160002060008381526020019081526020016000206000905550505050565b600060016008805490506134f79190614d6c565b905060006009600084815260200190815260200160002054905060006008838154811061354d577f4e487b7100000000000000000000000000000000000000000000000000000000600052603260045260246000fd5b906000526020600020015490508060088381548110613595577f4e487b7100000000000000000000000000000000000000000000000000000000600052603260045260246000fd5b90600052602060002001819055508160096000838152602001908152602001600020819055506009600085815260200190815260200160002060009055600880548061360a577f4e487b7100000000000000000000000000000000000000000000000000000000600052603160045260246000fd5b6001900381819060005260206000200160009055905550505050565b600061363183611326565b905081600660008573ffffffffffffffffffffffffffffffffffffffff1673ffffffffffffffffffffffffffffffffffffffff168152602001908152602001600020600083815260200190815260200160002081905550806007600084815260200190815260200160002081905550505050565b600080823b905060008111915050919050565b8280546136c490614e87565b90600052602060002090601f0160209004810192826136e6576000855561372d565b82601f106136ff57805160ff191683800117855561372d565b8280016001018555821561372d579182015b8281111561372c578251825591602001919060010190613711565b5b50905061373a91906137d5565b5090565b60405180606001604052806060815260200160008152602001600073ffffffffffffffffffffffffffffffffffffffff1681525090565b8280548282559060005260206000209081019282156137c4579160200282015b828111156137c35782518290805190602001906137b39291906136b8565b5091602001919060010190613795565b5b5090506137d191906137f2565b5090565b5b808211156137ee5760008160009055506001016137d6565b5090565b5b8082111561381257600081816138099190613816565b506001016137f3565b5090565b50805461382290614e87565b6000825580601f106138345750613853565b601f01602090049060005260206000209081019061385291906137d5565b5b50565b600061386961386484614b74565b614b4f565b9050808382526020820190508285602086028201111561388857600080fd5b60005b858110156138d257813567ffffffffffffffff8111156138aa57600080fd5b8086016138b78982613a3e565b8552602085019450602084019350505060018101905061388b565b5050509392505050565b60006138ef6138ea84614ba0565b614b4f565b90508281526020810184848401111561390757600080fd5b613912848285614e45565b509392505050565b600061392d61392884614bd1565b614b4f565b90508281526020810184848401111561394557600080fd5b613950848285614e45565b509392505050565b600061396b61396684614bd1565b614b4f565b90508281526020810184848401111561398357600080fd5b61398e848285614e54565b509392505050565b6000813590506139a581615636565b92915050565b600082601f8301126139bc57600080fd5b81356139cc848260208601613856565b91505092915050565b6000813590506139e48161564d565b92915050565b6000813590506139f981615664565b92915050565b600081519050613a0e81615664565b92915050565b600082601f830112613a2557600080fd5b8135613a358482602086016138dc565b91505092915050565b600082601f830112613a4f57600080fd5b8135613a5f84826020860161391a565b91505092915050565b600082601f830112613a7957600080fd5b8151613a89848260208601613958565b91505092915050565b600081359050613aa18161567b565b92915050565b600081359050613ab681615692565b92915050565b600060208284031215613ace57600080fd5b6000613adc84828501613996565b91505092915050565b60008060408385031215613af857600080fd5b6000613b0685828601613996565b9250506020613b1785828601613996565b9150509250929050565b600080600060608486031215613b3657600080fd5b6000613b4486828701613996565b9350506020613b5586828701613996565b9250506040613b6686828701613a92565b9150509250925092565b60008060008060808587031215613b8657600080fd5b6000613b9487828801613996565b9450506020613ba587828801613996565b9350506040613bb687828801613a92565b925050606085013567ffffffffffffffff811115613bd357600080fd5b613bdf87828801613a14565b91505092959194509250565b60008060408385031215613bfe57600080fd5b6000613c0c85828601613996565b9250506020613c1d858286016139d5565b9150509250929050565b60008060408385031215613c3a57600080fd5b6000613c4885828601613996565b9250506020613c5985828601613a92565b9150509250929050565b600060208284031215613c7557600080fd5b600082013567ffffffffffffffff811115613c8f57600080fd5b613c9b848285016139ab565b91505092915050565b600060208284031215613cb657600080fd5b6000613cc4848285016139ea565b91505092915050565b600060208284031215613cdf57600080fd5b6000613ced848285016139ff565b91505092915050565b600060208284031215613d0857600080fd5b600082015167ffffffffffffffff811115613d2257600080fd5b613d2e84828501613a68565b91505092915050565b60008060408385031215613d4a57600080fd5b600083013567ffffffffffffffff811115613d6457600080fd5b613d7085828601613a3e565b9250506020613d8185828601613aa7565b9150509250929050565b600060208284031215613d9d57600080fd5b6000613dab84828501613a92565b91505092915050565b60008060408385031215613dc757600080fd5b6000613dd585828601613a92565b9250506020613de685828601613a92565b9150509250929050565b6000613dfc8383614084565b905092915050565b6000613e1083836140f6565b905092915050565b6000613e24838361451a565b905092915050565b613e3581614db2565b82525050565b613e4481614da0565b82525050565b613e5381614da0565b82525050565b613e6281614da0565b82525050565b6000613e7382614c37565b613e7d8185614c7d565b935083602082028501613e8f85614c02565b8060005b85811015613ecb5784840389528151613eac8582613df0565b9450613eb783614c63565b925060208a01995050600181019050613e93565b50829750879550505050505092915050565b6000613ee882614c37565b613ef28185614c8e565b935083602082028501613f0485614c02565b8060005b85811015613f405784840389528151613f218582613df0565b9450613f2c83614c63565b925060208a01995050600181019050613f08565b50829750879550505050505092915050565b6000613f5d82614c37565b613f678185614c9f565b935083602082028501613f7985614c02565b8060005b85811015613fb55784840389528151613f968582613e04565b9450613fa183614c63565b925060208a01995050600181019050613f7d565b50829750879550505050505092915050565b6000613fd282614c42565b613fdc8185614cb0565b935083602082028501613fee85614c12565b8060005b8581101561402a578484038952815161400b8582613e18565b945061401683614c70565b925060208a01995050600181019050613ff2565b50829750879550505050505092915050565b61404581614dc4565b82525050565b600061405682614c4d565b6140608185614cc1565b9350614070818560208601614e54565b61407981614fea565b840191505092915050565b600061408f82614c58565b6140998185614cd2565b93506140a9818560208601614e54565b6140b281614fea565b840191505092915050565b60006140c882614c58565b6140d28185614ce3565b93506140e2818560208601614e54565b6140eb81614fea565b840191505092915050565b600061410182614c58565b61410b8185614d05565b935061411b818560208601614e54565b61412481614fea565b840191505092915050565b6000815461413c81614e87565b6141468186614cf4565b945060018216600081146141615760018114614173576141a6565b60ff19831686526020860193506141a6565b61417c85614c22565b60005b8381101561419e5781548189015260018201915060208101905061417f565b808801955050505b50505092915050565b60006141bc601a83614ce3565b91506141c782614ffb565b602082019050919050565b60006141df602b83614ce3565b91506141ea82615024565b604082019050919050565b6000614202603283614ce3565b915061420d82615073565b604082019050919050565b6000614225602683614ce3565b9150614230826150c2565b604082019050919050565b6000614248601c83614ce3565b915061425382615111565b602082019050919050565b600061426b602483614ce3565b91506142768261513a565b604082019050919050565b600061428e601983614ce3565b915061429982615189565b602082019050919050565b60006142b1600a83614ce3565b91506142bc826151b2565b602082019050919050565b60006142d4602c83614ce3565b91506142df826151db565b604082019050919050565b60006142f7603883614ce3565b91506143028261522a565b604082019050919050565b600061431a602a83614ce3565b915061432582615279565b604082019050919050565b600061433d602983614ce3565b9150614348826152c8565b604082019050919050565b6000614360602e83614ce3565b915061436b82615317565b604082019050919050565b6000614383601583614ce3565b915061438e82615366565b602082019050919050565b60006143a6602083614ce3565b91506143b18261538f565b602082019050919050565b60006143c9602c83614ce3565b91506143d4826153b8565b604082019050919050565b60006143ec602083614ce3565b91506143f782615407565b602082019050919050565b600061440f602983614ce3565b915061441a82615430565b604082019050919050565b6000614432601f83614ce3565b915061443d8261547f565b602082019050919050565b6000614455602183614ce3565b9150614460826154a8565b604082019050919050565b6000614478602983614ce3565b9150614483826154f7565b604082019050919050565b600061449b603183614ce3565b91506144a682615546565b604082019050919050565b60006144be602c83614ce3565b91506144c982615595565b604082019050919050565b60006144e1601f83614ce3565b91506144ec826155e4565b602082019050919050565b6000614504600e83614ce3565b915061450f8261560d565b602082019050919050565b600060608301600083015184820360008601526145378282613e68565b915050602083015161454c60208601826145ba565b50604083015161455f6040860182613e3b565b508091505092915050565b600060608301600083015184820360008601526145878282613e68565b915050602083015161459c60208601826145ba565b5060408301516145af6040860182613e3b565b508091505092915050565b6145c381614e1c565b82525050565b6145d281614e1c565b82525050565b6145e181614e1c565b82525050565b6145f081614e33565b82525050565b6145ff81614e26565b82525050565b600060208201905061461a6000830184613e4a565b92915050565b60006020820190506146356000830184613e2c565b92915050565b60006080820190506146506000830187613e4a565b61465d6020830186613e4a565b61466a60408301856145c9565b818103606083015261467c818461404b565b905095945050505050565b600060208201905081810360008301526146a18184613edd565b905092915050565b600060208201905081810360008301526146c38184613fc7565b905092915050565b60006020820190506146e0600083018461403c565b92915050565b6000602082019050818103600083015261470081846140bd565b905092915050565b60006060820190508181036000830152614722818661412f565b905061473160208301856145e7565b81810360408301526147438184613f52565b9050949350505050565b60006020820190508181036000830152614766816141af565b9050919050565b60006020820190508181036000830152614786816141d2565b9050919050565b600060208201905081810360008301526147a6816141f5565b9050919050565b600060208201905081810360008301526147c681614218565b9050919050565b600060208201905081810360008301526147e68161423b565b9050919050565b600060208201905081810360008301526148068161425e565b9050919050565b6000602082019050818103600083015261482681614281565b9050919050565b60006020820190508181036000830152614846816142a4565b9050919050565b60006020820190508181036000830152614866816142c7565b9050919050565b60006020820190508181036000830152614886816142ea565b9050919050565b600060208201905081810360008301526148a68161430d565b9050919050565b600060208201905081810360008301526148c681614330565b9050919050565b600060208201905081810360008301526148e681614353565b9050919050565b6000602082019050818103600083015261490681614376565b9050919050565b6000602082019050818103600083015261492681614399565b9050919050565b60006020820190508181036000830152614946816143bc565b9050919050565b60006020820190508181036000830152614966816143df565b9050919050565b6000602082019050818103600083015261498681614402565b9050919050565b600060208201905081810360008301526149a681614425565b9050919050565b600060208201905081810360008301526149c681614448565b9050919050565b600060208201905081810360008301526149e68161446b565b9050919050565b60006020820190508181036000830152614a068161448e565b9050919050565b60006020820190508181036000830152614a26816144b1565b9050919050565b60006020820190508181036000830152614a46816144d4565b9050919050565b60006020820190508181036000830152614a66816144f7565b9050919050565b60006020820190508181036000830152614a87818461456a565b905092915050565b6000602082019050614aa460008301846145c9565b92915050565b6000606082019050614abf60008301866145d8565b614acc6020830185613e59565b8181036040830152614ade818461412f565b9050949350505050565b6000608082019050614afd60008301876145c9565b8181036020830152614b0f81866140bd565b9050614b1e60408301856145f6565b614b2b606083018461403c565b95945050505050565b6000602082019050614b4960008301846145f6565b92915050565b6000614b59614b6a565b9050614b658282614eb9565b919050565b6000604051905090565b600067ffffffffffffffff821115614b8f57614b8e614fbb565b5b602082029050602081019050919050565b600067ffffffffffffffff821115614bbb57614bba614fbb565b5b614bc482614fea565b9050602081019050919050565b600067ffffffffffffffff821115614bec57614beb614fbb565b5b614bf582614fea565b9050602081019050919050565b6000819050602082019050919050565b6000819050602082019050919050565b60008190508160005260206000209050919050565b600081519050919050565b600081519050919050565b600081519050919050565b600081519050919050565b6000602082019050919050565b6000602082019050919050565b600082825260208201905092915050565b600082825260208201905092915050565b600082825260208201905092915050565b600082825260208201905092915050565b600082825260208201905092915050565b600082825260208201905092915050565b600082825260208201905092915050565b600082825260208201905092915050565b600082825260208201905092915050565b6000614d2182614e1c565b9150614d2c83614e1c565b9250827fffffffffffffffffffffffffffffffffffffffffffffffffffffffffffffffff03821115614d6157614d60614f5d565b5b828201905092915050565b6000614d7782614e1c565b9150614d8283614e1c565b925082821015614d9557614d94614f5d565b5b828203905092915050565b6000614dab82614dfc565b9050919050565b6000614dbd82614dfc565b9050919050565b60008115159050919050565b60007fffffffff0000000000000000000000000000000000000000000000000000000082169050919050565b600073ffffffffffffffffffffffffffffffffffffffff82169050919050565b6000819050919050565b600060ff82169050919050565b6000614e3e82614e26565b9050919050565b82818337600083830152505050565b60005b83811015614e72578082015181840152602081019050614e57565b83811115614e81576000848401525b50505050565b60006002820490506001821680614e9f57607f821691505b60208210811415614eb357614eb2614f8c565b5b50919050565b614ec282614fea565b810181811067ffffffffffffffff82111715614ee157614ee0614fbb565b5b80604052505050565b6000614ef582614e1c565b91507fffffffffffffffffffffffffffffffffffffffffffffffffffffffffffffffff821415614f2857614f27614f5d565b5b600182019050919050565b6000614f3e82614e26565b915060ff821415614f5257614f51614f5d565b5b600182019050919050565b7f4e487b7100000000000000000000000000000000000000000000000000000000600052601160045260246000fd5b7f4e487b7100000000000000000000000000000000000000000000000000000000600052602260045260246000fd5b7f4e487b7100000000000000000000000000000000000000000000000000000000600052604160045260246000fd5b6000601f19601f8301169050919050565b7f6e6f74207269676874206e756d626572206f6620776f72647321000000000000600082015250565b7f455243373231456e756d657261626c653a206f776e657220696e646578206f7560008201527f74206f6620626f756e6473000000000000000000000000000000000000000000602082015250565b7f4552433732313a207472616e7366657220746f206e6f6e20455243373231526560008201527f63656976657220696d706c656d656e7465720000000000000000000000000000602082015250565b7f4f776e61626c653a206e6577206f776e657220697320746865207a65726f206160008201527f6464726573730000000000000000000000000000000000000000000000000000602082015250565b7f4552433732313a20746f6b656e20616c7265616479206d696e74656400000000600082015250565b7f4552433732313a207472616e7366657220746f20746865207a65726f2061646460008201527f7265737300000000000000000000000000000000000000000000000000000000602082015250565b7f4552433732313a20617070726f766520746f2063616c6c657200000000000000600082015250565b7f4e6f742065786973742100000000000000000000000000000000000000000000600082015250565b7f4552433732313a206f70657261746f7220717565727920666f72206e6f6e657860008201527f697374656e7420746f6b656e0000000000000000000000000000000000000000602082015250565b7f4552433732313a20617070726f76652063616c6c6572206973206e6f74206f7760008201527f6e6572206e6f7220617070726f76656420666f7220616c6c0000000000000000602082015250565b7f4552433732313a2062616c616e636520717565727920666f7220746865207a6560008201527f726f206164647265737300000000000000000000000000000000000000000000602082015250565b7f4552433732313a206f776e657220717565727920666f72206e6f6e657869737460008201527f656e7420746f6b656e0000000000000000000000000000000000000000000000602082015250565b7f506c6179657220616c72656164792068617320612070726f706f73616c20666f60008201527f722074686973204d61644c696221000000000000000000000000000000000000602082015250565b7f796f7520617265206e6f7420746865206f776e65720000000000000000000000600082015250565b7f4552433732313a206d696e7420746f20746865207a65726f2061646472657373600082015250565b7f4552433732313a20617070726f76656420717565727920666f72206e6f6e657860008201527f697374656e7420746f6b656e0000000000000000000000000000000000000000602082015250565b7f4f776e61626c653a2063616c6c6572206973206e6f7420746865206f776e6572600082015250565b7f4552433732313a207472616e73666572206f6620746f6b656e2074686174206960008201527f73206e6f74206f776e0000000000000000000000000000000000000000000000602082015250565b7f53656c6563746564204d61644c696220616c726561647920636c6f7365642100600082015250565b7f4552433732313a20617070726f76616c20746f2063757272656e74206f776e6560008201527f7200000000000000000000000000000000000000000000000000000000000000602082015250565b7f50726f706f73616c206d75737420626520666f72206f70656e2f63757272656e60008201527f74204d61644c6962210000000000000000000000000000000000000000000000602082015250565b7f4552433732313a207472616e736665722063616c6c6572206973206e6f74206f60008201527f776e6572206e6f7220617070726f766564000000000000000000000000000000602082015250565b7f455243373231456e756d657261626c653a20676c6f62616c20696e646578206f60008201527f7574206f6620626f756e64730000000000000000000000000000000000000000602082015250565b7f50726576696f7573204d61644c6962206e6f7420636c6f736564207965742100600082015250565b7f546f6f206d75636820766f746573000000000000000000000000000000000000600082015250565b61563f81614da0565b811461564a57600080fd5b50565b61565681614dc4565b811461566157600080fd5b50565b61566d81614dd0565b811461567857600080fd5b50565b61568481614e1c565b811461568f57600080fd5b50565b61569b81614e26565b81146156a657600080fd5b5056fea26469706673582212201ba1d7ad9d5978a70a592dd1cb7daf290800e6f8b26a0f0a6f2b9a0a78e01b1464736f6c63430008040033",
  "libraries": {
    "MadLibsUtility": "0xe7f1725E7734CE288F8367e1Bb143E90bb3F0512"
  },
  "devdoc": {
    "kind": "dev",
    "methods": {
      "approve(address,uint256)": {
        "details": "See {IERC721-approve}."
      },
      "balanceOf(address)": {
        "details": "See {IERC721-balanceOf}."
      },
      "getApproved(uint256)": {
        "details": "See {IERC721-getApproved}."
      },
      "isApprovedForAll(address,address)": {
        "details": "See {IERC721-isApprovedForAll}."
      },
      "name()": {
        "details": "See {IERC721Metadata-name}."
      },
      "owner()": {
        "details": "Returns the address of the current owner."
      },
      "ownerOf(uint256)": {
        "details": "See {IERC721-ownerOf}."
      },
      "renounceOwnership()": {
        "details": "Leaves the contract without owner. It will not be possible to call `onlyOwner` functions anymore. Can only be called by the current owner. NOTE: Renouncing ownership will leave the contract without an owner, thereby removing any functionality that is only available to the owner."
      },
      "safeTransferFrom(address,address,uint256)": {
        "details": "See {IERC721-safeTransferFrom}."
      },
      "safeTransferFrom(address,address,uint256,bytes)": {
        "details": "See {IERC721-safeTransferFrom}."
      },
      "setApprovalForAll(address,bool)": {
        "details": "See {IERC721-setApprovalForAll}."
      },
      "supportsInterface(bytes4)": {
        "details": "See {IERC165-supportsInterface}."
      },
      "symbol()": {
        "details": "See {IERC721Metadata-symbol}."
      },
      "tokenByIndex(uint256)": {
        "details": "See {IERC721Enumerable-tokenByIndex}."
      },
      "tokenOfOwnerByIndex(address,uint256)": {
        "details": "See {IERC721Enumerable-tokenOfOwnerByIndex}."
      },
      "totalSupply()": {
        "details": "See {IERC721Enumerable-totalSupply}."
      },
      "transferFrom(address,address,uint256)": {
        "details": "See {IERC721-transferFrom}."
      },
      "transferOwnership(address)": {
        "details": "Transfers ownership of the contract to a new account (`newOwner`). Can only be called by the current owner."
      }
    },
    "version": 1
  },
  "userdoc": {
    "kind": "user",
    "methods": {},
    "version": 1
  },
  "storageLayout": {
    "storage": [
      {
        "astId": 129,
        "contract": "contracts/YourCollectible.sol:YourCollectible",
        "label": "_name",
        "offset": 0,
        "slot": "0",
        "type": "t_string_storage"
      },
      {
        "astId": 131,
        "contract": "contracts/YourCollectible.sol:YourCollectible",
        "label": "_symbol",
        "offset": 0,
        "slot": "1",
        "type": "t_string_storage"
      },
      {
        "astId": 135,
        "contract": "contracts/YourCollectible.sol:YourCollectible",
        "label": "_owners",
        "offset": 0,
        "slot": "2",
        "type": "t_mapping(t_uint256,t_address)"
      },
      {
        "astId": 139,
        "contract": "contracts/YourCollectible.sol:YourCollectible",
        "label": "_balances",
        "offset": 0,
        "slot": "3",
        "type": "t_mapping(t_address,t_uint256)"
      },
      {
        "astId": 143,
        "contract": "contracts/YourCollectible.sol:YourCollectible",
        "label": "_tokenApprovals",
        "offset": 0,
        "slot": "4",
        "type": "t_mapping(t_uint256,t_address)"
      },
      {
        "astId": 149,
        "contract": "contracts/YourCollectible.sol:YourCollectible",
        "label": "_operatorApprovals",
        "offset": 0,
        "slot": "5",
        "type": "t_mapping(t_address,t_mapping(t_address,t_bool))"
      },
      {
        "astId": 1068,
        "contract": "contracts/YourCollectible.sol:YourCollectible",
        "label": "_ownedTokens",
        "offset": 0,
        "slot": "6",
        "type": "t_mapping(t_address,t_mapping(t_uint256,t_uint256))"
      },
      {
        "astId": 1072,
        "contract": "contracts/YourCollectible.sol:YourCollectible",
        "label": "_ownedTokensIndex",
        "offset": 0,
        "slot": "7",
        "type": "t_mapping(t_uint256,t_uint256)"
      },
      {
        "astId": 1075,
        "contract": "contracts/YourCollectible.sol:YourCollectible",
        "label": "_allTokens",
        "offset": 0,
        "slot": "8",
        "type": "t_array(t_uint256)dyn_storage"
      },
      {
        "astId": 1079,
        "contract": "contracts/YourCollectible.sol:YourCollectible",
        "label": "_allTokensIndex",
        "offset": 0,
        "slot": "9",
        "type": "t_mapping(t_uint256,t_uint256)"
      },
      {
        "astId": 7,
        "contract": "contracts/YourCollectible.sol:YourCollectible",
        "label": "_owner",
        "offset": 0,
        "slot": "10",
        "type": "t_address"
      },
      {
        "astId": 2563,
        "contract": "contracts/YourCollectible.sol:YourCollectible",
        "label": "_tokenIds",
        "offset": 0,
        "slot": "11",
        "type": "t_struct(Counter)1774_storage"
      },
      {
        "astId": 2566,
        "contract": "contracts/YourCollectible.sol:YourCollectible",
        "label": "_maxVotes",
        "offset": 0,
        "slot": "12",
        "type": "t_uint8"
      },
      {
        "astId": 2570,
        "contract": "contracts/YourCollectible.sol:YourCollectible",
        "label": "_madlibs",
        "offset": 0,
        "slot": "13",
        "type": "t_array(t_struct(MadLib)2608_storage)dyn_storage"
      },
      {
        "astId": 2579,
        "contract": "contracts/YourCollectible.sol:YourCollectible",
        "label": "price",
        "offset": 0,
        "slot": "14",
        "type": "t_uint256"
      }
    ],
    "types": {
      "t_address": {
        "encoding": "inplace",
        "label": "address",
        "numberOfBytes": "20"
      },
      "t_array(t_string_storage)dyn_storage": {
        "base": "t_string_storage",
        "encoding": "dynamic_array",
        "label": "string[]",
        "numberOfBytes": "32"
      },
      "t_array(t_struct(MadLib)2608_storage)dyn_storage": {
        "base": "t_struct(MadLib)2608_storage",
        "encoding": "dynamic_array",
        "label": "struct YourCollectible.MadLib[]",
        "numberOfBytes": "32"
      },
      "t_array(t_struct(Proposal)2587_storage)dyn_storage": {
        "base": "t_struct(Proposal)2587_storage",
        "encoding": "dynamic_array",
        "label": "struct YourCollectible.Proposal[]",
        "numberOfBytes": "32"
      },
      "t_array(t_uint256)dyn_storage": {
        "base": "t_uint256",
        "encoding": "dynamic_array",
        "label": "uint256[]",
        "numberOfBytes": "32"
      },
      "t_bool": {
        "encoding": "inplace",
        "label": "bool",
        "numberOfBytes": "1"
      },
      "t_mapping(t_address,t_bool)": {
        "encoding": "mapping",
        "key": "t_address",
        "label": "mapping(address => bool)",
        "numberOfBytes": "32",
        "value": "t_bool"
      },
      "t_mapping(t_address,t_mapping(t_address,t_bool))": {
        "encoding": "mapping",
        "key": "t_address",
        "label": "mapping(address => mapping(address => bool))",
        "numberOfBytes": "32",
        "value": "t_mapping(t_address,t_bool)"
      },
      "t_mapping(t_address,t_mapping(t_uint256,t_uint256))": {
        "encoding": "mapping",
        "key": "t_address",
        "label": "mapping(address => mapping(uint256 => uint256))",
        "numberOfBytes": "32",
        "value": "t_mapping(t_uint256,t_uint256)"
      },
      "t_mapping(t_address,t_uint256)": {
        "encoding": "mapping",
        "key": "t_address",
        "label": "mapping(address => uint256)",
        "numberOfBytes": "32",
        "value": "t_uint256"
      },
      "t_mapping(t_address,t_uint8)": {
        "encoding": "mapping",
        "key": "t_address",
        "label": "mapping(address => uint8)",
        "numberOfBytes": "32",
        "value": "t_uint8"
      },
      "t_mapping(t_uint256,t_address)": {
        "encoding": "mapping",
        "key": "t_uint256",
        "label": "mapping(uint256 => address)",
        "numberOfBytes": "32",
        "value": "t_address"
      },
      "t_mapping(t_uint256,t_uint256)": {
        "encoding": "mapping",
        "key": "t_uint256",
        "label": "mapping(uint256 => uint256)",
        "numberOfBytes": "32",
        "value": "t_uint256"
      },
      "t_string_storage": {
        "encoding": "bytes",
        "label": "string",
        "numberOfBytes": "32"
      },
      "t_struct(Counter)1774_storage": {
        "encoding": "inplace",
        "label": "struct Counters.Counter",
        "members": [
          {
            "astId": 1773,
            "contract": "contracts/YourCollectible.sol:YourCollectible",
            "label": "_value",
            "offset": 0,
            "slot": "0",
            "type": "t_uint256"
          }
        ],
        "numberOfBytes": "32"
      },
      "t_struct(MadLib)2608_storage": {
        "encoding": "inplace",
        "label": "struct YourCollectible.MadLib",
        "members": [
          {
            "astId": 2589,
            "contract": "contracts/YourCollectible.sol:YourCollectible",
            "label": "id",
            "offset": 0,
            "slot": "0",
            "type": "t_uint256"
          },
          {
            "astId": 2591,
            "contract": "contracts/YourCollectible.sol:YourCollectible",
            "label": "text",
            "offset": 0,
            "slot": "1",
            "type": "t_string_storage"
          },
          {
            "astId": 2593,
            "contract": "contracts/YourCollectible.sol:YourCollectible",
            "label": "nBlanks",
            "offset": 0,
            "slot": "2",
            "type": "t_uint8"
          },
          {
            "astId": 2597,
            "contract": "contracts/YourCollectible.sol:YourCollectible",
            "label": "proposals",
            "offset": 0,
            "slot": "3",
            "type": "t_array(t_struct(Proposal)2587_storage)dyn_storage"
          },
          {
            "astId": 2601,
            "contract": "contracts/YourCollectible.sol:YourCollectible",
            "label": "addrProposed",
            "offset": 0,
            "slot": "4",
            "type": "t_mapping(t_address,t_bool)"
          },
          {
            "astId": 2605,
            "contract": "contracts/YourCollectible.sol:YourCollectible",
            "label": "addrVotes",
            "offset": 0,
            "slot": "5",
            "type": "t_mapping(t_address,t_uint8)"
          },
          {
            "astId": 2607,
            "contract": "contracts/YourCollectible.sol:YourCollectible",
            "label": "closed",
            "offset": 0,
            "slot": "6",
            "type": "t_bool"
          }
        ],
        "numberOfBytes": "224"
      },
      "t_struct(Proposal)2587_storage": {
        "encoding": "inplace",
        "label": "struct YourCollectible.Proposal",
        "members": [
          {
            "astId": 2582,
            "contract": "contracts/YourCollectible.sol:YourCollectible",
            "label": "words",
            "offset": 0,
            "slot": "0",
            "type": "t_array(t_string_storage)dyn_storage"
          },
          {
            "astId": 2584,
            "contract": "contracts/YourCollectible.sol:YourCollectible",
            "label": "countVotes",
            "offset": 0,
            "slot": "1",
            "type": "t_uint256"
          },
          {
            "astId": 2586,
            "contract": "contracts/YourCollectible.sol:YourCollectible",
            "label": "proposer",
            "offset": 0,
            "slot": "2",
            "type": "t_address"
          }
        ],
        "numberOfBytes": "96"
      },
      "t_uint256": {
        "encoding": "inplace",
        "label": "uint256",
        "numberOfBytes": "32"
      },
      "t_uint8": {
        "encoding": "inplace",
        "label": "uint8",
        "numberOfBytes": "1"
      }
    }
  }
}