{
  "_format": "hh-sol-artifact-1",
  "contractName": "YourCollectible",
  "sourceName": "contracts/YourCollectible.sol",
  "abi": [
    {
      "inputs": [],
      "stateMutability": "nonpayable",
      "type": "constructor"
    },
    {
      "anonymous": false,
      "inputs": [
        {
          "indexed": true,
          "internalType": "address",
          "name": "owner",
          "type": "address"
        },
        {
          "indexed": true,
          "internalType": "address",
          "name": "approved",
          "type": "address"
        },
        {
          "indexed": true,
          "internalType": "uint256",
          "name": "tokenId",
          "type": "uint256"
        }
      ],
      "name": "Approval",
      "type": "event"
    },
    {
      "anonymous": false,
      "inputs": [
        {
          "indexed": true,
          "internalType": "address",
          "name": "owner",
          "type": "address"
        },
        {
          "indexed": true,
          "internalType": "address",
          "name": "operator",
          "type": "address"
        },
        {
          "indexed": false,
          "internalType": "bool",
          "name": "approved",
          "type": "bool"
        }
      ],
      "name": "ApprovalForAll",
      "type": "event"
    },
    {
      "anonymous": false,
      "inputs": [
        {
          "indexed": true,
          "internalType": "address",
          "name": "previousOwner",
          "type": "address"
        },
        {
          "indexed": true,
          "internalType": "address",
          "name": "newOwner",
          "type": "address"
        }
      ],
      "name": "OwnershipTransferred",
      "type": "event"
    },
    {
      "anonymous": false,
      "inputs": [
        {
          "indexed": true,
          "internalType": "address",
          "name": "from",
          "type": "address"
        },
        {
          "indexed": true,
          "internalType": "address",
          "name": "to",
          "type": "address"
        },
        {
          "indexed": true,
          "internalType": "uint256",
          "name": "tokenId",
          "type": "uint256"
        }
      ],
      "name": "Transfer",
      "type": "event"
    },
    {
      "inputs": [
        {
          "internalType": "uint256",
          "name": "",
          "type": "uint256"
        }
      ],
      "name": "_madlibs",
      "outputs": [
        {
          "internalType": "uint256",
          "name": "id",
          "type": "uint256"
        },
        {
          "internalType": "string",
          "name": "text",
          "type": "string"
        },
        {
          "internalType": "uint8",
          "name": "nBlanks",
          "type": "uint8"
        },
        {
          "internalType": "bool",
          "name": "closed",
          "type": "bool"
        }
      ],
      "stateMutability": "view",
      "type": "function"
    },
    {
      "inputs": [],
      "name": "_maxVotes",
      "outputs": [
        {
          "internalType": "uint8",
          "name": "",
          "type": "uint8"
        }
      ],
      "stateMutability": "view",
      "type": "function"
    },
    {
      "inputs": [
        {
          "internalType": "string[]",
          "name": "_words",
          "type": "string[]"
        }
      ],
      "name": "addProposal",
      "outputs": [],
      "stateMutability": "nonpayable",
      "type": "function"
    },
    {
      "inputs": [
        {
          "internalType": "address",
          "name": "to",
          "type": "address"
        },
        {
          "internalType": "uint256",
          "name": "tokenId",
          "type": "uint256"
        }
      ],
      "name": "approve",
      "outputs": [],
      "stateMutability": "nonpayable",
      "type": "function"
    },
    {
      "inputs": [
        {
          "internalType": "address",
          "name": "owner",
          "type": "address"
        }
      ],
      "name": "balanceOf",
      "outputs": [
        {
          "internalType": "uint256",
          "name": "",
          "type": "uint256"
        }
      ],
      "stateMutability": "view",
      "type": "function"
    },
    {
      "inputs": [
        {
          "internalType": "uint256",
          "name": "_id",
          "type": "uint256"
        }
      ],
      "name": "closeMadLib",
      "outputs": [],
      "stateMutability": "nonpayable",
      "type": "function"
    },
    {
      "inputs": [
        {
          "internalType": "uint256",
          "name": "tokenId",
          "type": "uint256"
        }
      ],
      "name": "getApproved",
      "outputs": [
        {
          "internalType": "address",
          "name": "",
          "type": "address"
        }
      ],
      "stateMutability": "view",
      "type": "function"
    },
    {
      "inputs": [
        {
          "internalType": "uint256",
          "name": "_id",
          "type": "uint256"
        },
        {
          "internalType": "uint256",
          "name": "_idProposal",
          "type": "uint256"
        }
      ],
      "name": "getProposal",
      "outputs": [
        {
          "components": [
            {
              "internalType": "string[]",
              "name": "words",
              "type": "string[]"
            },
            {
              "internalType": "uint256",
              "name": "countVotes",
              "type": "uint256"
            },
            {
              "internalType": "address",
              "name": "proposer",
              "type": "address"
            }
          ],
          "internalType": "struct YourCollectible.Proposal",
          "name": "",
          "type": "tuple"
        }
      ],
      "stateMutability": "view",
      "type": "function"
    },
    {
      "inputs": [
        {
          "internalType": "uint256",
          "name": "_id",
          "type": "uint256"
        }
      ],
      "name": "getProposals",
      "outputs": [
        {
          "components": [
            {
              "internalType": "string[]",
              "name": "words",
              "type": "string[]"
            },
            {
              "internalType": "uint256",
              "name": "countVotes",
              "type": "uint256"
            },
            {
              "internalType": "address",
              "name": "proposer",
              "type": "address"
            }
          ],
          "internalType": "struct YourCollectible.Proposal[]",
          "name": "",
          "type": "tuple[]"
        }
      ],
      "stateMutability": "view",
      "type": "function"
    },
    {
      "inputs": [
        {
          "internalType": "address",
          "name": "owner",
          "type": "address"
        },
        {
          "internalType": "address",
          "name": "operator",
          "type": "address"
        }
      ],
      "name": "isApprovedForAll",
      "outputs": [
        {
          "internalType": "bool",
          "name": "",
          "type": "bool"
        }
      ],
      "stateMutability": "view",
      "type": "function"
    },
    {
      "inputs": [],
      "name": "mintItem",
      "outputs": [
        {
          "internalType": "uint256",
          "name": "",
          "type": "uint256"
        }
      ],
      "stateMutability": "nonpayable",
      "type": "function"
    },
    {
      "inputs": [],
      "name": "name",
      "outputs": [
        {
          "internalType": "string",
          "name": "",
          "type": "string"
        }
      ],
      "stateMutability": "view",
      "type": "function"
    },
    {
      "inputs": [],
      "name": "owner",
      "outputs": [
        {
          "internalType": "address",
          "name": "",
          "type": "address"
        }
      ],
      "stateMutability": "view",
      "type": "function"
    },
    {
      "inputs": [
        {
          "internalType": "uint256",
          "name": "tokenId",
          "type": "uint256"
        }
      ],
      "name": "ownerOf",
      "outputs": [
        {
          "internalType": "address",
          "name": "",
          "type": "address"
        }
      ],
      "stateMutability": "view",
      "type": "function"
    },
    {
      "inputs": [],
      "name": "price",
      "outputs": [
        {
          "internalType": "uint256",
          "name": "",
          "type": "uint256"
        }
      ],
      "stateMutability": "view",
      "type": "function"
    },
    {
      "inputs": [],
      "name": "recipient",
      "outputs": [
        {
          "internalType": "address payable",
          "name": "",
          "type": "address"
        }
      ],
      "stateMutability": "view",
      "type": "function"
    },
    {
      "inputs": [
        {
          "internalType": "uint256",
          "name": "_id",
          "type": "uint256"
        }
      ],
      "name": "renderTokenById",
      "outputs": [
        {
          "internalType": "string",
          "name": "",
          "type": "string"
        }
      ],
      "stateMutability": "view",
      "type": "function"
    },
    {
      "inputs": [],
      "name": "renounceOwnership",
      "outputs": [],
      "stateMutability": "nonpayable",
      "type": "function"
    },
    {
      "inputs": [
        {
          "internalType": "address",
          "name": "from",
          "type": "address"
        },
        {
          "internalType": "address",
          "name": "to",
          "type": "address"
        },
        {
          "internalType": "uint256",
          "name": "tokenId",
          "type": "uint256"
        }
      ],
      "name": "safeTransferFrom",
      "outputs": [],
      "stateMutability": "nonpayable",
      "type": "function"
    },
    {
      "inputs": [
        {
          "internalType": "address",
          "name": "from",
          "type": "address"
        },
        {
          "internalType": "address",
          "name": "to",
          "type": "address"
        },
        {
          "internalType": "uint256",
          "name": "tokenId",
          "type": "uint256"
        },
        {
          "internalType": "bytes",
          "name": "_data",
          "type": "bytes"
        }
      ],
      "name": "safeTransferFrom",
      "outputs": [],
      "stateMutability": "nonpayable",
      "type": "function"
    },
    {
      "inputs": [
        {
          "internalType": "address",
          "name": "operator",
          "type": "address"
        },
        {
          "internalType": "bool",
          "name": "approved",
          "type": "bool"
        }
      ],
      "name": "setApprovalForAll",
      "outputs": [],
      "stateMutability": "nonpayable",
      "type": "function"
    },
    {
      "inputs": [
        {
          "internalType": "bytes4",
          "name": "interfaceId",
          "type": "bytes4"
        }
      ],
      "name": "supportsInterface",
      "outputs": [
        {
          "internalType": "bool",
          "name": "",
          "type": "bool"
        }
      ],
      "stateMutability": "view",
      "type": "function"
    },
    {
      "inputs": [],
      "name": "symbol",
      "outputs": [
        {
          "internalType": "string",
          "name": "",
          "type": "string"
        }
      ],
      "stateMutability": "view",
      "type": "function"
    },
    {
      "inputs": [
        {
          "internalType": "uint256",
          "name": "index",
          "type": "uint256"
        }
      ],
      "name": "tokenByIndex",
      "outputs": [
        {
          "internalType": "uint256",
          "name": "",
          "type": "uint256"
        }
      ],
      "stateMutability": "view",
      "type": "function"
    },
    {
      "inputs": [
        {
          "internalType": "address",
          "name": "owner",
          "type": "address"
        },
        {
          "internalType": "uint256",
          "name": "index",
          "type": "uint256"
        }
      ],
      "name": "tokenOfOwnerByIndex",
      "outputs": [
        {
          "internalType": "uint256",
          "name": "",
          "type": "uint256"
        }
      ],
      "stateMutability": "view",
      "type": "function"
    },
    {
      "inputs": [
        {
          "internalType": "uint256",
          "name": "_id",
          "type": "uint256"
        }
      ],
      "name": "tokenURI",
      "outputs": [
        {
          "internalType": "string",
          "name": "",
          "type": "string"
        }
      ],
      "stateMutability": "view",
      "type": "function"
    },
    {
      "inputs": [],
      "name": "totalSupply",
      "outputs": [
        {
          "internalType": "uint256",
          "name": "",
          "type": "uint256"
        }
      ],
      "stateMutability": "view",
      "type": "function"
    },
    {
      "inputs": [
        {
          "internalType": "address",
          "name": "from",
          "type": "address"
        },
        {
          "internalType": "address",
          "name": "to",
          "type": "address"
        },
        {
          "internalType": "uint256",
          "name": "tokenId",
          "type": "uint256"
        }
      ],
      "name": "transferFrom",
      "outputs": [],
      "stateMutability": "nonpayable",
      "type": "function"
    },
    {
      "inputs": [
        {
          "internalType": "address",
          "name": "newOwner",
          "type": "address"
        }
      ],
      "name": "transferOwnership",
      "outputs": [],
      "stateMutability": "nonpayable",
      "type": "function"
    },
    {
      "inputs": [
        {
          "internalType": "uint256",
          "name": "_idProposal",
          "type": "uint256"
        }
      ],
      "name": "voteProposal",
      "outputs": [],
      "stateMutability": "nonpayable",
      "type": "function"
    }
  ],
  "bytecode": "0x60806040526003600d60006101000a81548160ff021916908360ff16021790555066038d7ea4c68000600f553480156200003857600080fd5b506040518060400160405280600f81526020017f4d61644c696273206f6e436861696e00000000000000000000000000000000008152506040518060400160405280600381526020017f4d4c4300000000000000000000000000000000000000000000000000000000008152508160009080519060200190620000bd929190620001cd565b508060019080519060200190620000d6929190620001cd565b505050620000f9620000ed620000ff60201b60201c565b6200010760201b60201c565b620002e2565b600033905090565b6000600a60009054906101000a900473ffffffffffffffffffffffffffffffffffffffff16905081600a60006101000a81548173ffffffffffffffffffffffffffffffffffffffff021916908373ffffffffffffffffffffffffffffffffffffffff1602179055508173ffffffffffffffffffffffffffffffffffffffff168173ffffffffffffffffffffffffffffffffffffffff167f8be0079c531659141344cd1fd0a4f28419497f9722a3daafe3b4186f6b6457e060405160405180910390a35050565b828054620001db906200027d565b90600052602060002090601f016020900481019282620001ff57600085556200024b565b82601f106200021a57805160ff19168380011785556200024b565b828001600101855582156200024b579182015b828111156200024a5782518255916020019190600101906200022d565b5b5090506200025a91906200025e565b5090565b5b80821115620002795760008160009055506001016200025f565b5090565b600060028204905060018216806200029657607f821691505b60208210811415620002ad57620002ac620002b3565b5b50919050565b7f4e487b7100000000000000000000000000000000000000000000000000000000600052602260045260246000fd5b615ac880620002f26000396000f3fe608060405234801561001057600080fd5b50600436106101da5760003560e01c80638da5cb5b11610104578063aed50f8f116100a2578063d06ff53111610071578063d06ff53114610592578063e985e9c5146105ae578063eb93406b146105de578063f2fde38b146105fc576101da565b8063aed50f8f1461050c578063b489ce711461052a578063b88d4fde14610546578063c87b56dd14610562576101da565b8063a035b1fe116100de578063a035b1fe14610472578063a22cb46514610490578063a2d6c6da146104ac578063aba21009146104dc576101da565b80638da5cb5b1461040357806392b4d6cd1461042157806395d89b4114610454576101da565b80632f745c591161017c57806366d003ac1161014b57806366d003ac1461038f57806370a08231146103ad578063715018a6146103dd578063807896d5146103e7576101da565b80632f745c59146102e357806342842e0e146103135780634f6ccce71461032f5780636352211e1461035f576101da565b8063095ea7b3116101b8578063095ea7b31461025d57806318160ddd1461027957806323b872dd146102975780632c72fdfc146102b3576101da565b806301ffc9a7146101df57806306fdde031461020f578063081812fc1461022d575b600080fd5b6101f960048036038101906101f49190613b84565b610618565b6040516102069190614739565b60405180910390f35b610217610692565b6040516102249190614754565b60405180910390f35b61024760048036038101906102429190613bd6565b610724565b6040516102549190614695565b60405180910390f35b61027760048036038101906102729190613b07565b6107a9565b005b6102816108c1565b60405161028e9190614a78565b60405180910390f35b6102b160048036038101906102ac9190613a01565b6108ce565b005b6102cd60048036038101906102c89190613bd6565b61092e565b6040516102da9190614717565b60405180910390f35b6102fd60048036038101906102f89190613b07565b610b11565b60405161030a9190614a78565b60405180910390f35b61032d60048036038101906103289190613a01565b610bb6565b005b61034960048036038101906103449190613bd6565b610bd6565b6040516103569190614a78565b60405180910390f35b61037960048036038101906103749190613bd6565b610c6d565b6040516103869190614695565b60405180910390f35b610397610d1f565b6040516103a491906146b0565b60405180910390f35b6103c760048036038101906103c2919061399c565b610d37565b6040516103d49190614a78565b60405180910390f35b6103e5610def565b005b61040160048036038101906103fc9190613bd6565b610e77565b005b61040b61117c565b6040516104189190614695565b60405180910390f35b61043b60048036038101906104369190613bd6565b6111a6565b60405161044b9493929190614a93565b60405180910390f35b61045c611288565b6040516104699190614754565b60405180910390f35b61047a61131a565b6040516104879190614a78565b60405180910390f35b6104aa60048036038101906104a59190613acb565b611320565b005b6104c660048036038101906104c19190613bd6565b6114a1565b6040516104d39190614754565b60405180910390f35b6104f660048036038101906104f19190613bff565b611514565b6040516105039190614a56565b60405180910390f35b6105146116f9565b6040516105219190614adf565b60405180910390f35b610544600480360381019061053f9190613b43565b61170c565b005b610560600480360381019061055b9190613a50565b611a03565b005b61057c60048036038101906105779190613bd6565b611a65565b6040516105899190614754565b60405180910390f35b6105ac60048036038101906105a79190613bd6565b611ba4565b005b6105c860048036038101906105c391906139c5565b611d39565b6040516105d59190614739565b60405180910390f35b6105e6611dcd565b6040516105f39190614a78565b60405180910390f35b6106166004803603810190610611919061399c565b611fe1565b005b60007f780e9d63000000000000000000000000000000000000000000000000000000007bffffffffffffffffffffffffffffffffffffffffffffffffffffffff1916827bffffffffffffffffffffffffffffffffffffffffffffffffffffffff1916148061068b575061068a826120d9565b5b9050919050565b6060600080546106a190614e9c565b80601f01602080910402602001604051908101604052809291908181526020018280546106cd90614e9c565b801561071a5780601f106106ef5761010080835404028352916020019161071a565b820191906000526020600020905b8154815290600101906020018083116106fd57829003601f168201915b5050505050905090565b600061072f826121bb565b61076e576040517f08c379a000000000000000000000000000000000000000000000000000000000815260040161076590614936565b60405180910390fd5b6004600083815260200190815260200160002060009054906101000a900473ffffffffffffffffffffffffffffffffffffffff169050919050565b60006107b482610c6d565b90508073ffffffffffffffffffffffffffffffffffffffff168373ffffffffffffffffffffffffffffffffffffffff161415610825576040517f08c379a000000000000000000000000000000000000000000000000000000000815260040161081c906149b6565b60405180910390fd5b8073ffffffffffffffffffffffffffffffffffffffff16610844612227565b73ffffffffffffffffffffffffffffffffffffffff16148061087357506108728161086d612227565b611d39565b5b6108b2576040517f08c379a00000000000000000000000000000000000000000000000000000000081526004016108a990614896565b60405180910390fd5b6108bc838361222f565b505050565b6000600880549050905090565b6108df6108d9612227565b826122e8565b61091e576040517f08c379a0000000000000000000000000000000000000000000000000000000008152600401610915906149f6565b60405180910390fd5b6109298383836123c6565b505050565b6060600e828154811061096a577f4e487b7100000000000000000000000000000000000000000000000000000000600052603260045260246000fd5b9060005260206000209060070201600301805480602002602001604051908101604052809291908181526020016000905b82821015610b06578382906000526020600020906003020160405180606001604052908160008201805480602002602001604051908101604052809291908181526020016000905b82821015610a8f578382906000526020600020018054610a0290614e9c565b80601f0160208091040260200160405190810160405280929190818152602001828054610a2e90614e9c565b8015610a7b5780601f10610a5057610100808354040283529160200191610a7b565b820191906000526020600020905b815481529060010190602001808311610a5e57829003601f168201915b5050505050815260200190600101906109e3565b505050508152602001600182015481526020016002820160009054906101000a900473ffffffffffffffffffffffffffffffffffffffff1673ffffffffffffffffffffffffffffffffffffffff1673ffffffffffffffffffffffffffffffffffffffff16815250508152602001906001019061099b565b505050509050919050565b6000610b1c83610d37565b8210610b5d576040517f08c379a0000000000000000000000000000000000000000000000000000000008152600401610b5490614796565b60405180910390fd5b600660008473ffffffffffffffffffffffffffffffffffffffff1673ffffffffffffffffffffffffffffffffffffffff168152602001908152602001600020600083815260200190815260200160002054905092915050565b610bd183838360405180602001604052806000815250611a03565b505050565b6000610be06108c1565b8210610c21576040517f08c379a0000000000000000000000000000000000000000000000000000000008152600401610c1890614a16565b60405180910390fd5b60088281548110610c5b577f4e487b7100000000000000000000000000000000000000000000000000000000600052603260045260246000fd5b90600052602060002001549050919050565b6000806002600084815260200190815260200160002060009054906101000a900473ffffffffffffffffffffffffffffffffffffffff169050600073ffffffffffffffffffffffffffffffffffffffff168173ffffffffffffffffffffffffffffffffffffffff161415610d16576040517f08c379a0000000000000000000000000000000000000000000000000000000008152600401610d0d906148d6565b60405180910390fd5b80915050919050565b73a81a6a910fed20374361b35c451a4a44f86ced4681565b60008073ffffffffffffffffffffffffffffffffffffffff168273ffffffffffffffffffffffffffffffffffffffff161415610da8576040517f08c379a0000000000000000000000000000000000000000000000000000000008152600401610d9f906148b6565b60405180910390fd5b600360008373ffffffffffffffffffffffffffffffffffffffff1673ffffffffffffffffffffffffffffffffffffffff168152602001908152602001600020549050919050565b610df7612227565b73ffffffffffffffffffffffffffffffffffffffff16610e1561117c565b73ffffffffffffffffffffffffffffffffffffffff1614610e6b576040517f08c379a0000000000000000000000000000000000000000000000000000000008152600401610e6290614956565b60405180910390fd5b610e756000612622565b565b6000610e83600b6126e8565b905060001515600e8281548110610ec3577f4e487b7100000000000000000000000000000000000000000000000000000000600052603260045260246000fd5b906000526020600020906007020160060160009054906101000a900460ff16151514610f24576040517f08c379a0000000000000000000000000000000000000000000000000000000008152600401610f1b906149d6565b60405180910390fd5b600d60009054906101000a900460ff1660ff16600e8281548110610f71577f4e487b7100000000000000000000000000000000000000000000000000000000600052603260045260246000fd5b906000526020600020906007020160050160003373ffffffffffffffffffffffffffffffffffffffff1673ffffffffffffffffffffffffffffffffffffffff16815260200190815260200160002060009054906101000a900460ff1660ff1610611010576040517f08c379a0000000000000000000000000000000000000000000000000000000008152600401611007906149d6565b60405180910390fd5b600e818154811061104a577f4e487b7100000000000000000000000000000000000000000000000000000000600052603260045260246000fd5b906000526020600020906007020160050160003373ffffffffffffffffffffffffffffffffffffffff1673ffffffffffffffffffffffffffffffffffffffff168152602001908152602001600020600081819054906101000a900460ff16809291906110b590614f48565b91906101000a81548160ff021916908360ff16021790555050600e8181548110611108577f4e487b7100000000000000000000000000000000000000000000000000000000600052603260045260246000fd5b90600052602060002090600702016003018281548110611151577f4e487b7100000000000000000000000000000000000000000000000000000000600052603260045260246000fd5b9060005260206000209060030201600101600081548092919061117390614eff565b91905055505050565b6000600a60009054906101000a900473ffffffffffffffffffffffffffffffffffffffff16905090565b600e81815481106111b657600080fd5b90600052602060002090600702016000915090508060000154908060010180546111df90614e9c565b80601f016020809104026020016040519081016040528092919081815260200182805461120b90614e9c565b80156112585780601f1061122d57610100808354040283529160200191611258565b820191906000526020600020905b81548152906001019060200180831161123b57829003601f168201915b5050505050908060020160009054906101000a900460ff16908060060160009054906101000a900460ff16905084565b60606001805461129790614e9c565b80601f01602080910402602001604051908101604052809291908181526020018280546112c390614e9c565b80156113105780601f106112e557610100808354040283529160200191611310565b820191906000526020600020905b8154815290600101906020018083116112f357829003601f168201915b5050505050905090565b600f5481565b611328612227565b73ffffffffffffffffffffffffffffffffffffffff168273ffffffffffffffffffffffffffffffffffffffff161415611396576040517f08c379a000000000000000000000000000000000000000000000000000000000815260040161138d90614836565b60405180910390fd5b80600560006113a3612227565b73ffffffffffffffffffffffffffffffffffffffff1673ffffffffffffffffffffffffffffffffffffffff16815260200190815260200160002060008473ffffffffffffffffffffffffffffffffffffffff1673ffffffffffffffffffffffffffffffffffffffff16815260200190815260200160002060006101000a81548160ff0219169083151502179055508173ffffffffffffffffffffffffffffffffffffffff16611450612227565b73ffffffffffffffffffffffffffffffffffffffff167f17307eab39ab6107e8899845ad3d59bd9653f200f220920489ca2b5937696c31836040516114959190614739565b60405180910390a35050565b6060600e82815481106114dd577f4e487b7100000000000000000000000000000000000000000000000000000000600052603260045260246000fd5b90600052602060002090600702016001016040516020016114fe9190614632565b6040516020818303038152906040529050919050565b61151c613615565b600e8381548110611556577f4e487b7100000000000000000000000000000000000000000000000000000000600052603260045260246000fd5b9060005260206000209060070201600301828154811061159f577f4e487b7100000000000000000000000000000000000000000000000000000000600052603260045260246000fd5b906000526020600020906003020160405180606001604052908160008201805480602002602001604051908101604052809291908181526020016000905b828210156116895783829060005260206000200180546115fc90614e9c565b80601f016020809104026020016040519081016040528092919081815260200182805461162890614e9c565b80156116755780601f1061164a57610100808354040283529160200191611675565b820191906000526020600020905b81548152906001019060200180831161165857829003601f168201915b5050505050815260200190600101906115dd565b505050508152602001600182015481526020016002820160009054906101000a900473ffffffffffffffffffffffffffffffffffffffff1673ffffffffffffffffffffffffffffffffffffffff1673ffffffffffffffffffffffffffffffffffffffff1681525050905092915050565b600d60009054906101000a900460ff1681565b6000611718600b6126e8565b905060001515600e8281548110611758577f4e487b7100000000000000000000000000000000000000000000000000000000600052603260045260246000fd5b906000526020600020906007020160040160003373ffffffffffffffffffffffffffffffffffffffff1673ffffffffffffffffffffffffffffffffffffffff16815260200190815260200160002060009054906101000a900460ff161515146117f6576040517f08c379a00000000000000000000000000000000000000000000000000000000081526004016117ed906148f6565b60405180910390fd5b600e8181548110611830577f4e487b7100000000000000000000000000000000000000000000000000000000600052603260045260246000fd5b906000526020600020906007020160020160009054906101000a900460ff1660ff16825114611894576040517f08c379a000000000000000000000000000000000000000000000000000000000815260040161188b90614776565b60405180910390fd5b6001600e82815481106118d0577f4e487b7100000000000000000000000000000000000000000000000000000000600052603260045260246000fd5b906000526020600020906007020160040160003373ffffffffffffffffffffffffffffffffffffffff1673ffffffffffffffffffffffffffffffffffffffff16815260200190815260200160002060006101000a81548160ff0219169083151502179055506000600e8281548110611971577f4e487b7100000000000000000000000000000000000000000000000000000000600052603260045260246000fd5b90600052602060002090600702016003016001816001815401808255809150500390600052602060002090600302019050338160020160006101000a81548173ffffffffffffffffffffffffffffffffffffffff021916908373ffffffffffffffffffffffffffffffffffffffff160217905550828160000190805190602001906119fd92919061364c565b50505050565b611a14611a0e612227565b836122e8565b611a53576040517f08c379a0000000000000000000000000000000000000000000000000000000008152600401611a4a906149f6565b60405180910390fd5b611a5f848484846126f6565b50505050565b6060611a70826121bb565b611aaf576040517f08c379a0000000000000000000000000000000000000000000000000000000008152600401611aa690614856565b60405180910390fd5b6000611aba83612752565b604051602001611aca91906145ee565b60405160208183030381529060405290506000604051602001611aec90614680565b60405160208183030381529060405290506000611b10611b0b866128ff565b612936565b9050611b7b8383611b2088612752565b611b526014611b2e8b610c6d565b73ffffffffffffffffffffffffffffffffffffffff16612ad590919063ffffffff16565b85604051602001611b67959493929190614529565b604051602081830303815290604052612936565b604051602001611b8b9190614610565b6040516020818303038152906040529350505050919050565b611bac612227565b73ffffffffffffffffffffffffffffffffffffffff16611bca61117c565b73ffffffffffffffffffffffffffffffffffffffff1614611c20576040517f08c379a0000000000000000000000000000000000000000000000000000000008152600401611c1790614956565b60405180910390fd5b60001515600e611c30600b6126e8565b81548110611c67577f4e487b7100000000000000000000000000000000000000000000000000000000600052603260045260246000fd5b906000526020600020906007020160060160009054906101000a900460ff16151514611cc8576040517f08c379a0000000000000000000000000000000000000000000000000000000008152600401611cbf90614996565b60405180910390fd5b6001600e8281548110611d04577f4e487b7100000000000000000000000000000000000000000000000000000000600052603260045260246000fd5b906000526020600020906007020160060160006101000a81548160ff021916908315150217905550611d36600b612d8c565b50565b6000600560008473ffffffffffffffffffffffffffffffffffffffff1673ffffffffffffffffffffffffffffffffffffffff16815260200190815260200160002060008373ffffffffffffffffffffffffffffffffffffffff1673ffffffffffffffffffffffffffffffffffffffff16815260200190815260200160002060009054906101000a900460ff16905092915050565b6000611dd7612227565b73ffffffffffffffffffffffffffffffffffffffff16611df561117c565b73ffffffffffffffffffffffffffffffffffffffff1614611e4b576040517f08c379a0000000000000000000000000000000000000000000000000000000008152600401611e4290614956565b60405180910390fd5b6000611e57600b6126e8565b1115611f0b57600e6001611e6b600b6126e8565b611e759190614d69565b81548110611eac577f4e487b7100000000000000000000000000000000000000000000000000000000600052603260045260246000fd5b906000526020600020906007020160060160009054906101000a900460ff16611f0a576040517f08c379a0000000000000000000000000000000000000000000000000000000008152600401611f0190614a36565b60405180910390fd5b5b6000611f17600b6126e8565b9050611f233382612da2565b6000600e60018160018154018082558091505003906000526020600020906007020190508181600001819055506040518060400160405280601981526020017f6c6520726f736520736f6e6f202320706970706f206973202300000000000000815250816001019080519060200190611f9d9291906136ac565b5060028160020160006101000a81548160ff021916908360ff16021790555060008160060160006101000a81548160ff021916908315150217905550819250505090565b611fe9612227565b73ffffffffffffffffffffffffffffffffffffffff1661200761117c565b73ffffffffffffffffffffffffffffffffffffffff161461205d576040517f08c379a000000000000000000000000000000000000000000000000000000000815260040161205490614956565b60405180910390fd5b600073ffffffffffffffffffffffffffffffffffffffff168173ffffffffffffffffffffffffffffffffffffffff1614156120cd576040517f08c379a00000000000000000000000000000000000000000000000000000000081526004016120c4906147d6565b60405180910390fd5b6120d681612622565b50565b60007f80ac58cd000000000000000000000000000000000000000000000000000000007bffffffffffffffffffffffffffffffffffffffffffffffffffffffff1916827bffffffffffffffffffffffffffffffffffffffffffffffffffffffff191614806121a457507f5b5e139f000000000000000000000000000000000000000000000000000000007bffffffffffffffffffffffffffffffffffffffffffffffffffffffff1916827bffffffffffffffffffffffffffffffffffffffffffffffffffffffff1916145b806121b457506121b382612f70565b5b9050919050565b60008073ffffffffffffffffffffffffffffffffffffffff166002600084815260200190815260200160002060009054906101000a900473ffffffffffffffffffffffffffffffffffffffff1673ffffffffffffffffffffffffffffffffffffffff1614159050919050565b600033905090565b816004600083815260200190815260200160002060006101000a81548173ffffffffffffffffffffffffffffffffffffffff021916908373ffffffffffffffffffffffffffffffffffffffff160217905550808273ffffffffffffffffffffffffffffffffffffffff166122a283610c6d565b73ffffffffffffffffffffffffffffffffffffffff167f8c5be1e5ebec7d5bd14f71427d1e84f3dd0314c0f7b2291e5b200ac8c7c3b92560405160405180910390a45050565b60006122f3826121bb565b612332576040517f08c379a000000000000000000000000000000000000000000000000000000000815260040161232990614876565b60405180910390fd5b600061233d83610c6d565b90508073ffffffffffffffffffffffffffffffffffffffff168473ffffffffffffffffffffffffffffffffffffffff1614806123ac57508373ffffffffffffffffffffffffffffffffffffffff1661239484610724565b73ffffffffffffffffffffffffffffffffffffffff16145b806123bd57506123bc8185611d39565b5b91505092915050565b8273ffffffffffffffffffffffffffffffffffffffff166123e682610c6d565b73ffffffffffffffffffffffffffffffffffffffff161461243c576040517f08c379a000000000000000000000000000000000000000000000000000000000815260040161243390614976565b60405180910390fd5b600073ffffffffffffffffffffffffffffffffffffffff168273ffffffffffffffffffffffffffffffffffffffff1614156124ac576040517f08c379a00000000000000000000000000000000000000000000000000000000081526004016124a390614816565b60405180910390fd5b6124b7838383612fda565b6124c260008261222f565b6001600360008573ffffffffffffffffffffffffffffffffffffffff1673ffffffffffffffffffffffffffffffffffffffff16815260200190815260200160002060008282546125129190614d69565b925050819055506001600360008473ffffffffffffffffffffffffffffffffffffffff1673ffffffffffffffffffffffffffffffffffffffff16815260200190815260200160002060008282546125699190614c88565b92505081905550816002600083815260200190815260200160002060006101000a81548173ffffffffffffffffffffffffffffffffffffffff021916908373ffffffffffffffffffffffffffffffffffffffff160217905550808273ffffffffffffffffffffffffffffffffffffffff168473ffffffffffffffffffffffffffffffffffffffff167fddf252ad1be2c89b69c2b068fc378daa952ba7f163c4a11628f55a4df523b3ef60405160405180910390a4505050565b6000600a60009054906101000a900473ffffffffffffffffffffffffffffffffffffffff16905081600a60006101000a81548173ffffffffffffffffffffffffffffffffffffffff021916908373ffffffffffffffffffffffffffffffffffffffff1602179055508173ffffffffffffffffffffffffffffffffffffffff168173ffffffffffffffffffffffffffffffffffffffff167f8be0079c531659141344cd1fd0a4f28419497f9722a3daafe3b4186f6b6457e060405160405180910390a35050565b600081600001549050919050565b6127018484846123c6565b61270d848484846130ee565b61274c576040517f08c379a0000000000000000000000000000000000000000000000000000000008152600401612743906147b6565b60405180910390fd5b50505050565b6060600082141561279a576040518060400160405280600181526020017f300000000000000000000000000000000000000000000000000000000000000081525090506128fa565b600082905060005b600082146127cc5780806127b590614eff565b915050600a826127c59190614cde565b91506127a2565b60008167ffffffffffffffff81111561280e577f4e487b7100000000000000000000000000000000000000000000000000000000600052604160045260246000fd5b6040519080825280601f01601f1916602001820160405280156128405781602001600182028036833780820191505090505b5090505b600085146128f3576001826128599190614d69565b9150600a856128689190614f72565b60306128749190614c88565b60f81b8183815181106128b0577f4e487b7100000000000000000000000000000000000000000000000000000000600052603260045260246000fd5b60200101907effffffffffffffffffffffffffffffffffffffffffffffffffffffffffffff1916908160001a905350600a856128ec9190614cde565b9450612844565b8093505050505b919050565b6060600061290c836114a1565b60405160200161291c91906145c1565b604051602081830303815290604052905080915050919050565b606060008251141561295957604051806020016040528060008152509050612ad0565b6000604051806060016040528060408152602001615a5360409139905060006003600285516129889190614c88565b6129929190614cde565b600461299e9190614d0f565b905060006020826129af9190614c88565b67ffffffffffffffff8111156129ee577f4e487b7100000000000000000000000000000000000000000000000000000000600052604160045260246000fd5b6040519080825280601f01601f191660200182016040528015612a205781602001600182028036833780820191505090505b509050818152600183018586518101602084015b81831015612a8f576003830192508251603f8160121c168501518253600182019150603f81600c1c168501518253600182019150603f8160061c168501518253600182019150603f8116850151825360018201915050612a34565b600389510660018114612aa95760028114612ab957612ac4565b613d3d60f01b6002830352612ac4565b603d60f81b60018303525b50505050508093505050505b919050565b606060006002836002612ae89190614d0f565b612af29190614c88565b67ffffffffffffffff811115612b31577f4e487b7100000000000000000000000000000000000000000000000000000000600052604160045260246000fd5b6040519080825280601f01601f191660200182016040528015612b635781602001600182028036833780820191505090505b5090507f300000000000000000000000000000000000000000000000000000000000000081600081518110612bc1577f4e487b7100000000000000000000000000000000000000000000000000000000600052603260045260246000fd5b60200101907effffffffffffffffffffffffffffffffffffffffffffffffffffffffffffff1916908160001a9053507f780000000000000000000000000000000000000000000000000000000000000081600181518110612c4b577f4e487b7100000000000000000000000000000000000000000000000000000000600052603260045260246000fd5b60200101907effffffffffffffffffffffffffffffffffffffffffffffffffffffffffffff1916908160001a90535060006001846002612c8b9190614d0f565b612c959190614c88565b90505b6001811115612d81577f3031323334353637383961626364656600000000000000000000000000000000600f861660108110612cfd577f4e487b7100000000000000000000000000000000000000000000000000000000600052603260045260246000fd5b1a60f81b828281518110612d3a577f4e487b7100000000000000000000000000000000000000000000000000000000600052603260045260246000fd5b60200101907effffffffffffffffffffffffffffffffffffffffffffffffffffffffffffff1916908160001a905350600485901c945080612d7a90614e72565b9050612c98565b508091505092915050565b6001816000016000828254019250508190555050565b600073ffffffffffffffffffffffffffffffffffffffff168273ffffffffffffffffffffffffffffffffffffffff161415612e12576040517f08c379a0000000000000000000000000000000000000000000000000000000008152600401612e0990614916565b60405180910390fd5b612e1b816121bb565b15612e5b576040517f08c379a0000000000000000000000000000000000000000000000000000000008152600401612e52906147f6565b60405180910390fd5b612e6760008383612fda565b6001600360008473ffffffffffffffffffffffffffffffffffffffff1673ffffffffffffffffffffffffffffffffffffffff1681526020019081526020016000206000828254612eb79190614c88565b92505081905550816002600083815260200190815260200160002060006101000a81548173ffffffffffffffffffffffffffffffffffffffff021916908373ffffffffffffffffffffffffffffffffffffffff160217905550808273ffffffffffffffffffffffffffffffffffffffff16600073ffffffffffffffffffffffffffffffffffffffff167fddf252ad1be2c89b69c2b068fc378daa952ba7f163c4a11628f55a4df523b3ef60405160405180910390a45050565b60007f01ffc9a7000000000000000000000000000000000000000000000000000000007bffffffffffffffffffffffffffffffffffffffffffffffffffffffff1916827bffffffffffffffffffffffffffffffffffffffffffffffffffffffff1916149050919050565b612fe5838383613285565b600073ffffffffffffffffffffffffffffffffffffffff168373ffffffffffffffffffffffffffffffffffffffff161415613028576130238161328a565b613067565b8173ffffffffffffffffffffffffffffffffffffffff168373ffffffffffffffffffffffffffffffffffffffff16146130665761306583826132d3565b5b5b600073ffffffffffffffffffffffffffffffffffffffff168273ffffffffffffffffffffffffffffffffffffffff1614156130aa576130a581613440565b6130e9565b8273ffffffffffffffffffffffffffffffffffffffff168273ffffffffffffffffffffffffffffffffffffffff16146130e8576130e78282613583565b5b5b505050565b600061310f8473ffffffffffffffffffffffffffffffffffffffff16613602565b15613278578373ffffffffffffffffffffffffffffffffffffffff1663150b7a02613138612227565b8786866040518563ffffffff1660e01b815260040161315a94939291906146cb565b602060405180830381600087803b15801561317457600080fd5b505af19250505080156131a557506040513d601f19601f820116820180604052508101906131a29190613bad565b60015b613228573d80600081146131d5576040519150601f19603f3d011682016040523d82523d6000602084013e6131da565b606091505b50600081511415613220576040517f08c379a0000000000000000000000000000000000000000000000000000000008152600401613217906147b6565b60405180910390fd5b805181602001fd5b63150b7a0260e01b7bffffffffffffffffffffffffffffffffffffffffffffffffffffffff1916817bffffffffffffffffffffffffffffffffffffffffffffffffffffffff19161491505061327d565b600190505b949350505050565b505050565b6008805490506009600083815260200190815260200160002081905550600881908060018154018082558091505060019003906000526020600020016000909190919091505550565b600060016132e084610d37565b6132ea9190614d69565b90506000600760008481526020019081526020016000205490508181146133cf576000600660008673ffffffffffffffffffffffffffffffffffffffff1673ffffffffffffffffffffffffffffffffffffffff168152602001908152602001600020600084815260200190815260200160002054905080600660008773ffffffffffffffffffffffffffffffffffffffff1673ffffffffffffffffffffffffffffffffffffffff168152602001908152602001600020600084815260200190815260200160002081905550816007600083815260200190815260200160002081905550505b6007600084815260200190815260200160002060009055600660008573ffffffffffffffffffffffffffffffffffffffff1673ffffffffffffffffffffffffffffffffffffffff16815260200190815260200160002060008381526020019081526020016000206000905550505050565b600060016008805490506134549190614d69565b90506000600960008481526020019081526020016000205490506000600883815481106134aa577f4e487b7100000000000000000000000000000000000000000000000000000000600052603260045260246000fd5b9060005260206000200154905080600883815481106134f2577f4e487b7100000000000000000000000000000000000000000000000000000000600052603260045260246000fd5b906000526020600020018190555081600960008381526020019081526020016000208190555060096000858152602001908152602001600020600090556008805480613567577f4e487b7100000000000000000000000000000000000000000000000000000000600052603160045260246000fd5b6001900381819060005260206000200160009055905550505050565b600061358e83610d37565b905081600660008573ffffffffffffffffffffffffffffffffffffffff1673ffffffffffffffffffffffffffffffffffffffff168152602001908152602001600020600083815260200190815260200160002081905550806007600084815260200190815260200160002081905550505050565b600080823b905060008111915050919050565b60405180606001604052806060815260200160008152602001600073ffffffffffffffffffffffffffffffffffffffff1681525090565b82805482825590600052602060002090810192821561369b579160200282015b8281111561369a57825182908051906020019061368a9291906136ac565b509160200191906001019061366c565b5b5090506136a89190613732565b5090565b8280546136b890614e9c565b90600052602060002090601f0160209004810192826136da5760008555613721565b82601f106136f357805160ff1916838001178555613721565b82800160010185558215613721579182015b82811115613720578251825591602001919060010190613705565b5b50905061372e9190613756565b5090565b5b8082111561375257600081816137499190613773565b50600101613733565b5090565b5b8082111561376f576000816000905550600101613757565b5090565b50805461377f90614e9c565b6000825580601f1061379157506137b0565b601f0160209004906000526020600020908101906137af9190613756565b5b50565b60006137c66137c184614b1f565b614afa565b905080838252602082019050828560208602820111156137e557600080fd5b60005b8581101561382f57813567ffffffffffffffff81111561380757600080fd5b808601613814898261395d565b855260208501945060208401935050506001810190506137e8565b5050509392505050565b600061384c61384784614b4b565b614afa565b90508281526020810184848401111561386457600080fd5b61386f848285614e30565b509392505050565b600061388a61388584614b7c565b614afa565b9050828152602081018484840111156138a257600080fd5b6138ad848285614e30565b509392505050565b6000813590506138c4816159f6565b92915050565b600082601f8301126138db57600080fd5b81356138eb8482602086016137b3565b91505092915050565b60008135905061390381615a0d565b92915050565b60008135905061391881615a24565b92915050565b60008151905061392d81615a24565b92915050565b600082601f83011261394457600080fd5b8135613954848260208601613839565b91505092915050565b600082601f83011261396e57600080fd5b813561397e848260208601613877565b91505092915050565b60008135905061399681615a3b565b92915050565b6000602082840312156139ae57600080fd5b60006139bc848285016138b5565b91505092915050565b600080604083850312156139d857600080fd5b60006139e6858286016138b5565b92505060206139f7858286016138b5565b9150509250929050565b600080600060608486031215613a1657600080fd5b6000613a24868287016138b5565b9350506020613a35868287016138b5565b9250506040613a4686828701613987565b9150509250925092565b60008060008060808587031215613a6657600080fd5b6000613a74878288016138b5565b9450506020613a85878288016138b5565b9350506040613a9687828801613987565b925050606085013567ffffffffffffffff811115613ab357600080fd5b613abf87828801613933565b91505092959194509250565b60008060408385031215613ade57600080fd5b6000613aec858286016138b5565b9250506020613afd858286016138f4565b9150509250929050565b60008060408385031215613b1a57600080fd5b6000613b28858286016138b5565b9250506020613b3985828601613987565b9150509250929050565b600060208284031215613b5557600080fd5b600082013567ffffffffffffffff811115613b6f57600080fd5b613b7b848285016138ca565b91505092915050565b600060208284031215613b9657600080fd5b6000613ba484828501613909565b91505092915050565b600060208284031215613bbf57600080fd5b6000613bcd8482850161391e565b91505092915050565b600060208284031215613be857600080fd5b6000613bf684828501613987565b91505092915050565b60008060408385031215613c1257600080fd5b6000613c2085828601613987565b9250506020613c3185828601613987565b9150509250929050565b6000613c478383613dc2565b905092915050565b6000613c5b838361445c565b905092915050565b613c6c81614daf565b82525050565b613c7b81614d9d565b82525050565b613c8a81614d9d565b82525050565b6000613c9b82614be2565b613ca58185614c28565b935083602082028501613cb785614bad565b8060005b85811015613cf35784840389528151613cd48582613c3b565b9450613cdf83614c0e565b925060208a01995050600181019050613cbb565b50829750879550505050505092915050565b6000613d1082614bed565b613d1a8185614c39565b935083602082028501613d2c85614bbd565b8060005b85811015613d685784840389528151613d498582613c4f565b9450613d5483614c1b565b925060208a01995050600181019050613d30565b50829750879550505050505092915050565b613d8381614dc1565b82525050565b6000613d9482614bf8565b613d9e8185614c4a565b9350613dae818560208601614e3f565b613db78161505f565b840191505092915050565b6000613dcd82614c03565b613dd78185614c5b565b9350613de7818560208601614e3f565b613df08161505f565b840191505092915050565b6000613e0682614c03565b613e108185614c6c565b9350613e20818560208601614e3f565b613e298161505f565b840191505092915050565b6000613e3f82614c03565b613e498185614c7d565b9350613e59818560208601614e3f565b80840191505092915050565b60008154613e7281614e9c565b613e7c8186614c7d565b94506001821660008114613e975760018114613ea857613edb565b60ff19831686528186019350613edb565b613eb185614bcd565b60005b83811015613ed357815481890152600182019150602081019050613eb4565b838801955050505b50505092915050565b6000613ef1600983614c7d565b9150613efc82615070565b600982019050919050565b6000613f14601a83614c6c565b9150613f1f82615099565b602082019050919050565b6000613f37602b83614c6c565b9150613f42826150c2565b604082019050919050565b6000613f5a603283614c6c565b9150613f6582615111565b604082019050919050565b6000613f7d604183614c7d565b9150613f8882615160565b604182019050919050565b6000613fa0602683614c6c565b9150613fab826151d5565b604082019050919050565b6000613fc3601c83614c6c565b9150613fce82615224565b602082019050919050565b6000613fe6600c83614c7d565b9150613ff18261524d565b600c82019050919050565b6000614009602483614c6c565b915061401482615276565b604082019050919050565b600061402c600883614c7d565b9150614037826152c5565b600882019050919050565b600061404f601983614c6c565b915061405a826152ee565b602082019050919050565b6000614072600a83614c6c565b915061407d82615317565b602082019050919050565b6000614095602c83614c6c565b91506140a082615340565b604082019050919050565b60006140b8600183614c7d565b91506140c38261538f565b600182019050919050565b60006140db603883614c6c565b91506140e6826153b8565b604082019050919050565b60006140fe602a83614c6c565b915061410982615407565b604082019050919050565b6000614121602983614c6c565b915061412c82615456565b604082019050919050565b6000614144602e83614c6c565b915061414f826154a5565b604082019050919050565b6000614167600283614c7d565b9150614172826154f4565b600282019050919050565b600061418a600783614c7d565b91506141958261551d565b600782019050919050565b60006141ad602083614c6c565b91506141b882615546565b602082019050919050565b60006141d0600d83614c7d565b91506141db8261556f565b600d82019050919050565b60006141f3602c83614c6c565b91506141fe82615598565b604082019050919050565b6000614216601283614c7d565b9150614221826155e7565b601282019050919050565b6000614239602083614c6c565b915061424482615610565b602082019050919050565b600061425c602983614c6c565b915061426782615639565b604082019050919050565b600061427f601f83614c6c565b915061428a82615688565b602082019050919050565b60006142a2602183614c6c565b91506142ad826156b1565b604082019050919050565b60006142c5602f83614c7d565b91506142d082615700565b602f82019050919050565b60006142e8601d83614c7d565b91506142f38261574f565b601d82019050919050565b600061430b602983614c6c565b915061431682615778565b604082019050919050565b600061432e603183614c6c565b9150614339826157c7565b604082019050919050565b6000614351602e83614c7d565b915061435c82615816565b602e82019050919050565b6000614374602c83614c6c565b915061437f82615865565b604082019050919050565b6000614397601f83614c6c565b91506143a2826158b4565b602082019050919050565b60006143ba601c83614c7d565b91506143c5826158dd565b601c82019050919050565b60006143dd603183614c7d565b91506143e882615906565b603182019050919050565b6000614400600683614c7d565b915061440b82615955565b600682019050919050565b6000614423601a83614c7d565b915061442e8261597e565b601a82019050919050565b6000614446602983614c7d565b9150614451826159a7565b602982019050919050565b600060608301600083015184820360008601526144798282613c90565b915050602083015161448e60208601826144fc565b5060408301516144a16040860182613c72565b508091505092915050565b600060608301600083015184820360008601526144c98282613c90565b91505060208301516144de60208601826144fc565b5060408301516144f16040860182613c72565b508091505092915050565b61450581614e19565b82525050565b61451481614e19565b82525050565b61452381614e23565b82525050565b600061453482613ee4565b91506145408288613e34565b915061454b82614209565b91506145578287613e34565b9150614562826142b8565b915061456e8286613e34565b915061457982613fd9565b91506145858285613e34565b9150614590826141c3565b915061459b82614416565b91506145a78284613e34565b91506145b28261415a565b91508190509695505050505050565b60006145cc82613f70565b91506145d88284613e34565b91506145e3826143f3565b915081905092915050565b60006145f98261401f565b91506146058284613e34565b915081905092915050565b600061461b826142db565b91506146278284613e34565b915081905092915050565b600061463d82614344565b915061464882614439565b91506146548284613e65565b915061465f826140ab565b915061466a826143d0565b91506146758261417d565b915081905092915050565b600061468b826143ad565b9150819050919050565b60006020820190506146aa6000830184613c81565b92915050565b60006020820190506146c56000830184613c63565b92915050565b60006080820190506146e06000830187613c81565b6146ed6020830186613c81565b6146fa604083018561450b565b818103606083015261470c8184613d89565b905095945050505050565b600060208201905081810360008301526147318184613d05565b905092915050565b600060208201905061474e6000830184613d7a565b92915050565b6000602082019050818103600083015261476e8184613dfb565b905092915050565b6000602082019050818103600083015261478f81613f07565b9050919050565b600060208201905081810360008301526147af81613f2a565b9050919050565b600060208201905081810360008301526147cf81613f4d565b9050919050565b600060208201905081810360008301526147ef81613f93565b9050919050565b6000602082019050818103600083015261480f81613fb6565b9050919050565b6000602082019050818103600083015261482f81613ffc565b9050919050565b6000602082019050818103600083015261484f81614042565b9050919050565b6000602082019050818103600083015261486f81614065565b9050919050565b6000602082019050818103600083015261488f81614088565b9050919050565b600060208201905081810360008301526148af816140ce565b9050919050565b600060208201905081810360008301526148cf816140f1565b9050919050565b600060208201905081810360008301526148ef81614114565b9050919050565b6000602082019050818103600083015261490f81614137565b9050919050565b6000602082019050818103600083015261492f816141a0565b9050919050565b6000602082019050818103600083015261494f816141e6565b9050919050565b6000602082019050818103600083015261496f8161422c565b9050919050565b6000602082019050818103600083015261498f8161424f565b9050919050565b600060208201905081810360008301526149af81614272565b9050919050565b600060208201905081810360008301526149cf81614295565b9050919050565b600060208201905081810360008301526149ef816142fe565b9050919050565b60006020820190508181036000830152614a0f81614321565b9050919050565b60006020820190508181036000830152614a2f81614367565b9050919050565b60006020820190508181036000830152614a4f8161438a565b9050919050565b60006020820190508181036000830152614a7081846144ac565b905092915050565b6000602082019050614a8d600083018461450b565b92915050565b6000608082019050614aa8600083018761450b565b8181036020830152614aba8186613dfb565b9050614ac9604083018561451a565b614ad66060830184613d7a565b95945050505050565b6000602082019050614af4600083018461451a565b92915050565b6000614b04614b15565b9050614b108282614ece565b919050565b6000604051905090565b600067ffffffffffffffff821115614b3a57614b39615030565b5b602082029050602081019050919050565b600067ffffffffffffffff821115614b6657614b65615030565b5b614b6f8261505f565b9050602081019050919050565b600067ffffffffffffffff821115614b9757614b96615030565b5b614ba08261505f565b9050602081019050919050565b6000819050602082019050919050565b6000819050602082019050919050565b60008190508160005260206000209050919050565b600081519050919050565b600081519050919050565b600081519050919050565b600081519050919050565b6000602082019050919050565b6000602082019050919050565b600082825260208201905092915050565b600082825260208201905092915050565b600082825260208201905092915050565b600082825260208201905092915050565b600082825260208201905092915050565b600081905092915050565b6000614c9382614e19565b9150614c9e83614e19565b9250827fffffffffffffffffffffffffffffffffffffffffffffffffffffffffffffffff03821115614cd357614cd2614fa3565b5b828201905092915050565b6000614ce982614e19565b9150614cf483614e19565b925082614d0457614d03614fd2565b5b828204905092915050565b6000614d1a82614e19565b9150614d2583614e19565b9250817fffffffffffffffffffffffffffffffffffffffffffffffffffffffffffffffff0483118215151615614d5e57614d5d614fa3565b5b828202905092915050565b6000614d7482614e19565b9150614d7f83614e19565b925082821015614d9257614d91614fa3565b5b828203905092915050565b6000614da882614df9565b9050919050565b6000614dba82614df9565b9050919050565b60008115159050919050565b60007fffffffff0000000000000000000000000000000000000000000000000000000082169050919050565b600073ffffffffffffffffffffffffffffffffffffffff82169050919050565b6000819050919050565b600060ff82169050919050565b82818337600083830152505050565b60005b83811015614e5d578082015181840152602081019050614e42565b83811115614e6c576000848401525b50505050565b6000614e7d82614e19565b91506000821415614e9157614e90614fa3565b5b600182039050919050565b60006002820490506001821680614eb457607f821691505b60208210811415614ec857614ec7615001565b5b50919050565b614ed78261505f565b810181811067ffffffffffffffff82111715614ef657614ef5615030565b5b80604052505050565b6000614f0a82614e19565b91507fffffffffffffffffffffffffffffffffffffffffffffffffffffffffffffffff821415614f3d57614f3c614fa3565b5b600182019050919050565b6000614f5382614e23565b915060ff821415614f6757614f66614fa3565b5b600182019050919050565b6000614f7d82614e19565b9150614f8883614e19565b925082614f9857614f97614fd2565b5b828206905092915050565b7f4e487b7100000000000000000000000000000000000000000000000000000000600052601160045260246000fd5b7f4e487b7100000000000000000000000000000000000000000000000000000000600052601260045260246000fd5b7f4e487b7100000000000000000000000000000000000000000000000000000000600052602260045260246000fd5b7f4e487b7100000000000000000000000000000000000000000000000000000000600052604160045260246000fd5b6000601f19601f8301169050919050565b7f7b226e616d65223a220000000000000000000000000000000000000000000000600082015250565b7f6e6f74207269676874206e756d626572206f6620776f72647321000000000000600082015250565b7f455243373231456e756d657261626c653a206f776e657220696e646578206f7560008201527f74206f6620626f756e6473000000000000000000000000000000000000000000602082015250565b7f4552433732313a207472616e7366657220746f206e6f6e20455243373231526560008201527f63656976657220696d706c656d656e7465720000000000000000000000000000602082015250565b7f3c7376672077696474683d2233303022206865696768743d223330302220786d60008201527f6c6e733d22687474703a2f2f7777772e77332e6f72672f323030302f7376672260208201527f3e00000000000000000000000000000000000000000000000000000000000000604082015250565b7f4f776e61626c653a206e6577206f776e657220697320746865207a65726f206160008201527f6464726573730000000000000000000000000000000000000000000000000000602082015250565b7f4552433732313a20746f6b656e20616c7265616479206d696e74656400000000600082015250565b7f222c20226f776e6572223a220000000000000000000000000000000000000000600082015250565b7f4552433732313a207472616e7366657220746f20746865207a65726f2061646460008201527f7265737300000000000000000000000000000000000000000000000000000000602082015250565b7f4d61644c69622023000000000000000000000000000000000000000000000000600082015250565b7f4552433732313a20617070726f766520746f2063616c6c657200000000000000600082015250565b7f4e6f742065786973742100000000000000000000000000000000000000000000600082015250565b7f4552433732313a206f70657261746f7220717565727920666f72206e6f6e657860008201527f697374656e7420746f6b656e0000000000000000000000000000000000000000602082015250565b7f2000000000000000000000000000000000000000000000000000000000000000600082015250565b7f4552433732313a20617070726f76652063616c6c6572206973206e6f74206f7760008201527f6e6572206e6f7220617070726f76656420666f7220616c6c0000000000000000602082015250565b7f4552433732313a2062616c616e636520717565727920666f7220746865207a6560008201527f726f206164647265737300000000000000000000000000000000000000000000602082015250565b7f4552433732313a206f776e657220717565727920666f72206e6f6e657869737460008201527f656e7420746f6b656e0000000000000000000000000000000000000000000000602082015250565b7f506c6179657220616c72656164792068617320612070726f706f73616c20666f60008201527f722074686973204d61644c696221000000000000000000000000000000000000602082015250565b7f227d000000000000000000000000000000000000000000000000000000000000600082015250565b7f3c2f746578743e00000000000000000000000000000000000000000000000000600082015250565b7f4552433732313a206d696e7420746f20746865207a65726f2061646472657373600082015250565b7f222c2022696d616765223a202200000000000000000000000000000000000000600082015250565b7f4552433732313a20617070726f76656420717565727920666f72206e6f6e657860008201527f697374656e7420746f6b656e0000000000000000000000000000000000000000602082015250565b7f222c20226465736372697074696f6e223a220000000000000000000000000000600082015250565b7f4f776e61626c653a2063616c6c6572206973206e6f7420746865206f776e6572600082015250565b7f4552433732313a207472616e73666572206f6620746f6b656e2074686174206960008201527f73206e6f74206f776e0000000000000000000000000000000000000000000000602082015250565b7f53656c6563746564204d61644c696220616c726561647920636c6f7365642100600082015250565b7f4552433732313a20617070726f76616c20746f2063757272656e74206f776e6560008201527f7200000000000000000000000000000000000000000000000000000000000000602082015250565b7f222c202265787465726e616c5f75726c223a2268747470733a2f2f6275726e7960008201527f626f79732e636f6d2f746f6b656e2f0000000000000000000000000000000000602082015250565b7f646174613a6170706c69636174696f6e2f6a736f6e3b6261736536342c000000600082015250565b7f50726f706f73616c206d75737420626520666f72206f70656e2f63757272656e60008201527f74204d61644c6962210000000000000000000000000000000000000000000000602082015250565b7f4552433732313a207472616e736665722063616c6c6572206973206e6f74206f60008201527f776e6572206e6f7220617070726f766564000000000000000000000000000000602082015250565b7f3c726563742077696474683d2239392522206865696768743d2239392522206660008201527f696c6c3d22776869746522202f3e000000000000000000000000000000000000602082015250565b7f455243373231456e756d657261626c653a20676c6f62616c20696e646578206f60008201527f7574206f6620626f756e64730000000000000000000000000000000000000000602082015250565b7f50726576696f7573204d61644c6962206e6f7420636c6f736564207965742100600082015250565b7f54686973206973204d61624c6962732047616d65206f6e436861696e00000000600082015250565b7f3c747370616e20783d2231352220793d223835223e4c4943454e534520504c4160008201527f54453a203c2f747370616e3e2058585858000000000000000000000000000000602082015250565b7f3c2f7376673e0000000000000000000000000000000000000000000000000000600082015250565b7f646174613a696d6167652f7376672b786d6c3b6261736536342c000000000000600082015250565b7f3c7465787420783d2231352220793d22333022207374796c653d2266696c6c3a60008201527f626c61636b3b223e200000000000000000000000000000000000000000000000602082015250565b6159ff81614d9d565b8114615a0a57600080fd5b50565b615a1681614dc1565b8114615a2157600080fd5b50565b615a2d81614dcd565b8114615a3857600080fd5b50565b615a4481614e19565b8114615a4f57600080fd5b5056fe4142434445464748494a4b4c4d4e4f505152535455565758595a6162636465666768696a6b6c6d6e6f707172737475767778797a303132333435363738392b2fa2646970667358221220142b66d05b42e4a36bf3f2a12801f4f5981cfda81631c032b38813670106a93364736f6c63430008040033",
  "linkReferences": {},
  "deployedLinkReferences": {}
}