{
  "_format": "hh-sol-artifact-1",
  "contractName": "YourCollectible",
  "sourceName": "contracts/YourCollectible.sol",
  "abi": [
    {
      "inputs": [],
      "stateMutability": "nonpayable",
      "type": "constructor"
    },
    {
      "anonymous": false,
      "inputs": [
        {
          "indexed": true,
          "internalType": "address",
          "name": "owner",
          "type": "address"
        },
        {
          "indexed": true,
          "internalType": "address",
          "name": "approved",
          "type": "address"
        },
        {
          "indexed": true,
          "internalType": "uint256",
          "name": "tokenId",
          "type": "uint256"
        }
      ],
      "name": "Approval",
      "type": "event"
    },
    {
      "anonymous": false,
      "inputs": [
        {
          "indexed": true,
          "internalType": "address",
          "name": "owner",
          "type": "address"
        },
        {
          "indexed": true,
          "internalType": "address",
          "name": "operator",
          "type": "address"
        },
        {
          "indexed": false,
          "internalType": "bool",
          "name": "approved",
          "type": "bool"
        }
      ],
      "name": "ApprovalForAll",
      "type": "event"
    },
    {
      "anonymous": false,
      "inputs": [
        {
          "indexed": true,
          "internalType": "address",
          "name": "previousOwner",
          "type": "address"
        },
        {
          "indexed": true,
          "internalType": "address",
          "name": "newOwner",
          "type": "address"
        }
      ],
      "name": "OwnershipTransferred",
      "type": "event"
    },
    {
      "anonymous": false,
      "inputs": [
        {
          "indexed": true,
          "internalType": "address",
          "name": "from",
          "type": "address"
        },
        {
          "indexed": true,
          "internalType": "address",
          "name": "to",
          "type": "address"
        },
        {
          "indexed": true,
          "internalType": "uint256",
          "name": "tokenId",
          "type": "uint256"
        }
      ],
      "name": "Transfer",
      "type": "event"
    },
    {
      "inputs": [
        {
          "internalType": "uint256",
          "name": "",
          "type": "uint256"
        }
      ],
      "name": "_madlibs",
      "outputs": [
        {
          "internalType": "uint256",
          "name": "id",
          "type": "uint256"
        },
        {
          "internalType": "string",
          "name": "text",
          "type": "string"
        },
        {
          "internalType": "uint8",
          "name": "nBlanks",
          "type": "uint8"
        },
        {
          "internalType": "bool",
          "name": "closed",
          "type": "bool"
        }
      ],
      "stateMutability": "view",
      "type": "function"
    },
    {
      "inputs": [],
      "name": "_maxVotes",
      "outputs": [
        {
          "internalType": "uint8",
          "name": "",
          "type": "uint8"
        }
      ],
      "stateMutability": "view",
      "type": "function"
    },
    {
      "inputs": [
        {
          "internalType": "string[]",
          "name": "_words",
          "type": "string[]"
        }
      ],
      "name": "addProposal",
      "outputs": [],
      "stateMutability": "nonpayable",
      "type": "function"
    },
    {
      "inputs": [
        {
          "internalType": "address",
          "name": "to",
          "type": "address"
        },
        {
          "internalType": "uint256",
          "name": "tokenId",
          "type": "uint256"
        }
      ],
      "name": "approve",
      "outputs": [],
      "stateMutability": "nonpayable",
      "type": "function"
    },
    {
      "inputs": [
        {
          "internalType": "address",
          "name": "owner",
          "type": "address"
        }
      ],
      "name": "balanceOf",
      "outputs": [
        {
          "internalType": "uint256",
          "name": "",
          "type": "uint256"
        }
      ],
      "stateMutability": "view",
      "type": "function"
    },
    {
      "inputs": [
        {
          "internalType": "uint256",
          "name": "_id",
          "type": "uint256"
        }
      ],
      "name": "closeMadLib",
      "outputs": [],
      "stateMutability": "nonpayable",
      "type": "function"
    },
    {
      "inputs": [
        {
          "internalType": "uint256",
          "name": "tokenId",
          "type": "uint256"
        }
      ],
      "name": "getApproved",
      "outputs": [
        {
          "internalType": "address",
          "name": "",
          "type": "address"
        }
      ],
      "stateMutability": "view",
      "type": "function"
    },
    {
      "inputs": [
        {
          "internalType": "uint256",
          "name": "_id",
          "type": "uint256"
        },
        {
          "internalType": "uint256",
          "name": "_idProposal",
          "type": "uint256"
        }
      ],
      "name": "getProposal",
      "outputs": [
        {
          "components": [
            {
              "internalType": "string[]",
              "name": "words",
              "type": "string[]"
            },
            {
              "internalType": "uint256",
              "name": "countVotes",
              "type": "uint256"
            },
            {
              "internalType": "address",
              "name": "proposer",
              "type": "address"
            }
          ],
          "internalType": "struct YourCollectible.Proposal",
          "name": "",
          "type": "tuple"
        }
      ],
      "stateMutability": "view",
      "type": "function"
    },
    {
      "inputs": [
        {
          "internalType": "uint256",
          "name": "_id",
          "type": "uint256"
        }
      ],
      "name": "getProposals",
      "outputs": [
        {
          "components": [
            {
              "internalType": "string[]",
              "name": "words",
              "type": "string[]"
            },
            {
              "internalType": "uint256",
              "name": "countVotes",
              "type": "uint256"
            },
            {
              "internalType": "address",
              "name": "proposer",
              "type": "address"
            }
          ],
          "internalType": "struct YourCollectible.Proposal[]",
          "name": "",
          "type": "tuple[]"
        }
      ],
      "stateMutability": "view",
      "type": "function"
    },
    {
      "inputs": [
        {
          "internalType": "address",
          "name": "owner",
          "type": "address"
        },
        {
          "internalType": "address",
          "name": "operator",
          "type": "address"
        }
      ],
      "name": "isApprovedForAll",
      "outputs": [
        {
          "internalType": "bool",
          "name": "",
          "type": "bool"
        }
      ],
      "stateMutability": "view",
      "type": "function"
    },
    {
      "inputs": [
        {
          "internalType": "string",
          "name": "_text",
          "type": "string"
        },
        {
          "internalType": "uint8",
          "name": "_nBlanks",
          "type": "uint8"
        }
      ],
      "name": "mintItem",
      "outputs": [
        {
          "internalType": "uint256",
          "name": "",
          "type": "uint256"
        }
      ],
      "stateMutability": "payable",
      "type": "function"
    },
    {
      "inputs": [],
      "name": "name",
      "outputs": [
        {
          "internalType": "string",
          "name": "",
          "type": "string"
        }
      ],
      "stateMutability": "view",
      "type": "function"
    },
    {
      "inputs": [],
      "name": "owner",
      "outputs": [
        {
          "internalType": "address",
          "name": "",
          "type": "address"
        }
      ],
      "stateMutability": "view",
      "type": "function"
    },
    {
      "inputs": [
        {
          "internalType": "uint256",
          "name": "tokenId",
          "type": "uint256"
        }
      ],
      "name": "ownerOf",
      "outputs": [
        {
          "internalType": "address",
          "name": "",
          "type": "address"
        }
      ],
      "stateMutability": "view",
      "type": "function"
    },
    {
      "inputs": [],
      "name": "price",
      "outputs": [
        {
          "internalType": "uint256",
          "name": "",
          "type": "uint256"
        }
      ],
      "stateMutability": "view",
      "type": "function"
    },
    {
      "inputs": [],
      "name": "recipient",
      "outputs": [
        {
          "internalType": "address payable",
          "name": "",
          "type": "address"
        }
      ],
      "stateMutability": "view",
      "type": "function"
    },
    {
      "inputs": [
        {
          "internalType": "uint256",
          "name": "_id",
          "type": "uint256"
        }
      ],
      "name": "renderTokenById",
      "outputs": [
        {
          "internalType": "string",
          "name": "",
          "type": "string"
        }
      ],
      "stateMutability": "view",
      "type": "function"
    },
    {
      "inputs": [],
      "name": "renounceOwnership",
      "outputs": [],
      "stateMutability": "nonpayable",
      "type": "function"
    },
    {
      "inputs": [
        {
          "internalType": "address",
          "name": "from",
          "type": "address"
        },
        {
          "internalType": "address",
          "name": "to",
          "type": "address"
        },
        {
          "internalType": "uint256",
          "name": "tokenId",
          "type": "uint256"
        }
      ],
      "name": "safeTransferFrom",
      "outputs": [],
      "stateMutability": "nonpayable",
      "type": "function"
    },
    {
      "inputs": [
        {
          "internalType": "address",
          "name": "from",
          "type": "address"
        },
        {
          "internalType": "address",
          "name": "to",
          "type": "address"
        },
        {
          "internalType": "uint256",
          "name": "tokenId",
          "type": "uint256"
        },
        {
          "internalType": "bytes",
          "name": "_data",
          "type": "bytes"
        }
      ],
      "name": "safeTransferFrom",
      "outputs": [],
      "stateMutability": "nonpayable",
      "type": "function"
    },
    {
      "inputs": [
        {
          "internalType": "address",
          "name": "operator",
          "type": "address"
        },
        {
          "internalType": "bool",
          "name": "approved",
          "type": "bool"
        }
      ],
      "name": "setApprovalForAll",
      "outputs": [],
      "stateMutability": "nonpayable",
      "type": "function"
    },
    {
      "inputs": [
        {
          "internalType": "bytes4",
          "name": "interfaceId",
          "type": "bytes4"
        }
      ],
      "name": "supportsInterface",
      "outputs": [
        {
          "internalType": "bool",
          "name": "",
          "type": "bool"
        }
      ],
      "stateMutability": "view",
      "type": "function"
    },
    {
      "inputs": [],
      "name": "symbol",
      "outputs": [
        {
          "internalType": "string",
          "name": "",
          "type": "string"
        }
      ],
      "stateMutability": "view",
      "type": "function"
    },
    {
      "inputs": [
        {
          "internalType": "uint256",
          "name": "index",
          "type": "uint256"
        }
      ],
      "name": "tokenByIndex",
      "outputs": [
        {
          "internalType": "uint256",
          "name": "",
          "type": "uint256"
        }
      ],
      "stateMutability": "view",
      "type": "function"
    },
    {
      "inputs": [
        {
          "internalType": "address",
          "name": "owner",
          "type": "address"
        },
        {
          "internalType": "uint256",
          "name": "index",
          "type": "uint256"
        }
      ],
      "name": "tokenOfOwnerByIndex",
      "outputs": [
        {
          "internalType": "uint256",
          "name": "",
          "type": "uint256"
        }
      ],
      "stateMutability": "view",
      "type": "function"
    },
    {
      "inputs": [
        {
          "internalType": "uint256",
          "name": "_id",
          "type": "uint256"
        }
      ],
      "name": "tokenURI",
      "outputs": [
        {
          "internalType": "string",
          "name": "",
          "type": "string"
        }
      ],
      "stateMutability": "view",
      "type": "function"
    },
    {
      "inputs": [],
      "name": "totalSupply",
      "outputs": [
        {
          "internalType": "uint256",
          "name": "",
          "type": "uint256"
        }
      ],
      "stateMutability": "view",
      "type": "function"
    },
    {
      "inputs": [
        {
          "internalType": "address",
          "name": "from",
          "type": "address"
        },
        {
          "internalType": "address",
          "name": "to",
          "type": "address"
        },
        {
          "internalType": "uint256",
          "name": "tokenId",
          "type": "uint256"
        }
      ],
      "name": "transferFrom",
      "outputs": [],
      "stateMutability": "nonpayable",
      "type": "function"
    },
    {
      "inputs": [
        {
          "internalType": "address",
          "name": "newOwner",
          "type": "address"
        }
      ],
      "name": "transferOwnership",
      "outputs": [],
      "stateMutability": "nonpayable",
      "type": "function"
    },
    {
      "inputs": [
        {
          "internalType": "uint256",
          "name": "_idProposal",
          "type": "uint256"
        }
      ],
      "name": "voteProposal",
      "outputs": [],
      "stateMutability": "nonpayable",
      "type": "function"
    }
  ],
  "bytecode": "0x60806040526003600d60006101000a81548160ff021916908360ff16021790555066038d7ea4c68000600f553480156200003857600080fd5b506040518060400160405280600f81526020017f4d61644c696273206f6e436861696e00000000000000000000000000000000008152506040518060400160405280600381526020017f4d4c4300000000000000000000000000000000000000000000000000000000008152508160009080519060200190620000bd929190620001cd565b508060019080519060200190620000d6929190620001cd565b505050620000f9620000ed620000ff60201b60201c565b6200010760201b60201c565b620002e2565b600033905090565b6000600a60009054906101000a900473ffffffffffffffffffffffffffffffffffffffff16905081600a60006101000a81548173ffffffffffffffffffffffffffffffffffffffff021916908373ffffffffffffffffffffffffffffffffffffffff1602179055508173ffffffffffffffffffffffffffffffffffffffff168173ffffffffffffffffffffffffffffffffffffffff167f8be0079c531659141344cd1fd0a4f28419497f9722a3daafe3b4186f6b6457e060405160405180910390a35050565b828054620001db906200027d565b90600052602060002090601f016020900481019282620001ff57600085556200024b565b82601f106200021a57805160ff19168380011785556200024b565b828001600101855582156200024b579182015b828111156200024a5782518255916020019190600101906200022d565b5b5090506200025a91906200025e565b5090565b5b80821115620002795760008160009055506001016200025f565b5090565b600060028204905060018216806200029657607f821691505b60208210811415620002ad57620002ac620002b3565b5b50919050565b7f4e487b7100000000000000000000000000000000000000000000000000000000600052602260045260246000fd5b615c7480620002f26000396000f3fe6080604052600436106101cd5760003560e01c8063807896d5116100f7578063aba2100911610095578063c87b56dd11610064578063c87b56dd146106ca578063d06ff53114610707578063e985e9c514610730578063f2fde38b1461076d576101cd565b8063aba2100914610610578063aed50f8f1461064d578063b489ce7114610678578063b88d4fde146106a1576101cd565b806395d89b41116100d157806395d89b4114610554578063a035b1fe1461057f578063a22cb465146105aa578063a2d6c6da146105d3576101cd565b8063807896d5146104c05780638da5cb5b146104e957806392b4d6cd14610514576101cd565b80632c72fdfc1161016f5780636352211e1161013e5780636352211e1461040457806366d003ac1461044157806370a082311461046c578063715018a6146104a9576101cd565b80632c72fdfc146103245780632f745c591461036157806342842e0e1461039e5780634f6ccce7146103c7576101cd565b8063095ea7b3116101ab578063095ea7b31461027757806318160ddd146102a057806323b872dd146102cb578063253eb1e0146102f4576101cd565b806301ffc9a7146101d257806306fdde031461020f578063081812fc1461023a575b600080fd5b3480156101de57600080fd5b506101f960048036038101906101f49190613c59565b610796565b6040516102069190614885565b60405180910390f35b34801561021b57600080fd5b50610224610810565b60405161023191906148a0565b60405180910390f35b34801561024657600080fd5b50610261600480360381019061025c9190613cff565b6108a2565b60405161026e91906147e1565b60405180910390f35b34801561028357600080fd5b5061029e60048036038101906102999190613bdc565b610927565b005b3480156102ac57600080fd5b506102b5610a3f565b6040516102c29190614be4565b60405180910390f35b3480156102d757600080fd5b506102f260048036038101906102ed9190613ad6565b610a4c565b005b61030e60048036038101906103099190613cab565b610aac565b60405161031b9190614be4565b60405180910390f35b34801561033057600080fd5b5061034b60048036038101906103469190613cff565b610c08565b6040516103589190614863565b60405180910390f35b34801561036d57600080fd5b5061038860048036038101906103839190613bdc565b610deb565b6040516103959190614be4565b60405180910390f35b3480156103aa57600080fd5b506103c560048036038101906103c09190613ad6565b610e90565b005b3480156103d357600080fd5b506103ee60048036038101906103e99190613cff565b610eb0565b6040516103fb9190614be4565b60405180910390f35b34801561041057600080fd5b5061042b60048036038101906104269190613cff565b610f47565b60405161043891906147e1565b60405180910390f35b34801561044d57600080fd5b50610456610ff9565b60405161046391906147fc565b60405180910390f35b34801561047857600080fd5b50610493600480360381019061048e9190613a71565b611011565b6040516104a09190614be4565b60405180910390f35b3480156104b557600080fd5b506104be6110c9565b005b3480156104cc57600080fd5b506104e760048036038101906104e29190613cff565b611151565b005b3480156104f557600080fd5b506104fe611456565b60405161050b91906147e1565b60405180910390f35b34801561052057600080fd5b5061053b60048036038101906105369190613cff565b611480565b60405161054b9493929190614bff565b60405180910390f35b34801561056057600080fd5b50610569611562565b60405161057691906148a0565b60405180910390f35b34801561058b57600080fd5b506105946115f4565b6040516105a19190614be4565b60405180910390f35b3480156105b657600080fd5b506105d160048036038101906105cc9190613ba0565b6115fa565b005b3480156105df57600080fd5b506105fa60048036038101906105f59190613cff565b61177b565b60405161060791906148a0565b60405180910390f35b34801561061c57600080fd5b5061063760048036038101906106329190613d28565b6117ee565b6040516106449190614bc2565b60405180910390f35b34801561065957600080fd5b506106626119d3565b60405161066f9190614c4b565b60405180910390f35b34801561068457600080fd5b5061069f600480360381019061069a9190613c18565b6119e6565b005b3480156106ad57600080fd5b506106c860048036038101906106c39190613b25565b611cdd565b005b3480156106d657600080fd5b506106f160048036038101906106ec9190613cff565b611d3f565b6040516106fe91906148a0565b60405180910390f35b34801561071357600080fd5b5061072e60048036038101906107299190613cff565b611e7e565b005b34801561073c57600080fd5b5061075760048036038101906107529190613a9a565b61200d565b6040516107649190614885565b60405180910390f35b34801561077957600080fd5b50610794600480360381019061078f9190613a71565b6120a1565b005b60007f780e9d63000000000000000000000000000000000000000000000000000000007bffffffffffffffffffffffffffffffffffffffffffffffffffffffff1916827bffffffffffffffffffffffffffffffffffffffffffffffffffffffff19161480610809575061080882612199565b5b9050919050565b60606000805461081f90615008565b80601f016020809104026020016040519081016040528092919081815260200182805461084b90615008565b80156108985780601f1061086d57610100808354040283529160200191610898565b820191906000526020600020905b81548152906001019060200180831161087b57829003601f168201915b5050505050905090565b60006108ad8261227b565b6108ec576040517f08c379a00000000000000000000000000000000000000000000000000000000081526004016108e390614aa2565b60405180910390fd5b6004600083815260200190815260200160002060009054906101000a900473ffffffffffffffffffffffffffffffffffffffff169050919050565b600061093282610f47565b90508073ffffffffffffffffffffffffffffffffffffffff168373ffffffffffffffffffffffffffffffffffffffff1614156109a3576040517f08c379a000000000000000000000000000000000000000000000000000000000815260040161099a90614b22565b60405180910390fd5b8073ffffffffffffffffffffffffffffffffffffffff166109c26122e7565b73ffffffffffffffffffffffffffffffffffffffff1614806109f157506109f0816109eb6122e7565b61200d565b5b610a30576040517f08c379a0000000000000000000000000000000000000000000000000000000008152600401610a27906149e2565b60405180910390fd5b610a3a83836122ef565b505050565b6000600880549050905090565b610a5d610a576122e7565b826123a8565b610a9c576040517f08c379a0000000000000000000000000000000000000000000000000000000008152600401610a9390614b62565b60405180910390fd5b610aa7838383612486565b505050565b6000600e80549050600014610b6557600e6001600e80549050610acf9190614ed5565b81548110610b06577f4e487b7100000000000000000000000000000000000000000000000000000000600052603260045260246000fd5b906000526020600020906007020160060160009054906101000a900460ff16610b64576040517f08c379a0000000000000000000000000000000000000000000000000000000008152600401610b5b90614ba2565b60405180910390fd5b5b6000610b71600b6126e2565b9050610b7d33826126f0565b6000600e600181600181540180825580915050039060005260206000209060070201905081816000018190555084816001019080519060200190610bc29291906136d5565b50838160020160006101000a81548160ff021916908360ff16021790555060008160060160006101000a81548160ff021916908315150217905550819250505092915050565b6060600e8281548110610c44577f4e487b7100000000000000000000000000000000000000000000000000000000600052603260045260246000fd5b9060005260206000209060070201600301805480602002602001604051908101604052809291908181526020016000905b82821015610de0578382906000526020600020906003020160405180606001604052908160008201805480602002602001604051908101604052809291908181526020016000905b82821015610d69578382906000526020600020018054610cdc90615008565b80601f0160208091040260200160405190810160405280929190818152602001828054610d0890615008565b8015610d555780601f10610d2a57610100808354040283529160200191610d55565b820191906000526020600020905b815481529060010190602001808311610d3857829003601f168201915b505050505081526020019060010190610cbd565b505050508152602001600182015481526020016002820160009054906101000a900473ffffffffffffffffffffffffffffffffffffffff1673ffffffffffffffffffffffffffffffffffffffff1673ffffffffffffffffffffffffffffffffffffffff168152505081526020019060010190610c75565b505050509050919050565b6000610df683611011565b8210610e37576040517f08c379a0000000000000000000000000000000000000000000000000000000008152600401610e2e906148e2565b60405180910390fd5b600660008473ffffffffffffffffffffffffffffffffffffffff1673ffffffffffffffffffffffffffffffffffffffff168152602001908152602001600020600083815260200190815260200160002054905092915050565b610eab83838360405180602001604052806000815250611cdd565b505050565b6000610eba610a3f565b8210610efb576040517f08c379a0000000000000000000000000000000000000000000000000000000008152600401610ef290614b82565b60405180910390fd5b60088281548110610f35577f4e487b7100000000000000000000000000000000000000000000000000000000600052603260045260246000fd5b90600052602060002001549050919050565b6000806002600084815260200190815260200160002060009054906101000a900473ffffffffffffffffffffffffffffffffffffffff169050600073ffffffffffffffffffffffffffffffffffffffff168173ffffffffffffffffffffffffffffffffffffffff161415610ff0576040517f08c379a0000000000000000000000000000000000000000000000000000000008152600401610fe790614a22565b60405180910390fd5b80915050919050565b73a81a6a910fed20374361b35c451a4a44f86ced4681565b60008073ffffffffffffffffffffffffffffffffffffffff168273ffffffffffffffffffffffffffffffffffffffff161415611082576040517f08c379a000000000000000000000000000000000000000000000000000000000815260040161107990614a02565b60405180910390fd5b600360008373ffffffffffffffffffffffffffffffffffffffff1673ffffffffffffffffffffffffffffffffffffffff168152602001908152602001600020549050919050565b6110d16122e7565b73ffffffffffffffffffffffffffffffffffffffff166110ef611456565b73ffffffffffffffffffffffffffffffffffffffff1614611145576040517f08c379a000000000000000000000000000000000000000000000000000000000815260040161113c90614ac2565b60405180910390fd5b61114f60006128be565b565b600061115d600b6126e2565b905060001515600e828154811061119d577f4e487b7100000000000000000000000000000000000000000000000000000000600052603260045260246000fd5b906000526020600020906007020160060160009054906101000a900460ff161515146111fe576040517f08c379a00000000000000000000000000000000000000000000000000000000081526004016111f590614b42565b60405180910390fd5b600d60009054906101000a900460ff1660ff16600e828154811061124b577f4e487b7100000000000000000000000000000000000000000000000000000000600052603260045260246000fd5b906000526020600020906007020160050160003373ffffffffffffffffffffffffffffffffffffffff1673ffffffffffffffffffffffffffffffffffffffff16815260200190815260200160002060009054906101000a900460ff1660ff16106112ea576040517f08c379a00000000000000000000000000000000000000000000000000000000081526004016112e190614b42565b60405180910390fd5b600e8181548110611324577f4e487b7100000000000000000000000000000000000000000000000000000000600052603260045260246000fd5b906000526020600020906007020160050160003373ffffffffffffffffffffffffffffffffffffffff1673ffffffffffffffffffffffffffffffffffffffff168152602001908152602001600020600081819054906101000a900460ff168092919061138f906150b4565b91906101000a81548160ff021916908360ff16021790555050600e81815481106113e2577f4e487b7100000000000000000000000000000000000000000000000000000000600052603260045260246000fd5b9060005260206000209060070201600301828154811061142b577f4e487b7100000000000000000000000000000000000000000000000000000000600052603260045260246000fd5b9060005260206000209060030201600101600081548092919061144d9061506b565b91905055505050565b6000600a60009054906101000a900473ffffffffffffffffffffffffffffffffffffffff16905090565b600e818154811061149057600080fd5b90600052602060002090600702016000915090508060000154908060010180546114b990615008565b80601f01602080910402602001604051908101604052809291908181526020018280546114e590615008565b80156115325780601f1061150757610100808354040283529160200191611532565b820191906000526020600020905b81548152906001019060200180831161151557829003601f168201915b5050505050908060020160009054906101000a900460ff16908060060160009054906101000a900460ff16905084565b60606001805461157190615008565b80601f016020809104026020016040519081016040528092919081815260200182805461159d90615008565b80156115ea5780601f106115bf576101008083540402835291602001916115ea565b820191906000526020600020905b8154815290600101906020018083116115cd57829003601f168201915b5050505050905090565b600f5481565b6116026122e7565b73ffffffffffffffffffffffffffffffffffffffff168273ffffffffffffffffffffffffffffffffffffffff161415611670576040517f08c379a000000000000000000000000000000000000000000000000000000000815260040161166790614982565b60405180910390fd5b806005600061167d6122e7565b73ffffffffffffffffffffffffffffffffffffffff1673ffffffffffffffffffffffffffffffffffffffff16815260200190815260200160002060008473ffffffffffffffffffffffffffffffffffffffff1673ffffffffffffffffffffffffffffffffffffffff16815260200190815260200160002060006101000a81548160ff0219169083151502179055508173ffffffffffffffffffffffffffffffffffffffff1661172a6122e7565b73ffffffffffffffffffffffffffffffffffffffff167f17307eab39ab6107e8899845ad3d59bd9653f200f220920489ca2b5937696c318360405161176f9190614885565b60405180910390a35050565b6060600e82815481106117b7577f4e487b7100000000000000000000000000000000000000000000000000000000600052603260045260246000fd5b90600052602060002090600702016001016040516020016117d8919061477e565b6040516020818303038152906040529050919050565b6117f661375b565b600e8381548110611830577f4e487b7100000000000000000000000000000000000000000000000000000000600052603260045260246000fd5b90600052602060002090600702016003018281548110611879577f4e487b7100000000000000000000000000000000000000000000000000000000600052603260045260246000fd5b906000526020600020906003020160405180606001604052908160008201805480602002602001604051908101604052809291908181526020016000905b828210156119635783829060005260206000200180546118d690615008565b80601f016020809104026020016040519081016040528092919081815260200182805461190290615008565b801561194f5780601f106119245761010080835404028352916020019161194f565b820191906000526020600020905b81548152906001019060200180831161193257829003601f168201915b5050505050815260200190600101906118b7565b505050508152602001600182015481526020016002820160009054906101000a900473ffffffffffffffffffffffffffffffffffffffff1673ffffffffffffffffffffffffffffffffffffffff1673ffffffffffffffffffffffffffffffffffffffff1681525050905092915050565b600d60009054906101000a900460ff1681565b60006119f2600b6126e2565b905060001515600e8281548110611a32577f4e487b7100000000000000000000000000000000000000000000000000000000600052603260045260246000fd5b906000526020600020906007020160040160003373ffffffffffffffffffffffffffffffffffffffff1673ffffffffffffffffffffffffffffffffffffffff16815260200190815260200160002060009054906101000a900460ff16151514611ad0576040517f08c379a0000000000000000000000000000000000000000000000000000000008152600401611ac790614a42565b60405180910390fd5b600e8181548110611b0a577f4e487b7100000000000000000000000000000000000000000000000000000000600052603260045260246000fd5b906000526020600020906007020160020160009054906101000a900460ff1660ff16825114611b6e576040517f08c379a0000000000000000000000000000000000000000000000000000000008152600401611b65906148c2565b60405180910390fd5b6001600e8281548110611baa577f4e487b7100000000000000000000000000000000000000000000000000000000600052603260045260246000fd5b906000526020600020906007020160040160003373ffffffffffffffffffffffffffffffffffffffff1673ffffffffffffffffffffffffffffffffffffffff16815260200190815260200160002060006101000a81548160ff0219169083151502179055506000600e8281548110611c4b577f4e487b7100000000000000000000000000000000000000000000000000000000600052603260045260246000fd5b90600052602060002090600702016003016001816001815401808255809150500390600052602060002090600302019050338160020160006101000a81548173ffffffffffffffffffffffffffffffffffffffff021916908373ffffffffffffffffffffffffffffffffffffffff16021790555082816000019080519060200190611cd7929190613792565b50505050565b611cee611ce86122e7565b836123a8565b611d2d576040517f08c379a0000000000000000000000000000000000000000000000000000000008152600401611d2490614b62565b60405180910390fd5b611d3984848484612984565b50505050565b6060611d4a8261227b565b611d89576040517f08c379a0000000000000000000000000000000000000000000000000000000008152600401611d80906149a2565b60405180910390fd5b6000611d94836129e0565b604051602001611da4919061473a565b60405160208183030381529060405290506000604051602001611dc6906147cc565b60405160208183030381529060405290506000611dea611de586612b8d565b612bc4565b9050611e558383611dfa886129e0565b611e2c6014611e088b610f47565b73ffffffffffffffffffffffffffffffffffffffff16612d6390919063ffffffff16565b85604051602001611e41959493929190614675565b604051602081830303815290604052612bc4565b604051602001611e65919061475c565b6040516020818303038152906040529350505050919050565b611e8781610f47565b73ffffffffffffffffffffffffffffffffffffffff163373ffffffffffffffffffffffffffffffffffffffff1614611ef4576040517f08c379a0000000000000000000000000000000000000000000000000000000008152600401611eeb90614a62565b60405180910390fd5b60001515600e611f04600b6126e2565b81548110611f3b577f4e487b7100000000000000000000000000000000000000000000000000000000600052603260045260246000fd5b906000526020600020906007020160060160009054906101000a900460ff16151514611f9c576040517f08c379a0000000000000000000000000000000000000000000000000000000008152600401611f9390614b02565b60405180910390fd5b6001600e8281548110611fd8577f4e487b7100000000000000000000000000000000000000000000000000000000600052603260045260246000fd5b906000526020600020906007020160060160006101000a81548160ff02191690831515021790555061200a600b61301a565b50565b6000600560008473ffffffffffffffffffffffffffffffffffffffff1673ffffffffffffffffffffffffffffffffffffffff16815260200190815260200160002060008373ffffffffffffffffffffffffffffffffffffffff1673ffffffffffffffffffffffffffffffffffffffff16815260200190815260200160002060009054906101000a900460ff16905092915050565b6120a96122e7565b73ffffffffffffffffffffffffffffffffffffffff166120c7611456565b73ffffffffffffffffffffffffffffffffffffffff161461211d576040517f08c379a000000000000000000000000000000000000000000000000000000000815260040161211490614ac2565b60405180910390fd5b600073ffffffffffffffffffffffffffffffffffffffff168173ffffffffffffffffffffffffffffffffffffffff16141561218d576040517f08c379a000000000000000000000000000000000000000000000000000000000815260040161218490614922565b60405180910390fd5b612196816128be565b50565b60007f80ac58cd000000000000000000000000000000000000000000000000000000007bffffffffffffffffffffffffffffffffffffffffffffffffffffffff1916827bffffffffffffffffffffffffffffffffffffffffffffffffffffffff1916148061226457507f5b5e139f000000000000000000000000000000000000000000000000000000007bffffffffffffffffffffffffffffffffffffffffffffffffffffffff1916827bffffffffffffffffffffffffffffffffffffffffffffffffffffffff1916145b80612274575061227382613030565b5b9050919050565b60008073ffffffffffffffffffffffffffffffffffffffff166002600084815260200190815260200160002060009054906101000a900473ffffffffffffffffffffffffffffffffffffffff1673ffffffffffffffffffffffffffffffffffffffff1614159050919050565b600033905090565b816004600083815260200190815260200160002060006101000a81548173ffffffffffffffffffffffffffffffffffffffff021916908373ffffffffffffffffffffffffffffffffffffffff160217905550808273ffffffffffffffffffffffffffffffffffffffff1661236283610f47565b73ffffffffffffffffffffffffffffffffffffffff167f8c5be1e5ebec7d5bd14f71427d1e84f3dd0314c0f7b2291e5b200ac8c7c3b92560405160405180910390a45050565b60006123b38261227b565b6123f2576040517f08c379a00000000000000000000000000000000000000000000000000000000081526004016123e9906149c2565b60405180910390fd5b60006123fd83610f47565b90508073ffffffffffffffffffffffffffffffffffffffff168473ffffffffffffffffffffffffffffffffffffffff16148061246c57508373ffffffffffffffffffffffffffffffffffffffff16612454846108a2565b73ffffffffffffffffffffffffffffffffffffffff16145b8061247d575061247c818561200d565b5b91505092915050565b8273ffffffffffffffffffffffffffffffffffffffff166124a682610f47565b73ffffffffffffffffffffffffffffffffffffffff16146124fc576040517f08c379a00000000000000000000000000000000000000000000000000000000081526004016124f390614ae2565b60405180910390fd5b600073ffffffffffffffffffffffffffffffffffffffff168273ffffffffffffffffffffffffffffffffffffffff16141561256c576040517f08c379a000000000000000000000000000000000000000000000000000000000815260040161256390614962565b60405180910390fd5b61257783838361309a565b6125826000826122ef565b6001600360008573ffffffffffffffffffffffffffffffffffffffff1673ffffffffffffffffffffffffffffffffffffffff16815260200190815260200160002060008282546125d29190614ed5565b925050819055506001600360008473ffffffffffffffffffffffffffffffffffffffff1673ffffffffffffffffffffffffffffffffffffffff16815260200190815260200160002060008282546126299190614df4565b92505081905550816002600083815260200190815260200160002060006101000a81548173ffffffffffffffffffffffffffffffffffffffff021916908373ffffffffffffffffffffffffffffffffffffffff160217905550808273ffffffffffffffffffffffffffffffffffffffff168473ffffffffffffffffffffffffffffffffffffffff167fddf252ad1be2c89b69c2b068fc378daa952ba7f163c4a11628f55a4df523b3ef60405160405180910390a4505050565b600081600001549050919050565b600073ffffffffffffffffffffffffffffffffffffffff168273ffffffffffffffffffffffffffffffffffffffff161415612760576040517f08c379a000000000000000000000000000000000000000000000000000000000815260040161275790614a82565b60405180910390fd5b6127698161227b565b156127a9576040517f08c379a00000000000000000000000000000000000000000000000000000000081526004016127a090614942565b60405180910390fd5b6127b56000838361309a565b6001600360008473ffffffffffffffffffffffffffffffffffffffff1673ffffffffffffffffffffffffffffffffffffffff16815260200190815260200160002060008282546128059190614df4565b92505081905550816002600083815260200190815260200160002060006101000a81548173ffffffffffffffffffffffffffffffffffffffff021916908373ffffffffffffffffffffffffffffffffffffffff160217905550808273ffffffffffffffffffffffffffffffffffffffff16600073ffffffffffffffffffffffffffffffffffffffff167fddf252ad1be2c89b69c2b068fc378daa952ba7f163c4a11628f55a4df523b3ef60405160405180910390a45050565b6000600a60009054906101000a900473ffffffffffffffffffffffffffffffffffffffff16905081600a60006101000a81548173ffffffffffffffffffffffffffffffffffffffff021916908373ffffffffffffffffffffffffffffffffffffffff1602179055508173ffffffffffffffffffffffffffffffffffffffff168173ffffffffffffffffffffffffffffffffffffffff167f8be0079c531659141344cd1fd0a4f28419497f9722a3daafe3b4186f6b6457e060405160405180910390a35050565b61298f848484612486565b61299b848484846131ae565b6129da576040517f08c379a00000000000000000000000000000000000000000000000000000000081526004016129d190614902565b60405180910390fd5b50505050565b60606000821415612a28576040518060400160405280600181526020017f30000000000000000000000000000000000000000000000000000000000000008152509050612b88565b600082905060005b60008214612a5a578080612a439061506b565b915050600a82612a539190614e4a565b9150612a30565b60008167ffffffffffffffff811115612a9c577f4e487b7100000000000000000000000000000000000000000000000000000000600052604160045260246000fd5b6040519080825280601f01601f191660200182016040528015612ace5781602001600182028036833780820191505090505b5090505b60008514612b8157600182612ae79190614ed5565b9150600a85612af691906150de565b6030612b029190614df4565b60f81b818381518110612b3e577f4e487b7100000000000000000000000000000000000000000000000000000000600052603260045260246000fd5b60200101907effffffffffffffffffffffffffffffffffffffffffffffffffffffffffffff1916908160001a905350600a85612b7a9190614e4a565b9450612ad2565b8093505050505b919050565b60606000612b9a8361177b565b604051602001612baa919061470d565b604051602081830303815290604052905080915050919050565b6060600082511415612be757604051806020016040528060008152509050612d5e565b6000604051806060016040528060408152602001615bff6040913990506000600360028551612c169190614df4565b612c209190614e4a565b6004612c2c9190614e7b565b90506000602082612c3d9190614df4565b67ffffffffffffffff811115612c7c577f4e487b7100000000000000000000000000000000000000000000000000000000600052604160045260246000fd5b6040519080825280601f01601f191660200182016040528015612cae5781602001600182028036833780820191505090505b509050818152600183018586518101602084015b81831015612d1d576003830192508251603f8160121c168501518253600182019150603f81600c1c168501518253600182019150603f8160061c168501518253600182019150603f8116850151825360018201915050612cc2565b600389510660018114612d375760028114612d4757612d52565b613d3d60f01b6002830352612d52565b603d60f81b60018303525b50505050508093505050505b919050565b606060006002836002612d769190614e7b565b612d809190614df4565b67ffffffffffffffff811115612dbf577f4e487b7100000000000000000000000000000000000000000000000000000000600052604160045260246000fd5b6040519080825280601f01601f191660200182016040528015612df15781602001600182028036833780820191505090505b5090507f300000000000000000000000000000000000000000000000000000000000000081600081518110612e4f577f4e487b7100000000000000000000000000000000000000000000000000000000600052603260045260246000fd5b60200101907effffffffffffffffffffffffffffffffffffffffffffffffffffffffffffff1916908160001a9053507f780000000000000000000000000000000000000000000000000000000000000081600181518110612ed9577f4e487b7100000000000000000000000000000000000000000000000000000000600052603260045260246000fd5b60200101907effffffffffffffffffffffffffffffffffffffffffffffffffffffffffffff1916908160001a90535060006001846002612f199190614e7b565b612f239190614df4565b90505b600181111561300f577f3031323334353637383961626364656600000000000000000000000000000000600f861660108110612f8b577f4e487b7100000000000000000000000000000000000000000000000000000000600052603260045260246000fd5b1a60f81b828281518110612fc8577f4e487b7100000000000000000000000000000000000000000000000000000000600052603260045260246000fd5b60200101907effffffffffffffffffffffffffffffffffffffffffffffffffffffffffffff1916908160001a905350600485901c94508061300890614fde565b9050612f26565b508091505092915050565b6001816000016000828254019250508190555050565b60007f01ffc9a7000000000000000000000000000000000000000000000000000000007bffffffffffffffffffffffffffffffffffffffffffffffffffffffff1916827bffffffffffffffffffffffffffffffffffffffffffffffffffffffff1916149050919050565b6130a5838383613345565b600073ffffffffffffffffffffffffffffffffffffffff168373ffffffffffffffffffffffffffffffffffffffff1614156130e8576130e38161334a565b613127565b8173ffffffffffffffffffffffffffffffffffffffff168373ffffffffffffffffffffffffffffffffffffffff1614613126576131258382613393565b5b5b600073ffffffffffffffffffffffffffffffffffffffff168273ffffffffffffffffffffffffffffffffffffffff16141561316a5761316581613500565b6131a9565b8273ffffffffffffffffffffffffffffffffffffffff168273ffffffffffffffffffffffffffffffffffffffff16146131a8576131a78282613643565b5b5b505050565b60006131cf8473ffffffffffffffffffffffffffffffffffffffff166136c2565b15613338578373ffffffffffffffffffffffffffffffffffffffff1663150b7a026131f86122e7565b8786866040518563ffffffff1660e01b815260040161321a9493929190614817565b602060405180830381600087803b15801561323457600080fd5b505af192505050801561326557506040513d601f19601f820116820180604052508101906132629190613c82565b60015b6132e8573d8060008114613295576040519150601f19603f3d011682016040523d82523d6000602084013e61329a565b606091505b506000815114156132e0576040517f08c379a00000000000000000000000000000000000000000000000000000000081526004016132d790614902565b60405180910390fd5b805181602001fd5b63150b7a0260e01b7bffffffffffffffffffffffffffffffffffffffffffffffffffffffff1916817bffffffffffffffffffffffffffffffffffffffffffffffffffffffff19161491505061333d565b600190505b949350505050565b505050565b6008805490506009600083815260200190815260200160002081905550600881908060018154018082558091505060019003906000526020600020016000909190919091505550565b600060016133a084611011565b6133aa9190614ed5565b905060006007600084815260200190815260200160002054905081811461348f576000600660008673ffffffffffffffffffffffffffffffffffffffff1673ffffffffffffffffffffffffffffffffffffffff168152602001908152602001600020600084815260200190815260200160002054905080600660008773ffffffffffffffffffffffffffffffffffffffff1673ffffffffffffffffffffffffffffffffffffffff168152602001908152602001600020600084815260200190815260200160002081905550816007600083815260200190815260200160002081905550505b6007600084815260200190815260200160002060009055600660008573ffffffffffffffffffffffffffffffffffffffff1673ffffffffffffffffffffffffffffffffffffffff16815260200190815260200160002060008381526020019081526020016000206000905550505050565b600060016008805490506135149190614ed5565b905060006009600084815260200190815260200160002054905060006008838154811061356a577f4e487b7100000000000000000000000000000000000000000000000000000000600052603260045260246000fd5b9060005260206000200154905080600883815481106135b2577f4e487b7100000000000000000000000000000000000000000000000000000000600052603260045260246000fd5b906000526020600020018190555081600960008381526020019081526020016000208190555060096000858152602001908152602001600020600090556008805480613627577f4e487b7100000000000000000000000000000000000000000000000000000000600052603160045260246000fd5b6001900381819060005260206000200160009055905550505050565b600061364e83611011565b905081600660008573ffffffffffffffffffffffffffffffffffffffff1673ffffffffffffffffffffffffffffffffffffffff168152602001908152602001600020600083815260200190815260200160002081905550806007600084815260200190815260200160002081905550505050565b600080823b905060008111915050919050565b8280546136e190615008565b90600052602060002090601f016020900481019282613703576000855561374a565b82601f1061371c57805160ff191683800117855561374a565b8280016001018555821561374a579182015b8281111561374957825182559160200191906001019061372e565b5b50905061375791906137f2565b5090565b60405180606001604052806060815260200160008152602001600073ffffffffffffffffffffffffffffffffffffffff1681525090565b8280548282559060005260206000209081019282156137e1579160200282015b828111156137e05782518290805190602001906137d09291906136d5565b50916020019190600101906137b2565b5b5090506137ee919061380f565b5090565b5b8082111561380b5760008160009055506001016137f3565b5090565b5b8082111561382f57600081816138269190613833565b50600101613810565b5090565b50805461383f90615008565b6000825580601f106138515750613870565b601f01602090049060005260206000209081019061386f91906137f2565b5b50565b600061388661388184614c8b565b614c66565b905080838252602082019050828560208602820111156138a557600080fd5b60005b858110156138ef57813567ffffffffffffffff8111156138c757600080fd5b8086016138d48982613a1d565b855260208501945060208401935050506001810190506138a8565b5050509392505050565b600061390c61390784614cb7565b614c66565b90508281526020810184848401111561392457600080fd5b61392f848285614f9c565b509392505050565b600061394a61394584614ce8565b614c66565b90508281526020810184848401111561396257600080fd5b61396d848285614f9c565b509392505050565b60008135905061398481615b8b565b92915050565b600082601f83011261399b57600080fd5b81356139ab848260208601613873565b91505092915050565b6000813590506139c381615ba2565b92915050565b6000813590506139d881615bb9565b92915050565b6000815190506139ed81615bb9565b92915050565b600082601f830112613a0457600080fd5b8135613a148482602086016138f9565b91505092915050565b600082601f830112613a2e57600080fd5b8135613a3e848260208601613937565b91505092915050565b600081359050613a5681615bd0565b92915050565b600081359050613a6b81615be7565b92915050565b600060208284031215613a8357600080fd5b6000613a9184828501613975565b91505092915050565b60008060408385031215613aad57600080fd5b6000613abb85828601613975565b9250506020613acc85828601613975565b9150509250929050565b600080600060608486031215613aeb57600080fd5b6000613af986828701613975565b9350506020613b0a86828701613975565b9250506040613b1b86828701613a47565b9150509250925092565b60008060008060808587031215613b3b57600080fd5b6000613b4987828801613975565b9450506020613b5a87828801613975565b9350506040613b6b87828801613a47565b925050606085013567ffffffffffffffff811115613b8857600080fd5b613b94878288016139f3565b91505092959194509250565b60008060408385031215613bb357600080fd5b6000613bc185828601613975565b9250506020613bd2858286016139b4565b9150509250929050565b60008060408385031215613bef57600080fd5b6000613bfd85828601613975565b9250506020613c0e85828601613a47565b9150509250929050565b600060208284031215613c2a57600080fd5b600082013567ffffffffffffffff811115613c4457600080fd5b613c508482850161398a565b91505092915050565b600060208284031215613c6b57600080fd5b6000613c79848285016139c9565b91505092915050565b600060208284031215613c9457600080fd5b6000613ca2848285016139de565b91505092915050565b60008060408385031215613cbe57600080fd5b600083013567ffffffffffffffff811115613cd857600080fd5b613ce485828601613a1d565b9250506020613cf585828601613a5c565b9150509250929050565b600060208284031215613d1157600080fd5b6000613d1f84828501613a47565b91505092915050565b60008060408385031215613d3b57600080fd5b6000613d4985828601613a47565b9250506020613d5a85828601613a47565b9150509250929050565b6000613d708383613eeb565b905092915050565b6000613d8483836145a8565b905092915050565b613d9581614f1b565b82525050565b613da481614f09565b82525050565b613db381614f09565b82525050565b6000613dc482614d4e565b613dce8185614d94565b935083602082028501613de085614d19565b8060005b85811015613e1c5784840389528151613dfd8582613d64565b9450613e0883614d7a565b925060208a01995050600181019050613de4565b50829750879550505050505092915050565b6000613e3982614d59565b613e438185614da5565b935083602082028501613e5585614d29565b8060005b85811015613e915784840389528151613e728582613d78565b9450613e7d83614d87565b925060208a01995050600181019050613e59565b50829750879550505050505092915050565b613eac81614f2d565b82525050565b6000613ebd82614d64565b613ec78185614db6565b9350613ed7818560208601614fab565b613ee0816151cb565b840191505092915050565b6000613ef682614d6f565b613f008185614dc7565b9350613f10818560208601614fab565b613f19816151cb565b840191505092915050565b6000613f2f82614d6f565b613f398185614dd8565b9350613f49818560208601614fab565b613f52816151cb565b840191505092915050565b6000613f6882614d6f565b613f728185614de9565b9350613f82818560208601614fab565b80840191505092915050565b60008154613f9b81615008565b613fa58186614de9565b94506001821660008114613fc05760018114613fd157614004565b60ff19831686528186019350614004565b613fda85614d39565b60005b83811015613ffc57815481890152600182019150602081019050613fdd565b838801955050505b50505092915050565b600061401a600983614de9565b9150614025826151dc565b600982019050919050565b600061403d601a83614dd8565b915061404882615205565b602082019050919050565b6000614060602b83614dd8565b915061406b8261522e565b604082019050919050565b6000614083603283614dd8565b915061408e8261527d565b604082019050919050565b60006140a6604183614de9565b91506140b1826152cc565b604182019050919050565b60006140c9602683614dd8565b91506140d482615341565b604082019050919050565b60006140ec601c83614dd8565b91506140f782615390565b602082019050919050565b600061410f600c83614de9565b915061411a826153b9565b600c82019050919050565b6000614132602483614dd8565b915061413d826153e2565b604082019050919050565b6000614155600883614de9565b915061416082615431565b600882019050919050565b6000614178601983614dd8565b91506141838261545a565b602082019050919050565b600061419b600a83614dd8565b91506141a682615483565b602082019050919050565b60006141be602c83614dd8565b91506141c9826154ac565b604082019050919050565b60006141e1600183614de9565b91506141ec826154fb565b600182019050919050565b6000614204603883614dd8565b915061420f82615524565b604082019050919050565b6000614227602a83614dd8565b915061423282615573565b604082019050919050565b600061424a602983614dd8565b9150614255826155c2565b604082019050919050565b600061426d602e83614dd8565b915061427882615611565b604082019050919050565b6000614290600283614de9565b915061429b82615660565b600282019050919050565b60006142b3600783614de9565b91506142be82615689565b600782019050919050565b60006142d6601583614dd8565b91506142e1826156b2565b602082019050919050565b60006142f9602083614dd8565b9150614304826156db565b602082019050919050565b600061431c600d83614de9565b915061432782615704565b600d82019050919050565b600061433f602c83614dd8565b915061434a8261572d565b604082019050919050565b6000614362601283614de9565b915061436d8261577c565b601282019050919050565b6000614385602083614dd8565b9150614390826157a5565b602082019050919050565b60006143a8602983614dd8565b91506143b3826157ce565b604082019050919050565b60006143cb601f83614dd8565b91506143d68261581d565b602082019050919050565b60006143ee602883614de9565b91506143f982615846565b602882019050919050565b6000614411602183614dd8565b915061441c82615895565b604082019050919050565b6000614434602f83614de9565b915061443f826158e4565b602f82019050919050565b6000614457601d83614de9565b915061446282615933565b601d82019050919050565b600061447a602983614dd8565b91506144858261595c565b604082019050919050565b600061449d603183614dd8565b91506144a8826159ab565b604082019050919050565b60006144c0602e83614de9565b91506144cb826159fa565b602e82019050919050565b60006144e3602c83614dd8565b91506144ee82615a49565b604082019050919050565b6000614506601f83614dd8565b915061451182615a98565b602082019050919050565b6000614529601c83614de9565b915061453482615ac1565b601c82019050919050565b600061454c600683614de9565b915061455782615aea565b600682019050919050565b600061456f601a83614de9565b915061457a82615b13565b601a82019050919050565b6000614592602983614de9565b915061459d82615b3c565b602982019050919050565b600060608301600083015184820360008601526145c58282613db9565b91505060208301516145da6020860182614648565b5060408301516145ed6040860182613d9b565b508091505092915050565b600060608301600083015184820360008601526146158282613db9565b915050602083015161462a6020860182614648565b50604083015161463d6040860182613d9b565b508091505092915050565b61465181614f85565b82525050565b61466081614f85565b82525050565b61466f81614f8f565b82525050565b60006146808261400d565b915061468c8288613f5d565b915061469782614355565b91506146a38287613f5d565b91506146ae82614427565b91506146ba8286613f5d565b91506146c582614102565b91506146d18285613f5d565b91506146dc8261430f565b91506146e782614562565b91506146f38284613f5d565b91506146fe82614283565b91508190509695505050505050565b600061471882614099565b91506147248284613f5d565b915061472f8261453f565b915081905092915050565b600061474582614148565b91506147518284613f5d565b915081905092915050565b60006147678261444a565b91506147738284613f5d565b915081905092915050565b6000614789826144b3565b915061479482614585565b91506147a08284613f8e565b91506147ab826141d4565b91506147b6826143e1565b91506147c1826142a6565b915081905092915050565b60006147d78261451c565b9150819050919050565b60006020820190506147f66000830184613daa565b92915050565b60006020820190506148116000830184613d8c565b92915050565b600060808201905061482c6000830187613daa565b6148396020830186613daa565b6148466040830185614657565b81810360608301526148588184613eb2565b905095945050505050565b6000602082019050818103600083015261487d8184613e2e565b905092915050565b600060208201905061489a6000830184613ea3565b92915050565b600060208201905081810360008301526148ba8184613f24565b905092915050565b600060208201905081810360008301526148db81614030565b9050919050565b600060208201905081810360008301526148fb81614053565b9050919050565b6000602082019050818103600083015261491b81614076565b9050919050565b6000602082019050818103600083015261493b816140bc565b9050919050565b6000602082019050818103600083015261495b816140df565b9050919050565b6000602082019050818103600083015261497b81614125565b9050919050565b6000602082019050818103600083015261499b8161416b565b9050919050565b600060208201905081810360008301526149bb8161418e565b9050919050565b600060208201905081810360008301526149db816141b1565b9050919050565b600060208201905081810360008301526149fb816141f7565b9050919050565b60006020820190508181036000830152614a1b8161421a565b9050919050565b60006020820190508181036000830152614a3b8161423d565b9050919050565b60006020820190508181036000830152614a5b81614260565b9050919050565b60006020820190508181036000830152614a7b816142c9565b9050919050565b60006020820190508181036000830152614a9b816142ec565b9050919050565b60006020820190508181036000830152614abb81614332565b9050919050565b60006020820190508181036000830152614adb81614378565b9050919050565b60006020820190508181036000830152614afb8161439b565b9050919050565b60006020820190508181036000830152614b1b816143be565b9050919050565b60006020820190508181036000830152614b3b81614404565b9050919050565b60006020820190508181036000830152614b5b8161446d565b9050919050565b60006020820190508181036000830152614b7b81614490565b9050919050565b60006020820190508181036000830152614b9b816144d6565b9050919050565b60006020820190508181036000830152614bbb816144f9565b9050919050565b60006020820190508181036000830152614bdc81846145f8565b905092915050565b6000602082019050614bf96000830184614657565b92915050565b6000608082019050614c146000830187614657565b8181036020830152614c268186613f24565b9050614c356040830185614666565b614c426060830184613ea3565b95945050505050565b6000602082019050614c606000830184614666565b92915050565b6000614c70614c81565b9050614c7c828261503a565b919050565b6000604051905090565b600067ffffffffffffffff821115614ca657614ca561519c565b5b602082029050602081019050919050565b600067ffffffffffffffff821115614cd257614cd161519c565b5b614cdb826151cb565b9050602081019050919050565b600067ffffffffffffffff821115614d0357614d0261519c565b5b614d0c826151cb565b9050602081019050919050565b6000819050602082019050919050565b6000819050602082019050919050565b60008190508160005260206000209050919050565b600081519050919050565b600081519050919050565b600081519050919050565b600081519050919050565b6000602082019050919050565b6000602082019050919050565b600082825260208201905092915050565b600082825260208201905092915050565b600082825260208201905092915050565b600082825260208201905092915050565b600082825260208201905092915050565b600081905092915050565b6000614dff82614f85565b9150614e0a83614f85565b9250827fffffffffffffffffffffffffffffffffffffffffffffffffffffffffffffffff03821115614e3f57614e3e61510f565b5b828201905092915050565b6000614e5582614f85565b9150614e6083614f85565b925082614e7057614e6f61513e565b5b828204905092915050565b6000614e8682614f85565b9150614e9183614f85565b9250817fffffffffffffffffffffffffffffffffffffffffffffffffffffffffffffffff0483118215151615614eca57614ec961510f565b5b828202905092915050565b6000614ee082614f85565b9150614eeb83614f85565b925082821015614efe57614efd61510f565b5b828203905092915050565b6000614f1482614f65565b9050919050565b6000614f2682614f65565b9050919050565b60008115159050919050565b60007fffffffff0000000000000000000000000000000000000000000000000000000082169050919050565b600073ffffffffffffffffffffffffffffffffffffffff82169050919050565b6000819050919050565b600060ff82169050919050565b82818337600083830152505050565b60005b83811015614fc9578082015181840152602081019050614fae565b83811115614fd8576000848401525b50505050565b6000614fe982614f85565b91506000821415614ffd57614ffc61510f565b5b600182039050919050565b6000600282049050600182168061502057607f821691505b602082108114156150345761503361516d565b5b50919050565b615043826151cb565b810181811067ffffffffffffffff821117156150625761506161519c565b5b80604052505050565b600061507682614f85565b91507fffffffffffffffffffffffffffffffffffffffffffffffffffffffffffffffff8214156150a9576150a861510f565b5b600182019050919050565b60006150bf82614f8f565b915060ff8214156150d3576150d261510f565b5b600182019050919050565b60006150e982614f85565b91506150f483614f85565b9250826151045761510361513e565b5b828206905092915050565b7f4e487b7100000000000000000000000000000000000000000000000000000000600052601160045260246000fd5b7f4e487b7100000000000000000000000000000000000000000000000000000000600052601260045260246000fd5b7f4e487b7100000000000000000000000000000000000000000000000000000000600052602260045260246000fd5b7f4e487b7100000000000000000000000000000000000000000000000000000000600052604160045260246000fd5b6000601f19601f8301169050919050565b7f7b226e616d65223a220000000000000000000000000000000000000000000000600082015250565b7f6e6f74207269676874206e756d626572206f6620776f72647321000000000000600082015250565b7f455243373231456e756d657261626c653a206f776e657220696e646578206f7560008201527f74206f6620626f756e6473000000000000000000000000000000000000000000602082015250565b7f4552433732313a207472616e7366657220746f206e6f6e20455243373231526560008201527f63656976657220696d706c656d656e7465720000000000000000000000000000602082015250565b7f3c7376672077696474683d2233303022206865696768743d223330302220786d60008201527f6c6e733d22687474703a2f2f7777772e77332e6f72672f323030302f7376672260208201527f3e00000000000000000000000000000000000000000000000000000000000000604082015250565b7f4f776e61626c653a206e6577206f776e657220697320746865207a65726f206160008201527f6464726573730000000000000000000000000000000000000000000000000000602082015250565b7f4552433732313a20746f6b656e20616c7265616479206d696e74656400000000600082015250565b7f222c20226f776e6572223a220000000000000000000000000000000000000000600082015250565b7f4552433732313a207472616e7366657220746f20746865207a65726f2061646460008201527f7265737300000000000000000000000000000000000000000000000000000000602082015250565b7f4d61644c69622023000000000000000000000000000000000000000000000000600082015250565b7f4552433732313a20617070726f766520746f2063616c6c657200000000000000600082015250565b7f4e6f742065786973742100000000000000000000000000000000000000000000600082015250565b7f4552433732313a206f70657261746f7220717565727920666f72206e6f6e657860008201527f697374656e7420746f6b656e0000000000000000000000000000000000000000602082015250565b7f2000000000000000000000000000000000000000000000000000000000000000600082015250565b7f4552433732313a20617070726f76652063616c6c6572206973206e6f74206f7760008201527f6e6572206e6f7220617070726f76656420666f7220616c6c0000000000000000602082015250565b7f4552433732313a2062616c616e636520717565727920666f7220746865207a6560008201527f726f206164647265737300000000000000000000000000000000000000000000602082015250565b7f4552433732313a206f776e657220717565727920666f72206e6f6e657869737460008201527f656e7420746f6b656e0000000000000000000000000000000000000000000000602082015250565b7f506c6179657220616c72656164792068617320612070726f706f73616c20666f60008201527f722074686973204d61644c696221000000000000000000000000000000000000602082015250565b7f227d000000000000000000000000000000000000000000000000000000000000600082015250565b7f3c2f746578743e00000000000000000000000000000000000000000000000000600082015250565b7f796f7520617265206e6f7420746865206f776e65720000000000000000000000600082015250565b7f4552433732313a206d696e7420746f20746865207a65726f2061646472657373600082015250565b7f222c2022696d616765223a202200000000000000000000000000000000000000600082015250565b7f4552433732313a20617070726f76656420717565727920666f72206e6f6e657860008201527f697374656e7420746f6b656e0000000000000000000000000000000000000000602082015250565b7f222c20226465736372697074696f6e223a220000000000000000000000000000600082015250565b7f4f776e61626c653a2063616c6c6572206973206e6f7420746865206f776e6572600082015250565b7f4552433732313a207472616e73666572206f6620746f6b656e2074686174206960008201527f73206e6f74206f776e0000000000000000000000000000000000000000000000602082015250565b7f53656c6563746564204d61644c696220616c726561647920636c6f7365642100600082015250565b7f3c747370616e20783d2231352220793d223835223e5858585858203c2f74737060008201527f616e3e2058585858000000000000000000000000000000000000000000000000602082015250565b7f4552433732313a20617070726f76616c20746f2063757272656e74206f776e6560008201527f7200000000000000000000000000000000000000000000000000000000000000602082015250565b7f222c202265787465726e616c5f75726c223a2268747470733a2f2f6275726e7960008201527f626f79732e636f6d2f746f6b656e2f0000000000000000000000000000000000602082015250565b7f646174613a6170706c69636174696f6e2f6a736f6e3b6261736536342c000000600082015250565b7f50726f706f73616c206d75737420626520666f72206f70656e2f63757272656e60008201527f74204d61644c6962210000000000000000000000000000000000000000000000602082015250565b7f4552433732313a207472616e736665722063616c6c6572206973206e6f74206f60008201527f776e6572206e6f7220617070726f766564000000000000000000000000000000602082015250565b7f3c726563742077696474683d2239392522206865696768743d2239392522206660008201527f696c6c3d22776869746522202f3e000000000000000000000000000000000000602082015250565b7f455243373231456e756d657261626c653a20676c6f62616c20696e646578206f60008201527f7574206f6620626f756e64730000000000000000000000000000000000000000602082015250565b7f50726576696f7573204d61644c6962206e6f7420636c6f736564207965742100600082015250565b7f54686973206973204d61624c6962732047616d65206f6e436861696e00000000600082015250565b7f3c2f7376673e0000000000000000000000000000000000000000000000000000600082015250565b7f646174613a696d6167652f7376672b786d6c3b6261736536342c000000000000600082015250565b7f3c7465787420783d2231352220793d22333022207374796c653d2266696c6c3a60008201527f626c61636b3b223e200000000000000000000000000000000000000000000000602082015250565b615b9481614f09565b8114615b9f57600080fd5b50565b615bab81614f2d565b8114615bb657600080fd5b50565b615bc281614f39565b8114615bcd57600080fd5b50565b615bd981614f85565b8114615be457600080fd5b50565b615bf081614f8f565b8114615bfb57600080fd5b5056fe4142434445464748494a4b4c4d4e4f505152535455565758595a6162636465666768696a6b6c6d6e6f707172737475767778797a303132333435363738392b2fa264697066735822122064ac5d81858f0c1b62012fd60a34b4ab51c2aa9630dbf723176cf8dae1bc83d964736f6c63430008040033",
  "linkReferences": {},
  "deployedLinkReferences": {}
}