{
  "_format": "hh-sol-artifact-1",
  "contractName": "YourCollectible",
  "sourceName": "contracts/YourCollectible.sol",
  "abi": [
    {
      "inputs": [],
      "stateMutability": "nonpayable",
      "type": "constructor"
    },
    {
      "anonymous": false,
      "inputs": [
        {
          "indexed": true,
          "internalType": "address",
          "name": "owner",
          "type": "address"
        },
        {
          "indexed": true,
          "internalType": "address",
          "name": "approved",
          "type": "address"
        },
        {
          "indexed": true,
          "internalType": "uint256",
          "name": "tokenId",
          "type": "uint256"
        }
      ],
      "name": "Approval",
      "type": "event"
    },
    {
      "anonymous": false,
      "inputs": [
        {
          "indexed": true,
          "internalType": "address",
          "name": "owner",
          "type": "address"
        },
        {
          "indexed": true,
          "internalType": "address",
          "name": "operator",
          "type": "address"
        },
        {
          "indexed": false,
          "internalType": "bool",
          "name": "approved",
          "type": "bool"
        }
      ],
      "name": "ApprovalForAll",
      "type": "event"
    },
    {
      "anonymous": false,
      "inputs": [
        {
          "indexed": true,
          "internalType": "address",
          "name": "sender",
          "type": "address"
        },
        {
          "indexed": false,
          "internalType": "string",
          "name": "message",
          "type": "string"
        }
      ],
      "name": "CarServiceDone",
      "type": "event"
    },
    {
      "anonymous": false,
      "inputs": [
        {
          "indexed": true,
          "internalType": "address",
          "name": "previousOwner",
          "type": "address"
        },
        {
          "indexed": true,
          "internalType": "address",
          "name": "newOwner",
          "type": "address"
        }
      ],
      "name": "OwnershipTransferred",
      "type": "event"
    },
    {
      "anonymous": false,
      "inputs": [
        {
          "indexed": true,
          "internalType": "address",
          "name": "from",
          "type": "address"
        },
        {
          "indexed": true,
          "internalType": "address",
          "name": "to",
          "type": "address"
        },
        {
          "indexed": true,
          "internalType": "uint256",
          "name": "tokenId",
          "type": "uint256"
        }
      ],
      "name": "Transfer",
      "type": "event"
    },
    {
      "inputs": [
        {
          "internalType": "address",
          "name": "to",
          "type": "address"
        },
        {
          "internalType": "uint256",
          "name": "tokenId",
          "type": "uint256"
        }
      ],
      "name": "approve",
      "outputs": [],
      "stateMutability": "nonpayable",
      "type": "function"
    },
    {
      "inputs": [
        {
          "internalType": "address",
          "name": "owner",
          "type": "address"
        }
      ],
      "name": "balanceOf",
      "outputs": [
        {
          "internalType": "uint256",
          "name": "",
          "type": "uint256"
        }
      ],
      "stateMutability": "view",
      "type": "function"
    },
    {
      "inputs": [
        {
          "internalType": "uint256",
          "name": "",
          "type": "uint256"
        }
      ],
      "name": "car_services_done",
      "outputs": [
        {
          "internalType": "uint256",
          "name": "",
          "type": "uint256"
        }
      ],
      "stateMutability": "view",
      "type": "function"
    },
    {
      "inputs": [
        {
          "internalType": "uint256",
          "name": "",
          "type": "uint256"
        }
      ],
      "name": "chassis_number",
      "outputs": [
        {
          "internalType": "string",
          "name": "",
          "type": "string"
        }
      ],
      "stateMutability": "view",
      "type": "function"
    },
    {
      "inputs": [
        {
          "internalType": "uint256",
          "name": "_tokenId",
          "type": "uint256"
        },
        {
          "internalType": "string",
          "name": "_license_plate",
          "type": "string"
        },
        {
          "internalType": "string",
          "name": "_chassis",
          "type": "string"
        },
        {
          "internalType": "string",
          "name": "_manufacturer",
          "type": "string"
        },
        {
          "internalType": "string",
          "name": "_model",
          "type": "string"
        },
        {
          "internalType": "string",
          "name": "_year",
          "type": "string"
        }
      ],
      "name": "fillCCC",
      "outputs": [],
      "stateMutability": "nonpayable",
      "type": "function"
    },
    {
      "inputs": [
        {
          "internalType": "uint256",
          "name": "",
          "type": "uint256"
        }
      ],
      "name": "filled",
      "outputs": [
        {
          "internalType": "bool",
          "name": "",
          "type": "bool"
        }
      ],
      "stateMutability": "view",
      "type": "function"
    },
    {
      "inputs": [
        {
          "internalType": "uint256",
          "name": "tokenId",
          "type": "uint256"
        }
      ],
      "name": "getApproved",
      "outputs": [
        {
          "internalType": "address",
          "name": "",
          "type": "address"
        }
      ],
      "stateMutability": "view",
      "type": "function"
    },
    {
      "inputs": [
        {
          "internalType": "address",
          "name": "owner",
          "type": "address"
        },
        {
          "internalType": "address",
          "name": "operator",
          "type": "address"
        }
      ],
      "name": "isApprovedForAll",
      "outputs": [
        {
          "internalType": "bool",
          "name": "",
          "type": "bool"
        }
      ],
      "stateMutability": "view",
      "type": "function"
    },
    {
      "inputs": [
        {
          "internalType": "uint256",
          "name": "",
          "type": "uint256"
        }
      ],
      "name": "km",
      "outputs": [
        {
          "internalType": "uint256",
          "name": "",
          "type": "uint256"
        }
      ],
      "stateMutability": "view",
      "type": "function"
    },
    {
      "inputs": [
        {
          "internalType": "uint256",
          "name": "",
          "type": "uint256"
        },
        {
          "internalType": "uint256",
          "name": "",
          "type": "uint256"
        }
      ],
      "name": "km4service",
      "outputs": [
        {
          "internalType": "uint256",
          "name": "",
          "type": "uint256"
        }
      ],
      "stateMutability": "view",
      "type": "function"
    },
    {
      "inputs": [
        {
          "internalType": "uint256",
          "name": "",
          "type": "uint256"
        }
      ],
      "name": "license_plate",
      "outputs": [
        {
          "internalType": "string",
          "name": "",
          "type": "string"
        }
      ],
      "stateMutability": "view",
      "type": "function"
    },
    {
      "inputs": [
        {
          "internalType": "uint256",
          "name": "_updated_km",
          "type": "uint256"
        },
        {
          "internalType": "uint256",
          "name": "_tokenId",
          "type": "uint256"
        },
        {
          "internalType": "string",
          "name": "_message4services",
          "type": "string"
        }
      ],
      "name": "makeCarService",
      "outputs": [],
      "stateMutability": "nonpayable",
      "type": "function"
    },
    {
      "inputs": [
        {
          "internalType": "uint256",
          "name": "",
          "type": "uint256"
        }
      ],
      "name": "manufacturer",
      "outputs": [
        {
          "internalType": "string",
          "name": "",
          "type": "string"
        }
      ],
      "stateMutability": "view",
      "type": "function"
    },
    {
      "inputs": [],
      "name": "mintItem",
      "outputs": [
        {
          "internalType": "uint256",
          "name": "",
          "type": "uint256"
        }
      ],
      "stateMutability": "payable",
      "type": "function"
    },
    {
      "inputs": [
        {
          "internalType": "uint256",
          "name": "",
          "type": "uint256"
        }
      ],
      "name": "model",
      "outputs": [
        {
          "internalType": "string",
          "name": "",
          "type": "string"
        }
      ],
      "stateMutability": "view",
      "type": "function"
    },
    {
      "inputs": [],
      "name": "name",
      "outputs": [
        {
          "internalType": "string",
          "name": "",
          "type": "string"
        }
      ],
      "stateMutability": "view",
      "type": "function"
    },
    {
      "inputs": [
        {
          "internalType": "uint256",
          "name": "",
          "type": "uint256"
        },
        {
          "internalType": "uint256",
          "name": "",
          "type": "uint256"
        }
      ],
      "name": "note4service",
      "outputs": [
        {
          "internalType": "string",
          "name": "",
          "type": "string"
        }
      ],
      "stateMutability": "view",
      "type": "function"
    },
    {
      "inputs": [],
      "name": "owner",
      "outputs": [
        {
          "internalType": "address",
          "name": "",
          "type": "address"
        }
      ],
      "stateMutability": "view",
      "type": "function"
    },
    {
      "inputs": [
        {
          "internalType": "uint256",
          "name": "tokenId",
          "type": "uint256"
        }
      ],
      "name": "ownerOf",
      "outputs": [
        {
          "internalType": "address",
          "name": "",
          "type": "address"
        }
      ],
      "stateMutability": "view",
      "type": "function"
    },
    {
      "inputs": [
        {
          "internalType": "uint256",
          "name": "",
          "type": "uint256"
        }
      ],
      "name": "past_owners",
      "outputs": [
        {
          "internalType": "uint256",
          "name": "",
          "type": "uint256"
        }
      ],
      "stateMutability": "view",
      "type": "function"
    },
    {
      "inputs": [],
      "name": "price",
      "outputs": [
        {
          "internalType": "uint256",
          "name": "",
          "type": "uint256"
        }
      ],
      "stateMutability": "view",
      "type": "function"
    },
    {
      "inputs": [
        {
          "internalType": "uint256",
          "name": "",
          "type": "uint256"
        }
      ],
      "name": "production_year",
      "outputs": [
        {
          "internalType": "string",
          "name": "",
          "type": "string"
        }
      ],
      "stateMutability": "view",
      "type": "function"
    },
    {
      "inputs": [],
      "name": "recipient",
      "outputs": [
        {
          "internalType": "address payable",
          "name": "",
          "type": "address"
        }
      ],
      "stateMutability": "view",
      "type": "function"
    },
    {
      "inputs": [
        {
          "internalType": "uint256",
          "name": "_id",
          "type": "uint256"
        }
      ],
      "name": "renderTokenById",
      "outputs": [
        {
          "internalType": "string",
          "name": "",
          "type": "string"
        }
      ],
      "stateMutability": "view",
      "type": "function"
    },
    {
      "inputs": [],
      "name": "renounceOwnership",
      "outputs": [],
      "stateMutability": "nonpayable",
      "type": "function"
    },
    {
      "inputs": [
        {
          "internalType": "address",
          "name": "from",
          "type": "address"
        },
        {
          "internalType": "address",
          "name": "to",
          "type": "address"
        },
        {
          "internalType": "uint256",
          "name": "tokenId",
          "type": "uint256"
        }
      ],
      "name": "safeTransferFrom",
      "outputs": [],
      "stateMutability": "nonpayable",
      "type": "function"
    },
    {
      "inputs": [
        {
          "internalType": "address",
          "name": "from",
          "type": "address"
        },
        {
          "internalType": "address",
          "name": "to",
          "type": "address"
        },
        {
          "internalType": "uint256",
          "name": "tokenId",
          "type": "uint256"
        },
        {
          "internalType": "bytes",
          "name": "_data",
          "type": "bytes"
        }
      ],
      "name": "safeTransferFrom",
      "outputs": [],
      "stateMutability": "nonpayable",
      "type": "function"
    },
    {
      "inputs": [
        {
          "internalType": "address",
          "name": "operator",
          "type": "address"
        },
        {
          "internalType": "bool",
          "name": "approved",
          "type": "bool"
        }
      ],
      "name": "setApprovalForAll",
      "outputs": [],
      "stateMutability": "nonpayable",
      "type": "function"
    },
    {
      "inputs": [
        {
          "internalType": "bytes4",
          "name": "interfaceId",
          "type": "bytes4"
        }
      ],
      "name": "supportsInterface",
      "outputs": [
        {
          "internalType": "bool",
          "name": "",
          "type": "bool"
        }
      ],
      "stateMutability": "view",
      "type": "function"
    },
    {
      "inputs": [],
      "name": "symbol",
      "outputs": [
        {
          "internalType": "string",
          "name": "",
          "type": "string"
        }
      ],
      "stateMutability": "view",
      "type": "function"
    },
    {
      "inputs": [
        {
          "internalType": "uint256",
          "name": "index",
          "type": "uint256"
        }
      ],
      "name": "tokenByIndex",
      "outputs": [
        {
          "internalType": "uint256",
          "name": "",
          "type": "uint256"
        }
      ],
      "stateMutability": "view",
      "type": "function"
    },
    {
      "inputs": [
        {
          "internalType": "address",
          "name": "owner",
          "type": "address"
        },
        {
          "internalType": "uint256",
          "name": "index",
          "type": "uint256"
        }
      ],
      "name": "tokenOfOwnerByIndex",
      "outputs": [
        {
          "internalType": "uint256",
          "name": "",
          "type": "uint256"
        }
      ],
      "stateMutability": "view",
      "type": "function"
    },
    {
      "inputs": [
        {
          "internalType": "uint256",
          "name": "id",
          "type": "uint256"
        }
      ],
      "name": "tokenURI",
      "outputs": [
        {
          "internalType": "string",
          "name": "",
          "type": "string"
        }
      ],
      "stateMutability": "view",
      "type": "function"
    },
    {
      "inputs": [],
      "name": "totalSupply",
      "outputs": [
        {
          "internalType": "uint256",
          "name": "",
          "type": "uint256"
        }
      ],
      "stateMutability": "view",
      "type": "function"
    },
    {
      "inputs": [
        {
          "internalType": "address",
          "name": "from",
          "type": "address"
        },
        {
          "internalType": "address",
          "name": "to",
          "type": "address"
        },
        {
          "internalType": "uint256",
          "name": "tokenId",
          "type": "uint256"
        }
      ],
      "name": "transferFrom",
      "outputs": [],
      "stateMutability": "nonpayable",
      "type": "function"
    },
    {
      "inputs": [
        {
          "internalType": "address",
          "name": "newOwner",
          "type": "address"
        }
      ],
      "name": "transferOwnership",
      "outputs": [],
      "stateMutability": "nonpayable",
      "type": "function"
    }
  ],
  "bytecode": "0x608060405266038d7ea4c68000600c553480156200001c57600080fd5b506040518060400160405280601981526020017f4361722043657274696669636174696f6e206f6e436861696e000000000000008152506040518060400160405280600381526020017f43434300000000000000000000000000000000000000000000000000000000008152508160009080519060200190620000a1929190620001b1565b508060019080519060200190620000ba929190620001b1565b505050620000dd620000d1620000e360201b60201c565b620000eb60201b60201c565b620002c6565b600033905090565b6000600a60009054906101000a900473ffffffffffffffffffffffffffffffffffffffff16905081600a60006101000a81548173ffffffffffffffffffffffffffffffffffffffff021916908373ffffffffffffffffffffffffffffffffffffffff1602179055508173ffffffffffffffffffffffffffffffffffffffff168173ffffffffffffffffffffffffffffffffffffffff167f8be0079c531659141344cd1fd0a4f28419497f9722a3daafe3b4186f6b6457e060405160405180910390a35050565b828054620001bf9062000261565b90600052602060002090601f016020900481019282620001e357600085556200022f565b82601f10620001fe57805160ff19168380011785556200022f565b828001600101855582156200022f579182015b828111156200022e57825182559160200191906001019062000211565b5b5090506200023e919062000242565b5090565b5b808211156200025d57600081600090555060010162000243565b5090565b600060028204905060018216806200027a57607f821691505b6020821081141562000291576200029062000297565b5b50919050565b7f4e487b7100000000000000000000000000000000000000000000000000000000600052602260045260246000fd5b615fbb80620002d66000396000f3fe60806040526004361061020f5760003560e01c80638da5cb5b11610118578063bc379fc8116100a0578063c87b56dd1161006f578063c87b56dd14610859578063c97fb8ed14610896578063e985e9c5146108d3578063eb93406b14610910578063f2fde38b1461092e5761020f565b8063bc379fc814610779578063c2e20011146107b6578063c673682f146107f3578063c6fad3b4146108305761020f565b8063a2d6c6da116100e7578063a2d6c6da1461065c578063a43271b914610699578063a9436bfd146106d6578063b09a676c14610713578063b88d4fde146107505761020f565b80638da5cb5b146105b257806395d89b41146105dd578063a035b1fe14610608578063a22cb465146106335761020f565b80634c5770d91161019b5780636f1a859a1161016a5780636f1a859a146104bb57806370a08231146104f8578063715018a614610535578063808ab6c91461054c5780638cc18fe7146105755761020f565b80634c5770d9146103d95780634f6ccce7146104165780636352211e1461045357806366d003ac146104905761020f565b80631746e673116101e25780631746e673146102e257806318160ddd1461031f57806323b872dd1461034a5780632f745c591461037357806342842e0e146103b05761020f565b806301ffc9a71461021457806306fdde0314610251578063081812fc1461027c578063095ea7b3146102b9575b600080fd5b34801561022057600080fd5b5061023b60048036038101906102369190613b99565b610957565b6040516102489190614992565b60405180910390f35b34801561025d57600080fd5b506102666109d1565b60405161027391906149ad565b60405180910390f35b34801561028857600080fd5b506102a3600480360381019061029e9190613beb565b610a63565b6040516102b09190614910565b60405180910390f35b3480156102c557600080fd5b506102e060048036038101906102db9190613b5d565b610ae8565b005b3480156102ee57600080fd5b5061030960048036038101906103049190613d15565b610c00565b6040516103169190614caf565b60405180910390f35b34801561032b57600080fd5b50610334610c25565b6040516103419190614caf565b60405180910390f35b34801561035657600080fd5b50610371600480360381019061036c9190613a57565b610c32565b005b34801561037f57600080fd5b5061039a60048036038101906103959190613b5d565b610c92565b6040516103a79190614caf565b60405180910390f35b3480156103bc57600080fd5b506103d760048036038101906103d29190613a57565b610d37565b005b3480156103e557600080fd5b5061040060048036038101906103fb9190613beb565b610d57565b60405161040d91906149ad565b60405180910390f35b34801561042257600080fd5b5061043d60048036038101906104389190613beb565b610df7565b60405161044a9190614caf565b60405180910390f35b34801561045f57600080fd5b5061047a60048036038101906104759190613beb565b610e8e565b6040516104879190614910565b60405180910390f35b34801561049c57600080fd5b506104a5610f40565b6040516104b2919061492b565b60405180910390f35b3480156104c757600080fd5b506104e260048036038101906104dd9190613beb565b610f58565b6040516104ef9190614992565b60405180910390f35b34801561050457600080fd5b5061051f600480360381019061051a91906139f2565b610f78565b60405161052c9190614caf565b60405180910390f35b34801561054157600080fd5b5061054a611030565b005b34801561055857600080fd5b50610573600480360381019061056e9190613d51565b6110b8565b005b34801561058157600080fd5b5061059c60048036038101906105979190613beb565b61129f565b6040516105a99190614caf565b60405180910390f35b3480156105be57600080fd5b506105c76112b7565b6040516105d49190614910565b60405180910390f35b3480156105e957600080fd5b506105f26112e1565b6040516105ff91906149ad565b60405180910390f35b34801561061457600080fd5b5061061d611373565b60405161062a9190614caf565b60405180910390f35b34801561063f57600080fd5b5061065a60048036038101906106559190613b21565b611379565b005b34801561066857600080fd5b50610683600480360381019061067e9190613beb565b6114fa565b60405161069091906149ad565b60405180910390f35b3480156106a557600080fd5b506106c060048036038101906106bb9190613beb565b61164c565b6040516106cd91906149ad565b60405180910390f35b3480156106e257600080fd5b506106fd60048036038101906106f89190613d15565b6116ec565b60405161070a91906149ad565b60405180910390f35b34801561071f57600080fd5b5061073a60048036038101906107359190613beb565b611799565b6040516107479190614caf565b60405180910390f35b34801561075c57600080fd5b5061077760048036038101906107729190613aa6565b6117b1565b005b34801561078557600080fd5b506107a0600480360381019061079b9190613beb565b611813565b6040516107ad91906149ad565b60405180910390f35b3480156107c257600080fd5b506107dd60048036038101906107d89190613beb565b6118b3565b6040516107ea91906149ad565b60405180910390f35b3480156107ff57600080fd5b5061081a60048036038101906108159190613beb565b611953565b6040516108279190614caf565b60405180910390f35b34801561083c57600080fd5b5061085760048036038101906108529190613c14565b61196b565b005b34801561086557600080fd5b50610880600480360381019061087b9190613beb565b611b28565b60405161088d91906149ad565b60405180910390f35b3480156108a257600080fd5b506108bd60048036038101906108b89190613beb565b611c67565b6040516108ca91906149ad565b60405180910390f35b3480156108df57600080fd5b506108fa60048036038101906108f59190613a1b565b611d07565b6040516109079190614992565b60405180910390f35b610918611d9b565b6040516109259190614caf565b60405180910390f35b34801561093a57600080fd5b50610955600480360381019061095091906139f2565b611ef8565b005b60007f780e9d63000000000000000000000000000000000000000000000000000000007bffffffffffffffffffffffffffffffffffffffffffffffffffffffff1916827bffffffffffffffffffffffffffffffffffffffffffffffffffffffff191614806109ca57506109c982611ff0565b5b9050919050565b6060600080546109e090614fff565b80601f0160208091040260200160405190810160405280929190818152602001828054610a0c90614fff565b8015610a595780601f10610a2e57610100808354040283529160200191610a59565b820191906000526020600020905b815481529060010190602001808311610a3c57829003601f168201915b5050505050905090565b6000610a6e826120d2565b610aad576040517f08c379a0000000000000000000000000000000000000000000000000000000008152600401610aa490614bcf565b60405180910390fd5b6004600083815260200190815260200160002060009054906101000a900473ffffffffffffffffffffffffffffffffffffffff169050919050565b6000610af382610e8e565b90508073ffffffffffffffffffffffffffffffffffffffff168373ffffffffffffffffffffffffffffffffffffffff161415610b64576040517f08c379a0000000000000000000000000000000000000000000000000000000008152600401610b5b90614c4f565b60405180910390fd5b8073ffffffffffffffffffffffffffffffffffffffff16610b8361213e565b73ffffffffffffffffffffffffffffffffffffffff161480610bb25750610bb181610bac61213e565b611d07565b5b610bf1576040517f08c379a0000000000000000000000000000000000000000000000000000000008152600401610be890614b2f565b60405180910390fd5b610bfb8383612146565b505050565b6011602052816000526040600020602052806000526040600020600091509150505481565b6000600880549050905090565b610c43610c3d61213e565b826121ff565b610c82576040517f08c379a0000000000000000000000000000000000000000000000000000000008152600401610c7990614c6f565b60405180910390fd5b610c8d8383836122dd565b505050565b6000610c9d83610f78565b8210610cde576040517f08c379a0000000000000000000000000000000000000000000000000000000008152600401610cd590614a0f565b60405180910390fd5b600660008473ffffffffffffffffffffffffffffffffffffffff1673ffffffffffffffffffffffffffffffffffffffff168152602001908152602001600020600083815260200190815260200160002054905092915050565b610d52838383604051806020016040528060008152506117b1565b505050565b60156020528060005260406000206000915090508054610d7690614fff565b80601f0160208091040260200160405190810160405280929190818152602001828054610da290614fff565b8015610def5780601f10610dc457610100808354040283529160200191610def565b820191906000526020600020905b815481529060010190602001808311610dd257829003601f168201915b505050505081565b6000610e01610c25565b8210610e42576040517f08c379a0000000000000000000000000000000000000000000000000000000008152600401610e3990614c8f565b60405180910390fd5b60088281548110610e7c577f4e487b7100000000000000000000000000000000000000000000000000000000600052603260045260246000fd5b90600052602060002001549050919050565b6000806002600084815260200190815260200160002060009054906101000a900473ffffffffffffffffffffffffffffffffffffffff169050600073ffffffffffffffffffffffffffffffffffffffff168173ffffffffffffffffffffffffffffffffffffffff161415610f37576040517f08c379a0000000000000000000000000000000000000000000000000000000008152600401610f2e90614b6f565b60405180910390fd5b80915050919050565b73a81a6a910fed20374361b35c451a4a44f86ced4681565b600e6020528060005260406000206000915054906101000a900460ff1681565b60008073ffffffffffffffffffffffffffffffffffffffff168273ffffffffffffffffffffffffffffffffffffffff161415610fe9576040517f08c379a0000000000000000000000000000000000000000000000000000000008152600401610fe090614b4f565b60405180910390fd5b600360008373ffffffffffffffffffffffffffffffffffffffff1673ffffffffffffffffffffffffffffffffffffffff168152602001908152602001600020549050919050565b61103861213e565b73ffffffffffffffffffffffffffffffffffffffff166110566112b7565b73ffffffffffffffffffffffffffffffffffffffff16146110ac576040517f08c379a00000000000000000000000000000000000000000000000000000000081526004016110a390614bef565b60405180910390fd5b6110b66000612318565b565b3373ffffffffffffffffffffffffffffffffffffffff166110d883610e8e565b73ffffffffffffffffffffffffffffffffffffffff161461112e576040517f08c379a0000000000000000000000000000000000000000000000000000000008152600401611125906149ef565b60405180910390fd5b600f6000838152602001908152602001600020548311611183576040517f08c379a000000000000000000000000000000000000000000000000000000000815260040161117a90614b8f565b60405180910390fd5b82600f60008481526020019081526020016000208190555060016010600084815260200190815260200160002060008282546111bf9190614db4565b925050819055508260116000848152602001908152602001600020600060106000868152602001908152602001600020548152602001908152602001600020819055508060126000848152602001908152602001600020600060106000868152602001908152602001600020548152602001908152602001600020908051906020019061124d929190613816565b503373ffffffffffffffffffffffffffffffffffffffff167f7132a69ea7bd730e7034de8a2446d58dc387567ff160715e51b7a9ef9a50d564604051611292906149cf565b60405180910390a2505050565b600f6020528060005260406000206000915090505481565b6000600a60009054906101000a900473ffffffffffffffffffffffffffffffffffffffff16905090565b6060600180546112f090614fff565b80601f016020809104026020016040519081016040528092919081815260200182805461131c90614fff565b80156113695780601f1061133e57610100808354040283529160200191611369565b820191906000526020600020905b81548152906001019060200180831161134c57829003601f168201915b5050505050905090565b600c5481565b61138161213e565b73ffffffffffffffffffffffffffffffffffffffff168273ffffffffffffffffffffffffffffffffffffffff1614156113ef576040517f08c379a00000000000000000000000000000000000000000000000000000000081526004016113e690614acf565b60405180910390fd5b80600560006113fc61213e565b73ffffffffffffffffffffffffffffffffffffffff1673ffffffffffffffffffffffffffffffffffffffff16815260200190815260200160002060008473ffffffffffffffffffffffffffffffffffffffff1673ffffffffffffffffffffffffffffffffffffffff16815260200190815260200160002060006101000a81548160ff0219169083151502179055508173ffffffffffffffffffffffffffffffffffffffff166114a961213e565b73ffffffffffffffffffffffffffffffffffffffff167f17307eab39ab6107e8899845ad3d59bd9653f200f220920489ca2b5937696c31836040516114ee9190614992565b60405180910390a35050565b606060011515600e600084815260200190815260200160002060009054906101000a900460ff16151514156116265761154560176000848152602001908152602001600020546123de565b6014600084815260200190815260200160002060156000858152602001908152602001600020600d600086815260200190815260200160002060136000878152602001908152602001600020601660008881526020019081526020016000206115c0600f60008a8152602001908152602001600020546124b8565b6115dc601060008b8152602001908152602001600020546124b8565b6115f8601760008c8152602001908152602001600020546124b8565b60405160200161161099989796959493929190614752565b6040516020818303038152906040529050611647565b604051602001611635906148a4565b60405160208183030381529060405290505b919050565b6014602052806000526040600020600091509050805461166b90614fff565b80601f016020809104026020016040519081016040528092919081815260200182805461169790614fff565b80156116e45780601f106116b9576101008083540402835291602001916116e4565b820191906000526020600020905b8154815290600101906020018083116116c757829003601f168201915b505050505081565b601260205281600052604060002060205280600052604060002060009150915050805461171890614fff565b80601f016020809104026020016040519081016040528092919081815260200182805461174490614fff565b80156117915780601f1061176657610100808354040283529160200191611791565b820191906000526020600020905b81548152906001019060200180831161177457829003601f168201915b505050505081565b60106020528060005260406000206000915090505481565b6117c26117bc61213e565b836121ff565b611801576040517f08c379a00000000000000000000000000000000000000000000000000000000081526004016117f890614c6f565b60405180910390fd5b61180d8484848461268d565b50505050565b6013602052806000526040600020600091509050805461183290614fff565b80601f016020809104026020016040519081016040528092919081815260200182805461185e90614fff565b80156118ab5780601f10611880576101008083540402835291602001916118ab565b820191906000526020600020905b81548152906001019060200180831161188e57829003601f168201915b505050505081565b601660205280600052604060002060009150905080546118d290614fff565b80601f01602080910402602001604051908101604052809291908181526020018280546118fe90614fff565b801561194b5780601f106119205761010080835404028352916020019161194b565b820191906000526020600020905b81548152906001019060200180831161192e57829003601f168201915b505050505081565b60176020528060005260406000206000915090505481565b3373ffffffffffffffffffffffffffffffffffffffff1661198b87610e8e565b73ffffffffffffffffffffffffffffffffffffffff16146119e1576040517f08c379a00000000000000000000000000000000000000000000000000000000081526004016119d8906149ef565b60405180910390fd5b84600d60008881526020019081526020016000209080519060200190611a08929190613816565b506000600f600088815260200190815260200160002081905550600060106000888152602001908152602001600020819055506000601760008881526020019081526020016000208190555083601360008881526020019081526020016000209080519060200190611a7b929190613816565b5082601460008881526020019081526020016000209080519060200190611aa3929190613816565b5081601560008881526020019081526020016000209080519060200190611acb929190613816565b5080601660008881526020019081526020016000209080519060200190611af3929190613816565b506001600e600088815260200190815260200160002060006101000a81548160ff021916908315150217905550505050505050565b6060611b33826120d2565b611b72576040517f08c379a0000000000000000000000000000000000000000000000000000000008152600401611b6990614b0f565b60405180910390fd5b6000611b7d836126e9565b604051602001611b8d9190614860565b60405160208183030381529060405290506000604051602001611baf9061473d565b60405160208183030381529060405290506000611bd3611bce86612896565b6128cd565b9050611c3e8383611be3886126e9565b611c156014611bf18b610e8e565b73ffffffffffffffffffffffffffffffffffffffff16612a6c90919063ffffffff16565b85604051602001611c2a959493929190614678565b6040516020818303038152906040526128cd565b604051602001611c4e9190614882565b6040516020818303038152906040529350505050919050565b600d6020528060005260406000206000915090508054611c8690614fff565b80601f0160208091040260200160405190810160405280929190818152602001828054611cb290614fff565b8015611cff5780601f10611cd457610100808354040283529160200191611cff565b820191906000526020600020905b815481529060010190602001808311611ce257829003601f168201915b505050505081565b6000600560008473ffffffffffffffffffffffffffffffffffffffff1673ffffffffffffffffffffffffffffffffffffffff16815260200190815260200160002060008373ffffffffffffffffffffffffffffffffffffffff1673ffffffffffffffffffffffffffffffffffffffff16815260200190815260200160002060009054906101000a900460ff16905092915050565b6000600c54341015611de2576040517f08c379a0000000000000000000000000000000000000000000000000000000008152600401611dd990614c2f565b60405180910390fd5b611dec600b612d23565b6000611df8600b612d39565b9050611e043382612d47565b6000600e600083815260200190815260200160002060006101000a81548160ff021916908315150217905550600073a81a6a910fed20374361b35c451a4a44f86ced4673ffffffffffffffffffffffffffffffffffffffff1634604051611e6a906148fb565b60006040518083038185875af1925050503d8060008114611ea7576040519150601f19603f3d011682016040523d82523d6000602084013e611eac565b606091505b5050905080611ef0576040517f08c379a0000000000000000000000000000000000000000000000000000000008152600401611ee790614a2f565b60405180910390fd5b819250505090565b611f0061213e565b73ffffffffffffffffffffffffffffffffffffffff16611f1e6112b7565b73ffffffffffffffffffffffffffffffffffffffff1614611f74576040517f08c379a0000000000000000000000000000000000000000000000000000000008152600401611f6b90614bef565b60405180910390fd5b600073ffffffffffffffffffffffffffffffffffffffff168173ffffffffffffffffffffffffffffffffffffffff161415611fe4576040517f08c379a0000000000000000000000000000000000000000000000000000000008152600401611fdb90614a6f565b60405180910390fd5b611fed81612318565b50565b60007f80ac58cd000000000000000000000000000000000000000000000000000000007bffffffffffffffffffffffffffffffffffffffffffffffffffffffff1916827bffffffffffffffffffffffffffffffffffffffffffffffffffffffff191614806120bb57507f5b5e139f000000000000000000000000000000000000000000000000000000007bffffffffffffffffffffffffffffffffffffffffffffffffffffffff1916827bffffffffffffffffffffffffffffffffffffffffffffffffffffffff1916145b806120cb57506120ca82612f15565b5b9050919050565b60008073ffffffffffffffffffffffffffffffffffffffff166002600084815260200190815260200160002060009054906101000a900473ffffffffffffffffffffffffffffffffffffffff1673ffffffffffffffffffffffffffffffffffffffff1614159050919050565b600033905090565b816004600083815260200190815260200160002060006101000a81548173ffffffffffffffffffffffffffffffffffffffff021916908373ffffffffffffffffffffffffffffffffffffffff160217905550808273ffffffffffffffffffffffffffffffffffffffff166121b983610e8e565b73ffffffffffffffffffffffffffffffffffffffff167f8c5be1e5ebec7d5bd14f71427d1e84f3dd0314c0f7b2291e5b200ac8c7c3b92560405160405180910390a45050565b600061220a826120d2565b612249576040517f08c379a000000000000000000000000000000000000000000000000000000000815260040161224090614aef565b60405180910390fd5b600061225483610e8e565b90508073ffffffffffffffffffffffffffffffffffffffff168473ffffffffffffffffffffffffffffffffffffffff1614806122c357508373ffffffffffffffffffffffffffffffffffffffff166122ab84610a63565b73ffffffffffffffffffffffffffffffffffffffff16145b806122d457506122d38185611d07565b5b91505092915050565b60016017600083815260200190815260200160002060008282546123019190614db4565b92505081905550612313838383612f7f565b505050565b6000600a60009054906101000a900473ffffffffffffffffffffffffffffffffffffffff16905081600a60006101000a81548173ffffffffffffffffffffffffffffffffffffffff021916908373ffffffffffffffffffffffffffffffffffffffff1602179055508173ffffffffffffffffffffffffffffffffffffffff168173ffffffffffffffffffffffffffffffffffffffff167f8be0079c531659141344cd1fd0a4f28419497f9722a3daafe3b4186f6b6457e060405160405180910390a35050565b60606000821415612426576040518060400160405280600481526020017f676f6c640000000000000000000000000000000000000000000000000000000081525090506124b3565b60018210158015612438575060038211155b1561247a576040518060400160405280600681526020017f73696c766572000000000000000000000000000000000000000000000000000081525090506124b3565b6040518060400160405280600681526020017f6f72616e6765000000000000000000000000000000000000000000000000000081525090505b919050565b60606000821415612500576040518060400160405280600181526020017f30000000000000000000000000000000000000000000000000000000000000008152509050612688565b600082905060005b6000821461253257808061251b90615062565b915050600a8261252b9190614e41565b9150612508565b60008167ffffffffffffffff811115612574577f4e487b7100000000000000000000000000000000000000000000000000000000600052604160045260246000fd5b6040519080825280601f01601f1916602001820160405280156125a65781602001600182028036833780820191505090505b50905060008290505b60008614612680576001816125c49190614ecc565b90506000600a80886125d69190614e41565b6125e09190614e72565b876125eb9190614ecc565b60306125f79190614e0a565b905060008160f81b90508084848151811061263b577f4e487b7100000000000000000000000000000000000000000000000000000000600052603260045260246000fd5b60200101907effffffffffffffffffffffffffffffffffffffffffffffffffffffffffffff1916908160001a905350600a886126779190614e41565b975050506125af565b819450505050505b919050565b6126988484846122dd565b6126a4848484846131db565b6126e3576040517f08c379a00000000000000000000000000000000000000000000000000000000081526004016126da90614a4f565b60405180910390fd5b50505050565b60606000821415612731576040518060400160405280600181526020017f30000000000000000000000000000000000000000000000000000000000000008152509050612891565b600082905060005b6000821461276357808061274c90615062565b915050600a8261275c9190614e41565b9150612739565b60008167ffffffffffffffff8111156127a5577f4e487b7100000000000000000000000000000000000000000000000000000000600052604160045260246000fd5b6040519080825280601f01601f1916602001820160405280156127d75781602001600182028036833780820191505090505b5090505b6000851461288a576001826127f09190614ecc565b9150600a856127ff91906150ab565b603061280b9190614db4565b60f81b818381518110612847577f4e487b7100000000000000000000000000000000000000000000000000000000600052603260045260246000fd5b60200101907effffffffffffffffffffffffffffffffffffffffffffffffffffffffffffff1916908160001a905350600a856128839190614e41565b94506127db565b8093505050505b919050565b606060006128a3836114fa565b6040516020016128b39190614710565b604051602081830303815290604052905080915050919050565b60606000825114156128f057604051806020016040528060008152509050612a67565b6000604051806060016040528060408152602001615f46604091399050600060036002855161291f9190614db4565b6129299190614e41565b60046129359190614e72565b905060006020826129469190614db4565b67ffffffffffffffff811115612985577f4e487b7100000000000000000000000000000000000000000000000000000000600052604160045260246000fd5b6040519080825280601f01601f1916602001820160405280156129b75781602001600182028036833780820191505090505b509050818152600183018586518101602084015b81831015612a26576003830192508251603f8160121c168501518253600182019150603f81600c1c168501518253600182019150603f8160061c168501518253600182019150603f81168501518253600182019150506129cb565b600389510660018114612a405760028114612a5057612a5b565b613d3d60f01b6002830352612a5b565b603d60f81b60018303525b50505050508093505050505b919050565b606060006002836002612a7f9190614e72565b612a899190614db4565b67ffffffffffffffff811115612ac8577f4e487b7100000000000000000000000000000000000000000000000000000000600052604160045260246000fd5b6040519080825280601f01601f191660200182016040528015612afa5781602001600182028036833780820191505090505b5090507f300000000000000000000000000000000000000000000000000000000000000081600081518110612b58577f4e487b7100000000000000000000000000000000000000000000000000000000600052603260045260246000fd5b60200101907effffffffffffffffffffffffffffffffffffffffffffffffffffffffffffff1916908160001a9053507f780000000000000000000000000000000000000000000000000000000000000081600181518110612be2577f4e487b7100000000000000000000000000000000000000000000000000000000600052603260045260246000fd5b60200101907effffffffffffffffffffffffffffffffffffffffffffffffffffffffffffff1916908160001a90535060006001846002612c229190614e72565b612c2c9190614db4565b90505b6001811115612d18577f3031323334353637383961626364656600000000000000000000000000000000600f861660108110612c94577f4e487b7100000000000000000000000000000000000000000000000000000000600052603260045260246000fd5b1a60f81b828281518110612cd1577f4e487b7100000000000000000000000000000000000000000000000000000000600052603260045260246000fd5b60200101907effffffffffffffffffffffffffffffffffffffffffffffffffffffffffffff1916908160001a905350600485901c945080612d1190614fd5565b9050612c2f565b508091505092915050565b6001816000016000828254019250508190555050565b600081600001549050919050565b600073ffffffffffffffffffffffffffffffffffffffff168273ffffffffffffffffffffffffffffffffffffffff161415612db7576040517f08c379a0000000000000000000000000000000000000000000000000000000008152600401612dae90614baf565b60405180910390fd5b612dc0816120d2565b15612e00576040517f08c379a0000000000000000000000000000000000000000000000000000000008152600401612df790614a8f565b60405180910390fd5b612e0c60008383613372565b6001600360008473ffffffffffffffffffffffffffffffffffffffff1673ffffffffffffffffffffffffffffffffffffffff1681526020019081526020016000206000828254612e5c9190614db4565b92505081905550816002600083815260200190815260200160002060006101000a81548173ffffffffffffffffffffffffffffffffffffffff021916908373ffffffffffffffffffffffffffffffffffffffff160217905550808273ffffffffffffffffffffffffffffffffffffffff16600073ffffffffffffffffffffffffffffffffffffffff167fddf252ad1be2c89b69c2b068fc378daa952ba7f163c4a11628f55a4df523b3ef60405160405180910390a45050565b60007f01ffc9a7000000000000000000000000000000000000000000000000000000007bffffffffffffffffffffffffffffffffffffffffffffffffffffffff1916827bffffffffffffffffffffffffffffffffffffffffffffffffffffffff1916149050919050565b8273ffffffffffffffffffffffffffffffffffffffff16612f9f82610e8e565b73ffffffffffffffffffffffffffffffffffffffff1614612ff5576040517f08c379a0000000000000000000000000000000000000000000000000000000008152600401612fec90614c0f565b60405180910390fd5b600073ffffffffffffffffffffffffffffffffffffffff168273ffffffffffffffffffffffffffffffffffffffff161415613065576040517f08c379a000000000000000000000000000000000000000000000000000000000815260040161305c90614aaf565b60405180910390fd5b613070838383613372565b61307b600082612146565b6001600360008573ffffffffffffffffffffffffffffffffffffffff1673ffffffffffffffffffffffffffffffffffffffff16815260200190815260200160002060008282546130cb9190614ecc565b925050819055506001600360008473ffffffffffffffffffffffffffffffffffffffff1673ffffffffffffffffffffffffffffffffffffffff16815260200190815260200160002060008282546131229190614db4565b92505081905550816002600083815260200190815260200160002060006101000a81548173ffffffffffffffffffffffffffffffffffffffff021916908373ffffffffffffffffffffffffffffffffffffffff160217905550808273ffffffffffffffffffffffffffffffffffffffff168473ffffffffffffffffffffffffffffffffffffffff167fddf252ad1be2c89b69c2b068fc378daa952ba7f163c4a11628f55a4df523b3ef60405160405180910390a4505050565b60006131fc8473ffffffffffffffffffffffffffffffffffffffff16613486565b15613365578373ffffffffffffffffffffffffffffffffffffffff1663150b7a0261322561213e565b8786866040518563ffffffff1660e01b81526004016132479493929190614946565b602060405180830381600087803b15801561326157600080fd5b505af192505050801561329257506040513d601f19601f8201168201806040525081019061328f9190613bc2565b60015b613315573d80600081146132c2576040519150601f19603f3d011682016040523d82523d6000602084013e6132c7565b606091505b5060008151141561330d576040517f08c379a000000000000000000000000000000000000000000000000000000000815260040161330490614a4f565b60405180910390fd5b805181602001fd5b63150b7a0260e01b7bffffffffffffffffffffffffffffffffffffffffffffffffffffffff1916817bffffffffffffffffffffffffffffffffffffffffffffffffffffffff19161491505061336a565b600190505b949350505050565b61337d838383613499565b600073ffffffffffffffffffffffffffffffffffffffff168373ffffffffffffffffffffffffffffffffffffffff1614156133c0576133bb8161349e565b6133ff565b8173ffffffffffffffffffffffffffffffffffffffff168373ffffffffffffffffffffffffffffffffffffffff16146133fe576133fd83826134e7565b5b5b600073ffffffffffffffffffffffffffffffffffffffff168273ffffffffffffffffffffffffffffffffffffffff1614156134425761343d81613654565b613481565b8273ffffffffffffffffffffffffffffffffffffffff168273ffffffffffffffffffffffffffffffffffffffff16146134805761347f8282613797565b5b5b505050565b600080823b905060008111915050919050565b505050565b6008805490506009600083815260200190815260200160002081905550600881908060018154018082558091505060019003906000526020600020016000909190919091505550565b600060016134f484610f78565b6134fe9190614ecc565b90506000600760008481526020019081526020016000205490508181146135e3576000600660008673ffffffffffffffffffffffffffffffffffffffff1673ffffffffffffffffffffffffffffffffffffffff168152602001908152602001600020600084815260200190815260200160002054905080600660008773ffffffffffffffffffffffffffffffffffffffff1673ffffffffffffffffffffffffffffffffffffffff168152602001908152602001600020600084815260200190815260200160002081905550816007600083815260200190815260200160002081905550505b6007600084815260200190815260200160002060009055600660008573ffffffffffffffffffffffffffffffffffffffff1673ffffffffffffffffffffffffffffffffffffffff16815260200190815260200160002060008381526020019081526020016000206000905550505050565b600060016008805490506136689190614ecc565b90506000600960008481526020019081526020016000205490506000600883815481106136be577f4e487b7100000000000000000000000000000000000000000000000000000000600052603260045260246000fd5b906000526020600020015490508060088381548110613706577f4e487b7100000000000000000000000000000000000000000000000000000000600052603260045260246000fd5b90600052602060002001819055508160096000838152602001908152602001600020819055506009600085815260200190815260200160002060009055600880548061377b577f4e487b7100000000000000000000000000000000000000000000000000000000600052603160045260246000fd5b6001900381819060005260206000200160009055905550505050565b60006137a283610f78565b905081600660008573ffffffffffffffffffffffffffffffffffffffff1673ffffffffffffffffffffffffffffffffffffffff168152602001908152602001600020600083815260200190815260200160002081905550806007600084815260200190815260200160002081905550505050565b82805461382290614fff565b90600052602060002090601f016020900481019282613844576000855561388b565b82601f1061385d57805160ff191683800117855561388b565b8280016001018555821561388b579182015b8281111561388a57825182559160200191906001019061386f565b5b509050613898919061389c565b5090565b5b808211156138b557600081600090555060010161389d565b5090565b60006138cc6138c784614cef565b614cca565b9050828152602081018484840111156138e457600080fd5b6138ef848285614f93565b509392505050565b600061390a61390584614d20565b614cca565b90508281526020810184848401111561392257600080fd5b61392d848285614f93565b509392505050565b60008135905061394481615ee9565b92915050565b60008135905061395981615f00565b92915050565b60008135905061396e81615f17565b92915050565b60008151905061398381615f17565b92915050565b600082601f83011261399a57600080fd5b81356139aa8482602086016138b9565b91505092915050565b600082601f8301126139c457600080fd5b81356139d48482602086016138f7565b91505092915050565b6000813590506139ec81615f2e565b92915050565b600060208284031215613a0457600080fd5b6000613a1284828501613935565b91505092915050565b60008060408385031215613a2e57600080fd5b6000613a3c85828601613935565b9250506020613a4d85828601613935565b9150509250929050565b600080600060608486031215613a6c57600080fd5b6000613a7a86828701613935565b9350506020613a8b86828701613935565b9250506040613a9c868287016139dd565b9150509250925092565b60008060008060808587031215613abc57600080fd5b6000613aca87828801613935565b9450506020613adb87828801613935565b9350506040613aec878288016139dd565b925050606085013567ffffffffffffffff811115613b0957600080fd5b613b1587828801613989565b91505092959194509250565b60008060408385031215613b3457600080fd5b6000613b4285828601613935565b9250506020613b538582860161394a565b9150509250929050565b60008060408385031215613b7057600080fd5b6000613b7e85828601613935565b9250506020613b8f858286016139dd565b9150509250929050565b600060208284031215613bab57600080fd5b6000613bb98482850161395f565b91505092915050565b600060208284031215613bd457600080fd5b6000613be284828501613974565b91505092915050565b600060208284031215613bfd57600080fd5b6000613c0b848285016139dd565b91505092915050565b60008060008060008060c08789031215613c2d57600080fd5b6000613c3b89828a016139dd565b965050602087013567ffffffffffffffff811115613c5857600080fd5b613c6489828a016139b3565b955050604087013567ffffffffffffffff811115613c8157600080fd5b613c8d89828a016139b3565b945050606087013567ffffffffffffffff811115613caa57600080fd5b613cb689828a016139b3565b935050608087013567ffffffffffffffff811115613cd357600080fd5b613cdf89828a016139b3565b92505060a087013567ffffffffffffffff811115613cfc57600080fd5b613d0889828a016139b3565b9150509295509295509295565b60008060408385031215613d2857600080fd5b6000613d36858286016139dd565b9250506020613d47858286016139dd565b9150509250929050565b600080600060608486031215613d6657600080fd5b6000613d74868287016139dd565b9350506020613d85868287016139dd565b925050604084013567ffffffffffffffff811115613da257600080fd5b613dae868287016139b3565b9150509250925092565b613dc181614f12565b82525050565b613dd081614f00565b82525050565b613ddf81614f24565b82525050565b6000613df082614d66565b613dfa8185614d7c565b9350613e0a818560208601614fa2565b613e1381615198565b840191505092915050565b6000613e2982614d71565b613e338185614d98565b9350613e43818560208601614fa2565b613e4c81615198565b840191505092915050565b6000613e6282614d71565b613e6c8185614da9565b9350613e7c818560208601614fa2565b80840191505092915050565b60008154613e9581614fff565b613e9f8186614da9565b94506001821660008114613eba5760018114613ecb57613efe565b60ff19831686528186019350613efe565b613ed485614d51565b60005b83811015613ef657815481890152600182019150602081019050613ed7565b838801955050505b50505092915050565b6000613f14602d83614da9565b9150613f1f826151a9565b602d82019050919050565b6000613f37603c83614da9565b9150613f42826151f8565b603c82019050919050565b6000613f5a602983614da9565b9150613f6582615247565b602982019050919050565b6000613f7d603383614da9565b9150613f8882615296565b603382019050919050565b6000613fa0600983614da9565b9150613fab826152e5565b600982019050919050565b6000613fc3601683614d98565b9150613fce8261530e565b602082019050919050565b6000613fe6601483614d98565b9150613ff182615337565b602082019050919050565b6000614009602b83614d98565b915061401482615360565b604082019050919050565b600061402c600e83614d98565b9150614037826153af565b602082019050919050565b600061404f603283614d98565b915061405a826153d8565b604082019050919050565b6000614072604183614da9565b915061407d82615427565b604182019050919050565b6000614095602683614d98565b91506140a08261549c565b604082019050919050565b60006140b8601c83614d98565b91506140c3826154eb565b602082019050919050565b60006140db602183614da9565b91506140e682615514565b602182019050919050565b60006140fe600c83614da9565b915061410982615563565b600c82019050919050565b6000614121602483614d98565b915061412c8261558c565b604082019050919050565b6000614144601983614d98565b915061414f826155db565b602082019050919050565b6000614167602c83614d98565b915061417282615604565b604082019050919050565b600061418a602a83614da9565b915061419582615653565b602a82019050919050565b60006141ad600983614d98565b91506141b8826156a2565b602082019050919050565b60006141d0600183614da9565b91506141db826156cb565b600182019050919050565b60006141f3603883614d98565b91506141fe826156f4565b604082019050919050565b6000614216600483614da9565b915061422182615743565b600482019050919050565b6000614239602a83614d98565b91506142448261576c565b604082019050919050565b600061425c602983614d98565b9150614267826157bb565b604082019050919050565b600061427f602783614da9565b915061428a8261580a565b602782019050919050565b60006142a2601783614d98565b91506142ad82615859565b602082019050919050565b60006142c5602e83614da9565b91506142d082615882565b602e82019050919050565b60006142e8602983614da9565b91506142f3826158d1565b602982019050919050565b600061430b600283614da9565b915061431682615920565b600282019050919050565b600061432e600783614da9565b915061433982615949565b600782019050919050565b6000614351602083614d98565b915061435c82615972565b602082019050919050565b6000614374600d83614da9565b915061437f8261599b565b600d82019050919050565b6000614397602b83614da9565b91506143a2826159c4565b602b82019050919050565b60006143ba602c83614d98565b91506143c582615a13565b604082019050919050565b60006143dd602483614da9565b91506143e882615a62565b602482019050919050565b6000614400601283614da9565b915061440b82615ab1565b601282019050919050565b6000614423602083614d98565b915061442e82615ada565b602082019050919050565b6000614446602983614d98565b915061445182615b03565b604082019050919050565b6000614469600583614da9565b915061447482615b52565b600582019050919050565b600061448c600a83614d98565b915061449782615b7b565b602082019050919050565b60006144af602183614d98565b91506144ba82615ba4565b604082019050919050565b60006144d2602f83614da9565b91506144dd82615bf3565b602f82019050919050565b60006144f5601d83614da9565b915061450082615c42565b601d82019050919050565b6000614518602f83614da9565b915061452382615c6b565b602f82019050919050565b600061453b600083614d8d565b915061454682615cba565b600082019050919050565b600061455e603183614d98565b915061456982615cbd565b604082019050919050565b6000614581602e83614da9565b915061458c82615d0c565b602e82019050919050565b60006145a4602c83614da9565b91506145af82615d5b565b602c82019050919050565b60006145c7602c83614d98565b91506145d282615daa565b604082019050919050565b60006145ea603683614da9565b91506145f582615df9565b603682019050919050565b600061460d600683614da9565b915061461882615e48565b600682019050919050565b6000614630602c83614da9565b915061463b82615e71565b602c82019050919050565b6000614653601a83614da9565b915061465e82615ec0565b601a82019050919050565b61467281614f7c565b82525050565b600061468382613f93565b915061468f8288613e57565b915061469a826143f3565b91506146a68287613e57565b91506146b1826144c5565b91506146bd8286613e57565b91506146c8826140f1565b91506146d48285613e57565b91506146df82614367565b91506146ea82614646565b91506146f68284613e57565b9150614701826142fe565b91508190509695505050505050565b600061471b82614065565b91506147278284613e57565b915061473282614600565b915081905092915050565b6000614748826140ce565b9150819050919050565b600061475d82614272565b9150614769828c613e57565b915061477482614209565b915061477f826142b8565b915061478a826142db565b9150614796828b613e88565b91506147a1826141c3565b91506147ad828a613e88565b91506147b8826141c3565b91506147c382614597565b91506147cf8289613e88565b91506147da82613f4d565b91506147e68288613e88565b91506147f1826143d0565b91506147fd8287613e88565b91506148088261417d565b91506148148286613e57565b915061481f82613f07565b915061482b8285613e57565b91506148368261438a565b91506148428284613e57565b915061484d82614321565b91508190509a9950505050505050505050565b600061486b8261445c565b91506148778284613e57565b915081905092915050565b600061488d826144e8565b91506148998284613e57565b915081905092915050565b60006148af8261450b565b91506148ba82614574565b91506148c582613f2a565b91506148d082614623565b91506148db826145dd565b91506148e682613f70565b91506148f182614321565b9150819050919050565b60006149068261452e565b9150819050919050565b60006020820190506149256000830184613dc7565b92915050565b60006020820190506149406000830184613db8565b92915050565b600060808201905061495b6000830187613dc7565b6149686020830186613dc7565b6149756040830185614669565b81810360608301526149878184613de5565b905095945050505050565b60006020820190506149a76000830184613dd6565b92915050565b600060208201905081810360008301526149c78184613e1e565b905092915050565b600060208201905081810360008301526149e881613fb6565b9050919050565b60006020820190508181036000830152614a0881613fd9565b9050919050565b60006020820190508181036000830152614a2881613ffc565b9050919050565b60006020820190508181036000830152614a488161401f565b9050919050565b60006020820190508181036000830152614a6881614042565b9050919050565b60006020820190508181036000830152614a8881614088565b9050919050565b60006020820190508181036000830152614aa8816140ab565b9050919050565b60006020820190508181036000830152614ac881614114565b9050919050565b60006020820190508181036000830152614ae881614137565b9050919050565b60006020820190508181036000830152614b088161415a565b9050919050565b60006020820190508181036000830152614b28816141a0565b9050919050565b60006020820190508181036000830152614b48816141e6565b9050919050565b60006020820190508181036000830152614b688161422c565b9050919050565b60006020820190508181036000830152614b888161424f565b9050919050565b60006020820190508181036000830152614ba881614295565b9050919050565b60006020820190508181036000830152614bc881614344565b9050919050565b60006020820190508181036000830152614be8816143ad565b9050919050565b60006020820190508181036000830152614c0881614416565b9050919050565b60006020820190508181036000830152614c2881614439565b9050919050565b60006020820190508181036000830152614c488161447f565b9050919050565b60006020820190508181036000830152614c68816144a2565b9050919050565b60006020820190508181036000830152614c8881614551565b9050919050565b60006020820190508181036000830152614ca8816145ba565b9050919050565b6000602082019050614cc46000830184614669565b92915050565b6000614cd4614ce5565b9050614ce08282615031565b919050565b6000604051905090565b600067ffffffffffffffff821115614d0a57614d09615169565b5b614d1382615198565b9050602081019050919050565b600067ffffffffffffffff821115614d3b57614d3a615169565b5b614d4482615198565b9050602081019050919050565b60008190508160005260206000209050919050565b600081519050919050565b600081519050919050565b600082825260208201905092915050565b600081905092915050565b600082825260208201905092915050565b600081905092915050565b6000614dbf82614f7c565b9150614dca83614f7c565b9250827fffffffffffffffffffffffffffffffffffffffffffffffffffffffffffffffff03821115614dff57614dfe6150dc565b5b828201905092915050565b6000614e1582614f86565b9150614e2083614f86565b92508260ff03821115614e3657614e356150dc565b5b828201905092915050565b6000614e4c82614f7c565b9150614e5783614f7c565b925082614e6757614e6661510b565b5b828204905092915050565b6000614e7d82614f7c565b9150614e8883614f7c565b9250817fffffffffffffffffffffffffffffffffffffffffffffffffffffffffffffffff0483118215151615614ec157614ec06150dc565b5b828202905092915050565b6000614ed782614f7c565b9150614ee283614f7c565b925082821015614ef557614ef46150dc565b5b828203905092915050565b6000614f0b82614f5c565b9050919050565b6000614f1d82614f5c565b9050919050565b60008115159050919050565b60007fffffffff0000000000000000000000000000000000000000000000000000000082169050919050565b600073ffffffffffffffffffffffffffffffffffffffff82169050919050565b6000819050919050565b600060ff82169050919050565b82818337600083830152505050565b60005b83811015614fc0578082015181840152602081019050614fa5565b83811115614fcf576000848401525b50505050565b6000614fe082614f7c565b91506000821415614ff457614ff36150dc565b5b600182039050919050565b6000600282049050600182168061501757607f821691505b6020821081141561502b5761502a61513a565b5b50919050565b61503a82615198565b810181811067ffffffffffffffff8211171561505957615058615169565b5b80604052505050565b600061506d82614f7c565b91507fffffffffffffffffffffffffffffffffffffffffffffffffffffffffffffffff8214156150a05761509f6150dc565b5b600182019050919050565b60006150b682614f7c565b91506150c183614f7c565b9250826150d1576150d061510b565b5b828206905092915050565b7f4e487b7100000000000000000000000000000000000000000000000000000000600052601160045260246000fd5b7f4e487b7100000000000000000000000000000000000000000000000000000000600052601260045260246000fd5b7f4e487b7100000000000000000000000000000000000000000000000000000000600052602260045260246000fd5b7f4e487b7100000000000000000000000000000000000000000000000000000000600052604160045260246000fd5b6000601f19601f8301169050919050565b7f3c747370616e20783d2231352220793d22313835223e5345525649434553204460008201527f4f4e453a203c2f747370616e3e00000000000000000000000000000000000000602082015250565b7f3c7465787420783d2231352220793d22333022207374796c653d2266696c6c3a60008201527f626c75653b223e20434c45414e20434343204953204d494e5445442100000000602082015250565b7f3c747370616e20783d2231352220793d22313130223e4348415353495320233a60008201527f203c2f747370616e3e0000000000000000000000000000000000000000000000602082015250565b7f3c747370616e20783d2231352220793d22313335223e5749544820414c4c204960008201527f4e464f2052454c415445443c2f747370616e3e00000000000000000000000000602082015250565b7f7b226e616d65223a220000000000000000000000000000000000000000000000600082015250565b7f436172205365727669636520636f6d706c657465642100000000000000000000600082015250565b7f796f75206172656e277420746865206f776e6572000000000000000000000000600082015250565b7f455243373231456e756d657261626c653a206f776e657220696e646578206f7560008201527f74206f6620626f756e6473000000000000000000000000000000000000000000602082015250565b7f636f756c64206e6f742073656e64000000000000000000000000000000000000600082015250565b7f4552433732313a207472616e7366657220746f206e6f6e20455243373231526560008201527f63656976657220696d706c656d656e7465720000000000000000000000000000602082015250565b7f3c7376672077696474683d2233303022206865696768743d223330302220786d60008201527f6c6e733d22687474703a2f2f7777772e77332e6f72672f323030302f7376672260208201527f3e00000000000000000000000000000000000000000000000000000000000000604082015250565b7f4f776e61626c653a206e6577206f776e657220697320746865207a65726f206160008201527f6464726573730000000000000000000000000000000000000000000000000000602082015250565b7f4552433732313a20746f6b656e20616c7265616479206d696e74656400000000600082015250565b7f54686973206973204361722043657274696669636174696f6e206f6e4368616960008201527f6e00000000000000000000000000000000000000000000000000000000000000602082015250565b7f222c20226f776e6572223a220000000000000000000000000000000000000000600082015250565b7f4552433732313a207472616e7366657220746f20746865207a65726f2061646460008201527f7265737300000000000000000000000000000000000000000000000000000000602082015250565b7f4552433732313a20617070726f766520746f2063616c6c657200000000000000600082015250565b7f4552433732313a206f70657261746f7220717565727920666f72206e6f6e657860008201527f697374656e7420746f6b656e0000000000000000000000000000000000000000602082015250565b7f3c747370616e20783d2231352220793d22313630223e4b494c4f4d455452455360008201527f3a203c2f747370616e3e00000000000000000000000000000000000000000000602082015250565b7f6e6f742065786973740000000000000000000000000000000000000000000000600082015250565b7f2000000000000000000000000000000000000000000000000000000000000000600082015250565b7f4552433732313a20617070726f76652063616c6c6572206973206e6f74206f7760008201527f6e6572206e6f7220617070726f76656420666f7220616c6c0000000000000000602082015250565b7f22202f3e00000000000000000000000000000000000000000000000000000000600082015250565b7f4552433732313a2062616c616e636520717565727920666f7220746865207a6560008201527f726f206164647265737300000000000000000000000000000000000000000000602082015250565b7f4552433732313a206f776e657220717565727920666f72206e6f6e657869737460008201527f656e7420746f6b656e0000000000000000000000000000000000000000000000602082015250565b7f3c726563742077696474683d223130302522206865696768743d22313030252260008201527f2066696c6c3d2200000000000000000000000000000000000000000000000000602082015250565b7f6b6d2063616e206e6f7420626520646563726561736564000000000000000000600082015250565b7f3c726563742077696474683d2239392522206865696768743d2239392522206660008201527f696c6c3d22626c61636b22202f3e000000000000000000000000000000000000602082015250565b7f3c7465787420783d2231352220793d22333022207374796c653d2266696c6c3a60008201527f77686974653b223e200000000000000000000000000000000000000000000000602082015250565b7f227d000000000000000000000000000000000000000000000000000000000000600082015250565b7f3c2f746578743e00000000000000000000000000000000000000000000000000600082015250565b7f4552433732313a206d696e7420746f20746865207a65726f2061646472657373600082015250565b7f222c2022696d616765223a202200000000000000000000000000000000000000600082015250565b7f3c747370616e20783d2231352220793d22323130223e50415354204f574e455260008201527f533a203c2f747370616e3e000000000000000000000000000000000000000000602082015250565b7f4552433732313a20617070726f76656420717565727920666f72206e6f6e657860008201527f697374656e7420746f6b656e0000000000000000000000000000000000000000602082015250565b7f3c747370616e20783d2231352220793d22313335223e594541523a203c2f747360008201527f70616e3e00000000000000000000000000000000000000000000000000000000602082015250565b7f222c20226465736372697074696f6e223a220000000000000000000000000000600082015250565b7f4f776e61626c653a2063616c6c6572206973206e6f7420746865206f776e6572600082015250565b7f4552433732313a207472616e73666572206f6620746f6b656e2074686174206960008201527f73206e6f74206f776e0000000000000000000000000000000000000000000000602082015250565b7f4343432023000000000000000000000000000000000000000000000000000000600082015250565b7f4e4f5420454e4f55474800000000000000000000000000000000000000000000600082015250565b7f4552433732313a20617070726f76616c20746f2063757272656e74206f776e6560008201527f7200000000000000000000000000000000000000000000000000000000000000602082015250565b7f222c202265787465726e616c5f75726c223a2268747470733a2f2f6275726e7960008201527f626f79732e636f6d2f746f6b656e2f0000000000000000000000000000000000602082015250565b7f646174613a6170706c69636174696f6e2f6a736f6e3b6261736536342c000000600082015250565b7f3c726563742077696474683d223130302522206865696768743d22313030252260008201527f2066696c6c3d22626c756522202f3e0000000000000000000000000000000000602082015250565b50565b7f4552433732313a207472616e736665722063616c6c6572206973206e6f74206f60008201527f776e6572206e6f7220617070726f766564000000000000000000000000000000602082015250565b7f3c726563742077696474683d2239392522206865696768743d2239392522206660008201527f696c6c3d22776869746522202f3e000000000000000000000000000000000000602082015250565b7f3c747370616e20783d2231352220793d223835223e4c4943454e534520504c4160008201527f54453a203c2f747370616e3e0000000000000000000000000000000000000000602082015250565b7f455243373231456e756d657261626c653a20676c6f62616c20696e646578206f60008201527f7574206f6620626f756e64730000000000000000000000000000000000000000602082015250565b7f3c747370616e20783d2231352220793d22313130223e554e444552204445425560008201527f4720434f4e5452414354205441423c2f747370616e3e00000000000000000000602082015250565b7f3c2f7376673e0000000000000000000000000000000000000000000000000000600082015250565b7f3c747370616e20783d2231352220793d223835223e504c454153452046494c4c60008201527f204343433c2f747370616e3e0000000000000000000000000000000000000000602082015250565b7f646174613a696d6167652f7376672b786d6c3b6261736536342c000000000000600082015250565b615ef281614f00565b8114615efd57600080fd5b50565b615f0981614f24565b8114615f1457600080fd5b50565b615f2081614f30565b8114615f2b57600080fd5b50565b615f3781614f7c565b8114615f4257600080fd5b5056fe4142434445464748494a4b4c4d4e4f505152535455565758595a6162636465666768696a6b6c6d6e6f707172737475767778797a303132333435363738392b2fa264697066735822122010f8d3efb21c4cceebfe44fe3209ce674ba6c1294672558dca0a40feff4f322864736f6c63430008040033",
  "linkReferences": {},
  "deployedLinkReferences": {}
}