{
  "_format": "hh-sol-artifact-1",
  "contractName": "YourCollectible",
  "sourceName": "contracts/YourCollectible.sol",
  "abi": [
    {
      "inputs": [],
      "stateMutability": "nonpayable",
      "type": "constructor"
    },
    {
      "anonymous": false,
      "inputs": [
        {
          "indexed": true,
          "internalType": "address",
          "name": "owner",
          "type": "address"
        },
        {
          "indexed": true,
          "internalType": "address",
          "name": "approved",
          "type": "address"
        },
        {
          "indexed": true,
          "internalType": "uint256",
          "name": "tokenId",
          "type": "uint256"
        }
      ],
      "name": "Approval",
      "type": "event"
    },
    {
      "anonymous": false,
      "inputs": [
        {
          "indexed": true,
          "internalType": "address",
          "name": "owner",
          "type": "address"
        },
        {
          "indexed": true,
          "internalType": "address",
          "name": "operator",
          "type": "address"
        },
        {
          "indexed": false,
          "internalType": "bool",
          "name": "approved",
          "type": "bool"
        }
      ],
      "name": "ApprovalForAll",
      "type": "event"
    },
    {
      "anonymous": false,
      "inputs": [
        {
          "indexed": true,
          "internalType": "address",
          "name": "previousOwner",
          "type": "address"
        },
        {
          "indexed": true,
          "internalType": "address",
          "name": "newOwner",
          "type": "address"
        }
      ],
      "name": "OwnershipTransferred",
      "type": "event"
    },
    {
      "anonymous": false,
      "inputs": [
        {
          "indexed": true,
          "internalType": "address",
          "name": "from",
          "type": "address"
        },
        {
          "indexed": true,
          "internalType": "address",
          "name": "to",
          "type": "address"
        },
        {
          "indexed": true,
          "internalType": "uint256",
          "name": "tokenId",
          "type": "uint256"
        }
      ],
      "name": "Transfer",
      "type": "event"
    },
    {
      "inputs": [
        {
          "internalType": "uint256",
          "name": "",
          "type": "uint256"
        }
      ],
      "name": "_madlibs",
      "outputs": [
        {
          "internalType": "uint256",
          "name": "id",
          "type": "uint256"
        },
        {
          "internalType": "string",
          "name": "text",
          "type": "string"
        },
        {
          "internalType": "uint8",
          "name": "nBlanks",
          "type": "uint8"
        },
        {
          "internalType": "bool",
          "name": "closed",
          "type": "bool"
        }
      ],
      "stateMutability": "view",
      "type": "function"
    },
    {
      "inputs": [],
      "name": "_maxVotes",
      "outputs": [
        {
          "internalType": "uint8",
          "name": "",
          "type": "uint8"
        }
      ],
      "stateMutability": "view",
      "type": "function"
    },
    {
      "inputs": [
        {
          "internalType": "string[]",
          "name": "_words",
          "type": "string[]"
        }
      ],
      "name": "addProposal",
      "outputs": [],
      "stateMutability": "nonpayable",
      "type": "function"
    },
    {
      "inputs": [
        {
          "internalType": "address",
          "name": "to",
          "type": "address"
        },
        {
          "internalType": "uint256",
          "name": "tokenId",
          "type": "uint256"
        }
      ],
      "name": "approve",
      "outputs": [],
      "stateMutability": "nonpayable",
      "type": "function"
    },
    {
      "inputs": [
        {
          "internalType": "address",
          "name": "owner",
          "type": "address"
        }
      ],
      "name": "balanceOf",
      "outputs": [
        {
          "internalType": "uint256",
          "name": "",
          "type": "uint256"
        }
      ],
      "stateMutability": "view",
      "type": "function"
    },
    {
      "inputs": [
        {
          "internalType": "uint256",
          "name": "_id",
          "type": "uint256"
        }
      ],
      "name": "closeMadLib",
      "outputs": [],
      "stateMutability": "nonpayable",
      "type": "function"
    },
    {
      "inputs": [
        {
          "internalType": "uint256",
          "name": "tokenId",
          "type": "uint256"
        }
      ],
      "name": "getApproved",
      "outputs": [
        {
          "internalType": "address",
          "name": "",
          "type": "address"
        }
      ],
      "stateMutability": "view",
      "type": "function"
    },
    {
      "inputs": [
        {
          "internalType": "uint256",
          "name": "_id",
          "type": "uint256"
        }
      ],
      "name": "getBestProposal",
      "outputs": [
        {
          "internalType": "string[]",
          "name": "",
          "type": "string[]"
        }
      ],
      "stateMutability": "view",
      "type": "function"
    },
    {
      "inputs": [
        {
          "internalType": "uint256",
          "name": "_id",
          "type": "uint256"
        },
        {
          "internalType": "uint256",
          "name": "_idProposal",
          "type": "uint256"
        }
      ],
      "name": "getProposal",
      "outputs": [
        {
          "components": [
            {
              "internalType": "string[]",
              "name": "words",
              "type": "string[]"
            },
            {
              "internalType": "uint256",
              "name": "countVotes",
              "type": "uint256"
            },
            {
              "internalType": "address",
              "name": "proposer",
              "type": "address"
            }
          ],
          "internalType": "struct YourCollectible.Proposal",
          "name": "",
          "type": "tuple"
        }
      ],
      "stateMutability": "view",
      "type": "function"
    },
    {
      "inputs": [
        {
          "internalType": "uint256",
          "name": "_id",
          "type": "uint256"
        }
      ],
      "name": "getProposals",
      "outputs": [
        {
          "components": [
            {
              "internalType": "string[]",
              "name": "words",
              "type": "string[]"
            },
            {
              "internalType": "uint256",
              "name": "countVotes",
              "type": "uint256"
            },
            {
              "internalType": "address",
              "name": "proposer",
              "type": "address"
            }
          ],
          "internalType": "struct YourCollectible.Proposal[]",
          "name": "",
          "type": "tuple[]"
        }
      ],
      "stateMutability": "view",
      "type": "function"
    },
    {
      "inputs": [
        {
          "internalType": "address",
          "name": "owner",
          "type": "address"
        },
        {
          "internalType": "address",
          "name": "operator",
          "type": "address"
        }
      ],
      "name": "isApprovedForAll",
      "outputs": [
        {
          "internalType": "bool",
          "name": "",
          "type": "bool"
        }
      ],
      "stateMutability": "view",
      "type": "function"
    },
    {
      "inputs": [
        {
          "internalType": "string",
          "name": "_text",
          "type": "string"
        },
        {
          "internalType": "uint8",
          "name": "_nBlanks",
          "type": "uint8"
        }
      ],
      "name": "mintItem",
      "outputs": [
        {
          "internalType": "uint256",
          "name": "",
          "type": "uint256"
        }
      ],
      "stateMutability": "payable",
      "type": "function"
    },
    {
      "inputs": [],
      "name": "name",
      "outputs": [
        {
          "internalType": "string",
          "name": "",
          "type": "string"
        }
      ],
      "stateMutability": "view",
      "type": "function"
    },
    {
      "inputs": [],
      "name": "owner",
      "outputs": [
        {
          "internalType": "address",
          "name": "",
          "type": "address"
        }
      ],
      "stateMutability": "view",
      "type": "function"
    },
    {
      "inputs": [
        {
          "internalType": "uint256",
          "name": "tokenId",
          "type": "uint256"
        }
      ],
      "name": "ownerOf",
      "outputs": [
        {
          "internalType": "address",
          "name": "",
          "type": "address"
        }
      ],
      "stateMutability": "view",
      "type": "function"
    },
    {
      "inputs": [],
      "name": "price",
      "outputs": [
        {
          "internalType": "uint256",
          "name": "",
          "type": "uint256"
        }
      ],
      "stateMutability": "view",
      "type": "function"
    },
    {
      "inputs": [],
      "name": "recipient",
      "outputs": [
        {
          "internalType": "address payable",
          "name": "",
          "type": "address"
        }
      ],
      "stateMutability": "view",
      "type": "function"
    },
    {
      "inputs": [
        {
          "internalType": "uint256",
          "name": "_id",
          "type": "uint256"
        }
      ],
      "name": "renderTokenById",
      "outputs": [
        {
          "internalType": "string",
          "name": "",
          "type": "string"
        }
      ],
      "stateMutability": "view",
      "type": "function"
    },
    {
      "inputs": [],
      "name": "renounceOwnership",
      "outputs": [],
      "stateMutability": "nonpayable",
      "type": "function"
    },
    {
      "inputs": [
        {
          "internalType": "address",
          "name": "from",
          "type": "address"
        },
        {
          "internalType": "address",
          "name": "to",
          "type": "address"
        },
        {
          "internalType": "uint256",
          "name": "tokenId",
          "type": "uint256"
        }
      ],
      "name": "safeTransferFrom",
      "outputs": [],
      "stateMutability": "nonpayable",
      "type": "function"
    },
    {
      "inputs": [
        {
          "internalType": "address",
          "name": "from",
          "type": "address"
        },
        {
          "internalType": "address",
          "name": "to",
          "type": "address"
        },
        {
          "internalType": "uint256",
          "name": "tokenId",
          "type": "uint256"
        },
        {
          "internalType": "bytes",
          "name": "_data",
          "type": "bytes"
        }
      ],
      "name": "safeTransferFrom",
      "outputs": [],
      "stateMutability": "nonpayable",
      "type": "function"
    },
    {
      "inputs": [
        {
          "internalType": "address",
          "name": "operator",
          "type": "address"
        },
        {
          "internalType": "bool",
          "name": "approved",
          "type": "bool"
        }
      ],
      "name": "setApprovalForAll",
      "outputs": [],
      "stateMutability": "nonpayable",
      "type": "function"
    },
    {
      "inputs": [
        {
          "internalType": "bytes4",
          "name": "interfaceId",
          "type": "bytes4"
        }
      ],
      "name": "supportsInterface",
      "outputs": [
        {
          "internalType": "bool",
          "name": "",
          "type": "bool"
        }
      ],
      "stateMutability": "view",
      "type": "function"
    },
    {
      "inputs": [],
      "name": "symbol",
      "outputs": [
        {
          "internalType": "string",
          "name": "",
          "type": "string"
        }
      ],
      "stateMutability": "view",
      "type": "function"
    },
    {
      "inputs": [
        {
          "internalType": "uint256",
          "name": "index",
          "type": "uint256"
        }
      ],
      "name": "tokenByIndex",
      "outputs": [
        {
          "internalType": "uint256",
          "name": "",
          "type": "uint256"
        }
      ],
      "stateMutability": "view",
      "type": "function"
    },
    {
      "inputs": [
        {
          "internalType": "address",
          "name": "owner",
          "type": "address"
        },
        {
          "internalType": "uint256",
          "name": "index",
          "type": "uint256"
        }
      ],
      "name": "tokenOfOwnerByIndex",
      "outputs": [
        {
          "internalType": "uint256",
          "name": "",
          "type": "uint256"
        }
      ],
      "stateMutability": "view",
      "type": "function"
    },
    {
      "inputs": [
        {
          "internalType": "uint256",
          "name": "_id",
          "type": "uint256"
        }
      ],
      "name": "tokenURI",
      "outputs": [
        {
          "internalType": "string",
          "name": "",
          "type": "string"
        }
      ],
      "stateMutability": "view",
      "type": "function"
    },
    {
      "inputs": [],
      "name": "totalSupply",
      "outputs": [
        {
          "internalType": "uint256",
          "name": "",
          "type": "uint256"
        }
      ],
      "stateMutability": "view",
      "type": "function"
    },
    {
      "inputs": [
        {
          "internalType": "address",
          "name": "from",
          "type": "address"
        },
        {
          "internalType": "address",
          "name": "to",
          "type": "address"
        },
        {
          "internalType": "uint256",
          "name": "tokenId",
          "type": "uint256"
        }
      ],
      "name": "transferFrom",
      "outputs": [],
      "stateMutability": "nonpayable",
      "type": "function"
    },
    {
      "inputs": [
        {
          "internalType": "address",
          "name": "newOwner",
          "type": "address"
        }
      ],
      "name": "transferOwnership",
      "outputs": [],
      "stateMutability": "nonpayable",
      "type": "function"
    },
    {
      "inputs": [
        {
          "internalType": "uint256",
          "name": "_idProposal",
          "type": "uint256"
        }
      ],
      "name": "voteProposal",
      "outputs": [],
      "stateMutability": "nonpayable",
      "type": "function"
    }
  ],
  "bytecode": "0x60806040526063600c60006101000a81548160ff021916908360ff16021790555066038d7ea4c68000600e553480156200003857600080fd5b506040518060400160405280600f81526020017f4d61644c696273206f6e436861696e00000000000000000000000000000000008152506040518060400160405280600381526020017f4d4c4300000000000000000000000000000000000000000000000000000000008152508160009080519060200190620000bd929190620001cd565b508060019080519060200190620000d6929190620001cd565b505050620000f9620000ed620000ff60201b60201c565b6200010760201b60201c565b620002e2565b600033905090565b6000600a60009054906101000a900473ffffffffffffffffffffffffffffffffffffffff16905081600a60006101000a81548173ffffffffffffffffffffffffffffffffffffffff021916908373ffffffffffffffffffffffffffffffffffffffff1602179055508173ffffffffffffffffffffffffffffffffffffffff168173ffffffffffffffffffffffffffffffffffffffff167f8be0079c531659141344cd1fd0a4f28419497f9722a3daafe3b4186f6b6457e060405160405180910390a35050565b828054620001db906200027d565b90600052602060002090601f016020900481019282620001ff57600085556200024b565b82601f106200021a57805160ff19168380011785556200024b565b828001600101855582156200024b579182015b828111156200024a5782518255916020019190600101906200022d565b5b5090506200025a91906200025e565b5090565b5b80821115620002795760008160009055506001016200025f565b5090565b600060028204905060018216806200029657607f821691505b60208210811415620002ad57620002ac620002b3565b5b50919050565b7f4e487b7100000000000000000000000000000000000000000000000000000000600052602260045260246000fd5b616f8180620002f26000396000f3fe6080604052600436106101d85760003560e01c8063715018a611610102578063aba2100911610095578063c87b56dd11610064578063c87b56dd14610712578063d06ff5311461074f578063e985e9c514610778578063f2fde38b146107b5576101d8565b8063aba2100914610658578063aed50f8f14610695578063b489ce71146106c0578063b88d4fde146106e9576101d8565b806395d89b41116100d157806395d89b411461059c578063a035b1fe146105c7578063a22cb465146105f2578063a2d6c6da1461061b576101d8565b8063715018a6146104f1578063807896d5146105085780638da5cb5b1461053157806392b4d6cd1461055c576101d8565b8063253eb1e01161017a5780634f6ccce7116101495780634f6ccce71461040f5780636352211e1461044c57806366d003ac1461048957806370a08231146104b4576101d8565b8063253eb1e01461033c5780632c72fdfc1461036c5780632f745c59146103a957806342842e0e146103e6576101d8565b8063095ea7b3116101b6578063095ea7b3146102825780630a7c405f146102ab57806318160ddd146102e857806323b872dd14610313576101d8565b806301ffc9a7146101dd57806306fdde031461021a578063081812fc14610245575b600080fd5b3480156101e957600080fd5b5061020460048036038101906101ff9190614cfa565b6107de565b6040516102119190615ac1565b60405180910390f35b34801561022657600080fd5b5061022f610858565b60405161023c9190615afe565b60405180910390f35b34801561025157600080fd5b5061026c60048036038101906102679190614e0a565b6108ea565b60405161027991906159fb565b60405180910390f35b34801561028e57600080fd5b506102a960048036038101906102a49190614c7d565b61096f565b005b3480156102b757600080fd5b506102d260048036038101906102cd9190614e0a565b610a87565b6040516102df9190615a7d565b60405180910390f35b3480156102f457600080fd5b506102fd610d9c565b60405161030a9190615ea6565b60405180910390f35b34801561031f57600080fd5b5061033a60048036038101906103359190614b77565b610da9565b005b61035660048036038101906103519190614d8d565b610e09565b6040516103639190615ea6565b60405180910390f35b34801561037857600080fd5b50610393600480360381019061038e9190614e0a565b610f65565b6040516103a09190615a9f565b60405180910390f35b3480156103b557600080fd5b506103d060048036038101906103cb9190614c7d565b611148565b6040516103dd9190615ea6565b60405180910390f35b3480156103f257600080fd5b5061040d60048036038101906104089190614b77565b6111ed565b005b34801561041b57600080fd5b5061043660048036038101906104319190614e0a565b61120d565b6040516104439190615ea6565b60405180910390f35b34801561045857600080fd5b50610473600480360381019061046e9190614e0a565b6112a4565b60405161048091906159fb565b60405180910390f35b34801561049557600080fd5b5061049e611356565b6040516104ab9190615a16565b60405180910390f35b3480156104c057600080fd5b506104db60048036038101906104d69190614b12565b61136e565b6040516104e89190615ea6565b60405180910390f35b3480156104fd57600080fd5b50610506611426565b005b34801561051457600080fd5b5061052f600480360381019061052a9190614e0a565b6114ae565b005b34801561053d57600080fd5b506105466117b3565b60405161055391906159fb565b60405180910390f35b34801561056857600080fd5b50610583600480360381019061057e9190614e0a565b6117dd565b6040516105939493929190615ec1565b60405180910390f35b3480156105a857600080fd5b506105b16118bf565b6040516105be9190615afe565b60405180910390f35b3480156105d357600080fd5b506105dc611951565b6040516105e99190615ea6565b60405180910390f35b3480156105fe57600080fd5b5061061960048036038101906106149190614c41565b611957565b005b34801561062757600080fd5b50610642600480360381019061063d9190614e0a565b611ad8565b60405161064f9190615afe565b60405180910390f35b34801561066457600080fd5b5061067f600480360381019061067a9190614e33565b611b4b565b60405161068c9190615e40565b60405180910390f35b3480156106a157600080fd5b506106aa611d30565b6040516106b79190615f0d565b60405180910390f35b3480156106cc57600080fd5b506106e760048036038101906106e29190614cb9565b611d43565b005b3480156106f557600080fd5b50610710600480360381019061070b9190614bc6565b61203a565b005b34801561071e57600080fd5b5061073960048036038101906107349190614e0a565b61209c565b6040516107469190615afe565b60405180910390f35b34801561075b57600080fd5b5061077660048036038101906107719190614e0a565b6121db565b005b34801561078457600080fd5b5061079f600480360381019061079a9190614b3b565b612f23565b6040516107ac9190615ac1565b60405180910390f35b3480156107c157600080fd5b506107dc60048036038101906107d79190614b12565b612fb7565b005b60007f780e9d63000000000000000000000000000000000000000000000000000000007bffffffffffffffffffffffffffffffffffffffffffffffffffffffff1916827bffffffffffffffffffffffffffffffffffffffffffffffffffffffff191614806108515750610850826130af565b5b9050919050565b606060008054610867906162ec565b80601f0160208091040260200160405190810160405280929190818152602001828054610893906162ec565b80156108e05780601f106108b5576101008083540402835291602001916108e0565b820191906000526020600020905b8154815290600101906020018083116108c357829003601f168201915b5050505050905090565b60006108f582613191565b610934576040517f08c379a000000000000000000000000000000000000000000000000000000000815260040161092b90615d00565b60405180910390fd5b6004600083815260200190815260200160002060009054906101000a900473ffffffffffffffffffffffffffffffffffffffff169050919050565b600061097a826112a4565b90508073ffffffffffffffffffffffffffffffffffffffff168373ffffffffffffffffffffffffffffffffffffffff1614156109eb576040517f08c379a00000000000000000000000000000000000000000000000000000000081526004016109e290615d80565b60405180910390fd5b8073ffffffffffffffffffffffffffffffffffffffff16610a0a6131fd565b73ffffffffffffffffffffffffffffffffffffffff161480610a395750610a3881610a336131fd565b612f23565b5b610a78576040517f08c379a0000000000000000000000000000000000000000000000000000000008152600401610a6f90615c40565b60405180910390fd5b610a828383613205565b505050565b606060008060005b600d8581548110610ac9577f4e487b7100000000000000000000000000000000000000000000000000000000600052603260045260246000fd5b906000526020600020906007020160030180549050811015610c2e5782600d8681548110610b20577f4e487b7100000000000000000000000000000000000000000000000000000000600052603260045260246000fd5b90600052602060002090600702016003018281548110610b69577f4e487b7100000000000000000000000000000000000000000000000000000000600052603260045260246000fd5b90600052602060002090600302016001015410610c1b57600d8581548110610bba577f4e487b7100000000000000000000000000000000000000000000000000000000600052603260045260246000fd5b90600052602060002090600702016003018181548110610c03577f4e487b7100000000000000000000000000000000000000000000000000000000600052603260045260246000fd5b90600052602060002090600302016001015492508091505b8080610c269061634f565b915050610a8f565b50600d8481548110610c69577f4e487b7100000000000000000000000000000000000000000000000000000000600052603260045260246000fd5b90600052602060002090600702016003018181548110610cb2577f4e487b7100000000000000000000000000000000000000000000000000000000600052603260045260246000fd5b9060005260206000209060030201600001805480602002602001604051908101604052809291908181526020016000905b82821015610d8f578382906000526020600020018054610d02906162ec565b80601f0160208091040260200160405190810160405280929190818152602001828054610d2e906162ec565b8015610d7b5780601f10610d5057610100808354040283529160200191610d7b565b820191906000526020600020905b815481529060010190602001808311610d5e57829003601f168201915b505050505081526020019060010190610ce3565b5050505092505050919050565b6000600880549050905090565b610dba610db46131fd565b826132be565b610df9576040517f08c379a0000000000000000000000000000000000000000000000000000000008152600401610df090615dc0565b60405180910390fd5b610e0483838361339c565b505050565b6000600d80549050600014610ec257600d6001600d80549050610e2c91906161b9565b81548110610e63577f4e487b7100000000000000000000000000000000000000000000000000000000600052603260045260246000fd5b906000526020600020906007020160060160009054906101000a900460ff16610ec1576040517f08c379a0000000000000000000000000000000000000000000000000000000008152600401610eb890615e00565b60405180910390fd5b5b6000610ece600b6135f8565b9050610eda3382613606565b6000600d600181600181540180825580915050039060005260206000209060070201905081816000018190555084816001019080519060200190610f1f9291906146ad565b50838160020160006101000a81548160ff021916908360ff16021790555060008160060160006101000a81548160ff021916908315150217905550819250505092915050565b6060600d8281548110610fa1577f4e487b7100000000000000000000000000000000000000000000000000000000600052603260045260246000fd5b9060005260206000209060070201600301805480602002602001604051908101604052809291908181526020016000905b8282101561113d578382906000526020600020906003020160405180606001604052908160008201805480602002602001604051908101604052809291908181526020016000905b828210156110c6578382906000526020600020018054611039906162ec565b80601f0160208091040260200160405190810160405280929190818152602001828054611065906162ec565b80156110b25780601f10611087576101008083540402835291602001916110b2565b820191906000526020600020905b81548152906001019060200180831161109557829003601f168201915b50505050508152602001906001019061101a565b505050508152602001600182015481526020016002820160009054906101000a900473ffffffffffffffffffffffffffffffffffffffff1673ffffffffffffffffffffffffffffffffffffffff1673ffffffffffffffffffffffffffffffffffffffff168152505081526020019060010190610fd2565b505050509050919050565b60006111538361136e565b8210611194576040517f08c379a000000000000000000000000000000000000000000000000000000000815260040161118b90615b40565b60405180910390fd5b600660008473ffffffffffffffffffffffffffffffffffffffff1673ffffffffffffffffffffffffffffffffffffffff168152602001908152602001600020600083815260200190815260200160002054905092915050565b6112088383836040518060200160405280600081525061203a565b505050565b6000611217610d9c565b8210611258576040517f08c379a000000000000000000000000000000000000000000000000000000000815260040161124f90615de0565b60405180910390fd5b60088281548110611292577f4e487b7100000000000000000000000000000000000000000000000000000000600052603260045260246000fd5b90600052602060002001549050919050565b6000806002600084815260200190815260200160002060009054906101000a900473ffffffffffffffffffffffffffffffffffffffff169050600073ffffffffffffffffffffffffffffffffffffffff168173ffffffffffffffffffffffffffffffffffffffff16141561134d576040517f08c379a000000000000000000000000000000000000000000000000000000000815260040161134490615c80565b60405180910390fd5b80915050919050565b73a81a6a910fed20374361b35c451a4a44f86ced4681565b60008073ffffffffffffffffffffffffffffffffffffffff168273ffffffffffffffffffffffffffffffffffffffff1614156113df576040517f08c379a00000000000000000000000000000000000000000000000000000000081526004016113d690615c60565b60405180910390fd5b600360008373ffffffffffffffffffffffffffffffffffffffff1673ffffffffffffffffffffffffffffffffffffffff168152602001908152602001600020549050919050565b61142e6131fd565b73ffffffffffffffffffffffffffffffffffffffff1661144c6117b3565b73ffffffffffffffffffffffffffffffffffffffff16146114a2576040517f08c379a000000000000000000000000000000000000000000000000000000000815260040161149990615d20565b60405180910390fd5b6114ac60006137d4565b565b60006114ba600b6135f8565b905060001515600d82815481106114fa577f4e487b7100000000000000000000000000000000000000000000000000000000600052603260045260246000fd5b906000526020600020906007020160060160009054906101000a900460ff1615151461155b576040517f08c379a000000000000000000000000000000000000000000000000000000000815260040161155290615da0565b60405180910390fd5b600c60009054906101000a900460ff1660ff16600d82815481106115a8577f4e487b7100000000000000000000000000000000000000000000000000000000600052603260045260246000fd5b906000526020600020906007020160050160003373ffffffffffffffffffffffffffffffffffffffff1673ffffffffffffffffffffffffffffffffffffffff16815260200190815260200160002060009054906101000a900460ff1660ff1610611647576040517f08c379a000000000000000000000000000000000000000000000000000000000815260040161163e90615e20565b60405180910390fd5b600d8181548110611681577f4e487b7100000000000000000000000000000000000000000000000000000000600052603260045260246000fd5b906000526020600020906007020160050160003373ffffffffffffffffffffffffffffffffffffffff1673ffffffffffffffffffffffffffffffffffffffff168152602001908152602001600020600081819054906101000a900460ff16809291906116ec90616398565b91906101000a81548160ff021916908360ff16021790555050600d818154811061173f577f4e487b7100000000000000000000000000000000000000000000000000000000600052603260045260246000fd5b90600052602060002090600702016003018281548110611788577f4e487b7100000000000000000000000000000000000000000000000000000000600052603260045260246000fd5b906000526020600020906003020160010160008154809291906117aa9061634f565b91905055505050565b6000600a60009054906101000a900473ffffffffffffffffffffffffffffffffffffffff16905090565b600d81815481106117ed57600080fd5b9060005260206000209060070201600091509050806000015490806001018054611816906162ec565b80601f0160208091040260200160405190810160405280929190818152602001828054611842906162ec565b801561188f5780601f106118645761010080835404028352916020019161188f565b820191906000526020600020905b81548152906001019060200180831161187257829003601f168201915b5050505050908060020160009054906101000a900460ff16908060060160009054906101000a900460ff16905084565b6060600180546118ce906162ec565b80601f01602080910402602001604051908101604052809291908181526020018280546118fa906162ec565b80156119475780601f1061191c57610100808354040283529160200191611947565b820191906000526020600020905b81548152906001019060200180831161192a57829003601f168201915b5050505050905090565b600e5481565b61195f6131fd565b73ffffffffffffffffffffffffffffffffffffffff168273ffffffffffffffffffffffffffffffffffffffff1614156119cd576040517f08c379a00000000000000000000000000000000000000000000000000000000081526004016119c490615be0565b60405180910390fd5b80600560006119da6131fd565b73ffffffffffffffffffffffffffffffffffffffff1673ffffffffffffffffffffffffffffffffffffffff16815260200190815260200160002060008473ffffffffffffffffffffffffffffffffffffffff1673ffffffffffffffffffffffffffffffffffffffff16815260200190815260200160002060006101000a81548160ff0219169083151502179055508173ffffffffffffffffffffffffffffffffffffffff16611a876131fd565b73ffffffffffffffffffffffffffffffffffffffff167f17307eab39ab6107e8899845ad3d59bd9653f200f220920489ca2b5937696c3183604051611acc9190615ac1565b60405180910390a35050565b6060600d8281548110611b14577f4e487b7100000000000000000000000000000000000000000000000000000000600052603260045260246000fd5b9060005260206000209060070201600101604051602001611b359190615998565b6040516020818303038152906040529050919050565b611b53614733565b600d8381548110611b8d577f4e487b7100000000000000000000000000000000000000000000000000000000600052603260045260246000fd5b90600052602060002090600702016003018281548110611bd6577f4e487b7100000000000000000000000000000000000000000000000000000000600052603260045260246000fd5b906000526020600020906003020160405180606001604052908160008201805480602002602001604051908101604052809291908181526020016000905b82821015611cc0578382906000526020600020018054611c33906162ec565b80601f0160208091040260200160405190810160405280929190818152602001828054611c5f906162ec565b8015611cac5780601f10611c8157610100808354040283529160200191611cac565b820191906000526020600020905b815481529060010190602001808311611c8f57829003601f168201915b505050505081526020019060010190611c14565b505050508152602001600182015481526020016002820160009054906101000a900473ffffffffffffffffffffffffffffffffffffffff1673ffffffffffffffffffffffffffffffffffffffff1673ffffffffffffffffffffffffffffffffffffffff1681525050905092915050565b600c60009054906101000a900460ff1681565b6000611d4f600b6135f8565b905060001515600d8281548110611d8f577f4e487b7100000000000000000000000000000000000000000000000000000000600052603260045260246000fd5b906000526020600020906007020160040160003373ffffffffffffffffffffffffffffffffffffffff1673ffffffffffffffffffffffffffffffffffffffff16815260200190815260200160002060009054906101000a900460ff16151514611e2d576040517f08c379a0000000000000000000000000000000000000000000000000000000008152600401611e2490615ca0565b60405180910390fd5b600d8181548110611e67577f4e487b7100000000000000000000000000000000000000000000000000000000600052603260045260246000fd5b906000526020600020906007020160020160009054906101000a900460ff1660ff16825114611ecb576040517f08c379a0000000000000000000000000000000000000000000000000000000008152600401611ec290615b20565b60405180910390fd5b6001600d8281548110611f07577f4e487b7100000000000000000000000000000000000000000000000000000000600052603260045260246000fd5b906000526020600020906007020160040160003373ffffffffffffffffffffffffffffffffffffffff1673ffffffffffffffffffffffffffffffffffffffff16815260200190815260200160002060006101000a81548160ff0219169083151502179055506000600d8281548110611fa8577f4e487b7100000000000000000000000000000000000000000000000000000000600052603260045260246000fd5b90600052602060002090600702016003016001816001815401808255809150500390600052602060002090600302019050338160020160006101000a81548173ffffffffffffffffffffffffffffffffffffffff021916908373ffffffffffffffffffffffffffffffffffffffff1602179055508281600001908051906020019061203492919061476a565b50505050565b61204b6120456131fd565b836132be565b61208a576040517f08c379a000000000000000000000000000000000000000000000000000000000815260040161208190615dc0565b60405180910390fd5b6120968484848461389a565b50505050565b60606120a782613191565b6120e6576040517f08c379a00000000000000000000000000000000000000000000000000000000081526004016120dd90615c00565b60405180910390fd5b60006120f1836138f6565b6040516020016121019190615954565b60405160208183030381529060405290506000604051602001612123906159e6565b6040516020818303038152906040529050600061214761214286613aa3565b613ada565b90506121b28383612157886138f6565b61218960146121658b6112a4565b73ffffffffffffffffffffffffffffffffffffffff16613c7990919063ffffffff16565b8560405160200161219e95949392919061588f565b604051602081830303815290604052613ada565b6040516020016121c29190615976565b6040516020818303038152906040529350505050919050565b6121e4816112a4565b73ffffffffffffffffffffffffffffffffffffffff163373ffffffffffffffffffffffffffffffffffffffff1614612251576040517f08c379a000000000000000000000000000000000000000000000000000000000815260040161224890615cc0565b60405180910390fd5b60001515600d612261600b6135f8565b81548110612298577f4e487b7100000000000000000000000000000000000000000000000000000000600052603260045260246000fd5b906000526020600020906007020160060160009054906101000a900460ff161515146122f9576040517f08c379a00000000000000000000000000000000000000000000000000000000081526004016122f090615d60565b60405180910390fd5b6001600d8281548110612335577f4e487b7100000000000000000000000000000000000000000000000000000000600052603260045260246000fd5b906000526020600020906007020160060160006101000a81548160ff021916908315150217905550612367600b613f30565b600061237282610a87565b9050606060006040518060200160405280600081525073__$aadc688bcea560502e0213413fe0dcbaa2$__63afed762b90916040518263ffffffff1660e01b81526004016123c09190615adc565b604080518083038186803b1580156123d757600080fd5b505af41580156123eb573d6000803e3d6000fd5b505050506040513d601f19601f8201168201806040525081019061240f9190614de1565b905060006040518060400160405280600181526020017f200000000000000000000000000000000000000000000000000000000000000081525073__$aadc688bcea560502e0213413fe0dcbaa2$__63afed762b90916040518263ffffffff1660e01b81526004016124819190615adc565b604080518083038186803b15801561249857600080fd5b505af41580156124ac573d6000803e3d6000fd5b505050506040513d601f19601f820116820180604052508101906124d09190614de1565b90506000600d868154811061250e577f4e487b7100000000000000000000000000000000000000000000000000000000600052603260045260246000fd5b9060005260206000209060070201600101805461252a906162ec565b80601f0160208091040260200160405190810160405280929190818152602001828054612556906162ec565b80156125a35780601f10612578576101008083540402835291602001916125a3565b820191906000526020600020905b81548152906001019060200180831161258657829003601f168201915b505050505073__$aadc688bcea560502e0213413fe0dcbaa2$__63afed762b90916040518263ffffffff1660e01b81526004016125e09190615adc565b604080518083038186803b1580156125f757600080fd5b505af415801561260b573d6000803e3d6000fd5b505050506040513d601f19601f8201168201806040525081019061262f9190614de1565b905060005b600d878154811061266e577f4e487b7100000000000000000000000000000000000000000000000000000000600052603260045260246000fd5b906000526020600020906007020160020160009054906101000a900460ff1660ff16811015612d97578173__$aadc688bcea560502e0213413fe0dcbaa2$__6393ea9c1490916040518060400160405280600181526020017f230000000000000000000000000000000000000000000000000000000000000081525073__$aadc688bcea560502e0213413fe0dcbaa2$__63afed762b90916040518263ffffffff1660e01b81526004016127229190615adc565b604080518083038186803b15801561273957600080fd5b505af415801561274d573d6000803e3d6000fd5b505050506040513d601f19601f820116820180604052508101906127719190614de1565b6040518363ffffffff1660e01b815260040161278e929190615e7d565b604080518083038186803b1580156127a557600080fd5b505af41580156127b9573d6000803e3d6000fd5b505050506040513d601f19601f820116820180604052508101906127dd9190614de1565b858281518110612816577f4e487b7100000000000000000000000000000000000000000000000000000000600052603260045260246000fd5b602002602001018190525073__$aadc688bcea560502e0213413fe0dcbaa2$__6387f39b9285878481518110612875577f4e487b7100000000000000000000000000000000000000000000000000000000600052603260045260246000fd5b60200260200101516040518363ffffffff1660e01b815260040161289a929190615e7d565b60006040518083038186803b1580156128b257600080fd5b505af41580156128c6573d6000803e3d6000fd5b505050506040513d6000823e3d601f19601f820116820180604052508101906128ef9190614d4c565b73__$aadc688bcea560502e0213413fe0dcbaa2$__63afed762b90916040518263ffffffff1660e01b81526004016129279190615adc565b604080518083038186803b15801561293e57600080fd5b505af4158015612952573d6000803e3d6000fd5b505050506040513d601f19601f820116820180604052508101906129769190614de1565b935073__$aadc688bcea560502e0213413fe0dcbaa2$__6387f39b9285856040518363ffffffff1660e01b81526004016129b1929190615e7d565b60006040518083038186803b1580156129c957600080fd5b505af41580156129dd573d6000803e3d6000fd5b505050506040513d6000823e3d601f19601f82011682018060405250810190612a069190614d4c565b73__$aadc688bcea560502e0213413fe0dcbaa2$__63afed762b90916040518263ffffffff1660e01b8152600401612a3e9190615adc565b604080518083038186803b158015612a5557600080fd5b505af4158015612a69573d6000803e3d6000fd5b505050506040513d601f19601f82011682018060405250810190612a8d9190614de1565b935073__$aadc688bcea560502e0213413fe0dcbaa2$__6387f39b9285888481518110612ae3577f4e487b7100000000000000000000000000000000000000000000000000000000600052603260045260246000fd5b602002602001015173__$aadc688bcea560502e0213413fe0dcbaa2$__63afed762b90916040518263ffffffff1660e01b8152600401612b239190615adc565b604080518083038186803b158015612b3a57600080fd5b505af4158015612b4e573d6000803e3d6000fd5b505050506040513d601f19601f82011682018060405250810190612b729190614de1565b6040518363ffffffff1660e01b8152600401612b8f929190615e7d565b60006040518083038186803b158015612ba757600080fd5b505af4158015612bbb573d6000803e3d6000fd5b505050506040513d6000823e3d601f19601f82011682018060405250810190612be49190614d4c565b73__$aadc688bcea560502e0213413fe0dcbaa2$__63afed762b90916040518263ffffffff1660e01b8152600401612c1c9190615adc565b604080518083038186803b158015612c3357600080fd5b505af4158015612c47573d6000803e3d6000fd5b505050506040513d601f19601f82011682018060405250810190612c6b9190614de1565b935073__$aadc688bcea560502e0213413fe0dcbaa2$__6387f39b9285856040518363ffffffff1660e01b8152600401612ca6929190615e7d565b60006040518083038186803b158015612cbe57600080fd5b505af4158015612cd2573d6000803e3d6000fd5b505050506040513d6000823e3d601f19601f82011682018060405250810190612cfb9190614d4c565b73__$aadc688bcea560502e0213413fe0dcbaa2$__63afed762b90916040518263ffffffff1660e01b8152600401612d339190615adc565b604080518083038186803b158015612d4a57600080fd5b505af4158015612d5e573d6000803e3d6000fd5b505050506040513d601f19601f82011682018060405250810190612d829190614de1565b93508080612d8f9061634f565b915050612634565b50612e2e8373__$aadc688bcea560502e0213413fe0dcbaa2$__638a7b032c90916040518263ffffffff1660e01b8152600401612dd49190615e62565b60006040518083038186803b158015612dec57600080fd5b505af4158015612e00573d6000803e3d6000fd5b505050506040513d6000823e3d601f19601f82011682018060405250810190612e299190614d4c565b613f46565b8273__$aadc688bcea560502e0213413fe0dcbaa2$__638a7b032c90916040518263ffffffff1660e01b8152600401612e679190615e62565b60006040518083038186803b158015612e7f57600080fd5b505af4158015612e93573d6000803e3d6000fd5b505050506040513d6000823e3d601f19601f82011682018060405250810190612ebc9190614d4c565b600d8781548110612ef6577f4e487b7100000000000000000000000000000000000000000000000000000000600052603260045260246000fd5b90600052602060002090600702016001019080519060200190612f1a9291906146ad565b50505050505050565b6000600560008473ffffffffffffffffffffffffffffffffffffffff1673ffffffffffffffffffffffffffffffffffffffff16815260200190815260200160002060008373ffffffffffffffffffffffffffffffffffffffff1673ffffffffffffffffffffffffffffffffffffffff16815260200190815260200160002060009054906101000a900460ff16905092915050565b612fbf6131fd565b73ffffffffffffffffffffffffffffffffffffffff16612fdd6117b3565b73ffffffffffffffffffffffffffffffffffffffff1614613033576040517f08c379a000000000000000000000000000000000000000000000000000000000815260040161302a90615d20565b60405180910390fd5b600073ffffffffffffffffffffffffffffffffffffffff168173ffffffffffffffffffffffffffffffffffffffff1614156130a3576040517f08c379a000000000000000000000000000000000000000000000000000000000815260040161309a90615b80565b60405180910390fd5b6130ac816137d4565b50565b60007f80ac58cd000000000000000000000000000000000000000000000000000000007bffffffffffffffffffffffffffffffffffffffffffffffffffffffff1916827bffffffffffffffffffffffffffffffffffffffffffffffffffffffff1916148061317a57507f5b5e139f000000000000000000000000000000000000000000000000000000007bffffffffffffffffffffffffffffffffffffffffffffffffffffffff1916827bffffffffffffffffffffffffffffffffffffffffffffffffffffffff1916145b8061318a575061318982613fdf565b5b9050919050565b60008073ffffffffffffffffffffffffffffffffffffffff166002600084815260200190815260200160002060009054906101000a900473ffffffffffffffffffffffffffffffffffffffff1673ffffffffffffffffffffffffffffffffffffffff1614159050919050565b600033905090565b816004600083815260200190815260200160002060006101000a81548173ffffffffffffffffffffffffffffffffffffffff021916908373ffffffffffffffffffffffffffffffffffffffff160217905550808273ffffffffffffffffffffffffffffffffffffffff16613278836112a4565b73ffffffffffffffffffffffffffffffffffffffff167f8c5be1e5ebec7d5bd14f71427d1e84f3dd0314c0f7b2291e5b200ac8c7c3b92560405160405180910390a45050565b60006132c982613191565b613308576040517f08c379a00000000000000000000000000000000000000000000000000000000081526004016132ff90615c20565b60405180910390fd5b6000613313836112a4565b90508073ffffffffffffffffffffffffffffffffffffffff168473ffffffffffffffffffffffffffffffffffffffff16148061338257508373ffffffffffffffffffffffffffffffffffffffff1661336a846108ea565b73ffffffffffffffffffffffffffffffffffffffff16145b8061339357506133928185612f23565b5b91505092915050565b8273ffffffffffffffffffffffffffffffffffffffff166133bc826112a4565b73ffffffffffffffffffffffffffffffffffffffff1614613412576040517f08c379a000000000000000000000000000000000000000000000000000000000815260040161340990615d40565b60405180910390fd5b600073ffffffffffffffffffffffffffffffffffffffff168273ffffffffffffffffffffffffffffffffffffffff161415613482576040517f08c379a000000000000000000000000000000000000000000000000000000000815260040161347990615bc0565b60405180910390fd5b61348d838383614049565b613498600082613205565b6001600360008573ffffffffffffffffffffffffffffffffffffffff1673ffffffffffffffffffffffffffffffffffffffff16815260200190815260200160002060008282546134e891906161b9565b925050819055506001600360008473ffffffffffffffffffffffffffffffffffffffff1673ffffffffffffffffffffffffffffffffffffffff168152602001908152602001600020600082825461353f91906160d8565b92505081905550816002600083815260200190815260200160002060006101000a81548173ffffffffffffffffffffffffffffffffffffffff021916908373ffffffffffffffffffffffffffffffffffffffff160217905550808273ffffffffffffffffffffffffffffffffffffffff168473ffffffffffffffffffffffffffffffffffffffff167fddf252ad1be2c89b69c2b068fc378daa952ba7f163c4a11628f55a4df523b3ef60405160405180910390a4505050565b600081600001549050919050565b600073ffffffffffffffffffffffffffffffffffffffff168273ffffffffffffffffffffffffffffffffffffffff161415613676576040517f08c379a000000000000000000000000000000000000000000000000000000000815260040161366d90615ce0565b60405180910390fd5b61367f81613191565b156136bf576040517f08c379a00000000000000000000000000000000000000000000000000000000081526004016136b690615ba0565b60405180910390fd5b6136cb60008383614049565b6001600360008473ffffffffffffffffffffffffffffffffffffffff1673ffffffffffffffffffffffffffffffffffffffff168152602001908152602001600020600082825461371b91906160d8565b92505081905550816002600083815260200190815260200160002060006101000a81548173ffffffffffffffffffffffffffffffffffffffff021916908373ffffffffffffffffffffffffffffffffffffffff160217905550808273ffffffffffffffffffffffffffffffffffffffff16600073ffffffffffffffffffffffffffffffffffffffff167fddf252ad1be2c89b69c2b068fc378daa952ba7f163c4a11628f55a4df523b3ef60405160405180910390a45050565b6000600a60009054906101000a900473ffffffffffffffffffffffffffffffffffffffff16905081600a60006101000a81548173ffffffffffffffffffffffffffffffffffffffff021916908373ffffffffffffffffffffffffffffffffffffffff1602179055508173ffffffffffffffffffffffffffffffffffffffff168173ffffffffffffffffffffffffffffffffffffffff167f8be0079c531659141344cd1fd0a4f28419497f9722a3daafe3b4186f6b6457e060405160405180910390a35050565b6138a584848461339c565b6138b18484848461415d565b6138f0576040517f08c379a00000000000000000000000000000000000000000000000000000000081526004016138e790615b60565b60405180910390fd5b50505050565b6060600082141561393e576040518060400160405280600181526020017f30000000000000000000000000000000000000000000000000000000000000008152509050613a9e565b600082905060005b600082146139705780806139599061634f565b915050600a82613969919061612e565b9150613946565b60008167ffffffffffffffff8111156139b2577f4e487b7100000000000000000000000000000000000000000000000000000000600052604160045260246000fd5b6040519080825280601f01601f1916602001820160405280156139e45781602001600182028036833780820191505090505b5090505b60008514613a97576001826139fd91906161b9565b9150600a85613a0c91906163c2565b6030613a1891906160d8565b60f81b818381518110613a54577f4e487b7100000000000000000000000000000000000000000000000000000000600052603260045260246000fd5b60200101907effffffffffffffffffffffffffffffffffffffffffffffffffffffffffffff1916908160001a905350600a85613a90919061612e565b94506139e8565b8093505050505b919050565b60606000613ab083611ad8565b604051602001613ac09190615927565b604051602081830303815290604052905080915050919050565b6060600082511415613afd57604051806020016040528060008152509050613c74565b6000604051806060016040528060408152602001616f0c6040913990506000600360028551613b2c91906160d8565b613b36919061612e565b6004613b42919061615f565b90506000602082613b5391906160d8565b67ffffffffffffffff811115613b92577f4e487b7100000000000000000000000000000000000000000000000000000000600052604160045260246000fd5b6040519080825280601f01601f191660200182016040528015613bc45781602001600182028036833780820191505090505b509050818152600183018586518101602084015b81831015613c33576003830192508251603f8160121c168501518253600182019150603f81600c1c168501518253600182019150603f8160061c168501518253600182019150603f8116850151825360018201915050613bd8565b600389510660018114613c4d5760028114613c5d57613c68565b613d3d60f01b6002830352613c68565b603d60f81b60018303525b50505050508093505050505b919050565b606060006002836002613c8c919061615f565b613c9691906160d8565b67ffffffffffffffff811115613cd5577f4e487b7100000000000000000000000000000000000000000000000000000000600052604160045260246000fd5b6040519080825280601f01601f191660200182016040528015613d075781602001600182028036833780820191505090505b5090507f300000000000000000000000000000000000000000000000000000000000000081600081518110613d65577f4e487b7100000000000000000000000000000000000000000000000000000000600052603260045260246000fd5b60200101907effffffffffffffffffffffffffffffffffffffffffffffffffffffffffffff1916908160001a9053507f780000000000000000000000000000000000000000000000000000000000000081600181518110613def577f4e487b7100000000000000000000000000000000000000000000000000000000600052603260045260246000fd5b60200101907effffffffffffffffffffffffffffffffffffffffffffffffffffffffffffff1916908160001a90535060006001846002613e2f919061615f565b613e3991906160d8565b90505b6001811115613f25577f3031323334353637383961626364656600000000000000000000000000000000600f861660108110613ea1577f4e487b7100000000000000000000000000000000000000000000000000000000600052603260045260246000fd5b1a60f81b828281518110613ede577f4e487b7100000000000000000000000000000000000000000000000000000000600052603260045260246000fd5b60200101907effffffffffffffffffffffffffffffffffffffffffffffffffffffffffffff1916908160001a905350600485901c945080613f1e906162c2565b9050613e3c565b508091505092915050565b6001816000016000828254019250508190555050565b613fdc81604051602401613f5a9190615afe565b6040516020818303038152906040527f41304fac000000000000000000000000000000000000000000000000000000007bffffffffffffffffffffffffffffffffffffffffffffffffffffffff19166020820180517bffffffffffffffffffffffffffffffffffffffffffffffffffffffff83818316178352505050506142f4565b50565b60007f01ffc9a7000000000000000000000000000000000000000000000000000000007bffffffffffffffffffffffffffffffffffffffffffffffffffffffff1916827bffffffffffffffffffffffffffffffffffffffffffffffffffffffff1916149050919050565b61405483838361431d565b600073ffffffffffffffffffffffffffffffffffffffff168373ffffffffffffffffffffffffffffffffffffffff1614156140975761409281614322565b6140d6565b8173ffffffffffffffffffffffffffffffffffffffff168373ffffffffffffffffffffffffffffffffffffffff16146140d5576140d4838261436b565b5b5b600073ffffffffffffffffffffffffffffffffffffffff168273ffffffffffffffffffffffffffffffffffffffff16141561411957614114816144d8565b614158565b8273ffffffffffffffffffffffffffffffffffffffff168273ffffffffffffffffffffffffffffffffffffffff161461415757614156828261461b565b5b5b505050565b600061417e8473ffffffffffffffffffffffffffffffffffffffff1661469a565b156142e7578373ffffffffffffffffffffffffffffffffffffffff1663150b7a026141a76131fd565b8786866040518563ffffffff1660e01b81526004016141c99493929190615a31565b602060405180830381600087803b1580156141e357600080fd5b505af192505050801561421457506040513d601f19601f820116820180604052508101906142119190614d23565b60015b614297573d8060008114614244576040519150601f19603f3d011682016040523d82523d6000602084013e614249565b606091505b5060008151141561428f576040517f08c379a000000000000000000000000000000000000000000000000000000000815260040161428690615b60565b60405180910390fd5b805181602001fd5b63150b7a0260e01b7bffffffffffffffffffffffffffffffffffffffffffffffffffffffff1916817bffffffffffffffffffffffffffffffffffffffffffffffffffffffff1916149150506142ec565b600190505b949350505050565b60008151905060006a636f6e736f6c652e6c6f679050602083016000808483855afa5050505050565b505050565b6008805490506009600083815260200190815260200160002081905550600881908060018154018082558091505060019003906000526020600020016000909190919091505550565b600060016143788461136e565b61438291906161b9565b9050600060076000848152602001908152602001600020549050818114614467576000600660008673ffffffffffffffffffffffffffffffffffffffff1673ffffffffffffffffffffffffffffffffffffffff168152602001908152602001600020600084815260200190815260200160002054905080600660008773ffffffffffffffffffffffffffffffffffffffff1673ffffffffffffffffffffffffffffffffffffffff168152602001908152602001600020600084815260200190815260200160002081905550816007600083815260200190815260200160002081905550505b6007600084815260200190815260200160002060009055600660008573ffffffffffffffffffffffffffffffffffffffff1673ffffffffffffffffffffffffffffffffffffffff16815260200190815260200160002060008381526020019081526020016000206000905550505050565b600060016008805490506144ec91906161b9565b9050600060096000848152602001908152602001600020549050600060088381548110614542577f4e487b7100000000000000000000000000000000000000000000000000000000600052603260045260246000fd5b90600052602060002001549050806008838154811061458a577f4e487b7100000000000000000000000000000000000000000000000000000000600052603260045260246000fd5b9060005260206000200181905550816009600083815260200190815260200160002081905550600960008581526020019081526020016000206000905560088054806145ff577f4e487b7100000000000000000000000000000000000000000000000000000000600052603160045260246000fd5b6001900381819060005260206000200160009055905550505050565b60006146268361136e565b905081600660008573ffffffffffffffffffffffffffffffffffffffff1673ffffffffffffffffffffffffffffffffffffffff168152602001908152602001600020600083815260200190815260200160002081905550806007600084815260200190815260200160002081905550505050565b600080823b905060008111915050919050565b8280546146b9906162ec565b90600052602060002090601f0160209004810192826146db5760008555614722565b82601f106146f457805160ff1916838001178555614722565b82800160010185558215614722579182015b82811115614721578251825591602001919060010190614706565b5b50905061472f91906147ca565b5090565b60405180606001604052806060815260200160008152602001600073ffffffffffffffffffffffffffffffffffffffff1681525090565b8280548282559060005260206000209081019282156147b9579160200282015b828111156147b85782518290805190602001906147a89291906146ad565b509160200191906001019061478a565b5b5090506147c691906147e7565b5090565b5b808211156147e35760008160009055506001016147cb565b5090565b5b8082111561480757600081816147fe919061480b565b506001016147e8565b5090565b508054614817906162ec565b6000825580601f106148295750614848565b601f01602090049060005260206000209081019061484791906147ca565b5b50565b600061485e61485984615f4d565b615f28565b9050808382526020820190508285602086028201111561487d57600080fd5b60005b858110156148c757813567ffffffffffffffff81111561489f57600080fd5b8086016148ac8982614a33565b85526020850194506020840193505050600181019050614880565b5050509392505050565b60006148e46148df84615f79565b615f28565b9050828152602081018484840111156148fc57600080fd5b614907848285616280565b509392505050565b600061492261491d84615faa565b615f28565b90508281526020810184848401111561493a57600080fd5b614945848285616280565b509392505050565b600061496061495b84615faa565b615f28565b90508281526020810184848401111561497857600080fd5b61498384828561628f565b509392505050565b60008135905061499a81616e98565b92915050565b600082601f8301126149b157600080fd5b81356149c184826020860161484b565b91505092915050565b6000813590506149d981616eaf565b92915050565b6000813590506149ee81616ec6565b92915050565b600081519050614a0381616ec6565b92915050565b600082601f830112614a1a57600080fd5b8135614a2a8482602086016148d1565b91505092915050565b600082601f830112614a4457600080fd5b8135614a5484826020860161490f565b91505092915050565b600082601f830112614a6e57600080fd5b8151614a7e84826020860161494d565b91505092915050565b600060408284031215614a9957600080fd5b614aa36040615f28565b90506000614ab384828501614ae8565b6000830152506020614ac784828501614ae8565b60208301525092915050565b600081359050614ae281616edd565b92915050565b600081519050614af781616edd565b92915050565b600081359050614b0c81616ef4565b92915050565b600060208284031215614b2457600080fd5b6000614b328482850161498b565b91505092915050565b60008060408385031215614b4e57600080fd5b6000614b5c8582860161498b565b9250506020614b6d8582860161498b565b9150509250929050565b600080600060608486031215614b8c57600080fd5b6000614b9a8682870161498b565b9350506020614bab8682870161498b565b9250506040614bbc86828701614ad3565b9150509250925092565b60008060008060808587031215614bdc57600080fd5b6000614bea8782880161498b565b9450506020614bfb8782880161498b565b9350506040614c0c87828801614ad3565b925050606085013567ffffffffffffffff811115614c2957600080fd5b614c3587828801614a09565b91505092959194509250565b60008060408385031215614c5457600080fd5b6000614c628582860161498b565b9250506020614c73858286016149ca565b9150509250929050565b60008060408385031215614c9057600080fd5b6000614c9e8582860161498b565b9250506020614caf85828601614ad3565b9150509250929050565b600060208284031215614ccb57600080fd5b600082013567ffffffffffffffff811115614ce557600080fd5b614cf1848285016149a0565b91505092915050565b600060208284031215614d0c57600080fd5b6000614d1a848285016149df565b91505092915050565b600060208284031215614d3557600080fd5b6000614d43848285016149f4565b91505092915050565b600060208284031215614d5e57600080fd5b600082015167ffffffffffffffff811115614d7857600080fd5b614d8484828501614a5d565b91505092915050565b60008060408385031215614da057600080fd5b600083013567ffffffffffffffff811115614dba57600080fd5b614dc685828601614a33565b9250506020614dd785828601614afd565b9150509250929050565b600060408284031215614df357600080fd5b6000614e0184828501614a87565b91505092915050565b600060208284031215614e1c57600080fd5b6000614e2a84828501614ad3565b91505092915050565b60008060408385031215614e4657600080fd5b6000614e5485828601614ad3565b9250506020614e6585828601614ad3565b9150509250929050565b6000614e7b838361506b565b905092915050565b6000614e8f8383615784565b905092915050565b614ea0816161ff565b82525050565b614eaf816161ed565b82525050565b614ebe816161ed565b82525050565b6000614ecf82616010565b614ed98185616056565b935083602082028501614eeb85615fdb565b8060005b85811015614f275784840389528151614f088582614e6f565b9450614f138361603c565b925060208a01995050600181019050614eef565b50829750879550505050505092915050565b6000614f4482616010565b614f4e8185616067565b935083602082028501614f6085615fdb565b8060005b85811015614f9c5784840389528151614f7d8582614e6f565b9450614f888361603c565b925060208a01995050600181019050614f64565b50829750879550505050505092915050565b6000614fb98261601b565b614fc38185616078565b935083602082028501614fd585615feb565b8060005b858110156150115784840389528151614ff28582614e83565b9450614ffd83616049565b925060208a01995050600181019050614fd9565b50829750879550505050505092915050565b61502c81616211565b82525050565b600061503d82616026565b6150478185616089565b935061505781856020860161628f565b615060816164af565b840191505092915050565b600061507682616031565b615080818561609a565b935061509081856020860161628f565b615099816164af565b840191505092915050565b60006150af82616031565b6150b981856160ab565b93506150c981856020860161628f565b6150d2816164af565b840191505092915050565b60006150e882616031565b6150f281856160bc565b935061510281856020860161628f565b61510b816164af565b840191505092915050565b600061512182616031565b61512b81856160cd565b935061513b81856020860161628f565b80840191505092915050565b60008154615154816162ec565b61515e81866160cd565b94506001821660008114615179576001811461518a576151bd565b60ff198316865281860193506151bd565b61519385615ffb565b60005b838110156151b557815481890152600182019150602081019050615196565b838801955050505b50505092915050565b60006151d36009836160cd565b91506151de826164c0565b600982019050919050565b60006151f6601a836160ab565b9150615201826164e9565b602082019050919050565b6000615219602b836160ab565b915061522482616512565b604082019050919050565b600061523c6032836160ab565b915061524782616561565b604082019050919050565b600061525f6041836160cd565b915061526a826165b0565b604182019050919050565b60006152826026836160ab565b915061528d82616625565b604082019050919050565b60006152a5601c836160ab565b91506152b082616674565b602082019050919050565b60006152c8600c836160cd565b91506152d38261669d565b600c82019050919050565b60006152eb6024836160ab565b91506152f6826166c6565b604082019050919050565b600061530e6008836160cd565b915061531982616715565b600882019050919050565b60006153316019836160ab565b915061533c8261673e565b602082019050919050565b6000615354600a836160ab565b915061535f82616767565b602082019050919050565b6000615377602c836160ab565b915061538282616790565b604082019050919050565b600061539a6001836160cd565b91506153a5826167df565b600182019050919050565b60006153bd6038836160ab565b91506153c882616808565b604082019050919050565b60006153e0602a836160ab565b91506153eb82616857565b604082019050919050565b60006154036029836160ab565b915061540e826168a6565b604082019050919050565b6000615426602e836160ab565b9150615431826168f5565b604082019050919050565b60006154496002836160cd565b915061545482616944565b600282019050919050565b600061546c6007836160cd565b91506154778261696d565b600782019050919050565b600061548f6015836160ab565b915061549a82616996565b602082019050919050565b60006154b26020836160ab565b91506154bd826169bf565b602082019050919050565b60006154d5600d836160cd565b91506154e0826169e8565b600d82019050919050565b60006154f8602c836160ab565b915061550382616a11565b604082019050919050565b600061551b6012836160cd565b915061552682616a60565b601282019050919050565b600061553e6020836160ab565b915061554982616a89565b602082019050919050565b60006155616029836160ab565b915061556c82616ab2565b604082019050919050565b6000615584601f836160ab565b915061558f82616b01565b602082019050919050565b60006155a76028836160cd565b91506155b282616b2a565b602882019050919050565b60006155ca6021836160ab565b91506155d582616b79565b604082019050919050565b60006155ed602f836160cd565b91506155f882616bc8565b602f82019050919050565b6000615610601d836160cd565b915061561b82616c17565b601d82019050919050565b60006156336029836160ab565b915061563e82616c40565b604082019050919050565b60006156566031836160ab565b915061566182616c8f565b604082019050919050565b6000615679602e836160cd565b915061568482616cde565b602e82019050919050565b600061569c602c836160ab565b91506156a782616d2d565b604082019050919050565b60006156bf601f836160ab565b91506156ca82616d7c565b602082019050919050565b60006156e2601c836160cd565b91506156ed82616da5565b601c82019050919050565b6000615705600e836160ab565b915061571082616dce565b602082019050919050565b60006157286006836160cd565b915061573382616df7565b600682019050919050565b600061574b601a836160cd565b915061575682616e20565b601a82019050919050565b600061576e6029836160cd565b915061577982616e49565b602982019050919050565b600060608301600083015184820360008601526157a18282614ec4565b91505060208301516157b66020860182615853565b5060408301516157c96040860182614ea6565b508091505092915050565b600060608301600083015184820360008601526157f18282614ec4565b91505060208301516158066020860182615853565b5060408301516158196040860182614ea6565b508091505092915050565b60408201600082015161583a6000850182615871565b50602082015161584d6020850182615871565b50505050565b61585c81616269565b82525050565b61586b81616269565b82525050565b61587a81616269565b82525050565b61588981616273565b82525050565b600061589a826151c6565b91506158a68288615116565b91506158b18261550e565b91506158bd8287615116565b91506158c8826155e0565b91506158d48286615116565b91506158df826152bb565b91506158eb8285615116565b91506158f6826154c8565b91506159018261573e565b915061590d8284615116565b91506159188261543c565b91508190509695505050505050565b600061593282615252565b915061593e8284615116565b91506159498261571b565b915081905092915050565b600061595f82615301565b915061596b8284615116565b915081905092915050565b600061598182615603565b915061598d8284615116565b915081905092915050565b60006159a38261566c565b91506159ae82615761565b91506159ba8284615147565b91506159c58261538d565b91506159d08261559a565b91506159db8261545f565b915081905092915050565b60006159f1826156d5565b9150819050919050565b6000602082019050615a106000830184614eb5565b92915050565b6000602082019050615a2b6000830184614e97565b92915050565b6000608082019050615a466000830187614eb5565b615a536020830186614eb5565b615a606040830185615862565b8181036060830152615a728184615032565b905095945050505050565b60006020820190508181036000830152615a978184614f39565b905092915050565b60006020820190508181036000830152615ab98184614fae565b905092915050565b6000602082019050615ad66000830184615023565b92915050565b60006020820190508181036000830152615af681846150dd565b905092915050565b60006020820190508181036000830152615b1881846150a4565b905092915050565b60006020820190508181036000830152615b39816151e9565b9050919050565b60006020820190508181036000830152615b598161520c565b9050919050565b60006020820190508181036000830152615b798161522f565b9050919050565b60006020820190508181036000830152615b9981615275565b9050919050565b60006020820190508181036000830152615bb981615298565b9050919050565b60006020820190508181036000830152615bd9816152de565b9050919050565b60006020820190508181036000830152615bf981615324565b9050919050565b60006020820190508181036000830152615c1981615347565b9050919050565b60006020820190508181036000830152615c398161536a565b9050919050565b60006020820190508181036000830152615c59816153b0565b9050919050565b60006020820190508181036000830152615c79816153d3565b9050919050565b60006020820190508181036000830152615c99816153f6565b9050919050565b60006020820190508181036000830152615cb981615419565b9050919050565b60006020820190508181036000830152615cd981615482565b9050919050565b60006020820190508181036000830152615cf9816154a5565b9050919050565b60006020820190508181036000830152615d19816154eb565b9050919050565b60006020820190508181036000830152615d3981615531565b9050919050565b60006020820190508181036000830152615d5981615554565b9050919050565b60006020820190508181036000830152615d7981615577565b9050919050565b60006020820190508181036000830152615d99816155bd565b9050919050565b60006020820190508181036000830152615db981615626565b9050919050565b60006020820190508181036000830152615dd981615649565b9050919050565b60006020820190508181036000830152615df98161568f565b9050919050565b60006020820190508181036000830152615e19816156b2565b9050919050565b60006020820190508181036000830152615e39816156f8565b9050919050565b60006020820190508181036000830152615e5a81846157d4565b905092915050565b6000604082019050615e776000830184615824565b92915050565b6000608082019050615e926000830185615824565b615e9f6040830184615824565b9392505050565b6000602082019050615ebb6000830184615862565b92915050565b6000608082019050615ed66000830187615862565b8181036020830152615ee881866150a4565b9050615ef76040830185615880565b615f046060830184615023565b95945050505050565b6000602082019050615f226000830184615880565b92915050565b6000615f32615f43565b9050615f3e828261631e565b919050565b6000604051905090565b600067ffffffffffffffff821115615f6857615f67616480565b5b602082029050602081019050919050565b600067ffffffffffffffff821115615f9457615f93616480565b5b615f9d826164af565b9050602081019050919050565b600067ffffffffffffffff821115615fc557615fc4616480565b5b615fce826164af565b9050602081019050919050565b6000819050602082019050919050565b6000819050602082019050919050565b60008190508160005260206000209050919050565b600081519050919050565b600081519050919050565b600081519050919050565b600081519050919050565b6000602082019050919050565b6000602082019050919050565b600082825260208201905092915050565b600082825260208201905092915050565b600082825260208201905092915050565b600082825260208201905092915050565b600082825260208201905092915050565b600082825260208201905092915050565b600082825260208201905092915050565b600081905092915050565b60006160e382616269565b91506160ee83616269565b9250827fffffffffffffffffffffffffffffffffffffffffffffffffffffffffffffffff03821115616123576161226163f3565b5b828201905092915050565b600061613982616269565b915061614483616269565b92508261615457616153616422565b5b828204905092915050565b600061616a82616269565b915061617583616269565b9250817fffffffffffffffffffffffffffffffffffffffffffffffffffffffffffffffff04831182151516156161ae576161ad6163f3565b5b828202905092915050565b60006161c482616269565b91506161cf83616269565b9250828210156161e2576161e16163f3565b5b828203905092915050565b60006161f882616249565b9050919050565b600061620a82616249565b9050919050565b60008115159050919050565b60007fffffffff0000000000000000000000000000000000000000000000000000000082169050919050565b600073ffffffffffffffffffffffffffffffffffffffff82169050919050565b6000819050919050565b600060ff82169050919050565b82818337600083830152505050565b60005b838110156162ad578082015181840152602081019050616292565b838111156162bc576000848401525b50505050565b60006162cd82616269565b915060008214156162e1576162e06163f3565b5b600182039050919050565b6000600282049050600182168061630457607f821691505b6020821081141561631857616317616451565b5b50919050565b616327826164af565b810181811067ffffffffffffffff8211171561634657616345616480565b5b80604052505050565b600061635a82616269565b91507fffffffffffffffffffffffffffffffffffffffffffffffffffffffffffffffff82141561638d5761638c6163f3565b5b600182019050919050565b60006163a382616273565b915060ff8214156163b7576163b66163f3565b5b600182019050919050565b60006163cd82616269565b91506163d883616269565b9250826163e8576163e7616422565b5b828206905092915050565b7f4e487b7100000000000000000000000000000000000000000000000000000000600052601160045260246000fd5b7f4e487b7100000000000000000000000000000000000000000000000000000000600052601260045260246000fd5b7f4e487b7100000000000000000000000000000000000000000000000000000000600052602260045260246000fd5b7f4e487b7100000000000000000000000000000000000000000000000000000000600052604160045260246000fd5b6000601f19601f8301169050919050565b7f7b226e616d65223a220000000000000000000000000000000000000000000000600082015250565b7f6e6f74207269676874206e756d626572206f6620776f72647321000000000000600082015250565b7f455243373231456e756d657261626c653a206f776e657220696e646578206f7560008201527f74206f6620626f756e6473000000000000000000000000000000000000000000602082015250565b7f4552433732313a207472616e7366657220746f206e6f6e20455243373231526560008201527f63656976657220696d706c656d656e7465720000000000000000000000000000602082015250565b7f3c7376672077696474683d2233303022206865696768743d223330302220786d60008201527f6c6e733d22687474703a2f2f7777772e77332e6f72672f323030302f7376672260208201527f3e00000000000000000000000000000000000000000000000000000000000000604082015250565b7f4f776e61626c653a206e6577206f776e657220697320746865207a65726f206160008201527f6464726573730000000000000000000000000000000000000000000000000000602082015250565b7f4552433732313a20746f6b656e20616c7265616479206d696e74656400000000600082015250565b7f222c20226f776e6572223a220000000000000000000000000000000000000000600082015250565b7f4552433732313a207472616e7366657220746f20746865207a65726f2061646460008201527f7265737300000000000000000000000000000000000000000000000000000000602082015250565b7f4d61644c69622023000000000000000000000000000000000000000000000000600082015250565b7f4552433732313a20617070726f766520746f2063616c6c657200000000000000600082015250565b7f4e6f742065786973742100000000000000000000000000000000000000000000600082015250565b7f4552433732313a206f70657261746f7220717565727920666f72206e6f6e657860008201527f697374656e7420746f6b656e0000000000000000000000000000000000000000602082015250565b7f2000000000000000000000000000000000000000000000000000000000000000600082015250565b7f4552433732313a20617070726f76652063616c6c6572206973206e6f74206f7760008201527f6e6572206e6f7220617070726f76656420666f7220616c6c0000000000000000602082015250565b7f4552433732313a2062616c616e636520717565727920666f7220746865207a6560008201527f726f206164647265737300000000000000000000000000000000000000000000602082015250565b7f4552433732313a206f776e657220717565727920666f72206e6f6e657869737460008201527f656e7420746f6b656e0000000000000000000000000000000000000000000000602082015250565b7f506c6179657220616c72656164792068617320612070726f706f73616c20666f60008201527f722074686973204d61644c696221000000000000000000000000000000000000602082015250565b7f227d000000000000000000000000000000000000000000000000000000000000600082015250565b7f3c2f746578743e00000000000000000000000000000000000000000000000000600082015250565b7f796f7520617265206e6f7420746865206f776e65720000000000000000000000600082015250565b7f4552433732313a206d696e7420746f20746865207a65726f2061646472657373600082015250565b7f222c2022696d616765223a202200000000000000000000000000000000000000600082015250565b7f4552433732313a20617070726f76656420717565727920666f72206e6f6e657860008201527f697374656e7420746f6b656e0000000000000000000000000000000000000000602082015250565b7f222c20226465736372697074696f6e223a220000000000000000000000000000600082015250565b7f4f776e61626c653a2063616c6c6572206973206e6f7420746865206f776e6572600082015250565b7f4552433732313a207472616e73666572206f6620746f6b656e2074686174206960008201527f73206e6f74206f776e0000000000000000000000000000000000000000000000602082015250565b7f53656c6563746564204d61644c696220616c726561647920636c6f7365642100600082015250565b7f3c747370616e20783d2231352220793d223835223e5858585858203c2f74737060008201527f616e3e2058585858000000000000000000000000000000000000000000000000602082015250565b7f4552433732313a20617070726f76616c20746f2063757272656e74206f776e6560008201527f7200000000000000000000000000000000000000000000000000000000000000602082015250565b7f222c202265787465726e616c5f75726c223a2268747470733a2f2f6275726e7960008201527f626f79732e636f6d2f746f6b656e2f0000000000000000000000000000000000602082015250565b7f646174613a6170706c69636174696f6e2f6a736f6e3b6261736536342c000000600082015250565b7f50726f706f73616c206d75737420626520666f72206f70656e2f63757272656e60008201527f74204d61644c6962210000000000000000000000000000000000000000000000602082015250565b7f4552433732313a207472616e736665722063616c6c6572206973206e6f74206f60008201527f776e6572206e6f7220617070726f766564000000000000000000000000000000602082015250565b7f3c726563742077696474683d2239392522206865696768743d2239392522206660008201527f696c6c3d22776869746522202f3e000000000000000000000000000000000000602082015250565b7f455243373231456e756d657261626c653a20676c6f62616c20696e646578206f60008201527f7574206f6620626f756e64730000000000000000000000000000000000000000602082015250565b7f50726576696f7573204d61644c6962206e6f7420636c6f736564207965742100600082015250565b7f54686973206973204d61624c6962732047616d65206f6e436861696e00000000600082015250565b7f546f6f206d75636820766f746573000000000000000000000000000000000000600082015250565b7f3c2f7376673e0000000000000000000000000000000000000000000000000000600082015250565b7f646174613a696d6167652f7376672b786d6c3b6261736536342c000000000000600082015250565b7f3c7465787420783d2231352220793d22333022207374796c653d2266696c6c3a60008201527f626c61636b3b223e200000000000000000000000000000000000000000000000602082015250565b616ea1816161ed565b8114616eac57600080fd5b50565b616eb881616211565b8114616ec357600080fd5b50565b616ecf8161621d565b8114616eda57600080fd5b50565b616ee681616269565b8114616ef157600080fd5b50565b616efd81616273565b8114616f0857600080fd5b5056fe4142434445464748494a4b4c4d4e4f505152535455565758595a6162636465666768696a6b6c6d6e6f707172737475767778797a303132333435363738392b2fa26469706673582212201f8ead6b335e587aec7414958e9d6de0918847e5266671125717f4579b41032764736f6c63430008040033",
  "linkReferences": {
    "contracts/strings.sol": {
      "strings": [
        {
          "length": 20,
          "start": 9852
        },
        {
          "length": 20,
          "start": 10045
        },
        {
          "length": 20,
          "start": 10396
        },
        {
          "length": 20,
          "start": 10636
        },
        {
          "length": 20,
          "start": 10718
        },
        {
          "length": 20,
          "start": 11029
        },
        {
          "length": 20,
          "start": 11235
        },
        {
          "length": 20,
          "start": 11372
        },
        {
          "length": 20,
          "start": 11514
        },
        {
          "length": 20,
          "start": 11651
        },
        {
          "length": 20,
          "start": 11743
        },
        {
          "length": 20,
          "start": 11992
        },
        {
          "length": 20,
          "start": 12129
        },
        {
          "length": 20,
          "start": 12271
        },
        {
          "length": 20,
          "start": 12432
        },
        {
          "length": 20,
          "start": 12579
        }
      ]
    }
  },
  "deployedLinkReferences": {
    "contracts/strings.sol": {
      "strings": [
        {
          "length": 20,
          "start": 9098
        },
        {
          "length": 20,
          "start": 9291
        },
        {
          "length": 20,
          "start": 9642
        },
        {
          "length": 20,
          "start": 9882
        },
        {
          "length": 20,
          "start": 9964
        },
        {
          "length": 20,
          "start": 10275
        },
        {
          "length": 20,
          "start": 10481
        },
        {
          "length": 20,
          "start": 10618
        },
        {
          "length": 20,
          "start": 10760
        },
        {
          "length": 20,
          "start": 10897
        },
        {
          "length": 20,
          "start": 10989
        },
        {
          "length": 20,
          "start": 11238
        },
        {
          "length": 20,
          "start": 11375
        },
        {
          "length": 20,
          "start": 11517
        },
        {
          "length": 20,
          "start": 11678
        },
        {
          "length": 20,
          "start": 11825
        }
      ]
    }
  }
}