{
  "_format": "hh-sol-artifact-1",
  "contractName": "MadLibsUtility",
  "sourceName": "contracts/MadLibsUtility.sol",
  "abi": [
    {
      "inputs": [
        {
          "internalType": "string[]",
          "name": "array",
          "type": "string[]"
        },
        {
          "internalType": "uint256",
          "name": "limit",
          "type": "uint256"
        }
      ],
      "name": "checkLenArray",
      "outputs": [
        {
          "internalType": "bool",
          "name": "",
          "type": "bool"
        }
      ],
      "stateMutability": "pure",
      "type": "function"
    },
    {
      "inputs": [
        {
          "internalType": "string",
          "name": "text",
          "type": "string"
        },
        {
          "internalType": "uint256",
          "name": "nBlanks",
          "type": "uint256"
        },
        {
          "internalType": "string[]",
          "name": "replacements",
          "type": "string[]"
        }
      ],
      "name": "replacePlaceholders",
      "outputs": [
        {
          "internalType": "string",
          "name": "",
          "type": "string"
        }
      ],
      "stateMutability": "pure",
      "type": "function"
    },
    {
      "inputs": [
        {
          "internalType": "string",
          "name": "s",
          "type": "string"
        }
      ],
      "name": "strlen",
      "outputs": [
        {
          "internalType": "uint256",
          "name": "",
          "type": "uint256"
        }
      ],
      "stateMutability": "pure",
      "type": "function"
    },
    {
      "inputs": [
        {
          "internalType": "uint256",
          "name": "_id",
          "type": "uint256"
        },
        {
          "internalType": "address",
          "name": "owner",
          "type": "address"
        },
        {
          "internalType": "string",
          "name": "text",
          "type": "string"
        }
      ],
      "name": "tokenURI",
      "outputs": [
        {
          "internalType": "string",
          "name": "",
          "type": "string"
        }
      ],
      "stateMutability": "pure",
      "type": "function"
    }
  ],
  "bytecode": "0x61249d610053600b82828239805160001a607314610046577f4e487b7100000000000000000000000000000000000000000000000000000000600052600060045260246000fd5b30600052607381538281f3fe73000000000000000000000000000000000000000030146080604052600436106100565760003560e01c8063367bbd781461005b5780633f0cb6081461008b578063402bb28a146100bb578063ad19f05b146100eb575b600080fd5b6100756004803603810190610070919061138f565b61011b565b604051610082919061193c565b60405180910390f35b6100a560048036038101906100a0919061133b565b6102f6565b6040516100b291906118ff565b60405180910390f35b6100d560048036038101906100d091906113d0565b610380565b6040516100e2919061191a565b60405180910390f35b6101056004803603810190610100919061144f565b61060c565b604051610112919061191a565b60405180910390f35b60008060008084519050600092505b808210156102eb57600085838151811061016d577f4e487b7100000000000000000000000000000000000000000000000000000000600052603260045260246000fd5b602001015160f81c60f81b9050608060f81b817effffffffffffffffffffffffffffffffffffffffffffffffffffffffffffff191610156101bc576001836101b59190611a00565b92506102d7565b60e060f81b817effffffffffffffffffffffffffffffffffffffffffffffffffffffffffffff191610156101fe576002836101f79190611a00565b92506102d6565b60f060f81b817effffffffffffffffffffffffffffffffffffffffffffffffffffffffffffff19161015610240576003836102399190611a00565b92506102d5565b60f8801b817effffffffffffffffffffffffffffffffffffffffffffffffffffffffffffff191610156102815760048361027a9190611a00565b92506102d4565b60fc60f81b817effffffffffffffffffffffffffffffffffffffffffffffffffffffffffffff191610156102c3576005836102bc9190611a00565b92506102d3565b6006836102d09190611a00565b92505b5b5b5b5b5082806102e390611d6b565b93505061012a565b829350505050919050565b600080600090505b83518110156103745782610351858381518110610344577f4e487b7100000000000000000000000000000000000000000000000000000000600052603260045260246000fd5b602002602001015161011b565b111561036157600091505061037a565b808061036c90611d6b565b9150506102fe565b50600190505b92915050565b606060008367ffffffffffffffff8111156103c4577f4e487b7100000000000000000000000000000000000000000000000000000000600052604160045260246000fd5b6040519080825280602002602001820160405280156103fd57816020015b6103ea6111df565b8152602001906001900390816103e25790505b509050600061041a604051806020016040528060008152506106fd565b9050600061045c6040518060400160405280600181526020017f20000000000000000000000000000000000000000000000000000000000000008152506106fd565b90506000610469886106fd565b905060005b878110156105f5576104c66104b76040518060400160405280600181526020017f23000000000000000000000000000000000000000000000000000000000000008152506106fd565b8361072b90919063ffffffff16565b8582815181106104ff577f4e487b7100000000000000000000000000000000000000000000000000000000600052603260045260246000fd5b602002602001018190525061055c6105578587848151811061054a577f4e487b7100000000000000000000000000000000000000000000000000000000600052603260045260246000fd5b6020026020010151610745565b6106fd565b935061057061056b8585610745565b6106fd565b93506105cc6105c7856105c28a85815181106105b5577f4e487b7100000000000000000000000000000000000000000000000000000000600052603260045260246000fd5b60200260200101516106fd565b610745565b6106fd565b93506105e06105db8585610745565b6106fd565b935080806105ed90611d6b565b91505061046e565b506105ff83610819565b9450505050509392505050565b60606000610619856108bb565b604051602001610629919061182b565b6040516020818303038152906040529050600060405160200161064b906118ea565b6040516020818303038152906040529050600061066f61066a86610a68565b610a9f565b90506106d2838361067f8a6108bb565b6106a960148b73ffffffffffffffffffffffffffffffffffffffff16610c3e90919063ffffffff16565b856040516020016106be959493929190611793565b604051602081830303815290604052610a9f565b6040516020016106e291906118c8565b60405160208183030381529060405293505050509392505050565b6107056111df565b600060208301905060405180604001604052808451815260200182815250915050919050565b6107336111df565b61073e838383610ef5565b5092915050565b606060008260000151846000015161075d9190611a00565b67ffffffffffffffff81111561079c577f4e487b7100000000000000000000000000000000000000000000000000000000600052604160045260246000fd5b6040519080825280601f01601f1916602001820160405280156107ce5781602001600182028036833780820191505090505b50905060006020820190506107ec8186602001518760000151610fc0565b61080e8560000151826107ff9190611a00565b85602001518660000151610fc0565b819250505092915050565b60606000826000015167ffffffffffffffff811115610861577f4e487b7100000000000000000000000000000000000000000000000000000000600052604160045260246000fd5b6040519080825280601f01601f1916602001820160405280156108935781602001600182028036833780820191505090505b50905060006020820190506108b18185602001518660000151610fc0565b8192505050919050565b60606000821415610903576040518060400160405280600181526020017f30000000000000000000000000000000000000000000000000000000000000008152509050610a63565b600082905060005b6000821461093557808061091e90611d6b565b915050600a8261092e9190611a56565b915061090b565b60008167ffffffffffffffff811115610977577f4e487b7100000000000000000000000000000000000000000000000000000000600052604160045260246000fd5b6040519080825280601f01601f1916602001820160405280156109a95781602001600182028036833780820191505090505b5090505b60008514610a5c576001826109c29190611c52565b9150600a856109d19190611db4565b60306109dd9190611a00565b60f81b818381518110610a19577f4e487b7100000000000000000000000000000000000000000000000000000000600052603260045260246000fd5b60200101907effffffffffffffffffffffffffffffffffffffffffffffffffffffffffffff1916908160001a905350600a85610a559190611a56565b94506109ad565b8093505050505b919050565b60606000610a758361106c565b604051602001610a85919061184d565b604051602081830303815290604052905080915050919050565b6060600082511415610ac257604051806020016040528060008152509050610c39565b60006040518060600160405280604081526020016124286040913990506000600360028551610af19190611a00565b610afb9190611a56565b6004610b079190611bf8565b90506000602082610b189190611a00565b67ffffffffffffffff811115610b57577f4e487b7100000000000000000000000000000000000000000000000000000000600052604160045260246000fd5b6040519080825280601f01601f191660200182016040528015610b895781602001600182028036833780820191505090505b509050818152600183018586518101602084015b81831015610bf8576003830192508251603f8160121c168501518253600182019150603f81600c1c168501518253600182019150603f8160061c168501518253600182019150603f8116850151825360018201915050610b9d565b600389510660018114610c125760028114610c2257610c2d565b613d3d60f01b6002830352610c2d565b603d60f81b60018303525b50505050508093505050505b919050565b606060006002836002610c519190611bf8565b610c5b9190611a00565b67ffffffffffffffff811115610c9a577f4e487b7100000000000000000000000000000000000000000000000000000000600052604160045260246000fd5b6040519080825280601f01601f191660200182016040528015610ccc5781602001600182028036833780820191505090505b5090507f300000000000000000000000000000000000000000000000000000000000000081600081518110610d2a577f4e487b7100000000000000000000000000000000000000000000000000000000600052603260045260246000fd5b60200101907effffffffffffffffffffffffffffffffffffffffffffffffffffffffffffff1916908160001a9053507f780000000000000000000000000000000000000000000000000000000000000081600181518110610db4577f4e487b7100000000000000000000000000000000000000000000000000000000600052603260045260246000fd5b60200101907effffffffffffffffffffffffffffffffffffffffffffffffffffffffffffff1916908160001a90535060006001846002610df49190611bf8565b610dfe9190611a00565b90505b6001811115610eea577f3031323334353637383961626364656600000000000000000000000000000000600f861660108110610e66577f4e487b7100000000000000000000000000000000000000000000000000000000600052603260045260246000fd5b1a60f81b828281518110610ea3577f4e487b7100000000000000000000000000000000000000000000000000000000600052603260045260246000fd5b60200101907effffffffffffffffffffffffffffffffffffffffffffffffffffffffffffff1916908160001a905350600485901c945080610ee390611d10565b9050610e01565b508091505092915050565b610efd6111df565b6000610f1b8560000151866020015186600001518760200151611095565b90508460200151836020018181525050846020015181610f3b9190611c52565b83600001818152505084600001518560200151610f589190611a00565b811415610f6f576000856000018181525050610fb5565b83600001518360000151610f839190611a00565b85600001818151610f949190611c52565b91508181525050836000015181610fab9190611a00565b8560200181815250505b829150509392505050565b5b60208110610fff5781518352602083610fda9190611a00565b9250602082610fe99190611a00565b9150602081610ff89190611c52565b9050610fc1565b60007fffffffffffffffffffffffffffffffffffffffffffffffffffffffffffffffff9050600082111561105657600182602061103c9190611c52565b6101006110499190611ada565b6110539190611c52565b90505b8019835116818551168181178652505050505050565b60608160405160200161107f919061189b565b6040516020818303038152906040529050919050565b60008084905060008685116111c65760208511611168576000808611156110ee5760018660206110c59190611c52565b60086110d19190611bf8565b60026110dd9190611ada565b6110e79190611c52565b1960001b90505b60008186511690506000878a8a6111059190611a00565b61110f9190611c52565b905060008386511690505b82811461115a57818610611141578a8a6111349190611a00565b96505050505050506111d7565b858061114c90611d6b565b96505083865116905061111a565b8596505050505050506111d7565b60008585209050600091505b85886111809190611c52565b82116111c45760008684209050808214156111a157839450505050506111d7565b6001846111ae9190611a00565b93505081806111bc90611d6b565b925050611174565b505b86866111d29190611a00565b925050505b949350505050565b604051806040016040528060008152602001600081525090565b600061120c6112078461197c565b611957565b9050808382526020820190508285602086028201111561122b57600080fd5b60005b8581101561127557813567ffffffffffffffff81111561124d57600080fd5b80860161125a89826112fc565b8552602085019450602084019350505060018101905061122e565b5050509392505050565b600061129261128d846119a8565b611957565b9050828152602081018484840111156112aa57600080fd5b6112b5848285611cce565b509392505050565b6000813590506112cc816123f9565b92915050565b600082601f8301126112e357600080fd5b81356112f38482602086016111f9565b91505092915050565b600082601f83011261130d57600080fd5b813561131d84826020860161127f565b91505092915050565b60008135905061133581612410565b92915050565b6000806040838503121561134e57600080fd5b600083013567ffffffffffffffff81111561136857600080fd5b611374858286016112d2565b925050602061138585828601611326565b9150509250929050565b6000602082840312156113a157600080fd5b600082013567ffffffffffffffff8111156113bb57600080fd5b6113c7848285016112fc565b91505092915050565b6000806000606084860312156113e557600080fd5b600084013567ffffffffffffffff8111156113ff57600080fd5b61140b868287016112fc565b935050602061141c86828701611326565b925050604084013567ffffffffffffffff81111561143957600080fd5b611445868287016112d2565b9150509250925092565b60008060006060848603121561146457600080fd5b600061147286828701611326565b9350506020611483868287016112bd565b925050604084013567ffffffffffffffff8111156114a057600080fd5b6114ac868287016112fc565b9150509250925092565b6114bf81611c98565b82525050565b60006114d0826119d9565b6114da81856119e4565b93506114ea818560208601611cdd565b6114f381611e72565b840191505092915050565b6000611509826119d9565b61151381856119f5565b9350611523818560208601611cdd565b80840191505092915050565b600061153c6009836119f5565b915061154782611e90565b600982019050919050565b600061155f603b836119f5565b915061156a82611eb9565b603b82019050919050565b6000611582600c836119f5565b915061158d82611f08565b600c82019050919050565b60006115a56008836119f5565b91506115b082611f31565b600882019050919050565b60006115c8606c836119f5565b91506115d382611f5a565b606c82019050919050565b60006115eb601e836119f5565b91506115f682611ff5565b601e82019050919050565b600061160f610174836119f5565b915061161a8261201e565b61017482019050919050565b6000611633603b836119f5565b915061163e826121ed565b603b82019050919050565b60006116566002836119f5565b91506116618261223c565b600282019050919050565b6000611679600d836119f5565b915061168482612265565b600d82019050919050565b600061169c6012836119f5565b91506116a78261228e565b601282019050919050565b60006116bf602f836119f5565b91506116ca826122b7565b602f82019050919050565b60006116e2601d836119f5565b91506116ed82612306565b601d82019050919050565b6000611705601c836119f5565b91506117108261232f565b601c82019050919050565b60006117286006836119f5565b915061173382612358565b600682019050919050565b600061174b6039836119f5565b915061175682612381565b603982019050919050565b600061176e601a836119f5565b9150611779826123d0565b601a82019050919050565b61178d81611cc4565b82525050565b600061179e8261152f565b91506117aa82886114fe565b91506117b58261168f565b91506117c182876114fe565b91506117cc826116b2565b91506117d882866114fe565b91506117e382611575565b91506117ef82856114fe565b91506117fa8261166c565b915061180582611761565b915061181182846114fe565b915061181c82611649565b91508190509695505050505050565b600061183682611598565b915061184282846114fe565b915081905092915050565b6000611858826115bb565b915061186382611552565b915061186e82611626565b91506118798261173e565b915061188582846114fe565b91506118908261171b565b915081905092915050565b60006118a682611601565b91506118b282846114fe565b91506118bd826115de565b915081905092915050565b60006118d3826116d5565b91506118df82846114fe565b915081905092915050565b60006118f5826116f8565b9150819050919050565b600060208201905061191460008301846114b6565b92915050565b6000602082019050818103600083015261193481846114c5565b905092915050565b60006020820190506119516000830184611784565b92915050565b6000611961611972565b905061196d8282611d3a565b919050565b6000604051905090565b600067ffffffffffffffff82111561199757611996611e43565b5b602082029050602081019050919050565b600067ffffffffffffffff8211156119c3576119c2611e43565b5b6119cc82611e72565b9050602081019050919050565b600081519050919050565b600082825260208201905092915050565b600081905092915050565b6000611a0b82611cc4565b9150611a1683611cc4565b9250827fffffffffffffffffffffffffffffffffffffffffffffffffffffffffffffffff03821115611a4b57611a4a611de5565b5b828201905092915050565b6000611a6182611cc4565b9150611a6c83611cc4565b925082611a7c57611a7b611e14565b5b828204905092915050565b6000808291508390505b6001851115611ad157808604811115611aad57611aac611de5565b5b6001851615611abc5780820291505b8081029050611aca85611e83565b9450611a91565b94509492505050565b6000611ae582611cc4565b9150611af083611cc4565b9250611b1d7fffffffffffffffffffffffffffffffffffffffffffffffffffffffffffffffff8484611b25565b905092915050565b600082611b355760019050611bf1565b81611b435760009050611bf1565b8160018114611b595760028114611b6357611b92565b6001915050611bf1565b60ff841115611b7557611b74611de5565b5b8360020a915084821115611b8c57611b8b611de5565b5b50611bf1565b5060208310610133831016604e8410600b8410161715611bc75782820a905083811115611bc257611bc1611de5565b5b611bf1565b611bd48484846001611a87565b92509050818404811115611beb57611bea611de5565b5b81810290505b9392505050565b6000611c0382611cc4565b9150611c0e83611cc4565b9250817fffffffffffffffffffffffffffffffffffffffffffffffffffffffffffffffff0483118215151615611c4757611c46611de5565b5b828202905092915050565b6000611c5d82611cc4565b9150611c6883611cc4565b925082821015611c7b57611c7a611de5565b5b828203905092915050565b6000611c9182611ca4565b9050919050565b60008115159050919050565b600073ffffffffffffffffffffffffffffffffffffffff82169050919050565b6000819050919050565b82818337600083830152505050565b60005b83811015611cfb578082015181840152602081019050611ce0565b83811115611d0a576000848401525b50505050565b6000611d1b82611cc4565b91506000821415611d2f57611d2e611de5565b5b600182039050919050565b611d4382611e72565b810181811067ffffffffffffffff82111715611d6257611d61611e43565b5b80604052505050565b6000611d7682611cc4565b91507fffffffffffffffffffffffffffffffffffffffffffffffffffffffffffffffff821415611da957611da8611de5565b5b600182019050919050565b6000611dbf82611cc4565b9150611dca83611cc4565b925082611dda57611dd9611e14565b5b828206905092915050565b7f4e487b7100000000000000000000000000000000000000000000000000000000600052601160045260246000fd5b7f4e487b7100000000000000000000000000000000000000000000000000000000600052601260045260246000fd5b7f4e487b7100000000000000000000000000000000000000000000000000000000600052604160045260246000fd5b6000601f19601f8301169050919050565b60008160011c9050919050565b7f7b226e616d65223a220000000000000000000000000000000000000000000000600082015250565b7f3c726563742077696474683d2233303022206865696768743d2233303022207860008201527f3d22302220793d2230222066696c6c3d2223323844374238222f3e0000000000602082015250565b7f222c20226f776e6572223a220000000000000000000000000000000000000000600082015250565b7f4d61644c69622023000000000000000000000000000000000000000000000000600082015250565b7f3c7376672077696474683d2233303022206865696768743d223330302220786d60008201527f6c6e733d22687474703a2f2f7777772e77332e6f72672f323030302f7376672260208201527f20786d6c6e733a786c696e6b3d22687474703a2f2f7777772e77332e6f72672f60408201527f313939392f786c696e6b223e0000000000000000000000000000000000000000606082015250565b7f3c2f703e2020203c2f666f726569676e4f626a6563743e203c2f7376673e0000600082015250565b7f3c73766720786d6c6e733d22687474703a2f2f7777772e77332e6f72672f323060008201527f30302f737667222077696474683d2233303022206865696768743d223330302260208201527f3e2020203c726563742077696474683d2233303022206865696768743d22333060408201527f302220783d22302220793d2230222066696c6c3d2223323844374238222f3e3c60608201527f726563742077696474683d2232393522206865696768743d223239352220783d60808201527f22302220793d2230222066696c6c3d2223423832384437222f3e3c726563742060a08201527f77696474683d2232393022206865696768743d223239302220783d223022207960c08201527f3d2230222066696c6c3d227768697465222f3e2020203c666f726569676e4f6260e08201527f6a65637420783d2230636d2220793d2230636d222077696474683d22323930226101008201527f206865696768743d22333030223e20202020203c7020786d6c6e733d226874746101208201527f703a2f2f7777772e77332e6f72672f313939392f7868746d6c222020202073746101408201527f796c653d22666f6e742d73697a653a31323b223e00000000000000000000000061016082015250565b7f3c726563742077696474683d2232393522206865696768743d2232393522207860008201527f3d22302220793d2230222066696c6c3d2223423832384437222f3e0000000000602082015250565b7f227d000000000000000000000000000000000000000000000000000000000000600082015250565b7f222c2022696d616765223a202200000000000000000000000000000000000000600082015250565b7f222c20226465736372697074696f6e223a220000000000000000000000000000600082015250565b7f222c202265787465726e616c5f75726c223a2268747470733a2f2f6275726e7960008201527f626f79732e636f6d2f746f6b656e2f0000000000000000000000000000000000602082015250565b7f646174613a6170706c69636174696f6e2f6a736f6e3b6261736536342c000000600082015250565b7f54686973206973204d61624c6962732047616d65206f6e436861696e00000000600082015250565b7f3c2f7376673e0000000000000000000000000000000000000000000000000000600082015250565b7f3c726563742077696474683d2232393022206865696768743d2232393022207860008201527f3d22302220793d2230222066696c6c3d227768697465222f3e00000000000000602082015250565b7f646174613a696d6167652f7376672b786d6c3b6261736536342c000000000000600082015250565b61240281611c86565b811461240d57600080fd5b50565b61241981611cc4565b811461242457600080fd5b5056fe4142434445464748494a4b4c4d4e4f505152535455565758595a6162636465666768696a6b6c6d6e6f707172737475767778797a303132333435363738392b2fa26469706673582212208977042dcf8e5dcb1632c60bd4e402aff7fa7b13e7915ecb7111cb67d6c14b4064736f6c63430008040033",
  "linkReferences": {},
  "deployedLinkReferences": {}
}